:100000000C947B0B0C94A30B0C94A30B0C94A30BE0
:100010000C94A30B0C94A30B0C94A30B0C94282FFF
:100020000C94A30B0C94A30B0C94A30B0C94A30B98
:100030000C94A30B0C94A30B0C94A30B0C94A30B88
:100040000C9454250C94A30B0C943D140C9417148D
:100050000C94A30B0C94A30B0C94A30B0C94A30B68
:100060000C94A30B0C94A30BBE241425E424DE24CF
:10007000F924FD24082500000000240027002A00A0
:1000800000000000250028002B00000000002300D5
:1000900026002900040404040404040402020202E9
:1000A000020203030303030301020408102040803B
:1000B00001020408102001020408102000000008BA
:1000C000000201000003040700000000000000001F
:1000D000FFE0FFD11000FFFEFFD0FFE0FFC1FFD126
:1000E000E240A0C8A6A22FF800238127AC00AFFFF2
:1000F00064A5FF64FF64A4FFD0FFFEFE022540005C
:100100000067FE0924005500000000000000007890
:10011000FE0326058F0101AFFE032605870101A717
:10012000FE0426058302FFFFA6FE062605840400C2
:10013000080000ADFE03260503010321FE01410076
:10014000004000101000FE0A06A7089500FFFE0EF2
:10015000FE0BFE1010201000FEAAAA000180000075
:100160000180004A51EA505A51C99E0001800000A6
:100170000180000001800055551010201000FEAADB
:10018000AA00018000000180003993C252325F8AC8
:1001900052719380000001800000018000555510CD
:1001A00010201000FEAAAA00018000000180003B80
:1001B000A5C1243119892471258000000180000027
:1001C00001800055551010201000FEAAAA000180E1
:1001D00000000180007BA5C1247919C12479258004
:1001E0000000018000000180005555101020100013
:1001F000FEAAAA000180000001800079BFC2487AEF
:1002000049C24879898000000180000001800055C2
:10021000551010201000FEAAAA00018000000180E5
:10022000007A4DC2527B53C2D67A4F8000000180C3
:10023000000001800055551010201000FEAAAA00F1
:100240000180000001800031A5CA287A31CA2849FE
:10025000A58000000180000001800055551010208D
:100260001000FEAAAA000180000001800073D1CA1C
:100270001073D1CA1073DF8000000180000001807C
:100280000055551010201000FEAAAA0001800000A1
:100290000180001E3991401E3191081E71800000BE
:1002A0000180000001800055551010201000FEAAAA
:1002B000AA000180000001800022F9A2203E21A2B4
:1002C000202221800000018000000180005555108F
:1002D00010201000FEAAAA0001800000018000206A
:1002E000F9A08020F9A0803E8180000001800000FC
:1002F00001800055551010201000FEAAAA000180B0
:10030000000001800022F9A22022219420082180EF
:1003100000000180000001800055551010201000E1
:10032000FEAAAA00018000000180003EF9A0803EE4
:10033000F9A080208180000001800000018000552C
:10034000551010201000FEAAAA00018000000180B4
:10035000001EF1A08820F1A0901E8980000001807D
:10036000000001800055551010201000FEAAAA00C0
:10037000018000000180001E71A0881C8982883CD9
:100380007180000001800000018000555510102090
:100390001000FEAAAA00018000000180001EF9A042
:1003A000201C2182203CF980000001800000018097
:1003B0000055551010201000FEAAAA000180000070
:1003C000018000391DA510251DA51039DD80000014
:1003D0000180000001800055551010201000FEAA79
:1003E000AA00018000000180007189CA184A09CA68
:1003F00008719D80000001800000018000555510AB
:1004000010201000FEAAAA000180000001800071E7
:1004100099CA044A09CA10719D8000000180000039
:1004200001800055551010201000FEAAAA0001807E
:1004300000000180007199CA044A19CA04719980A8
:1004400000000180000001800055551010201000B0
:10045000FEAAAA00018000000180007185CA0C4A32
:1004600015CA1C71858000000180000001800055C4
:10047000551010201000FEAAAA0001800000018083
:10048000004993EA546A59DBD44A53800000018042
:10049000000001800055551010201000FEAAAA008F
:1004A000018000000180003453C29A311789127113
:1004B00013800000018000000180005555101020BD
:1004C0001000FEAAAA00018000000180007BB9C1D3
:1004D000247939C12479398000000180000001802D
:1004E0000055551010201000FEAAAA00018000003F
:1004F0000180003325C4B447ADC4A434A5800000F6
:100500000180000001800055551010201000FEAA47
:10051000AA00018000000180003E89A0D83EA9A069
:10052000883E898000000180000001800055551040
:1005300010201000FEAAAA00018000000180003AED
:100540005DC252325D8A52719D80000001800000C0
:1005500001800055551010201000FEAAAA0001804D
:10056000000001800079CFC2107991C0507B8F804C
:10057000000001800000018000555510102010007F
:10058000FEAAAA00018000000180001E7190801E5A
:1005900061901010E1800000018000000180005592
:1005A000551010201000FEAAAA0001800000018052
:1005B000000E719080166192100EE18000000180A3
:1005C000000001800055551010201000FEAAAA005E
:1005D000018000000180001C7192801C6194101247
:1005E000E1800000018000000180005555101020BE
:1005F0001000FEAAAA000180000001800012719282
:1006000080126192100CE1800000018000000180E6
:1006100000555500000008000E010A0A0804008079
:100620008080808080800080800504040802088823
:10063000888888060A0A080100242424FC4848FC0B
:10064000909090070A0A080100107C9290701C128A
:10065000927C10070A0A0801006294946810102C1A
:1006600052528C070A0A0801003844442830528A42
:10067000848C7201040408040880808080030C0CC0
:100680000803FF204040808080808080404020031D
:100690000C0C0802FF8040402020202020204040F9
:1006A0008007070708010110925438549210070779
:1006B00007080101101010FE1010100204040803B6
:1006C000FEC0404080040101080204F0020202085A
:1006D0000300C0C0060A0A08010004040810102024
:1006E00020408080060A0A080100304884848484FF
:1006F00084844830050A0A0802002060A0202020D7
:10070000202020F8060A0A080100788484041820B2
:10071000408080FC060A0A080100788484043804BA
:1007200004848478060A0A08010008182848888882
:10073000FC080808060A0A080100FC808080F8040A
:1007400004048478060A0A08010038408080F8848E
:1007500084848478060A0A080100FC040408080856
:1007600010101010060A0A08010078848484788426
:1007700084848478060A0A080100788484847C04CE
:1007800004040870020707080301C0C0000000C08D
:10079000C00209090803FFC0C0000000C04040803B
:1007A00005090908020008102040804020100806B2
:1007B0000505080102FC000000FC0509090801000C
:1007C000804020100810204080060A0A08010078A6
:1007D000848404081010001010060A0A080100386A
:1007E0004494ACA4A4A49C403C060A0A080100302E
:1007F00048488484FC84848484060A0A080100F83A
:10080000848484F884848484F8060A0A08010078C1
:10081000848480808080848478060A0A080100F03D
:100820008884848484848488F0060A0A080100FC91
:10083000808080F880808080FC060A0A080100FC25
:10084000808080F88080808080060A0A0801007815
:10085000848480809C84848C74060A0A0801008445
:10086000848484FC8484848484050A0A080200F851
:100870002020202020202020F8070A0A0801003E1E
:10088000080808080808888870060A0A0801008411
:100890008890A0C0C0A0908884060A0A0801008041
:1008A0008080808080808080FC060A0A08010084A5
:1008B00084CCCCB4B484848484060A0A08010084FD
:1008C000C4C4A4A494948C8C84060A0A08010078F9
:1008D000848484848484848478060A0A080100F865
:1008E000848484F88080808080070B0B0801FF7867
:1008F000848484848484B4CC7806060A0A080100BF
:10090000F8848484F89088888484060A0A080100A0
:1009100078848480601804848478070A0A080100B7
:10092000FE101010101010101010060A0A08010016
:1009300084848484848484848478070A0A08010077
:1009400082828244444428281010060A0A080100C2
:1009500084848484B4B4CCCC8484060A0A0801005C
:1009600084844848303048488484070A0A080100D3
:1009700082824444281010101010060A0A08010050
:10098000FC0404081020408080FC030C0C0804FFC9
:10099000E080808080808080808080E0060A0A0875
:1009A000010080804020201010080404030C0C0873
:1009B00001FFE020202020202020202020E006032E
:1009C000030801093048840701010801FFFE030301
:1009D0000308020A80402006080808010078840401
:1009E0007C84848C74060B0B080100808080B8C462
:1009F00084848484C4B80608080801007884808050
:100A000080808478060B0B080100040404748C8435
:100A10008484848C74060808080100788484FC802F
:100A2000808478050B0B08010018202020F8202076
:100A300020202020060B0B0801FE04748888887093
:100A40004078848478060B0B080100808080B8C44D
:100A5000848484848484050B0B08020020200060B9
:100A6000202020202020F8050D0D0801FE08080098
:100A700018080808080808089060060B0B08010011
:100A80008080808890A0C0A0908884050B0B08020D
:100A90000060202020202020202020F807080808BF
:100AA0000100EC929292929292920608080801003C
:100AB000B8C4848484848484060808080100788487
:100AC000848484848478060A0A0801FEB8C4848475
:100AD0008484C4B88080060A0A0801FE748C848469
:100AE00084848C740404060808080100B8C4848057
:100AF00080808080060808080100788480601804DF
:100B00008478050A0A080100202020F820202020EF
:100B100020180608080801008484848484848C7466
:100B200006080808010084848448484830300708D3
:100B300008080100829292929292926C060808082C
:100B400001008484483030488484060A0A0801FE83
:100B500084848484844C34040478060808080100E2
:100B6000FC040810204080FC030C0C0803FF60808C
:100B700080404080804040808060010E0E0804FE6E
:100B80008080808080808080808080808080030C56
:100B90000C0802FFC020204040202040402020C000
:100BA00007030308010862928C1010201000FEAAAF
:100BB000AA000180000001800073D1CA104BD1CA85
:100BC0001073DF8000000180000001800055551087
:100BD00010201000FEAAAA00018000000180007110
:100BE0009DCA5273D3C252425D8000000180000052
:100BF00001800055551010201000FEAAAA000180A7
:100C00000000018000499DCA527A5DCA5049918016
:100C100000000180000001800055551010201000D8
:100C2000FEAAAA00018000000180007393CA5273DB
:100C30009FCA1272138000000180000001800055DD
:100C4000551010201000FEAAAA00018000000180AB
:100C5000004B93EA525B9FCA524B93800000018085
:100C6000000001800055551010201000FEAAAA00B7
:100C70000180000001800074B9A6A425A5A4A47475
:100C8000B98000000180000001800055551010203F
:100C90001000FEAAAA00018000000180004BD1EAEA
:100CA000105BD1CA104BDF80000001800000018082
:100CB0000055551010201000FEAAAA000180000067
:100CC00001800039CDC212319F8852739380000099
:100CD0000180000001800055551010201000FEAA70
:100CE000AA000180000001800079CDC212799FC066
:100CF000527B938000000180000001800055551058
:100D000010201000FEAAAA00018000000180004B04
:100D10009DC9207919C9044939800000018000006B
:100D200001800055551010201000FEAAAA00018075
:100D3000000001800025DDA4843C85A484249980E2
:100D400000000180000001800055551010201000A7
:100D5000FEAAAA000180000001800045CDC4904495
:100D600089A884109980000001800000018000554E
:100D7000551010201000FEAAAA000180000001807A
:100D800000721DCA127213C21243DD80000001807E
:100D9000000001800055551010201000FEAAAA0086
:100DA000018000000180007213CA127213C2124344
:100DB000CD800000018000000180005555101020FA
:100DC0001000FEAAAA00018000000180000E218907
:100DD000200E218A2009218000000180000001806E
:100DE0000055551010201000FEAAAA000180000036
:100DF00001800039DDC202318D8850739F80000070
:100E00000180000001800055551010201000FEAA3E
:100E1000AA000180000001800039DDC202318D8806
:100E200042739D8000000180000001800055551034
:100E300010201000FEAAAA000180000001800071AD
:100E4000CFCA104A0DCA0271DD8000000180000087
:100E500001800055551010201000FEAAAA00018044
:100E600000000180007245CA4C7245C244418F8027
:100E70000000018000000180005555101020100076
:100E8000FEAAAA0001800000018000725DCA4272C1
:100E90004DC250419F80000001800000018000553C
:100EA000551010201000FEAAAA0001800000018049
:100EB000003B9DC1203119890471398000000180F7
:100EC000000001800055551010201000FEAAAA0055
:100ED0000180000001800039D3C212421FC21239C2
:100EE000D3800000018000000180005555101020C3
:100EF0001000FEAAAA00018000000180002289B62D
:100F0000882AA9A2D82289800000018000000180DF
:100F10000055551010201000FEAAAA000180000004
:100F20000180003B8DC252339F8A127213800000F1
:100F30000180000001800055551010201000FEAA0D
:100F4000AA00018000000180007B8DC2527B9FC2FD
:100F5000127A1380000001800000018000555510B6
:100F600010201000FEAAAA000180000001800039B4
:100F70008FC250324D8A42719D8000000180000076
:100F800001800055551010201000FEAAAA00018013
:100F90000000018000339BC42225A394A2639B80A0
:100FA0000000018000000180005555101020100045
:100FB000FEAAAA000180000001800039DDC20832CB
:100FC000098A0871DD800000018000000180005561
:100FD000551010201000FEAAAA0001800000018018
:100FE0000039DDC2084189C0483B9D800000018076
:100FF000000001800055551010201000FEAAAA0024
:10100000018000000180000EF990200C2182201C3C
:101010002180000001800000018000555510102043
:101020001000FEAAAA000180000001800031CFCA92
:10103000104991C850338F8000000180000001806A
:101040000055551010201000FEAAAA0001800000D3
:101050000180001C8992D81CA9908810898000000A
:101060000180000001800055551010201000FEAADC
:10107000AA0001800000018000338FCA507B91CA12
:10108000104A0F80000001800000018000555500CB
:10109000000008000E010A0A080400808000808019
:1010A0008080808080070A0A08010010107C9290DE
:1010B00090927C1010070A0A0801001C202020F8DA
:1010C0002020207CC206080808010184487848488E
:1010D000784884070A0A08010082442810FE10FE9E
:1010E000101010010A0A080400808080800000802F
:1010F000808080060A0A08010078848078848478D9
:1011000004847804020208020C9090080A0A08007D
:10111000003C4299A5A1A1A599423C0507070802F8
:1011200005700878887800F8060909080100242469
:1011300048489048482424060404080100FC04049C
:10114000041010201000FEAAAA000180003A63C219
:101150005433C98A48724980000001800003C1806D
:1011600000000180005555080A0A0800003C42B9F9
:10117000A5A5B9A9A5423C06010108010BFC030481
:101180000408020A40A0A040070909080101101044
:1011900010FE10101000FE050707080205708808F1
:1011A000708080F8050707080205708808700888B5
:1011B0007003030308030A204080080A0A0800FE9F
:1011C00042424242424266594080060C0C0801FFEE
:1011D0007CF4F4F4F47414141414141C02020208C1
:1011E0000304C0C00302020802FE20C00307070870
:1011F00002052060A02020202005070708020570B6
:101200008888887000F8060909080100909048480D
:101210002448489090060A0A08010044C4485050E7
:10122000242C549C84060A0A08010044C4485050E7
:10123000283444889C060A0A080100C4244830D097
:10124000242C549C84060A0A080100101000101077
:101250006084848478060E0E080100601800003057
:1012600048488484FC84848484060E0E0801001897
:101270006000003048488484FC84848484060E0E18
:10128000080100304800003048488484FC8484848D
:1012900084060E0E080100649800003048488484DB
:1012A000FC84848484060E0E080100484800003047
:1012B00048488484FC84848484060E0E080100302F
:1012C0004830003048488484FC84848484070A0AB7
:1012D0000801003E509090FE909090909E060C0C5D
:1012E0000801FE7884848080808084847810600681
:1012F0000E0E08010060180000FC808080F88080DD
:101300008080FC060E0E08010018600000FC808042
:1013100080F880808080FC060E0E080100304800B6
:1013200000FC808080F880808080FC060E0E080122
:101330000048480000FC808080F880808080FC05A8
:101340000E0E08020060180000F820202020202047
:101350002020F8050E0E08020030C00000F8202002
:10136000202020202020F8050E0E080200609000AA
:1013700000F82020202020202020F8050E0E080252
:101380000090900000F82020202020202020F80746
:101390000A0A08000078444242F242424244780677
:1013A0000E0E0801006498000084C4C4A4A49494A0
:1013B0008C8C84060E0E080100601800007884846E
:1013C00084848484848478060E0E080100186000EA
:1013D0000078848484848484848478060E0E0801D2
:1013E000003048000078848484848484848478066F
:1013F0000E0E08010064980000788484848484843C
:10140000848478060E0E0801004848000078848421
:101410008484848484847806050508010284483025
:101420004884060C0C0801FF0474888C9494A4A4CE
:10143000C444B880060E0E080100601800008484C1
:101440008484848484848478060E0E0801001860E5
:10145000000084848484848484848478060E0E0846
:1014600001003048000084848484848484848478E7
:10147000060E0E0801004848000084848484848499
:1014800084848478070E0E080100186000008282B0
:101490004444281010101010060B0B080100808027
:1014A000F088848488F0808080060A0A0801007031
:1014B000888890B0888484A498060C0C0801006089
:1014C0001800007884047C84848C74060C0C080159
:1014D00000186000007884047C84848C74060C0CF2
:1014E000080100304800007884047C84848C7406F1
:1014F0000C0C080100649800007884047C84848CBF
:1015000074060C0C080100484800007884047C84B0
:10151000848C74060D0D080100304830000078847A
:10152000047C84848C740708080801007C92127E75
:101530009090927C060A0A0801FE78848080808060
:1015400084781060060C0C08010060180000788494
:1015500084FC80808478060C0C0801001860000070
:10156000788484FC80808478060C0C080100304864
:101570000000788484FC80808478060C0C080100CC
:1015800048480000788484FC80808478050C0C082E
:101590000200C030000060202020202020F8050C30
:1015A0000C08020030C0000060202020202020F81D
:1015B000050C0C0802006090000060202020202014
:1015C00020F8050C0C0802009090000060202020FC
:1015D000202020F8060C0C08010064182844047C24
:1015E000848484848478060C0C08010064980000CC
:1015F000B8C4848484848484060C0C0801006018B8
:1016000000007884848484848478060C0C080100AB
:10161000186000007884848484848478060C0C0824
:101620000100304800007884848484848478060C27
:101630000C08010064980000788484848484847891
:10164000060C0C08010048480000788484848484D7
:101650008478060707080101300000FC000030060E
:101660000A0A0801FF04788C9494A4A4C478800624
:101670000C0C080100601800008484848484848C2D
:1016800074060C0C080100186000008484848484B3
:10169000848C74060C0C080100304800008484849B
:1016A0008484848C74060C0C080100484800008473
:1016B00084848484848C74060E0E0801FE186000F5
:1016C0000084848484844C34040478050C0C08025F
:1016D000FE8080F088888890A0C0808080060E0EF2
:1016E0000801FE4848000084848484844C34040447
:1016F00078004A35433711241FBECFEFD8E0DEBF54
:10170000CDBF13E0A0E0B1E0E2E6F7E702C005904C
:101710000D92AE39B107D9F725E0AEE9B3E001C0CB
:101720001D92AE3CB207E1F71BE0CAE7DBE004C064
:101730002197FE010E94593BC937D107C9F70E9482
:1017400001370C94A43B0C9400002F923F924F92CF
:101750005F926F927F928F929F92AF92BF92CF9241
:10176000DF92EF92FF920F931F93CF93DF93CDB74A
:10177000DEB766970FB6F894DEBF0FBECDBFDC01B3
:101780005296ED90FC90539782E494E09C878B876F
:1017900080913F0490E09E878D8780910C0590E0BA
:1017A000988B8F8780913B04853009F043C68091E8
:1017B000440490914504885891098D35910588F429
:1017C00080913F04843041F4809146049091470415
:1017D0008097479708F4FBC180913F04843408F058
:1017E000DDC180913F048A3108F446C080914204F3
:1017F00090914304843F914050F41A8619868FEFEC
:101800009FEFDC018D839E83AF83B8874FC08091AB
:1018100044049091450485974B9770F5E8E4F4E013
:1018200082E090E040E050E0BA018C010F5F1F4F72
:1018300020913F0430E0021713076CF49F012250FF
:101840003109D9012D913C912750310927303105BB
:1018500008F4F1C1C8010197959587959A87898702
:101860000C971CF41A86198607C04D835E836F831C
:10187000788784E090E0F3C280913F048A3108F4D5
:1018800045C080914204909143048032934008F413
:10189000B4CF8091440490914504C697869708F48C
:1018A000E6C134C04D835E836F8378878BE090E020
:1018B000D6C220813181255231092B31310508F002
:1018C000E6C1440F551F661F771F4160029634968C
:1018D0008C010F5F1F4F20913F0430E00217130768
:1018E00064F49F0122503109D9012D913C912C5073
:1018F00031092B303105E8F2C8010197959587959C
:101900009A8789870C9774F61A86198680913F0406
:10191000823208F441C080914404909145040697B6
:101920000797D0F5E8E4F4E022E030E040E050E052
:10193000BA01C9010196A0913F04B0E08A179B0744
:10194000CCF4DF0112970D911C9111970E511109E2
:101950000731110508F0A8C1440F551F661F771FF6
:101960004160A081B18134961397159720F42E5FC2
:101970003F4FDFCFC9010197959587959A87898752
:1019800040971CF41A86198607C04D835E836F83C7
:1019900078878CE090E063C21C8A1B8A81E090E02B
:1019A0009A8B898B80913F048D3008F479C009E7C8
:1019B00013E09E012D5E3F4FAE014F5E5F4FBE01B3
:1019C0006F5F7F4FC7010E94B42E892B09F068C05A
:1019D0009E012D5E3F4FAE014F5E5F4FBE016F5FB8
:1019E0007F4FC7010E94B42E019709F059C09E0194
:1019F0002D5E3F4FAE014F5E5F4FBE016F5F7F4F69
:101A0000C7010E94B42E892B09F04AC0412C512CE9
:101A10003201C12CD12C80913F0490E029893A8970
:101A200028173907A4F509E713E09E012D5E3F4F03
:101A3000AE014F5E5F4FBE016F5F7F4FC7010E94D7
:101A4000B42E5C019E012D5E3F4FAE014F5E5F4F95
:101A5000BE016F5F7F4FC7010E94B42EB1E0AB168D
:101A6000B10449F4892BE1F4440C551C661C771C25
:101A7000689440F808C0AB2899F4019789F4440CA5
:101A8000551C661C771CEFEFCE1ADE0AC4CFDA862F
:101A9000C9864D825E826F82788681E090E0DFC1E8
:101AA0001C8A1B8A81E090E09A8B898B8D859E85AC
:101AB000181619060CF069C0EB85FC8582E090E0F1
:101AC0009A8B898B8281938189974E9708F05DC0AC
:101AD00083E090E09A8B898B848195810B970A979C
:101AE00008F053C00CEB11E09E012D5E3F4FAE019C
:101AF0004F5E5F4FCE0101965C01BC01C7010E94A1
:101B0000B42E892B09F041C00CEB11E09E012D5E33
:101B10003F4FAE014F5E5F4FB501C7010E94B42E2B
:101B2000019799F5412C512C3201C12CD12C3A2C22
:101B30002B2C29893A898D859E85281739070CF029
:101B4000FFC00CEB11E09E012D5E3F4FAE014F5EDA
:101B50005F4F632D722DC7010E94B42E4C01F3E03C
:101B6000CF16D10409F0ACC00CEB11E09E012D5E44
:101B70003F4FAE014F5E5F4F632D722DC7010E9434
:101B8000B42E8816990609F49BC0EB85FC858281EA
:101B90009381C697869708F4DCC07FC18091460484
:101BA00090914704825491098E9708F01ACE20E054
:101BB00030E080E090E0DC01F901E85BFB4F408120
:101BC0005181495051094930510578F00ACE809130
:101BD0004804909149040997099708F0FDCD1A86A9
:101BE00019868FEF9FEFDC0151C1F901E65BFB4FD6
:101BF00040815181475151094231510578F4880F94
:101C0000991FAA1FBB1F81602C5F3F4F20383105F1
:101C100099F620E230E03A87298738C14081518126
:101C2000465051094730510508F0DBCD880F991F08
:101C3000AA1FBB1FE9CF20813181235131092F30E9
:101C4000310540F4440F551F661F771F416002960F
:101C50003496EBCD208131812A503109293031056C
:101C600008F00ACE440F551F661F771FF0CF8091F2
:101C7000460490914704C697869708F047CEEAE459
:101C8000F4E083E090E040E050E0BA0121CE208112
:101C900031812C5031092A30310508F037CE440FFC
:101CA000551F661F771F12CE0D90BC91A02D1C975B
:101CB0001B9708F071CE440F551F661F771F51CE3A
:101CC0000CEB11E09E012D5E3F4FAE014F5E5F4F6A
:101CD000632D722DC7010E94B42E5C0123E0C21651
:101CE000D10489F40CEB11E09E012D5E3F4FAE0153
:101CF0004F5E5F4F632D722DC7010E94B42EA81650
:101D0000B90609F042CF8114910459F4AA94AB2882
:101D100009F03BCF440C551C661C771C689440F8B6
:101D20000BC08A94892809F030CFAB2809F02DCF59
:101D3000440C551C661C771CAFEFCA1ADA0AF9CEA0
:101D4000DA86C9864D825E826F82788682E090E074
:101D500086C0848195814B97459708F09EC0DF012E
:101D600016967F0196ECE90EF11C20E030E040E091
:101D700050E060E070E080E090E00D911C911197E0
:101D8000095011090830110508F087C012960D910D
:101D90001C911397015111090D301105D0F401E088
:101DA0000E945F3B21601496AE15BF0531F72D836D
:101DB0003E834F83588700E20E947A3B2B833C830B
:101DC00085E090E09A83898380E390E09A87898711
:101DD00048C012960D911C911397045011090530BB
:101DE000110508F05AC001E00E945F3BDCCF98016A
:101DF00022503109D9012D913C91295031092830C7
:101E0000310508F0F8C0BC016F5F7F4FD8012D91FC
:101E10003C91275031092730310508F0BDC2440FED
:101E2000551F416002960C5F1F4F20913F0430E028
:101E30002450310982179307D4F20197959587951D
:101E40009A8789878A970CF4D6C0052E000C660BFA
:101E5000770B4D835E836F83788789E090E09A8368
:101E6000898382E080933B0410923F0480E593E0F5
:101E70000E9464136D817E818F8198854AE00E9463
:101E800076138CE593E00E946413D4C28D839E8305
:101E9000AF83B88783E090E0E2CF80913F0489333D
:101EA00070F182819381895791098335910508F4F6
:101EB00038C125C0D90112966D917C911397665156
:101EC00071096131710508F052C1D701C601880F4F
:101ED000991FAA1FBB1F6C017D016894C0F84E5F5B
:101EE0005F4F2C5F3F4F4B33510509F429C1D90196
:101EF0006D917C916A50710969307105D8F28091B9
:101F00003F04823231F4828193810A97099708F461
:101F10003EC1828193818957910983359105D0F41F
:101F200080913F048132B0F084819581CA9789976E
:101F300088F49F012A5F3F4FC12CD12C760143E0EA
:101F400050E0D9016D917C916A5071096930710539
:101F500008F436C1828193818C549109C59778F435
:101F600080913F04843031F4848195818097479734
:101F700008F47FC180913F04843408F061C18091EE
:101F80003F04863460F1828193810C970B9708F4AB
:101F9000B2C125C0D90112966D917C9113976E51F3
:101FA00071096731710508F0D8C1D701C601880FE2
:101FB000991FAA1FBB1F6C017D016894C0F84E5F7A
:101FC0005F4F2C5F3F4F4534510509F4AFC1D90134
:101FD0006D917C916C5071096B307105D8F28091D4
:101FE0003F04883540F082819381855891098B3573
:101FF000910508F4C2C180913F048032E1F48281EE
:10200000938106970697B8F484819581099709977B
:1020100090F49F012A5F3F4FBF01625C7F4FC12C4C
:10202000D12C7601D9014D915C9146505109463031
:10203000510508F4BEC18D859E859E8B8D8B0697BC
:102040000CF4ECC18F010A5F1F4F73E0272E312C77
:10205000E5ECCE2EEDE9DE2EECE1EE2EE1E8FE2EF3
:10206000D8016D917C91F8013497A080B18080E017
:1020700090E00E9479382B013C01B50180E090E0AE
:102080000E9479384B015C012DEC3CEC4CE45FE3A1
:102090000E94DA389B01AC01C301B2010E9474387E
:1020A00087FD17C02DEC3CEC4CE45FE3C301B201AB
:1020B0000E94DA389B01AC01C501B4010E9474385A
:1020C000E82F880FFF0BEE27FF0FEE1FFF2731963B
:1020D00002C0E0E0F0E0A701960163E971E080E072
:1020E00091E00E94273B6F01FF0FEE08FF08C62614
:1020F000D726E826F926BFEF2B1A3B0A0E5F1F4FA3
:10210000ED89FE892E163F0609F0AACFCD82DE8228
:10211000EF82F88680E290E09A8789878FEF9FEFC1
:102120009ECE84819581CA97899708F0E8CE9F0159
:102130002A5F3F4FC12CD12C760143E050E0D7CE2F
:102140009F012A583F4FD9012D913C912A503109C6
:102150002930310508F0D3CE2CE130E03A872987C9
:10216000CD82DE82EF82F8868AE090E078CED901D7
:1021700012966D917C9113976650710967307105C5
:1021800008F0BDCECC0CDD1CEE1CFF1CA8CE2091AF
:102190003F04CF01820F911D820F911DDC01129728
:1021A0008D919C910A97099708F0B3CE1A861986EB
:1021B0008FEF9FEFDC018D839E83AF83B88734C19F
:1021C000D90112966D917C91139766517109613115
:1021D000710558F112966D917C91139766507109B3
:1021E0006730710508F0B6CECC0CDD1CEE1CFF1C70
:1021F0004E5F5F4F2C5F3F4F4332510509F0A1CE38
:102200009F012A5B3F4FD9012D913C912A50310902
:102210002930310508F09ECE20E130E03A87298749
:10222000CD82DE82EF82F886FFC0D701C601880F1B
:10223000991FAA1FBB1F6C017D016894C0F8D8CFFD
:102240008481958189549109C39708F098CE9F01A4
:102250002A5F3F4FBF016A577F4FC12CD12C7601B7
:10226000D9014D915C91495051094930510588F08F
:1022700086CE868197810997099708F07BCE1A86CA
:1022800019868FEF9FEFDC018D839E83AF83B88724
:10229000CEC0D90112964D915C91139746515109C8
:1022A00041315105C0F4D701C601880F991FAA1FFB
:1022B000BB1F6C017D016894C0F82C5F3F4F26174F
:1022C000370771F620E230E03A872987CD82DE8237
:1022D000EF82F886ACC0D90112964D915C911397AC
:1022E000465051094730510508F049CECC0CDD1C51
:1022F000EE1CFF1CE2CF848195810997099708F0B5
:102300006ECE868197818C974F9708F068CE808536
:10231000918589974D9708F062CE9F01265F3F4FC8
:10232000C12CD12C760145E050E051CE9F012657BB
:102330003F4FD9012D913C912C5031092B30310563
:1023400008F04DCE20E230E03A872987CD82DE8248
:10235000EF82F88688E090E082CDD90112966D91E7
:102360007C911397695071096930710508F037CE77
:10237000CC0CDD1CEE1CFF1C22CE84819581825486
:1023800091098E9708F037CE8F01045C1F4F8DE1C5
:1023900090E040E050E049CDD8012D913C9128518A
:1023A00031092231310510F0CB0147CD440F551FC3
:1023B00039CDD90112964D915C911397495151092C
:1023C00043315105D8F4D701C601880F991FAA1FC0
:1023D000BB1F6C017D016894C0F82C5F3F4F26172E
:1023E000370709F01FCE2EE030E03A872987CD82EB
:1023F000DE82EF82F8868FE090E031CDD90112962F
:102400004D915C911397495051094930510508F09D
:1024100012CECC0CDD1CEE1CFF1CDFCF82E08093C3
:102420003B0410923F0406C086E090E018CD87E0A0
:1024300090E015CD66960FB6F894DEBF0FBECDBF07
:10244000DF91CF911F910F91FF90EF90DF90CF9090
:10245000BF90AF909F908F907F906F905F904F90C4
:102460003F902F900895CF92DF92EF92FF920F93BB
:102470001F93CF93DF936C017A018B01C0E0D0E012
:10248000CE15DF0589F0D8016D918D01D601ED9152
:10249000FC910190F081E02DC6010995892B11F482
:1024A0007E0102C02196ECCFC701DF91CF911F9131
:1024B0000F91FF90EF90DF90CF900895FC01538D26
:1024C000448D252F30E0842F90E0821B930B54170E
:1024D00010F0CF96089501970895FC01918D828D9B
:1024E000981761F0828DDF01A80FB11D5D968C9168
:1024F000928D9F5F9F73928F90E008958FEF9FEF73
:102500000895FC01918D828D981731F0828DE80F2E
:10251000F11D858D90E008958FEF9FEF0895FC01E8
:10252000918D228D892F90E0805C9F4F821B9109B5
:102530008F73992708958EE993E00E948F1221E00E
:10254000892B09F420E0822F0895FC01848DDF019E
:10255000A80FB11DA35ABF4F2C91848D90E0019616
:102560008F739927848FA689B7892C93A089B18905
:102570008C9180648C93938D848D981306C002880F
:10258000F389E02D80818F7D80830895EF92FF9203
:102590000F931F93CF93DF93EC0181E0888F9B8D86
:1025A0008C8D981305C0E889F989808185FD24C048
:1025B000F62E0B8D10E00F5F1F4F0F731127E02ECB
:1025C0008C8DE8120CC00FB607FCFACFE889F989A8
:1025D000808185FFF5CFCE010E94A512F1CF8B8DB2
:1025E000FE01E80FF11DE35AFF4FF0820B8FEA89DD
:1025F000FB898081806207C0EE89FF896083E8895A
:10260000F98980818064808381E090E0DF91CF91BF
:102610001F910F91FF90EF900895CF93DF93EC01FE
:10262000888D8823C9F0EA89FB89808185FD05C0F2
:10263000A889B9898C9186FD0FC00FB607FCF5CF2C
:10264000808185FFF2CFA889B9898C9185FFEDCF74
:10265000CE010E94A512E7CFDF91CF91089580E0CF
:1026600090E0892B29F00E949B1281110C940000AC
:102670000895833081F028F4813099F08230A1F000
:1026800008958730A9F08830B9F08430D1F4809172
:1026900080008F7D03C0809180008F7780938000C1
:1026A000089584B58F7702C084B58F7D84BD089569
:1026B0008091B0008F7703C08091B0008F7D8093B0
:1026C000B00008950E94963B009769F0FC010190CC
:1026D0000020E9F73197AF01481B590BBC018EE987
:1026E00093E00C94331280E090E008958F929F92D3
:1026F000AF92BF920F931F93CF93DF93CDB7DEB707
:10270000A1970FB6F894DEBF0FBECDBF19A242301D
:1027100008F44AE08E010F5D1F4F842E912CA12CEE
:10272000B12CA50194010E94373BE62FB901CA01E3
:1027300001501109EA3014F4E05D01C0E95CD801F0
:10274000EC93232B242B252B61F7C8010E946413E3
:10275000A1960FB6F894DEBF0FBECDBFDF91CF912B
:102760001F910F91BF90AF909F908F900895CF923F
:10277000DF92EF92FF92CF93DF936C01990FEE08F7
:10278000FF08F7FE1AC0E0919E03F0919F030190AD
:10279000F081E02D6DE28EE993E00995EC0166276A
:1027A0007727CB016C197D098E099F094AE00E94A9
:1027B00076137C01EC0EFD1E06C04AE0C701B6018F
:1027C0000E9476137C018CE593E00E9464138E0DC9
:1027D0009F1DDF91CF91FF90EF90DF90CF900895F4
:1027E0000F931F93CF93DF9361157105D9F0EB0120
:1027F0008C018CE090E00E944737FC01148281E05C
:10280000858317821682D183C08388EB9BE09383F4
:102810008283BF01C8014296DF91CF911F910F9132
:102820000C947019DF91CF911F910F9108951F9211
:102830000F920FB60F9211242F933F934F935F93F4
:102840006F937F938F939F93AF93BF93EF93FF9378
:102850008EE993E00E94A512FF91EF91BF91AF9195
:102860009F918F917F916F915F914F913F912F91A8
:102870000F900FBE0F901F9018951F920F920FB6DA
:102880000F9211242F938F939F93EF93FF93E091D7
:10289000AE03F091AF038081E091B403F091B503F2
:1028A00082FD12C090818091B7038F5F8F7320915A
:1028B000B803821751F0E091B703F0E0E256FC4F05
:1028C000958F8093B70301C08081FF91EF919F9115
:1028D0008F912F910F900FBE0F901F901895CF934F
:1028E000DF93282F30E0F901E454FF4F8491F90180
:1028F000E855FF4FD491F901EC56FF4FC491CC231A
:1029000091F081110E943913EC2FF0E0EE0FFF1FC0
:10291000E657FF4FA591B491EC91ED2381E090E053
:1029200021F480E002C080E090E0DF91CF91089533
:102930001F93CF93DF93282F30E0F901E454FF4F2A
:102940008491F901E855FF4FD491F901EC56FF4FFE
:10295000C491CC23C9F0162F81110E943913EC2F9A
:10296000F0E0EE0FFF1FE058FF4FA591B4918FB735
:10297000F894111105C09C91ED2FE095E92302C058
:10298000EC91ED2BEC938FBFDF91CF911F910895C8
:10299000CF93DF9390E0FC01E855FF4F2491FC01B9
:1029A000EC56FF4F8491882361F190E0880F991FC6
:1029B000FC01EA58FF4FC591D491FC01E058FF4F4C
:1029C000A591B491611109C09FB7F89488812095B1
:1029D00082238883EC912E230BC0623061F49FB771
:1029E000F8943881822F809583238883EC912E2B55
:1029F0002C939FBF06C08FB7F894E8812E2B2883B5
:102A00008FBFDF91CF9108958F929F92AF92BF9227
:102A1000CF92DF92EF92FF926B017C010E942325FF
:102A20004B015C01C114D104E104F104F1F00E94F6
:102A30002325DC01CB0188199909AA09BB09883E25
:102A40009340A105B10570F321E0C21AD108E10855
:102A5000F10888EE880E83E0981EA11CB11CC114F9
:102A6000D104E104F10419F7DDCFFF90EF90DF907E
:102A7000CF90BF90AF909F908F900895CF93DF93AA
:102A8000EC01E881F9810190F081E02DCE010995FA
:102A90001816190644F4E881F9810684F785E02DBB
:102AA000CE010995EECFDF91CF910895DC01149608
:102AB000ED91FC9115971C968C911C97882361F0E1
:102AC0001A962D913C911B97621773072CF018965C
:102AD000ED91FC9119970AC020E030E007C03097D3
:102AE000C9F00280F381E02D2F5F3F4F2617370793
:102AF000B4F32617370771F481E01C968C931C976A
:102B00001B963C932E931A971996FC93EE93189765
:102B1000CF01089580E090E00895CF93DF9377FD93
:102B20000EC0FC01228133816217730744F4EA016D
:102B30000E945615FC01D183C08381E001C080E072
:102B4000DF91CF9108950E945615009721F0FC0166
:102B500080819181089580E090E00895FC01828158
:102B600093810895EF92FF920F931F93CF93DF937A
:102B70008C01C0E0D0E07C0182E1E80EF11CF8019C
:102B800024893589C217D30784F4BE01C7010E9486
:102B9000A315DC018D919C91DC01ED91FC910480E9
:102BA000F581E02D09952196EACF82E38283DF91BA
:102BB000CF911F910F91FF90EF900895CF93DF93E6
:102BC000EC01E881F9810190F081E02DCE010995B9
:102BD0001816190644F4E881F9810684F785E02D7A
:102BE000CE010995EECFDF91CF910895DC011496C7
:102BF000ED91FC9115971C968C911C97882361F0A0
:102C00001A962D913C911B97621773072CF018961A
:102C1000ED91FC9119970AC020E030E007C0309791
:102C2000C9F00280F381E02D2F5F3F4F2617370751
:102C3000B4F32617370771F481E01C968C931C9728
:102C40001B963C932E931A971996FC93EE93189724
:102C5000CF01089580E090E00895CF93DF9377FD52
:102C60000EC0FC01228133816217730744F4EA012C
:102C70000E94F615FC01D183C08381E001C080E091
:102C8000DF91CF9108950E94F615009721F0FC0185
:102C900080819181089580E090E00895FC01828117
:102CA000938108958F929F92AF92BF92CF92DF92BD
:102CB000EF92FF920F931F93CF93DF937C016B01F1
:102CC0005A01C0E0D0E04C0182E0880E911CF7016F
:102CD00084819581C817D907D4F4BE01C4010E942C
:102CE00043168C01DC01ED91FC910684F785E02D03
:102CF00009958A159B0549F4D801ED91FC9100884E
:102D0000F189E02DB601C80109952196E0CFDF9148
:102D1000CF911F910F91FF90EF90DF90CF90BF90D8
:102D2000AF909F908F900895EF92FF920F931F9313
:102D3000CF93DF938C01C0E0D0E07C0182E0E80E0D
:102D4000F11CF80124813581C217D3076CF4BE0150
:102D5000C7010E944316DC01ED91FC910284F385CA
:102D6000E02D09952196EDCFDF91CF911F910F9125
:102D7000FF90EF900895EF92FF920F931F93CF93E0
:102D8000DF938C01C0E0D0E07C0182E0E80EF11C12
:102D9000F80124813581C217D3076CF4BE01C70145
:102DA0000E944316DC01ED91FC910084F185E02D39
:102DB00009952196EDCFDF91CF911F910F91FF9053
:102DC000EF9008958C017C0182E0E80EF11CC0E0D8
:102DD000D0E0F80184819581C817D907C4F7BE01F6
:102DE000C7010E944316DC01ED91FC910680F7813A
:102DF000E02D09952196EDCFEF92FF920F931F934F
:102E0000CF93DF938C01C0E0D0E07C0182E0E80E3C
:102E1000F11CF80124813581C217D3076CF4BE017F
:102E2000C7010E944316DC01ED91FC910480F581FD
:102E3000E02D09952196EDCFDF91CF911F910F9154
:102E4000FF90EF900895EF92FF920F931F93CF930F
:102E5000DF938C01C0E0D0E07C0182E1E80EF11C40
:102E6000F80124893589C217D3076CF4BE01C70164
:102E70000E94B01CDC01ED91FC910480F581E02DF5
:102E800009952196EDCF82E38283DF91CF911F9147
:102E90000F91FF90EF900895EF92FF920F931F9381
:102EA000CF93DF93FC01628173811616170664F5D8
:102EB000EC01148661307105C1F0625071090E9405
:102EC00056157C01FC0182819381FC0100811181F6
:102ED0000E94DC37F70113821282FF82EE828A8120
:102EE0009B8101979B838A830DC084819581FC011E
:102EF000008111810E94DC371D821C821F821E828C
:102F00001B821A82C80102C080E090E0DF91CF915D
:102F10001F910F91FF90EF900895EF92FF920F9302
:102F20001F93CF93DF93DC0112962D913C91139761
:102F30001216130624F521303105A1F0EC01EC81C5
:102F4000FD81E280F38000811181CF010E94DC3796
:102F5000FD82EC828A819B8101979B838A831C86F8
:102F6000C8010FC0DC01ED91FC910484F585E02DD2
:102F7000DF91CF911F910F91FF90EF90099480E026
:102F800090E0DF91CF911F910F91FF90EF90089506
:102F90000F931F93CF93DF9377FD3EC0DC01129612
:102FA0002D913C91139762177307B4F56115710564
:102FB00031F4ED91FC910684F785E02D0BC0215092
:102FC00031096217730759F4DC01ED91FC91048417
:102FD000F585E02DDF91CF911F910F910994EC01C0
:102FE000615071090E945615DC011296ED91FC9119
:102FF0001397008111812281338113963C932E9384
:103000001297CF010E94DC378A819B8101979B83B5
:103010008A831C86C80102C080E090E0DF91CF91D6
:103020001F910F910895EF92FF920F931F93CF93EB
:10303000DF93FC01628173811616170664F5EC01BB
:10304000148661307105C1F0625071090E94F61555
:103050007C01FC0182819381FC01008111810E942D
:10306000DC37F70113821282FF82EE828A819B8114
:1030700001979B838A830DC084819581FC01008127
:1030800011810E94DC371D821C821F821E821B82DE
:103090001A82C80102C080E090E0DF91CF911F91B9
:1030A0000F91FF90EF900895EF92FF920F931F936F
:1030B000CF93DF93DC0112962D913C91139712165A
:1030C000130624F521303105A1F0EC01EC81FD81DE
:1030D000E280F38000811181CF010E94DC37FD8204
:1030E000EC828A819B8101979B838A831C86C8011D
:1030F0000FC0DC01ED91FC910484F585E02DDF919A
:10310000CF911F910F91FF90EF90099480E090E094
:10311000DF91CF911F910F91FF90EF9008950F9342
:103120001F93CF93DF9377FD3EC0DC0112962D9164
:103130003C91139762177307B4F56115710531F46B
:10314000ED91FC910684F785E02D0BC021503109EB
:103150006217730759F4DC01ED91FC910484F58545
:10316000E02DDF91CF911F910F910994EC016150F7
:1031700071090E94F615DC011296ED91FC911397EE
:10318000008111812281338113963C932E931297F3
:10319000CF010E94DC378A819B8101979B838A83C0
:1031A0001C86C80102C080E090E0DF91CF911F91A2
:1031B0000F910895EF92FF920F931F93CF93DF9398
:1031C000DC0112960D911C9113970115110561F404
:1031D000ED91FC910480F581E02DDF91CF911F915D
:1031E0000F91FF90EF9009947B01EC0184E090E057
:1031F0000E9447372C813D81FC0133832283F18279
:10320000E0829D838C830F5F1F4F1B830A831C8684
:1032100081E0DF91CF911F910F91FF90EF90089582
:10322000CF92DF92EF92FF920F931F93CF93DF9392
:103230009B01BA01DC0112964D915C911397241702
:10324000350734F0ED91FC910480F581E02D09C043
:103250002115310579F4DC01ED91FC910680F781AF
:10326000E02DDF91CF911F910F91FF90EF90DF90B4
:10327000CF9009947B01E9018C0184E090E00E94E9
:1032800047376C01FC011182108213821282BE0149
:1032900061507109C8010E945615D6011196FC9221
:1032A000EE92FC012281338113963C932E93129768
:1032B000D382C282D80112968D919C911397019668
:1032C00013969C938E9312971C961C9281E0DF912B
:1032D000CF911F910F91FF90EF90DF90CF900895C5
:1032E0000F931F93CF93DF93EC018B0184E090E069
:1032F0000E944737FC0113821282118300832C81C4
:103300003D81232B29F0EE81FF819383828302C0CC
:103310009D838C839F838E838A819B8101969B836F
:103320008A831C8681E0DF91CF911F910F910895D0
:10333000EF92FF920F931F93CF93DF93DC011296CE
:103340000D911C9113970115110561F4ED91FC91FC
:103350000480F581E02DDF91CF911F910F91FF90B7
:10336000EF9009947B01EC0184E090E00E944737E4
:103370002C813D81FC0133832283F182E0829D8395
:103380008C830F5F1F4F1B830A831C8681E0DF91B4
:10339000CF911F910F91FF90EF900895CF92DF9200
:1033A000EF92FF920F931F93CF93DF939B01BA018C
:1033B000DC0112964D915C9113972417350734F078
:1033C000ED91FC910480F581E02D09C021153105B6
:1033D00079F4DC01ED91FC910680F781E02DDF911D
:1033E000CF911F910F91FF90EF90DF90CF900994B4
:1033F0007B01E9018C0184E090E00E9447376C0179
:10340000FC011182108213821282BE016150710987
:10341000C8010E94F615D6011196FC92EE92FC01AD
:103420002281338113963C932E931297D382C282CA
:10343000D80112968D919C911397019613969C93A7
:103440008E9312971C961C9281E0DF91CF911F9171
:103450000F91FF90EF90DF90CF9008950F931F93FF
:10346000CF93DF93EC018B0184E090E00E9447371B
:10347000FC0113821282118300832C813D81232B56
:1034800029F0EE81FF819383828302C09D838C8328
:103490009F838E838A819B8101969B838A831C866E
:1034A00081E0DF91CF911F910F91089502960C94C6
:1034B0002E1A8F929F92AF92BF92CF92DF92EF928D
:1034C000FF920F931F93CF93DF9300D000D000D0D3
:1034D000CDB7DEB75C018B01DB0116968D919C9117
:1034E0001797892B09F044C0F801C080D180D6011C
:1034F000ED91FC910284F385E02DC60109954C0104
:1035000088E090E09A8389836D837E830E944737A9
:103510007C019C838B8381E0F70180831182D6013B
:10352000ED91FC910084F185E02DC6010995F7012C
:1035300082839383EB81FC816D8164837E817583BB
:1035400086829782D501ED91FC910688F789E02D5E
:10355000BE016F5F7F4FC5010995CE0101960E94A4
:103560009E2A0E944825F801608771878287938789
:1035700088EB9AE1D80117969C938E9316970E9438
:103580004825F801C084D184E284F384AB01BC01F6
:103590004C195D096E097F0982819381A0E0B0E03A
:1035A000481759076A077B0708F09ECF80E090E034
:1035B00026960FB6F894DEBF0FBECDBFDF91CF9138
:1035C0001F910F91FF90EF90DF90CF90BF90AF9041
:1035D0009F908F9008955F926F927F928F929F92AB
:1035E000AF92BF92CF92DF92EF92FF920F931F9311
:1035F000CF93DF937C014C0185E0880E911C57012D
:10360000A2E1AA0EB11C55245394D70117968D91AF
:103610009C9118971816190624F560E070E0C40113
:103620000E94CA28EC01888199818230910588F036
:10363000EA81FB812081018110E0102F0027020F19
:10364000111D98012153310923303105B8F4049735
:1036500070F4209731F0CE010E949E2ACE010E9484
:10366000DC37C0E0D0E087010E5E1F4F60C0828172
:10367000C380D12CDC2CCC24C80ED11C612C712C25
:10368000F70184899589681679061CF7B301C5018D
:103690000E94A315FC0180819181DC01ED91FC91D8
:1036A0000084F185E02D09958C159D0541F4B30149
:1036B000C5010E94A315FC01892B29F4CACFBFEFD5
:1036C0006B1A7B0ADDCF0133110511F4558218C046
:1036D0000233110511F4158213C00333110581F46F
:1036E00088819981069708F4BCCFAA81BB81149682
:1036F0008C91149715969C91009711F09383828377
:10370000209709F482CFCE010E949E2ACE010E940A
:10371000DC377BCFBE01C8010E94A315BC01FC01B0
:103720008581882359F0C7010E94591A2196F70113
:1037300024893589C217D3076CF303C01782168218
:10374000F5CFDF91CF911F910F91FF90EF90DF9018
:10375000CF90BF90AF909F908F907F906F905F9031
:103760000895CF93DF93EC010E941A28CE01DF91D8
:10377000CF910C94DC370F931F93CF93DF93EC0121
:1037800084E992E0998388838E010E5E1F4F2C8915
:103790003D89121613067CF460E070E0C8010E94B7
:1037A000C41F0097A1F3DC01ED91FC910280F3812D
:1037B000E02D0995ECCF8CE792E09B8B8A8B8E896C
:1037C0009F89009741F0FC01228133813F8B2E8B32
:1037D0000E94DC37F4CFCE01DF91CF911F910F9182
:1037E0000C94F62ACF93DF93EC010E94BB1BCE0111
:1037F000DF91CF910C94DC37EF92FF920F931F93E0
:10380000CF93DF93EC0180E692E0998388837E0179
:1038100082E1E80EF11C2C893D8912161306C4F4CE
:1038200060E070E0C7010E94C8178C01009799F30F
:10383000DC018D919C91009739F0DC01ED91FC91B8
:103840000280F381E02D0995C8010E94DC37E3CFA7
:1038500088E492E09B8B8A8B8E899F89009741F048
:10386000FC01228133813F8B2E8B0E94DC37F4CF09
:10387000CE01DF91CF911F910F91FF90EF900C94AB
:10388000F62ACF93DF93EC010E94FC1BCE01DF915F
:10389000CF910C94DC37CF93DF93EC01E881F98171
:1038A0000190F081E02DCE0109951816190644F417
:1038B000E881F9810684F785E02DCE010995EECFE8
:1038C000DF91CF910895DC011496ED91FC9115974D
:1038D0001C968C911C97882361F01A962D913C912F
:1038E0001B97621773072CF01896ED91FC911997AE
:1038F0000AC020E030E007C03097C9F00280F381B1
:10390000E02D2F5F3F4F26173707B4F326173707F1
:1039100071F481E01C968C931C971B963C932E931C
:103920001A971996FC93EE931897CF01089580E0AB
:1039300090E00895CF93DF9377FD0EC0FC012281C4
:1039400033816217730744F4EA010E94631CFC018F
:10395000D183C08381E001C080E0DF91CF910895E1
:103960000E94631C009721F0FC01808191810895E1
:1039700080E090E00895FC01828193810895EF92A8
:10398000FF920F931F93CF93DF93DC0112960D915B
:103990001C9113970115110561F4ED91FC910480C0
:1039A000F581E02DDF91CF911F910F91FF90EF9066
:1039B00009947B01EC0184E090E00E9447372C8160
:1039C0003D81FC0133832283F182E0829D838C83DD
:1039D0000F5F1F4F1B830A831C8681E0DF91CF910D
:1039E0001F910F91FF90EF900895CF92DF92EF9289
:1039F000FF920F931F93CF93DF939B01BA01DC01DA
:103A000012964D915C9113972417350734F0ED9180
:103A1000FC910480F581E02D09C02115310579F470
:103A2000DC01ED91FC910680F781E02DDF91CF91D3
:103A30001F910F91FF90EF90DF90CF9009947B0141
:103A4000E9018C0184E090E00E9447376C01FC01A1
:103A50001182108213821282BE0161507109C80165
:103A60000E94631CD6011196FC92EE92FC01228109
:103A7000338113963C932E931297D382C282D8013E
:103A800012968D919C911397019613969C938E9309
:103A900012971C961C9281E0DF91CF911F910F919C
:103AA000FF90EF90DF90CF9008950F931F93CF93E7
:103AB000DF93EC018B0184E090E00E944737FC012A
:103AC00013821282118300832C813D81232B29F0E4
:103AD000EE81FF819383828302C09D838C839F83C9
:103AE0008E838A819B8101969B838A831C8681E0D9
:103AF000DF91CF911F910F9108952F923F924F9296
:103B00005F926F927F928F929F92AF92BF92CF926D
:103B1000DF92EF92FF920F931F93CF93DF9300D02A
:103B200000D0CDB7DEB78C01E091AE03F091AF03CA
:103B300082E08083E091AA03F091AB031082E091D0
:103B4000AC03F091AD0387E680831092B603E09159
:103B5000B203F091B30386E08083E091B003F0916B
:103B6000B103808180618083E091B003F091B10363
:103B7000808188608083E091B003F091B1038081FF
:103B800080688083E091B003F091B10380818F7DE4
:103B9000808384E190E00E9447372C01D8011F9672
:103BA000ED90FC90509760E370E00E94852A88E3D6
:103BB00093E0F20191838083F38AE28A8FE190E0BF
:103BC0000E9447376C0161E370E00E94852A80E61D
:103BD00092E0D60111969C938E9388E492E05396DE
:103BE0009C938E93529757961C921E925697599675
:103BF0001C921E92589755961C921E9254975B9653
:103C00001C921E925A975D961C921E925C975E962D
:103C10001C92F80163897489C6010E94F013D801CF
:103C200055966D917C915697C6010E94F013F8014C
:103C30006789708DC6010E94F0138FE190E00E94A9
:103C400047377C0163E370E00E94852A84E992E0B3
:103C5000D70111969C938E938CE792E053969C9398
:103C60008E93529757961C921E92569759961C9275
:103C70001E92589755961C921E9254975B961C92D2
:103C80001E925A975D961C921E925C975E961C92AD
:103C9000F801618D728D6115710521F0C7014296A1
:103CA0000E94551DD8015B966D917C915C976115C2
:103CB000710521F0C70142960E94551DF801658DDE
:103CC000768D6115710521F0C70142960E94551D40
:103CD00088E190E00E9447375C01D8015F962D9003
:103CE0003C90909791966D907C90929793968D9042
:103CF0009C90949762E370E00E94852A80EB92E0AA
:103D0000F50191838083938A828A758A648A378ACF
:103D1000268A81E3382E328284E190E00E94473780
:103D20003C01D80197968D909C90989764E370E041
:103D30000E94852A8CEC92E0F30191838083938A20
:103D4000828A32828CE190E00E9447374C01D80190
:103D500051962D903C90529795962D913C91969727
:103D600065E370E02B833C830E94852A88EE92E015
:103D7000F40191838083338A228A2B813C81358BA5
:103D8000248BD801ED91FC910484F585E02DB201DE
:103D9000C8010995D801ED91FC910484F585E02DC9
:103DA000B601C8010995D801ED91FC910484F5850F
:103DB000E02DB701C8010995D801ED91FC9104846B
:103DC000F585E02DB501C8010995D801ED91FC916B
:103DD0000484F585E02DB301C8010995D801ED9162
:103DE000FC910484F585E02DB401C80109958FE5A7
:103DF00093E00E9464138091CA059091CB05FE0167
:103E000031967F01009721F4CF018E5C954004C06C
:103E10009F01281B390BC9019A83898389819A8163
:103E20000E94B713C8010E94FC1685E793E00E9428
:103E300064138091CA059091CB05009731F4C701B6
:103E40008E5C95409A83898304C0E81AF90AFA8245
:103E5000E98289819A810E94B7130F900F900F9089
:103E60000F90DF91CF911F910F91FF90EF90DF9016
:103E7000CF90BF90AF909F908F907F906F905F900A
:103E80004F903F902F9008950C94DC370C94DC37C2
:103E9000EF92FF920F931F93CF93DF93FC01628108
:103EA00073811616170664F5EC01148661307105EE
:103EB000C1F0625071090E94631C7C01FC01828187
:103EC0009381FC01008111810E94DC37F70113828C
:103ED0001282FF82EE828A819B8101979B838A8373
:103EE0000DC084819581FC01008111810E94DC3725
:103EF0001D821C821F821E821B821A82C80102C080
:103F000080E090E0DF91CF911F910F91FF90EF90B3
:103F10000895EF92FF920F931F93CF93DF93DC01ED
:103F200012962D913C9113971216130624F5213009
:103F30003105A1F0EC01EC81FD81E280F38000818C
:103F40001181CF010E94DC37FD82EC828A819B8146
:103F500001979B838A831C86C8010FC0DC01ED9109
:103F6000FC910484F585E02DDF91CF911F910F9195
:103F7000FF90EF90099480E090E0DF91CF911F9146
:103F80000F91FF90EF9008950F931F93CF93DF93BE
:103F900077FD3EC0DC0112962D913C91139762177C
:103FA0007307B4F56115710531F4ED91FC91068448
:103FB000F785E02D0BC0215031096217730759F4C2
:103FC000DC01ED91FC910484F585E02DDF91CF912A
:103FD0001F910F910994EC01615071090E94631CBB
:103FE000DC011296ED91FC911397008111812281E1
:103FF000338113963C932E931297CF010E94DC37A6
:104000008A819B8101979B838A831C86C80102C099
:1040100080E090E0DF91CF911F910F910895CF93B1
:10402000DF93EC0184E392E0998388838F859889FC
:10403000009739F0DC01ED91FC910280F381E02DD5
:10404000099589899A89009739F0DC01ED91FC91F5
:104050000280F381E02D09958B899C89009739F0C6
:10406000DC01ED91FC910280F381E02D09958D89B1
:104070009E89009739F0DC01ED91FC910280F3817B
:10408000E02D09958F89988D009739F0DC01ED912D
:10409000FC910280F381E02D0995898D9A8D00971E
:1040A00039F0DC01ED91FC910280F381E02D09955E
:1040B0008B8D9C8D009739F0DC01ED91FC91028095
:1040C000F381E02D09958D8D9E8D009739F0DC01EF
:1040D000ED91FC910280F381E02D09958F8D98A1DF
:1040E000009739F0DC01ED91FC910280F381E02D25
:1040F000099589A19AA1009739F0DC01ED91FC9115
:104100000280F381E02D09958BA19CA1009739F0E5
:10411000DC01ED91FC910280F381E02D09958DA1E8
:104120009EA1009739F0DC01ED91FC910280F381B2
:10413000E02D09958FA198A5009739F0DC01ED914C
:10414000FC910280F381E02D0995CE01DF91CF91A2
:104150000C941A28CF93DF93EC010E940F20CE011C
:10416000DF91CF910C94DC37FC0185818130E1F443
:1041700084818E3008F08E508770806480937C003C
:1041800080917A00806480937A0080917A0086FD25
:10419000FCCF609178008091790070E0782B072E39
:1041A000000C880B990B07C084810E946F14BC011E
:1041B000990F880B990B0E947B38089560E0FC01F1
:1041C00084810C94C814CF93DF93EC0161E08C815F
:1041D0000E94C8148D81813011F460E001C061E05B
:1041E0008C810E9498141E82DF91CF9108950895CA
:1041F000CF93DF93EC018D81813011F460E001C039
:1042000061E08C810E9498141E82DF91CF91089505
:104210002F923F924F925F926F927F928F929F92D6
:10422000AF92BF92CF92DF92EF92FF920F931F93C4
:10423000CF93DF9300D000D0CDB7DEB76C011C0167
:1042400085E0280E311C5601A2E1AA0EB11C47E000
:10425000842E912CD60117968D919C911897181643
:1042600019060CF0BBC060E070E0C1010E94CA28D2
:104270008C01FC01808191818230910508F446C057
:104280000280F381E02D2081E180F12CFE2CEE24D0
:10429000E20EF11C9701215331092330310508F05A
:1042A00092C0049798F182816380712C762C6624E9
:1042B000680E711C412C512CF60184899589481691
:1042C000590624F5B201C5010E94B01CDC01ED9134
:1042D000FC910084F185E02D09958615970541F440
:1042E000B201C5010E94B01C3C01009729F40EC028
:1042F000BFEF4B1A5B0AE0CFF3E3EF16F10409F0CE
:1043000052C0D8018D919C91069759F00115110565
:1043100009F464C0C8010E949E2AC8010E94DC37CB
:104320005DC0D8011296ED91FC9113978481E580D0
:10433000F12CFE2CEE24E80EF11C9A82898287E093
:1043400090E00E9447372C019C838B8382E0F2012E
:1043500080831182E282F382D301ED91FC9100848B
:10436000F185E02DC3010995F20184839583D30182
:1043700016968C91EB81FC81882319F0B1E0B6830D
:1043800002C082E08683D601ED91FC910488F58914
:10439000E02DBE016F5F7F4FC6010995CE010196EA
:1043A0000E949E2A10C0B1E3EB16F10451F4FC0107
:1043B000658184810E949814E1E0D3011696EC9304
:1043C00002C00E94F8200115110509F443CFC8016D
:1043D0000E949E2AC8010E94DC373CCF0F900F90AC
:1043E0000F900F90DF91CF911F910F91FF90EF9061
:1043F000DF90CF90BF90AF909F908F907F906F9005
:104400005F904F903F902F90089508950895DC019C
:104410001696ED91FC91179712968C91481B477058
:1044200081E090E001C0880F4A95EAF7E60FF11DA0
:104430003081222311F0832B02C080958323808357
:104440000895FB014181DC0112962C9112974217CD
:1044500068F013962C911397241740F060811596FD
:104460002C91621718F424810C9407220895FC0102
:1044700080819281980F92832181921760F49481B8
:104480009F5F94839381890F821710F08FEF820FC3
:10449000838381E0089580E00895FC011282808189
:1044A000815083831482089580E008950B96FC0167
:1044B000849108950A96FC0184910895FC018491E9
:1044C00008950E945E22882321F0823011F083E05B
:1044D000089586E00895FC01E60FF11D849190E0B7
:1044E000982F88273196E4918E0F911D089568E0EA
:1044F0000C946B2266E00C946B222EE93FE000974F
:1045000029F0F9013197F1F70197F9CF089550910A
:10451000C0056091BF054091BE053091BD05A091D9
:10452000BB05B091BC05E091B905F091BA059FB704
:104530009093B805F89498E02C9187FF02C0252B42
:1045400001C026232C932081242B2083880F2081D7
:1045500023232083915081F78091B8058FBF089560
:10456000282F30E0F901EC56FF4FE491F0E0EE0F18
:10457000FF1FE058FF4F859194919093BC05809365
:10458000BB0570E0FB01EC56FF4F9491E92FF0E082
:10459000EE0FFF1FE058FF4F859194919093BA055D
:1045A0008093B905F901E855FF4F24912093C00588
:1045B000FB01E855FF4F64916093BE0560956093E1
:1045C000BD0520952093BF050895DB011496ED915C
:1045D000FC91159720E030E065E00994CF92DF92DE
:1045E000EF92FF920F931F93CF93DF938C017B0188
:1045F0006A0180E0F601C49181110BC0CF3F09F43C
:104600004CC04C2FB701C8010E94E522811143C064
:1046100049C0CF3F11F44FEFF5CFCE3F09F444C06E
:10462000C03FC8F5C03E38F04C2F4F70B701C801ED
:104630000E94A22E30C0C03D38F04C2F4F70B70101
:10464000C8010E94AB2E27C0C03CF8F0D7011496D9
:10465000ED91FC91159720E030E040E064E0C80166
:104660000995C295C07FCE5FD0E0CE010E947D2229
:10467000D7011496ED91FC91159720E030E041E0D0
:1046800064E0C8010995CE0104C0C7FD04C08C2FA9
:1046900090E00E947D2280E001C081E0BFEFCB1A54
:1046A000DB0AA8CF80E001C081E0DF91CF911F91AC
:1046B0000F91FF90EF90DF90CF9008958F929F928F
:1046C000AF92BF92DF92EF92FF920F931F93CF931F
:1046D000DF9300D0CDB7DEB77C018B01D42E49012A
:1046E0002FE0421709F444C035E14317A9F08AE0EE
:1046F000481359C0DB011496ED91FC91159720E009
:1047000030E042E061E0C701099548ED50E0B801B2
:10471000C7010E94EE2247C0FB01A280B38040ED9A
:1047200050E00E94EE22D50114964C91406BB801E6
:10473000C7010E94E52241E0B801C7010E94A22EF4
:10474000F50126813781D8011496ED91FC911597DA
:10475000D50115964C9166E0C7010995811102C0FB
:1047600080E0DBC040E0B801C7010E94AB2E1BC057
:1047700041E00E94AB2E40E0B801C7010E94A22E8A
:1047800041E8B801C7010E94E522F4014081469545
:104790004695B801C7010E94E52240E0B801C70173
:1047A0000E94AB2EB9C0D80112960D911C9113979F
:1047B000B2E3DB1609F474C0BD15B8F0E5E1DE160E
:1047C00009F47BC0F7E1DF1609F48DC024E1D212B1
:1047D000A3C0D8011696ED91FC91179715968C9170
:1047E0009F01280F311DC90160C036E4D31609F4BA
:1047F0008AC087E4D81609F48AC0ABE3DA128CC009
:10480000F40181819381913029F0933031F4482F64
:10481000885004C048E0480F01C0482F21E0D8016B
:1048200013963C91381708F420E031E0F8015281EA
:10483000451708F430E051E0481708F050E0822FA7
:10484000852B382319F4252309F466C0D401129668
:10485000FC90913051F030F0923049F0933051F4A7
:104860002FEF09C020E031E007C021E004C020E0C4
:104870003FEF02C020E030E0F7FE08C0B401C801FD
:104880002A8339830E94212239812A81F40180817F
:10489000830F80838181820F8183FF0C69F73CC085
:1048A000B401C8010E94212237C01192E817F9070C
:1048B000E1F7C8010E944D222FC0C8010E94372293
:1048C000882309F44DCFD8011696ED91FC911797E6
:1048D00015968C919F01280F311DC9011192E8177F
:1048E000F907E1F719C0D4011C92F80182811196F1
:1048F0008C9311978581815012968C9312978381A6
:1049000013968C9309C0D80115968C9103C0D801D9
:1049100011968C91F401808381E00F900F90DF91CC
:10492000CF911F910F91FF90EF90DF90BF90AF90CC
:104930009F908F900895860F911DFC0183A18F3F5A
:1049400019F0642F0C9498140895CF92DF92EF928F
:10495000FF920F931F93CF93DF931F92CDB7DEB7D4
:104960006C018901862F90E0FC013197E730F10559
:1049700008F05EC0EC5CFF4F0C94593B86010D5D66
:104980001F4F760180E3E80EF11CF80180818F3F14
:1049900041F061E00E94C81461E0F80180810E944A
:1049A00098140F5F1F4F0E151F0579F740E064E064
:1049B000C6010E949B2440E065E012C0F60183A17D
:1049C0008F3FB1F160E031C0411103C041E062E0CE
:1049D0002CC040E064E0C6010E949B2440E062E0FD
:1049E000C6010E949B24F60167A180A50E94B02207
:1049F0001FC0842F0E9487221BC04423C9F0F801E6
:104A000081918F0149830E94872249814150F5CFCE
:104A1000442371F0F801849149830E9487220F5F3B
:104A20001F4F49814150F4CF61E0C6010E949B2491
:104A300081E00F90DF91CF911F910F91FF90EF9048
:104A4000DF90CF9008953FB7F8948091C60590917C
:104A5000C705A091C805B091C90526B5A89B05C09A
:104A60002F3F19F00196A11DB11D3FBFBA2FA92FED
:104A7000982F8827820F911DA11DB11DBC01CD016A
:104A800042E0660F771F881F991F4A95D1F7089556
:104A90002FB7F8946091C2057091C3058091C40549
:104AA0009091C5052FBF08951F920F920FB60F92D8
:104AB00011242F933F938F939F93AF93BF93809134
:104AC000C2059091C305A091C405B091C505309170
:104AD000C10523E0230F2D3720F40196A11DB11D40
:104AE00005C026E8230F0296A11DB11D2093C10524
:104AF0008093C2059093C305A093C405B093C505E8
:104B00008091C6059091C705A091C805B091C905CF
:104B10000196A11DB11D8093C6059093C705A09372
:104B2000C805B093C905BF91AF919F918F913F91F7
:104B30002F910F900FBE0F901F901895DB01ED91F4
:104B4000FC910994EF92FF920F931F93CF93DF9301
:104B50001F92CDB7DEB78C01DC011296ED90FC9070
:104B60001397D196ED91FC91D29782E0099520E0C0
:104B700030E04AE0B701C8010E949E25F82ED80116
:104B8000D196ED91FC91D29783E00995D801D19609
:104B9000ED91FC91D29780E00995FF20A1F1F801F9
:104BA000628173819E012F5F3F4F46E4C8010E94DE
:104BB0009E258981D8018C9312966D917C911397D3
:104BC0009E012F5F3F4F47E4C8010E949E258981C7
:104BD000F80181836281738120E030E048E4C801FC
:104BE0000E949E25D8011B968C931B9798012D5CE3
:104BF0003F4F12966D917C91139747E1C8010E9437
:104C00009E2581E001C080E00F90DF91CF911F9140
:104C10000F91FF90EF9008954F925F926F927F9265
:104C20008F929F92AF92BF92CF92DF92EF92FF92BC
:104C30000F931F93CF93DF931F92CDB7DEB72C0155
:104C4000E62EF42EC22EDC0114960D911C911597C0
:104C5000C8010E945E22D82EF201848195810E94B3
:104C60006122982EF1E0DF1203C02FE0A22E02C0D5
:104C7000AA24AA94D20114968D919C9115970E9412
:104C80005A22D82EF201848195810E945622B82E94
:104C9000D20114968D919C9115970E947722B0E6CF
:104CA000BC1538F4009729F0080F191F91E6D92E8A
:104CB00011C0F201848195810E947A22F0E4FC15F2
:104CC00038F4009729F0080F191F81E4D82E02C08C
:104CD0000F5E1F4FBC1480F4D20150961C92509767
:104CE00053961C92539754961C92549751961C922B
:104CF000519752961C92A0C0BD1470F3892D90E07C
:104D0000F80124912F3F19F40F5F1F4F5AC0DC1098
:104D10004FC0D20114968D919C9115970E945E22EE
:104D200098012F5F3F4FF801882311F08230E1F4A2
:104D30008491D20153968C935397F9012491549600
:104D40002C935497F8013396E4915096EC93509736
:104D5000F8013496E4915196EC935197F801359609
:104D6000E4915296EC9320C08491982F9F709250BA
:104D7000D20152969C93529782958F7051968C9344
:104D80005197F9012491822F8F7054968C935497E8
:104D900022952F7053962C935397F8013296E491F5
:104DA000E295EF705096EC930115110579F444C02B
:104DB000F8013296E491EA219C012E0F311D020F79
:104DC000131FDB1409F488CFD3949ACFF2018481A6
:104DD00095810E946122D20153963C91539754963B
:104DE0002C91549751965C91519752969C91529761
:104DF000920FF91A9FEF920F9F0DD4964C91D49772
:104E0000D6966C916F1518F0941728F402C0941779
:104E100080F09F1570F4E50E9FEF930F9E0DD20169
:104E2000D3964C91D397D5965C915E1538F4941730
:104E300038F4F20180893FC080E03DC0941710F43F
:104E40009E15B8F7080F111D395F732E769476946E
:104E500076946F2C620E5201FCE1AF0EB11C872CD0
:104E6000912CF61431F35E2D68018C2D801B871573
:104E7000F0F4F6018491D20112966D917C91139712
:104E80005C965C935C975D96FC925D975F961C9236
:104E90005F975E968C9395014BE3C20159830E9404
:104EA0009E25BFEFCB1ADB0A5981585FDECF080D74
:104EB000191DF394D6CF0F90DF91CF911F910F91D1
:104EC000FF90EF90DF90CF90BF90AF909F908F902A
:104ED0007F906F905F904F900895FC018281938145
:104EE000089508950895CF93DF93EC01E881F98147
:104EF0000190F081E02DCE0109951816190644F4B1
:104F0000E881F9810684F785E02DCE010995EECF81
:104F1000DF91CF910895DC011496ED91FC911597E6
:104F20001C968C911C97882361F01A962D913C91C8
:104F30001B97621773072CF01896ED91FC91199747
:104F40000AC020E030E007C03097C9F00280F3814A
:104F5000E02D2F5F3F4F26173707B4F3261737078B
:104F600071F481E01C968C931C971B963C932E93B6
:104F70001A971996FC93EE931897CF01089580E045
:104F800090E008950E948B27009721F0FC0180811A
:104F90009181089580E090E00895CF93DF9377FDAD
:104FA0000EC0FC01228133816217730744F4EA01C9
:104FB0000E948B27FC01D183C08381E001C080E087
:104FC000DF91CF910895FC018281938108958091B2
:104FD0000D0590910E05DC01ED91FC910684F7859D
:104FE000E02D40E350E0099480910D0590910E056D
:104FF000DC01ED91FC910684F785E02D0994FC011C
:10500000838194810895FC018281089521E3FC014C
:105010002283089522E3FC012283089523E3FC0107
:105020002283089522E3FC0122830895089580E0FD
:1050300090E008950F931F93CF93DF93EC0182E4E8
:1050400091E0DE018D939D938D018C819D811816D9
:1050500019067CF460E070E0C8010E948F18009788
:10506000A1F3DC01ED91FC910280F381E02D099523
:10507000ECCF8AE291E09B838A838E819F810097A7
:1050800041F0FC01228133813F832E830E94DC3773
:10509000F4CFDF91CF911F910F910895EF92FF927E
:1050A0000F931F93CF93DF93FC01628173811616D8
:1050B000170664F5EC01148661307105C1F0625089
:1050C00071090E948B277C01FC0182819381FC0184
:1050D000008111810E94DC37F70113821282FF8266
:1050E000EE828A819B8101979B838A830DC0848194
:1050F0009581FC01008111810E94DC371D821C8298
:105100001F821E821B821A82C80102C080E090E0CA
:10511000DF91CF911F910F91FF90EF900895EF9243
:10512000FF920F931F93CF93DF93DC0112962D9183
:105130003C9113971216130624F521303105A1F086
:10514000EC01EC81FD81E280F38000811181CF01CF
:105150000E94DC37FD82EC828A819B8101979B83D0
:105160008A831C86C8010FC0DC01ED91FC91048488
:10517000F585E02DDF91CF911F910F91FF90EF907A
:10518000099480E090E0DF91CF911F910F91FF9003
:10519000EF9008950F931F93CF93DF9377FD3EC059
:1051A000DC0112962D913C91139762177307B4F5A9
:1051B0006115710531F4ED91FC910684F785E02DC0
:1051C0000BC0215031096217730759F4DC01ED91CE
:1051D000FC910484F585E02DDF91CF911F910F9113
:1051E0000994EC01615071090E948B27DC01129631
:1051F000ED91FC91139700811181228133811396E7
:105200003C932E931297CF010E94DC378A819B81B9
:1052100001979B838A831C86C80102C080E090E0CE
:10522000DF91CF911F910F9108950C94DC37EF928D
:10523000FF920F931F93CF93DF93DC0112960D9192
:105240001C9113970115110561F4ED91FC910480F7
:10525000F581E02DDF91CF911F910F91FF90EF909D
:1052600009947B01EC0184E090E00E9447372C8197
:105270003D81FC0133832283F182E0829D838C8314
:105280000F5F1F4F1B830A831C8681E0DF91CF9144
:105290001F910F91FF90EF900895CF92DF92EF92C0
:1052A000FF920F931F93CF93DF939B01BA01DC0111
:1052B00012964D915C9113972417350734F0ED91B8
:1052C000FC910480F581E02D09C02115310579F4A8
:1052D000DC01ED91FC910680F781E02DDF91CF910B
:1052E0001F910F91FF90EF90DF90CF9009947B0179
:1052F000E9018C0184E090E00E9447376C01FC01D9
:105300001182108213821282BE0161507109C8019C
:105310000E948B27D6011196FC92EE92FC0122810D
:10532000338113963C932E931297D382C282D80175
:1053300012968D919C911397019613969C938E9340
:1053400012971C961C9281E0DF91CF911F910F91D3
:10535000FF90EF90DF90CF9008950F931F93CF931E
:10536000DF93EC018B0184E090E00E944737FC0161
:1053700013821282118300832C813D81232B29F01B
:10538000EE81FF819383828302C09D838C839F8300
:105390008E838A819B8101969B838A831C8681E010
:1053A000DF91CF911F910F910895EF92FF920F938C
:1053B0001F93CF93DF937C018B0184E090E00E94E8
:1053C0004737EC01D8018D919C91998388830E9485
:1053D00047379B838A8320E030E0888199812817B2
:1053E000390780F4D8011296ED91FC911397E20FE2
:1053F000F31F8081EA81FB81E20FF31F80832F5F1F
:105400003F4FEBCFBE01C7010596DF91CF911F91B2
:105410000F91FF90EF900C94AD29FC01EF5BFF4FD3
:1054200021E0208308960C94A225CF92DF92EF9280
:10543000FF920F931F93CF93DF931F92CDB7DEB7E9
:105440006C01DC01DC961C91DC97DB960C917C01F5
:10545000B4E0EB0EF11CDC015996ED91FC915A97EA
:10546000C70169830995482F410F2981602FC70122
:105470000E940C26F60123AD082E000C990B820F1A
:10548000911D83AF81E090E00F90DF91CF911F914C
:105490000F91FF90EF90DF90CF9008950F931F939F
:1054A000CF93DF93EC018E899F89892B81F48A89C0
:1054B0009B89FC016481062E000C770B05960E94E7
:1054C000E22F0E944825688F798F8A8F9B8F87E60D
:1054D0009AE29F8B8E8B0E944825088D198D2A8D0C
:1054E0003B8DDC01CB01801B910BA20BB30B883BE6
:1054F0009B40A105B105D8F680E090E0DF91CF9107
:105500001F910F9108950C944E2AFC018CE193E0B9
:10551000918380837483638384E093E0968385839F
:1055200012861186148613861086178216861586B3
:10553000108A1786118A81E382830895FC01828193
:105540009381009711F00C94DC370895EF92FF924D
:105550000F931F93CF93DF9300D000D0CDB7DEB76A
:10556000DB012D913C9121153105A9F18B017C01C5
:10557000C90102969A8389830E9447379C838B8353
:1055800021E0FC012083118220E030E0F8018081DD
:1055900091812817390780F4D8011296ED91FC917A
:1055A0001397E20FF31F8081EB81FC81E20FF31F61
:1055B00082832F5F3F4FEACFD701ED91FC910488A2
:1055C000F589E02DBE016F5F7F4FC7010995CE01C0
:1055D00001960E949E2A0F900F900F900F90DF91DE
:1055E000CF911F910F91FF90EF900895EF92FF924E
:1055F0000F931F93CF93DF93EC018CE193E099839A
:1056000088837E0185E0E80EF11C2F813885121613
:10561000130674F460E070E0C7010E94CA288C0190
:10562000009799F30E949E2AC8010E94DC37EDCFB3
:1056300084E093E09E838D8389859A85009741F06D
:10564000FC01228133813A8729870E94DC37F4CF1D
:10565000DF91CF911F910F91FF90EF900895CF931D
:10566000DF93EC010E94F62ACE01DF91CF910C94DA
:10567000DC37089528EE32E0FC01318320830C945E
:10568000F62ACF93DF93EC010E943A2BCE01DF91F3
:10569000CF910C94DC37CF93DF93EC018A899B89FF
:1056A000DC01ED91FC910480F581E02D099582E308
:1056B0008A83DF91CF910895DC0114968D919C919E
:1056C0001597DC01ED91FC910480F581E02D0994A2
:1056D0000C94DC370C94DC374F925F926F927F9280
:1056E0008F929F92AF92BF92CF92DF92EF92FF92F2
:1056F0000F931F93CF93DF93CDB7DEB760970FB6AD
:10570000F894DEBF0FBECDBF7C018EE993E00E940E
:105710008F12181619067CF58EE993E00E9481120B
:105720008E3F910509F4C2C08EE993E00E946D128C
:10573000ECCF8EE993E00E946D128E3F910509F443
:1057400006C10E944825DC01CB0188199909AA09E4
:10575000BB098C329140A105B10558F3CE010196E9
:105760000E94373189818111B0C08A819B81009765
:1057700011F00E94DC376701B5E0CB0ED11C65E566
:10578000B62EF70187819085181619060CF05AC1BC
:1057900060E070E0C6010E94CA288C01FC01808193
:1057A00091810097E9F10280F381E02D4081218110
:1057B00030E0322F2227240F311D2130310559F5D9
:1057C000059770F119821A82BB82BC821D821E82EB
:1057D00018861986F80180818A8780809180C401AB
:1057E0000E9447378B879C87D80112962D913C9158
:1057F0001397FC01D901CD01821B930B88159905E4
:105800001CF48D918193F7CFBE016F5F7F4FF7013D
:105810008289938938C022303105E9F5079759F01C
:105820000115110509F40EC1C8010E949E2AC80184
:105830000E94DC3707C119821A82BB82BC821D829A
:105840001E8218861986D8018C918A878D909C902B
:10585000C4010E9447378B879C87F80122813381DE
:10586000FC01D901CD01821B930B881599051CF40D
:105870008D918193F7CFBE016F5F7F4FD701529615
:105880008D919C9153970E94B2308B859C85009797
:1058900011F00E94DC370115110509F472CFC8011F
:1058A0000E949E2AC8010E94DC376BCF19821C829D
:1058B0001D821B821A82D70152960D911C9153971B
:1058C0000E9448254B015C013CCF8C81843409F057
:1058D0004CCF8D81813809F048CFEA81FB81008966
:1058E00010E00430110508F440CF8189428950E06E
:1058F000542F44276A01C80ED11C025011091E877B
:105900000D87C8010E944737988B8F8780E090E011
:10591000EA81FB81E80FF91F2389EF85F889E80FF9
:10592000F91F208301968017910790F3D701ED911D
:10593000FC910288F389E02DA601BE01635F7F4FD1
:10594000C7010995CE010D960E949E2A0ECFC8016F
:105950000E9412318F3FBFEF9B0709F4FFCE89836E
:10596000C8010E9412318F3FAFEF9A0709F4F6CEBB
:105970008C83C8010E9412318F3FBFEF9B0709F44F
:10598000EDCE8D83A980B12CC5010E9447378A8353
:105990009B834C01C12CD12CCA14DB0498F50E94C6
:1059A00048256093A6037093A7038093A803909360
:1059B000A903E0919E03F0919F030284F385E02DFB
:1059C0008EE993E0099597FF2CC00E9448254090EE
:1059D000A6035090A7036090A8037090A903DC0170
:1059E000CB0184199509A609B7094090A2035090EC
:1059F000A3036090A4037090A50384159505A605E4
:105A0000B705B8F289818C11A9CEC8010E94123164
:105A100039819C8193272D8192272A81E22FFB8156
:105A200007C0F40181934F01FFEFCF1ADF0AB4CF13
:105A30004E2F421B431718F441919427F9CF891335
:105A40008DCE90CE60960FB6F894DEBF0FBECDBF60
:105A5000DF91CF911F910F91FF90EF90DF90CF904A
:105A6000BF90AF909F908F907F906F905F904F907E
:105A70000895CF93DF93FC01C481D5816C81062EFC
:105A8000000C770BCE0105960E94E22F6F8178857E
:105A9000072E000C880B990B0E947B38DF91CF9169
:105AA0000895460F571FDB01861B970BA417B507F8
:105AB00031F0FC01EA0FFB1FE491ED93F7CF08955D
:105AC00008950895CF92DF92EF92FF92CF93DF93E4
:105AD000EC01072E000C880B990B0E947B386B01A0
