:100000000C946E020C9496020C9496020C94960238
:100010000C9496020C9496020C9496020C9474190B
:100020000C9496020C9496020C9496020C949602F0
:100030000C9496020C9496020C9496020C949602E0
:100040000C94B6180C9496020C9484170C945E17BA
:100050000C9496020C9496020C9496020C949602C0
:100060000C9496020C9496023F3F0201510906003F
:1000700000050041417C1211127C00000500424243
:100080007F494949360000050043433E4141412232
:100090000000050044447F4141413E000005004509
:1000A000457F494949410000050046467F09090945
:1000B000010000050047473E4149493A000005005C
:1000C00048487F0808087F0000050049497F000074
:1000D0000000000001004A4A304040403F00000557
:1000E000004B4B7F08081463000005004C4C7F4018
:1000F000404040000005004D4D7F060C067F00008B
:1001000005004E4E7F0408107F000005004F4F3E53
:100110004141413E0000050050507F090909060099
:1001200000050051513E4151617E000005005252D0
:100130007F091929460000050053532649494932D1
:1001400000000500545401017F0101000005005525
:10015000553F4040403F0000050056561F204020BC
:100160001F0000050057573F4038403F0000050082
:1001700058586314081463000005005959070870A3
:100180000807000005005A5A61514945430000051F
:10019000002D2D08080808080000050021215F0037
:1001A000000000000001002E2E40000000000000B2
:1001B0000100313142427F4040000005003232628E
:1001C00051494542000005003333224149493E0070
:1001D00000050034341F107C101000000500353578
:1001E0004F494949310000050036363E49494932F8
:1001F00000000500373701017905030000050038CC
:1002000038364949493600000500393926494949F7
:100210003E0000050030303E4141413E00000500F7
:100220002B2B08083E0808000005003A3A36360035
:100230000000000002003D3D1414141414000005D9
:100240000020200000000000000002006161205436
:100250005454780000050062627F50505020000026
:1002600005006363384444442800000500646420AA
:100270005050507F000005006565385454544800C4
:100280000005006666087E09010200000500676738
:1002900048545454380000050068687F0808087006
:1002A000000005006969447D400000000003006A09
:1002B0006A2040443D00000004006B6B7F10102852
:1002C00044000005006C6C417F400000000003000A
:1002D0006D6D7C047C0478000005006E6E7C040467
:1002E0000478000005006F6F38444444380000056E
:1002F0000070707C1414140800000500717108145B
:1003000014147C0000050072727C080404040000D0
:10031000050073734854545424000005007474029B
:100320003F4240000000040075753C4040207C00C6
:1003300000050076761C2040201C00000500777721
:100340007C2070207C000005007878442810284428
:100350000000050079794C5050503C000005007AAF
:100360007A4464544C44000005005B5B7F414100CB
:1003700000000003005D5D41417F000000000300BC
:100380007B7B0808364141000005007D7D414136F8
:1003900008080000050028281C2241000000000376
:1003A00000292941221C00000000030040403E417A
:1003B0005D551E000005002323143E143E1400006A
:1003C000050024242C2A7F2A12000005002525265A
:1003D00016083432000005005E5E040201020400CB
:1003E0000005005F5F4040404040000005002727B7
:1003F00007000000000000010022220700070000A3
:10040000000003003B3B4076360000000003002F55
:100410002F2010080402000005005C5C0204081094
:1004200020000005003C3C102844000000000300B0
:100430003E3E4428100000000003002A2A120C3F10
:100440000C120000050060600102000000000002C4
:10045000007E7E0201010302020107002626304AC7
:10046000452A10280006000A0A00000000000000CB
:1004700000000D0D00000000000000000000000062
:1004800000240027002A0000000000250028002B7F
:1004900000000000002300260029000404040404D6
:1004A0000404040202020202020303030303030121
:1004B00002040810204080010204081020010204F8
:1004C00008102000000008000201000003040700DB
:1004D00000000000000000005227A02911241FBEC8
:1004E000CFEFD8E0DEBFCDBF14E0A0E0B1E0E8E39D
:1004F000FCE502C005900D92A436B107D9F726E0BD
:10050000A4E6B4E001C01D92AD30B207E1F712E0FD
:10051000CDE6D2E004C02197FE010E94FB2DCC362F
:10052000D107C9F70E945E290C940F2E0C9400008D
:100530002F923F924F925F926F927F928F929F92F3
:10054000AF92BF92CF92DF92EF92FF920F931F93E1
:10055000CF93DF93CDB7DEB766970FB6F894DEBFC3
:100560000FBECDBFDC015296ED90FC90539781E118
:1005700095E09C878B8780910E0590E09E878D8704
:100580008091DB0590E0988B8F8780910A058530FC
:1005900009F047C680911305909114058858910978
:1005A0008D35910588F480910E05843041F4809159
:1005B0001505909116058097479708F4FBC1809127
:1005C0000E05843408F0DDC180910E058A3108F4EF
:1005D00046C08091110590911205843F914050F4DE
:1005E0001A8619868FEF9FEFDC018D839E83AF8380
:1005F000B8874FC0809113059091140585974B974C
:1006000070F5E7E1F5E082E090E040E050E0BA010B
:100610008C010F5F1F4F20910E0530E0021713076A
:100620006CF49F0122503109D9012D913C91275042
:1006300031092730310508F4F1C1C80101979595BA
:1006400087959A8789870C971CF41A86198607C0A4
:100650004D835E836F83788784E090E0F3C280915E
:100660000E058A3108F445C080911105909112055C
:100670008032934008F4B4CF809113059091140513
:10068000C697869708F4E6C134C04D835E836F83B6
:1006900078878BE090E0D6C22081318125523109E4
:1006A0002B31310508F0E6C1440F551F661F771F37
:1006B0004160029634968C010F5F1F4F20910E050A
:1006C00030E00217130764F49F0122503109D90169
:1006D0002D913C912C5031092B303105E8F2C801A5
:1006E0000197959587959A8789870C9774F61A864E
:1006F000198680910E05823208F441C0809113055D
:100700009091140506970797D0F5E7E1F5E022E010
:1007100030E040E050E0BA01C9010196A0910E0519
:10072000B0E08A179B07CCF4DF0112970D911C9162
:1007300011970E5111090731110508F0A8C1440F96
:10074000551F661F771F4160A081B18134961397B2
:10075000159720F42E5F3F4FDFCFC9010197959584
:1007600087959A87898740971CF41A86198607C04F
:100770004D835E836F8378878CE090E063C21C8A30
:100780001B8A81E090E09A8B898B80910E058D30D9
:1007900008F479C009E713E09E012D5E3F4FAE01DA
:1007A0004F5E5F4FBE016F5F7F4FC7010E94001910
:1007B000892B09F068C09E012D5E3F4FAE014F5E50
:1007C0005F4FBE016F5F7F4FC7010E940019019705
:1007D00009F059C09E012D5E3F4FAE014F5E5F4F45
:1007E000BE016F5F7F4FC7010E940019892B09F07E
:1007F0004AC0412C512C3201C12CD12C80910E05C4
:1008000090E029893A8928173907A4F509E713E008
:100810009E012D5E3F4FAE014F5E5F4FBE016F5F89
:100820007F4FC7010E9400195C019E012D5E3F4F62
:10083000AE014F5E5F4FBE016F5F7F4FC7010E94E9
:100840000019B1E0AB16B10449F4892BE1F4440C72
:10085000551C661C771C689440F808C0AB2899F4B6
:10086000019789F4440C551C661C771CEFEFCE1AD7
:10087000DE0AC4CFDA86C9864D825E826F827886B0
:1008800081E090E0DFC11C8A1B8A81E090E09A8BB6
:10089000898B8D859E85181619060CF069C0EB852D
:1008A000FC8582E090E09A8B898B82819381899785
:1008B0004E9708F05DC083E090E09A8B898B84812D
:1008C00095810B970A9708F053C00CEB11E09E013D
:1008D0002D5E3F4FAE014F5E5F4FCE0101965C0132
:1008E000BC01C7010E940019892B09F041C00CEB23
:1008F00011E09E012D5E3F4FAE014F5E5F4FB5018F
:10090000C7010E940019019799F5412C512C320121
:10091000C12CD12C3A2C2B2C29893A898D859E8586
:10092000281739070CF0FFC00CEB11E09E012D5E7B
:100930003F4FAE014F5E5F4F632D722DC7010E9486
:1009400000194C01F3E0CF16D10409F0ACC00CEB58
:1009500011E09E012D5E3F4FAE014F5E5F4F632D54
:10096000722DC7010E9400198816990609F49BC0D0
:10097000EB85FC8582819381C697869708F4DCC05D
:1009800083C18091150590911605825491098E9727
:1009900008F01ACE20E030E080E090E0DC01F901C0
:1009A000E95EFA4F40815181495051094930510562
:1009B00078F00ACE8091170590911805099709974C
:1009C00008F0FDCD1A8619868FEF9FEFDC0155C127
:1009D000F901E75EFA4F4081518147515109423197
:1009E000510578F4880F991FAA1FBB1F81602C5FE7
:1009F0003F4F2038310599F620E230E03A872987C9
:100A00003CC140815181465051094730510508F0A1
:100A1000DBCD880F991FAA1FBB1FE9CF2081318131
:100A2000235131092F30310540F4440F551F661F03
:100A3000771F416002963496EBCD208131812A5098
:100A400031092930310508F00ACE440F551F661FC1
:100A5000771FF0CF8091150590911605C697869760
:100A600008F047CEE9E1F5E083E090E040E050E0B7
:100A7000BA0121CE208131812C5031092A30310533
:100A800008F037CE440F551F661F771F12CE0D900A
:100A9000BC91A02D1C971B9708F071CE440F551FD9
:100AA000661F771F51CE0CEB11E09E012D5E3F4F6C
:100AB000AE014F5E5F4F632D722DC7010E9400197A
:100AC0005C0123E0C216D10489F40CEB11E09E0115
:100AD0002D5E3F4FAE014F5E5F4F632D722DC701FC
:100AE0000E940019A816B90609F042CF811491049A
:100AF00059F4AA94AB2809F03BCF440C551C661C52
:100B0000771C689440F80BC08A94892809F030CF8C
:100B1000AB2809F02DCF440C551C661C771CAFEF99
:100B2000CA1ADA0AF9CEDA86C9864D825E826F82E7
:100B3000788682E090E086C0848195814B974597C6
:100B400008F0A2C0DF0116967F0196ECE90EF11CB9
:100B500020E030E040E050E060E070E080E090E0D5
:100B60000D911C911197095011090830110508F0D9
:100B70008BC012960D911C911397015111090D30E4
:100B80001105D0F401E00E94C42D21601496AE1529
:100B9000BF0531F72D833E834F83588700E20E94C3
:100BA000DF2D2B833C8385E090E09A83898380E36B
:100BB00090E09A87898748C012960D911C911397EF
:100BC000045011090530110508F05EC001E00E94D3
:100BD000C42DDCCF980122503109D9012D913C91CF
:100BE000295031092830310508F0FCC0BC016F5F85
:100BF0007F4FD8012D913C91275031092730310585
:100C000008F0C1C2440F551F416002960C5F1F4F90
:100C100020910E0530E02450310982179307D4F259
:100C20000197959587959A8789878A970CF4DAC0FA
:100C3000052E000C660B770B4D835E836F837887E0
:100C400089E090E09A83898382E080930A0510927C
:100C50000E056DE274E08DE694E00E946F1C6D81DC
:100C60007E818F8198854AE00E94841C69E374E04C
:100C70008DE694E00E946F1CD4C28D839E83AF8367
:100C8000B88783E090E0DECF80910E05893370F164
:100C900082819381895791098335910508F438C180
:100CA00025C0D90112966D917C91139766517109F7
:100CB0006131710508F052C1D701C601880F991F33
:100CC000AA1FBB1F6C017D016894C0F84E5F5F4F87
:100CD0002C5F3F4F4B33510509F429C1D9016D9168
:100CE0007C916A50710969307105D8F280910E05C6
:100CF000823231F4828193810A97099708F43EC1C8
:100D0000828193818957910983359105D0F480912F
:100D10000E058132B0F084819581CA97899788F455
:100D20009F012A5F3F4FC12CD12C760143E050E058
:100D3000D9016D917C916A5071096930710508F48F
:100D400036C1828193818C549109C59778F4809142
:100D50000E05843031F4848195818097479708F49B
:100D60007FC180910E05843408F061C180910E0529
:100D7000863460F1828193810C970B9708F4B2C19D
:100D800025C0D90112966D917C9113976E5171090E
:100D90006731710508F0D8C1D701C601880F991FC6
:100DA000AA1FBB1F6C017D016894C0F84E5F5F4FA6
:100DB0002C5F3F4F4534510509F4AFC1D9016D9106
:100DC0007C916C5071096B307105D8F280910E05E1
:100DD000883540F082819381855891098B35910542
:100DE00008F4C2C180910E058032E1F482819381C2
:100DF00006970697B8F4848195810997099790F42E
:100E00009F012A5F3F4FBF01625C7F4FC12CD12CF5
:100E10007601D9014D915C914650510946305105FA
:100E200008F4BEC18D859E859E8B8D8B06970CF434
:100E3000ECC18F010A5F1F4F73E0272E312CE5ECC8
:100E4000CE2EEDE9DE2EECE1EE2EE1E8FE2ED8010D
:100E50006D917C91F8013497A080B18080E090E0A2
:100E60000E94DF2A2B013C01B50180E090E00E9446
:100E7000DF2A4B015C012DEC3CEC4CE45FE30E946B
:100E8000402B9B01AC01C301B2010E94DA2A87FD0D
:100E900017C02DEC3CEC4CE45FE3C301B2010E94AF
:100EA000402B9B01AC01C501B4010E94DA2AE82F56
:100EB000880FFF0BEE27FF0FEE1FFF27319602C0B2
:100EC000E0E0F0E0A701960163E971E080E091E0E5
:100ED0000E94922D6F01FF0FEE08FF08C626D7264D
:100EE000E826F926BFEF2B1A3B0A0E5F1F4FED894C
:100EF000FE892E163F0609F0AACFCD82DE82EF8250
:100F0000F88680E290E09A8789878FEF9FEF9ACEEC
:100F100084819581CA97899708F0E8CE9F012A5F5E
:100F20003F4FC12CD12C760143E050E0D7CE9F013A
:100F30002A583F4FD9012D913C912A50310929302F
:100F4000310508F0D3CE2CE130E03A872987CD82F5
:100F5000DE82EF82F8868AE090E074CED9011296A4
:100F60006D917C911397665071096730710508F097
:100F7000BDCECC0CDD1CEE1CFF1CA8CE20910E05B6
:100F8000CF01820F911D820F911DDC0112978D916F
:100F90009C910A97099708F0B3CE1A8619868FEFAD
:100FA0009FEFDC018D839E83AF83B88734C1D90165
:100FB00012966D917C91139766517109613171059B
:100FC00058F112966D917C911397665071096730B4
:100FD000710508F0B6CECC0CDD1CEE1CFF1C4E5F7C
:100FE0005F4F2C5F3F4F4332510509F0A1CE9F0167
:100FF0002A5B3F4FD9012D913C912A50310929306C
:10100000310508F09ECE20E130E03A872987CD8275
:10101000DE82EF82F886FFC0D701C601880F991FD4
:10102000AA1FBB1F6C017D016894C0F8D8CF8481D2
:10103000958189549109C39708F098CE9F012A5F42
:101040003F4FBF016A577F4FC12CD12C7601D90188
:101050004D915C91495051094930510588F086CE37
:10106000868197810997099708F07BCE1A861986A1
:101070008FEF9FEFDC018D839E83AF83B887CEC057
:10108000D90112964D915C91139746515109413106
:101090005105C0F4D701C601880F991FAA1FBB1FB5
:1010A0006C017D016894C0F82C5F3F4F261737070D
:1010B00071F620E230E03A872987CD82DE82EF8226
:1010C000F886ACC0D90112964D915C9113974650A9
:1010D00051094730510508F049CECC0CDD1CEE1CFF
:1010E000FF1CE2CF848195810997099708F06ECEA5
:1010F000868197818C974F9708F068CE808591857F
:1011000089974D9708F062CE9F01265F3F4FC12C13
:10111000D12C760145E050E051CE9F0126573F4F3C
:10112000D9012D913C912C5031092B30310508F01B
:101130004DCE20E230E03A872987CD82DE82EF82F1
:10114000F88688E090E07ECDD90112966D917C9171
:101150001397695071096930710508F037CECC0CCE
:10116000DD1CEE1CFF1C22CE8481958182549109E6
:101170008E9708F037CE8F01045C1F4F8DE190E011
:1011800040E050E045CDD8012D913C9128513109E6
:101190002231310510F0CB0143CD440F551F35CD21
:1011A000D90112964D915C911397495151094331E0
:1011B0005105D8F4D701C601880F991FAA1FBB1F7C
:1011C0006C017D016894C0F82C5F3F4F26173707EC
:1011D00009F01FCE2EE030E03A872987CD82DE82EB
:1011E000EF82F8868FE090E02DCDD90112964D91D7
:1011F0005C911397495051094930510508F012CEBE
:10120000CC0CDD1CEE1CFF1CDFCF82E080930A05B6
:1012100010920E0506C086E090E014CD87E090E0C5
:1012200011CD66960FB6F894DEBF0FBECDBFDF912D
:10123000CF911F910F91FF90EF90DF90CF90BF90D3
:10124000AF909F908F907F906F905F904F903F9066
:101250002F900895CF93DF93EC01E881F9810190FD
:10126000F081E02DCE0109951816190644F4E881A5
:10127000F9810684F785E02DCE010995EECFDF9147
:10128000CF910895DC011496ED91FC9115971C9671
:101290008C911C97882361F01A962D913C911B9795
:1012A000621773072CF01896ED91FC9119970AC0FC
:1012B00020E030E007C03097C9F00280F381E02DD4
:1012C0002F5F3F4F26173707B4F32617370771F400
:1012D00081E01C968C931C971B963C932E931A9737
:1012E0001996FC93EE931897CF01089580E090E053
:1012F0000895CF93DF9377FD0EC0FC0122813381E7
:101300006217730744F4EA010E944209FC01D18389
:10131000C08381E001C080E0DF91CF9108950E94F9
:101320004209009721F0FC0180819181089580E0BD
:1013300090E00895FC01828193810895EF92FF92DD
:101340000F931F93CF93DF938C01C0E0D0E07C011B
:1013500082E1E80EF11CF80124893589C217D30710
:101360006CF4BE01C7010E948F09DC01ED91FC9174
:101370000488F589E02D09952196EDCF82E38283DB
:10138000DF91CF911F910F91FF90EF900895CF9330
:10139000DF93EC01E881F9810190F081E02DCE012D
:1013A00009951816190644F4E881F9810684F78531
:1013B000E02DCE010995EECFDF91CF910895EF9208
:1013C000FF920F931F93CF93DF93DC0112960D9141
:1013D0001C9113970115110561F4ED91FC910480A6
:1013E000F581E02DDF91CF911F910F91FF90EF904C
:1013F00009947B01EC0184E090E00E94A4292C81F7
:101400003D81FC0133832283F182E0829D838C83C2
:101410000F5F1F4F1B830A831C8681E0DF91CF91F2
:101420001F910F91FF90EF900895CF92DF92EF926E
:10143000FF920F931F93CF93DF939B01BA01DC01BF
:1014400012964D915C9113972417350734F0ED9166
:10145000FC910480F581E02D09C02115310579F456
:10146000DC01ED91FC910680F781E02DDF91CF91B9
:101470001F910F91FF90EF90DF90CF9009947B0127
:10148000E9018C0184E090E00E94A4296C01FC0138
:101490001182108213821282BE0161507109C8014B
:1014A0000E944209D6011196FC92EE92FC01228123
:1014B000338113963C932E931297D382C282D80124
:1014C00012968D919C911397019613969C938E93EF
:1014D00012971C961C9281E0DF91CF911F910F9182
:1014E000FF90EF90DF90CF9008950F931F93CF93CD
:1014F000DF93EC018B0184E090E00E94A429FC01C1
:1015000013821282118300832C813D81232B29F0C9
:10151000EE81FF819383828302C09D838C839F83AE
:101520008E838A819B8101969B838A831C8681E0BE
:10153000DF91CF911F910F9108954F925F926F921B
:101540007F928F929F92AF92BF92CF92DF92EF9253
:10155000FF920F931F93CF93DF93EC01E0917D04F3
:10156000F0917E0482E08083E0917904F0917A0426
:101570001082E0917B04F0917C0487E680831092D6
:101580008504E0918104F091820486E08083E091FB
:101590007F04F0918004808180618083E0917F04EA
:1015A000F0918004808188608083E0917F04F091D5
:1015B0008004808180688083E0917F04F0918004C2
:1015C00080818F7D808384E190E00E94A4296C015A
:1015D0000F85188960E370E00E94072085E194E0A0
:1015E000F60191838083138B028B81E382838FE1E9
:1015F00090E00E94A4297C0161E370E00E94072032
:1016000082E291E0F701918380838AE091E0938BFD
:10161000828B178A168A118E108E158A148A138E61
:10162000128E158E148E168E6B897C89C7010E94CE
:101630003B1C6D897E89C7010E943B1C6F89788D98
:10164000C7010E943B1C8FE190E00E94A4298C01FD
:1016500063E370E00E94072086E591E0F801918342
:1016600080838EE391E0938B828B178A168A118E8A
:10167000108E158A148A138E128E158E148E168E65
:10168000698D7A8D6115710521F0C80142960E941D
:10169000750A6B8D7C8D6115710521F0C80142962C
:1016A0000E94750A6D8D7E8D6115710521F0C8014E
:1016B00042960E94750A6F8D78A16115710521F01F
:1016C000C80142960E94750A88E190E00E94A42910
:1016D0003C0149A05AA0ABA0BCA08DA09EA062E393
:1016E00070E00E94072082E791E0F30191838083FC
:1016F000938A828AB58AA48A578A468A81E3582EB9
:10170000528284E190E00E94A4294C01A9A4BAA4C9
:1017100064E370E00E9407208EE891E0F401918379
:101720008083B38AA28A528284E190E00E94A42935
:101730005C014FA058A465E370E00E9407208AEA8C
:1017400091E0F50191838083538A428AE881F9818F
:101750000484F585E02DB601CE010995E881F98173
:101760000484F585E02DB701CE010995E881F98162
:101770000484F585E02DB801CE010995E881F98151
:101780000484F585E02DB301CE010995E881F98146
:101790000484F585E02DB401CE010995E881F98135
:1017A0000484F585E02DB501CE010995CE01DF91C8
:1017B000CF911F910F91FF90EF90DF90CF90BF904E
:1017C000AF909F908F907F906F905F904F900C9410
:1017D000B91D0C94392A0C94392AEF92FF920F9379
:1017E0001F93CF93DF93FC01628173811616170656
:1017F00064F5EC01148661307105C1F06250710925
:101800000E9442097C01FC0182819381FC010081DC
:1018100011810E94392AF70113821282FF82EE821F
:101820008A819B8101979B838A830DC084819581E6
:10183000FC01008111810E94392A1D821C821F82B5
:101840001E821B821A82C80102C080E090E0DF91F4
:10185000CF911F910F91FF90EF900895EF92FF921B
:101860000F931F93CF93DF93DC0112962D913C9140
:1018700013971216130624F521303105A1F0EC015F
:10188000EC81FD81E280F38000811181CF010E9413
:10189000392AFD82EC828A819B8101979B838A830E
:1018A0001C86C8010FC0DC01ED91FC910484F58514
:1018B000E02DDF91CF911F910F91FF90EF90099450
:1018C00080E090E0DF91CF911F910F91FF90EF901A
:1018D00008950F931F93CF93DF9377FD3EC0DC01F4
:1018E00012962D913C91139762177307B4F5611509
:1018F000710531F4ED91FC910684F785E02D0BC064
:10190000215031096217730759F4DC01ED91FC9104
:101910000484F585E02DDF91CF911F910F910994FB
:10192000EC01615071090E944209DC011296ED91AF
:10193000FC911397008111812281338113963C938E
:101940002E931297CF010E94392A8A819B81019799
:101950009B838A831C86C80102C080E090E0DF91EF
:10196000CF911F910F910895CF93DF93EC0186E8FB
:1019700093E0998388838F859889009739F0DC01FB
:10198000ED91FC910280F381E02D099589899A8976
:10199000009739F0DC01ED91FC910280F381E02D9C
:1019A00009958B899C89009739F0DC01ED91FC91B8
:1019B0000280F381E02D09958D899E89009739F089
:1019C000DC01ED91FC910280F381E02D09958F8976
:1019D000988D009739F0DC01ED91FC910280F38144
:1019E000E02D0995898D9A8D009739F0DC01ED91F4
:1019F000FC910280F381E02D09958B8D9C8D0097E1
:101A000039F0DC01ED91FC910280F381E02D099524
:101A10008D8D9E8D009739F0DC01ED91FC91028057
:101A2000F381E02D09958F8D98A1009739F0DC01A5
:101A3000ED91FC910280F381E02D099589A19AA195
:101A4000009739F0DC01ED91FC910280F381E02DEB
:101A500009958BA19CA1009739F0DC01ED91FC91D7
:101A60000280F381E02D09958DA19EA1009739F0A8
:101A7000DC01ED91FC910280F381E02D09958FA1AD
:101A800098A5009739F0DC01ED91FC910280F3817B
:101A9000E02D099589A59AA5009739F0DC01ED9113
:101AA000FC910280F381E02D0995CE01DF91CF9169
:101AB0000C94E01DCF93DF93EC010E94B40CCE0197
:101AC000DF91CF910C94392AFC0186818130E1F4B9
:101AD00085818E3008F08E508770806480937C0002
:101AE00080917A00806480937A0080917A0086FDEC
:101AF000FCCF609178008091790070E0782B072E00
:101B0000000C880B990B07C085810E94B617BC0199
:101B1000990F880B990B0E94E12A0895CF93DF93C8
:101B2000EC0160E08D810E940F1883E38A83DF91CE
:101B3000CF910895CF93DF93EC0161E08D810E94F6
:101B40000F188E81813011F460E001C061E08D8159
:101B50000E94DF171F8283E38A83DF91CF9108956C
:101B60000F931F93CF93DF93EC0186E591E0998368
:101B700088838E010E5E1F4F2C893D891216130635
:101B80007CF460E070E0C8010E94690C0097A1F34A
:101B9000DC01ED91FC910280F381E02D0995ECCF01
:101BA0008EE391E09B8B8A8B8E899F89009741F011
:101BB000FC01228133813F8B2E8B0E94392AF4CF86
:101BC000CE01DF91CF911F910F910C947820CF938C
:101BD000DF93EC010E94B00DCE01DF91CF910C9408
:101BE000392ACF93DF9377FD0EC0FC012281338128
:101BF0006217730744F4EA010E94A513FC01D18324
:101C0000C08381E001C080E0DF91CF910895089505
:101C1000CF93DF93EC018E81813011F460E001C03D
:101C200061E08D810E94DF171F82DF91CF910895BF
:101C30002F923F924F925F926F927F928F929F92DC
:101C4000AF92BF92CF92DF92EF92FF920F931F93CA
:101C5000CF93DF9300D000D0CDB7DEB76C012C015D
:101C600085E0480E511C5601A2E1AA0EB11C47E0C6
:101C7000842E912CD60117968D919C911897181649
:101C800019060CF0B1C060E070E0C2010E949A1E1B
:101C90008C01FC01808191818230910508F446C05D
:101CA0000280F381E02D2081E180F12CFE2CEE24D6
:101CB000E20EF11C97012153310923303105D0F692
:101CC0000497A0F182816380712C762C6624680EC3
:101CD000711C212C312CF60184899589281639062E
:101CE0000CF082C0B101C5010E948F09DC01ED91A9
:101CF000FC910288F389E02D09958615970541F43A
:101D0000B101C5010E948F093C01009729F46CC004
:101D1000BFEF2B1A3B0ADFCFF3E3EF16F10409F014
:101D200052C0D8018D919C91069759F0011511056B
:101D300009F45AC0C8010E942020C8010E94392A13
:101D400053C0D8011296ED91FC91139784810581BF
:101D500010E0102F0027080F111D9A82898287E05A
:101D600090E00E94A4297C019C838B8382E0F70190
:101D70008083118202831383D301ED91FC91028849
:101D8000F389E02DC3010995F70184839583D3017D
:101D900017968C91EB81FC81882319F0B1E0B68312
:101DA00002C082E08683D601ED91FC910488F5891A
:101DB000E02DBE016F5F7F4FC6010995CE010196F0
:101DC0000E94202057CFB1E3EB16F10451F4FC013F
:101DD000668185810E94DF17E1E0D3011796EC93BD
:101DE00049CF0E94080E46CF0F900F900F900F9092
:101DF000DF91CF911F910F91FF90EF90DF90CF90E7
:101E0000BF90AF909F908F907F906F905F904F901A
:101E10003F902F9008950895FC0182819381089549
:101E2000CF93DF93EC01E881F9810190F081E02DFF
:101E3000CE0109951816190644F4E881F981068443
:101E4000F785E02DCE010995EECFDF91CF91089572
:101E5000DC011496ED91FC9115971C968C911C97C2
:101E6000882361F01A962D913C911B976217730796
:101E70002CF01896ED91FC9119970AC020E030E003
:101E800007C03097C9F00280F381E02D2F5F3F4FEC
:101E900026173707B4F32617370771F481E01C962D
:101EA0008C931C971B963C932E931A971996FC9330
:101EB000EE931897CF01089580E090E00895CF93B6
:101EC000DF9377FD0EC0FC01228133816217730717
:101ED00044F4EA010E94280FFC01D183C08381E011
:101EE00001C080E0DF91CF9108950E94280F0097F4
:101EF00021F0FC0180819181089580E090E00895B7
:101F0000FC018281938108958F929F92AF92BF923C
:101F1000CF92DF92EF92FF920F931F93CF93DF93B5
:101F20007C016B015A01C0E0D0E04C0182E0880ED8
:101F3000911CF70184819581C817D907D4F4BE019B
:101F4000C4010E94750F8C01DC01ED91FC910684A7
:101F5000F785E02D09958A159B0549F4D801ED9187
:101F6000FC910088F189E02DB601C8010995219600
:101F7000E0CFDF91CF911F910F91FF90EF90DF9015
:101F8000CF90BF90AF909F908F900895EF92FF9267
:101F90000F931F93CF93DF938C01C0E0D0E07C01BF
:101FA00082E0E80EF11CF80124813581C217D307C5
:101FB0006CF4BE01C7010E94750FDC01ED91FC912C
:101FC0000284F385E02D09952196EDCFDF91CF9125
:101FD0001F910F91FF90EF900895EF92FF920F9352
:101FE0001F93CF93DF938C01C0E0D0E07C0182E0AF
:101FF000E80EF11CF80124813581C217D3076CF477
:10200000BE01C7010E94750FDC01ED91FC910084B7
:10201000F185E02D09952196EDCFDF91CF911F91AC
:102020000F91FF90EF9008958C017C0182E0E80E03
:10203000F11CC0E0D0E0F80184819581C817D90770
:10204000C4F7BE01C7010E94750FDC01ED91FC9140
:102050000680F781E02D09952196EDCFEF92FF9252
:102060000F931F93CF93DF93DC0112960D911C9178
:1020700013970115110561F4ED91FC910480F58130
:10208000E02DDF91CF911F910F91FF90EF90099478
:102090007B01EC0184E090E00E94A4292C813D8129
:1020A000FC0133832283F182E0829D838C830F5F66
:1020B0001F4F1B830A831C8681E0DF91CF911F9104
:1020C0000F91FF90EF9008950F931F93CF93DF939D
:1020D000EC018B0184E090E00E94A429FC011382B2
:1020E0001282118300832C813D81232B29F0EE8104
:1020F000FF819383828302C09D838C839F838E8321
:102100008A819B8101969B838A831C8681E0DF9173
:10211000CF911F910F910895EF92FF920F931F930C
:10212000CF93DF93DC0112960D911C91139701154B
:10213000110561F4ED91FC910480F581E02DDF91B2
:10214000CF911F910F91FF90EF9009947B01EC01CB
:1021500084E090E00E94A4292C813D81FC0133831E
:102160002283F182E0829D838C830F5F1F4F1B834C
:102170000A831C8681E0DF91CF911F910F91FF9020
:10218000EF900895CF92DF92EF92FF920F931F93FB
:10219000CF93DF939B01BA01DC0112964D915C91C4
:1021A00013972417350734F0ED91FC910480F581E5
:1021B000E02D09C02115310579F4DC01ED91FC9188
:1021C0000680F781E02DDF91CF911F910F91FF9055
:1021D000EF90DF90CF9009947B01E9018C0184E0BE
:1021E00090E00E94A4296C01FC01118210821382EC
:1021F0001282BE0161507109C8010E94280FD601E8
:102200001196FC92EE92FC012281338113963C934D
:102210002E931297D382C282D80112968D919C91EF
:102220001397019613969C938E9312971C961C926B
:1022300081E0DF91CF911F910F91FF90EF90DF90A0
:10224000CF9008950F931F93CF93DF93EC018B01F1
:1022500084E090E00E94A429FC0113821282118381
:1022600000832C813D81232B29F0EE81FF81938314
:10227000828302C09D838C839F838E838A819B810E
:1022800001969B838A831C8681E0DF91CF911F9109
:102290000F91089502960C942211EF92FF920F93E2
:1022A0001F93CF93DF93DC0112962D913C911397EE
:1022B0001216130624F521303105A1F0EC01EC8152
:1022C000FD81E280F38000811181CF010E94392AD3
:1022D000FD82EC828A819B8101979B838A831C8685
:1022E000C8010FC0DC01ED91FC910484F585E02D5F
:1022F000DF91CF911F910F91FF90EF90099480E0B3
:1023000090E0DF91CF911F910F91FF90EF90089592
:10231000EF92FF920F931F93CF93DF93FC016281A3
:1023200073811616170664F5EC0114866130710589
:10233000C1F0625071090E94280F7C01FC0182816A
:102340009381FC01008111810E94392AF7011382D7
:102350001282FF82EE828A819B8101979B838A830E
:102360000DC084819581FC01008111810E94392A70
:102370001D821C821F821E821B821A82C80102C01B
:1023800080E090E0DF91CF911F910F91FF90EF904F
:102390000895EF92FF920F931F93CF93DF93DC0189
:1023A00012962D913C9113971216130624F52130A5
:1023B0003105A1F0EC01EC81FD81E280F380008128
:1023C0001181CF010E94392AFD82EC828A819B8192
:1023D00001979B838A831C86C8010FC0DC01ED91A5
:1023E000FC910484F585E02DDF91CF911F910F9131
:1023F000FF90EF90099480E090E0DF91CF911F91E2
:102400000F91FF90EF9008950F931F93CF93DF9359
:1024100077FD3EC0DC0112962D913C911397621717
:102420007307B4F56115710531F4ED91FC910684E3
:10243000F785E02D0BC0215031096217730759F45D
:10244000DC01ED91FC910484F585E02DDF91CF91C5
:102450001F910F910994EC01615071090E94280F9E
:10246000DC011296ED91FC9113970081118122817C
:10247000338113963C932E931297CF010E94392AF1
:102480008A819B8101979B838A831C86C80102C035
:1024900080E090E0DF91CF911F910F9108952F92EE
:1024A0003F924F925F926F927F928F929F92AF92E4
:1024B000BF92CF92DF92EF92FF920F931F93CF9331
:1024C000DF9300D000D000D0CDB7DEB79E838D83E0
:1024D0001B01DB0116968D919C911797892B09F0B2
:1024E000FBC0F10100811181D801ED91FC91008CBC
:1024F000F18DE02DC80109956B017C016CE374E05E
:102500008DE694E00E946F1CA7019601C701B601F9
:102510000E94782D882319F06CE474E01AC04601FB
:102520005701E894B7F82FEF3FEF4FE75FE7C5019A
:10253000B4010E94782D811111C02FEF3FEF4FE7BA
:102540005FE7C501B4010E94DA2A18163CF460E581
:1025500074E08DE694E00E946F1C82C02FEF3FEF85
:102560004FE75FE4C701B6010E942D2D18161CF439
:1025700064E574E0EECF2FEF3FEF4FE75FECC7016C
:10258000B6010E94DA2A87FDF3CF20E030E0A901EE
:10259000C701B6010E94DA2A87FF0FC0E0916D04DF
:1025A000F0916E040190F081E02D6DE28DE694E0F3
:1025B0000995C701B601905802C0C701B6012AE0CB
:1025C00037ED43EA5BE30E94192C2B013C010E948A
:1025D000FE2C4B015C010E94DF2A9B01AC01C30170
:1025E000B2010E94182C2B013C014AE0C501B40144
:1025F0000E94841CE0916D04F0916E040190F081C2
:10260000E02D6EE28DE694E0099520E030E040E2B6
:1026100051E4C301B2010E94402B4B015C010E94B6
:10262000FE2C2B01612C712C4AE0C301B2010E94E7
:10263000841CC301B2010E94DF2A9B01AC01C501C9
:10264000B4010E94182C20E030E040E251E40E94E6
:10265000402B0E94FE2C80E090E04AE00E94841C07
:1026600069E374E08DE694E00E946F1C88E090E0DE
:102670009A8389830E94A4295C019C838B8381E0D7
:10268000F50180831182D801ED91FC910288F389D4
:10269000E02DC8010995F50182839383EB81FC81CC
:1026A000C482D582E682F782AD81BE81ED91FC9134
:1026B00011970688F789E02DBE016F5F7F4FCD012E
:1026C0000995CE0101960E9420200E94AA18F101CE
:1026D00060877187828793878CE693E1D101179693
:1026E0009C938E9316970E94AA18F101008511857C
:1026F00022853385AB01BC01401B510B620B730B70
:1027000082819381A0E0B0E0481759076A077B07F0
:1027100008F0E7CE80E090E026960FB6F894DEBF92
:102720000FBECDBFDF91CF911F910F91FF90EF9022
:10273000DF90CF90BF90AF909F908F907F906F90E1
:102740005F904F903F902F900895DC011496ED918B
:10275000FC9115971C968C911C97882361F01A9612
:102760002D913C911B97621773072CF01896ED91F1
:10277000FC9119970AC020E030E007C03097C9F0FB
:102780000280F381E02D2F5F3F4F26173707B4F308
:102790002617370771F481E01C968C931C971B96C3
:1027A0003C932E931A971996FC93EE931897CF01AA
:1027B000089580E090E00895CF92DF92EF92FF922B
:1027C0000F931F93CF93DF939B01BA01DC01129605
:1027D0004D915C9113972417350734F0ED91FC91DE
:1027E0000480F581E02D09C02115310579F4DC0163
:1027F000ED91FC910680F781E02DDF91CF911F9143
:102800000F91FF90EF90DF90CF9009947B01E90149
:102810008C0184E090E00E94A4296C01FC011182EB
:10282000108213821282BE0161507109C8010E9498
:10283000A513D6011196FC92EE92FC012281338100
:1028400013963C932E931297D382C282D80112968C
:102850008D919C911397019613969C938E9312974A
:102860001C961C9281E0DF91CF911F910F91FF90F8
:10287000EF90DF90CF900895EF92FF920F931F9308
:10288000CF93DF93FC01628173811616170664F5FE
:10289000EC01148661307105C1F0625071090E942B
:1028A000A5137C01FC0182819381FC0100811181CF
:1028B0000E94392AF70113821282FF82EE828A81F6
:1028C0009B8101979B838A830DC084819581FC0144
:1028D000008111810E94392A1D821C821F821E8262
:1028E0001B821A82C80102C080E090E0DF91CF9184
:1028F0001F910F91FF90EF9008950E94A5130097EC
:1029000021F0FC0180819181089580E090E008959C
:102910005F926F927F928F929F92AF92BF92CF926F
:10292000DF92EF92FF920F931F93CF93DF937C017F
:102930004C0185E0880E911C5701A2E1AA0EB11C42
:1029400055245394D70117968D919C91189718167A
:10295000190624F560E070E0C4010E949A1EEC01A3
:10296000888199818230910588F0EA81FB812081FC
:10297000018110E0102F0027020F111D9801215333
:10298000310923303105B8F4049770F4209731F001
:10299000CE010E942020CE010E94392AC0E0D0E062
:1029A00087010E5E1F4F60C08281C380D12CDC2C5A
:1029B000CC24C80ED11C612C712CF7018489958917
:1029C000681679061CF7B301C5010E947D14FC014D
:1029D00080819181DC01ED91FC910288F389E02DE9
:1029E00009958C159D0541F4B301C5010E947D1424
:1029F000FC01892B29F4CACFBFEF6B1A7B0ADDCF0C
:102A00000133110511F4558218C00233110511F478
:102A1000158213C00333110581F4888199810697CB
:102A200008F4BCCFAA81BB8114968C91149715969B
:102A30009C91009711F093838283209709F482CFB1
:102A4000CE010E942020CE010E94392A7BCFBE01F8
:102A5000C8010E947D14BC01FC018581882359F0C6
:102A6000C7010E944F122196F70124893589C217A8
:102A7000D3076CF303C017821682F5CFDF91CF9195
:102A80001F910F91FF90EF90DF90CF90BF90AF908C
:102A90009F908F907F906F905F900895EF92FF923C
:102AA0000F931F93CF93DF938C01C0E0D0E07C01A4
:102AB00082E1E80EF11CF80124893589C217D30799
:102AC00084F4BE01C7010E947D14DC018D919C91AC
:102AD000DC01ED91FC910488F589E02D09952196A2
:102AE000EACF82E38283DF91CF911F910F91FF9014
:102AF000EF9008950F931F93CF93DF9377FD3EC020
:102B0000DC0112962D913C91139762177307B4F56F
:102B10006115710531F4ED91FC910684F785E02D86
:102B20000BC0215031096217730759F4DC01ED9194
:102B3000FC910484F585E02DDF91CF911F910F91D9
:102B40000994EC01615071090E94A513DC011296F1
:102B5000ED91FC91139700811181228133811396AD
:102B60003C932E931297CF010E94392A8A819B8130
:102B700001979B838A831C86C80102C080E090E095
:102B8000DF91CF911F910F910895EF92FF920F93D4
:102B90001F93CF93DF93EC0182E291E099838883C6
:102BA0007E0182E1E80EF11C2C893D891216130684
:102BB000C4F460E070E0C7010E947A158C010097B0
:102BC00099F3DC018D919C91009739F0DC01ED9136
:102BD000FC910280F381E02D0995C8010E94392AF9
:102BE000E3CF8AE091E09B8B8A8B8E899F89009747
:102BF00041F0FC01228133813F8B2E8B0E94392AC8
:102C0000F4CFCE01DF91CF911F910F91FF90EF9004
:102C10000C947820CF93DF93EC010E94C515CE0170
:102C2000DF91CF910C94392AFC01538D448D252FCF
:102C300030E0842F90E0821B930B541710F0CF9656
:102C4000089501970895FC01918D828D981761F088
:102C5000828DDF01A80FB11D5D968C91928D9F5FD3
:102C60009F73928F90E008958FEF9FEF0895FC017E
:102C7000918D828D981731F0828DE80FF11D858D31
:102C800090E008958FEF9FEF0895FC01918D228DC4
:102C9000892F90E0805C9F4F821B91098F73992749
:102CA00008958DE694E00E94451621E0892B09F4F1
:102CB00020E0822F0895FC01848DDF01A80FB11D53
:102CC000A35ABF4F2C91848D90E001968F73992762
:102CD000848FA689B7892C93A089B1898C9180644F
:102CE0008C93938D848D981306C00288F389E02D10
:102CF00080818F7D80830895EF92FF920F931F93C1
:102D0000CF93DF93EC0181E0888F9B8D8C8D98139E
:102D100005C0E889F989808185FD24C0F62E0B8DD8
:102D200010E00F5F1F4F0F731127E02E8C8DE812FC
:102D30000CC00FB607FCFACFE889F989808185FFBE
:102D4000F5CFCE010E945B16F1CF8B8DFE01E80F0F
:102D5000F11DE35AFF4FF0820B8FEA89FB898081D6
:102D6000806207C0EE89FF896083E889F9898081E4
:102D70008064808381E090E0DF91CF911F910F917B
:102D8000FF90EF900895CF93DF93EC01888D882317
:102D9000C9F0EA89FB89808185FD05C0A889B989C8
:102DA0008C9186FD0FC00FB607FCF5CF808185FFA3
:102DB000F2CFA889B9898C9185FFEDCFCE010E9411
:102DC0005B16E7CFDF91CF91089580E090E0892BEB
:102DD00029F00E94511681110C940000089583304F
:102DE00081F028F4813099F08230A1F00895873085
:102DF000A9F08830B9F08430D1F4809180008F7DC3
:102E000003C0809180008F7780938000089584B5FF
:102E10008F7702C084B58F7D84BD08958091B00006
:102E20008F7703C08091B0008F7D8093B0000895AC
:102E3000CF92DF92EF92FF92CF93DF93EC01072EB8
:102E4000000C880B990B0E94E12A6B017C0120E0A9
:102E500030E040E45FE30E94402B20E030E048E4B3
:102E600052E40E94852C0E94F72CC617D707D4F095
:102E700020E030E040EA5FE3C701B6010E94402B4A
:102E800020E030E048E452E40E94852C20E030E06D
:102E900040E85FE30E94192C0E94F72C21E06C1798
:102EA0007D070CF420E0822F90E0DF91CF91FF901E
:102EB000EF90DF90CF9008950E94012E1F920F9205
:102EC0000FB60F9211242F933F934F935F936F93FD
:102ED0007F938F939F93AF93BF93EF93FF938DE671
:102EE00094E00E945B16FF91EF91BF91AF919F918B
:102EF0008F917F916F915F914F913F912F910F90A3
:102F00000FBE0F901F9018951F920F920FB60F9241
:102F100011242F938F939F93EF93FF93E0917D0460
:102F2000F0917E048081E0918304F091840482FD1D
:102F300012C09081809186048F5F8F7320918704E7
:102F4000821751F0E0918604F0E0E359FB4F958F32
:102F50008093860401C08081FF91EF919F918F91B2
:102F60002F910F900FBE0F901F901895CF93DF9366
:102F7000282F30E0F901ED53FB4F8491F901E15521
:102F8000FB4FD491F901E556FB4FC491CC2391F04E
:102F900081110E94EF16EC2FF0E0EE0FFF1FEF56AD
:102FA000FB4FA591B491EC91ED2381E090E021F4E9
:102FB00080E002C080E090E0DF91CF9108951F9300
:102FC000CF93DF93282F30E0F901ED53FB4F84912D
:102FD000F901E155FB4FD491F901E556FB4FC4913E
:102FE000CC23C9F0162F81110E94EF16EC2FF0E0D0
:102FF000EE0FFF1FE957FB4FA591B4918FB7F894DF
:10300000111105C09C91ED2FE095E92302C0EC91D0
:10301000ED2BEC938FBFDF91CF911F910895CF934C
:10302000DF9390E0FC01E155FB4F2491FC01E55654
:10303000FB4F8491882361F190E0880F991FFC0178
:10304000E358FB4FC591D491FC01E957FB4FA59183
:10305000B491611109C09FB7F894888120958223AB
:103060008883EC912E230BC0623061F49FB7F894F3
:103070003881822F809583238883EC912E2B2C938B
:103080009FBF06C08FB7F894E8812E2B28838FBF8F
:10309000DF91CF9108953FB7F894809169049091A2
:1030A0006A04A0916B04B0916C0426B5A89B05C07E
:1030B0002F3F19F00196A11DB11D3FBFBA2FA92FB7
:1030C000982F8827820F911DA11DB11DBC01CD0134
:1030D00042E0660F771F881F991F4A95D1F7089520
:1030E0008F929F92AF92BF92CF92DF92EF92FF9218
:1030F0006B017C010E944B184B015C01C114D1048F
:10310000E104F104F1F00E944B18DC01CB018819B5
:103110009909AA09BB09883E9340A105B10570F33E
:1031200021E0C21AD108E108F10888EE880E83E098
:10313000981EA11CB11CC114D104E104F10419F7BB
:10314000DDCFFF90EF90DF90CF90BF90AF909F903A
:103150008F9008952FB7F89460916504709166047C
:1031600080916704909168042FBF08951F920F9279
:103170000FB60F9211242F933F938F939F93AF938A
:10318000BF938091650490916604A0916704B0910B
:1031900068043091640423E0230F2D3720F4019656
:1031A000A11DB11D05C026E8230F0296A11DB11D6A
:1031B000209364048093650490936604A09367044D
:1031C000B09368048091690490916A04A0916B04A3
:1031D000B0916C040196A11DB11D80936904909378
:1031E0006A04A0936B04B0936C04BF91AF919F915C
:1031F0008F913F912F910F900FBE0F901F901895B8
:103200008F929F92AF92BF92CF92DF92EF92FF92F6
:103210000F931F93CF93DF93DA01CD91DC91FB01E4
:1032200084859585C817D9070CF04CC0CE01880F4E
:10323000991F0284F385E02DE80FF91F80809180AB
:10324000C170DD27F1E0CF27209719F484E690E0E4
:1032500002C08CE99FEF59016A017801E80EF91E5E
:10326000B701C4010E941817892B99F4E00EF11ED2
:10327000B701C4010E941817892B71F4B701600FC0
:10328000711FC4010E941817892BF9F023E030E068
:1032900005C021E030E002C022E030E0D5018D9190
:1032A0009C91119701968217930744F0F5011182C2
:1032B0001082D6018D919C91119701968D939C93CC
:1032C000CE0105C081E090E002C08FEF9FEFDF915B
:1032D000CF911F910F91FF90EF90DF90CF90BF9013
:1032E000AF909F908F9008951F920F920FB60F92FC
:1032F00011242F933F934F935F936F937F938F93FB
:103300009F93AF93BF93EF93FF9380910B050E9420
:10331000B61720910F05309110052F5F3F4F309366
:10332000100520930F0590910E05953618F096E044
:1033300090930A0590910A059430C9F128F49230CF
:1033400069F09330D1F05EC0953009F451C09630E9
:1033500009F058C091E09093DB0551C0811152C033
:1033600020910F05309110052436310508F442C034
:103370001092DB0510920E051CC0813009F042C08E
:10338000E0910E0591E09E0F90930E05F0E02091E4
:103390000F0530911005EE0FFF1FE65FFA4F3087E3
:1033A00027831092100510920F0594E029C0811117
:1033B00017C0E0910E0591E09E0F90930E05F0E08E
:1033C00020910F0530911005EE0FFF1FE65FFA4FB9
:1033D000308727831092100510920F0593E010C0DC
:1033E00020910F05309110052536310558F007C0A2
:1033F000811108C01092100510920F0503C095E0CE
:1034000090930A0590910D059923B9F081110AC096
:1034100080910C05882321F080910C0561E009C0A2
:103420002D9A0BC080910C05882331F080910C05FA
:1034300060E00E94DF1701C02D98FF91EF91BF91CE
:10344000AF919F918F917F916F915F914F913F913C
:103450002F910F900FBE0F901F9018952F923F92B3
:103460004F925F926F927F929F92AF92BF92CF9254
:10347000DF92EF92FF920F931F93CF93DF9300D0D1
:1034800000D01F92CDB7DEB76C01162F19821A82B9
:103490001B821C821D8261E0812F0E940F1860E058
:1034A000812F0E94DF1762E170E080E090E00E94CF
:1034B000701861E0812F0E94DF178BE990E001977F
:1034C000F1F760E0812F0E940F1851E1E52E57E2DD
:1034D000F52E812F0E94B617892B39F481E0E81A66
:1034E000F108B9F78EEF9FEF72C041E1E42E47E299
:1034F000F42E812F0E94B617019729F4E1E0EE1A0D
:10350000F108B9F7EFCF28E2E22EF12C912C07E079
:10351000AA24A394B12C91E1692E97E2792E812FF0
:103520000E94B617892B29F4F1E06F1A7108B9F7D8
:10353000D9CF0E944B181B012C0181E1682E87E234
:10354000782E812F0E94B617019729F481E0681A1E
:103550007108B9F7C7CF0E944B18DC01CB01821963
:103560009309A409B5098997A105B10578F0E1E0AF
:10357000F0E0EC0FFD1FE90DF11D80819501002E9B
:1035800001C0220F0A94EAF7282B2083011103C0FF
:10359000939407E001C00150E1E0EE1AF10809F050
:1035A000BACF8981282F30E0F601318320832B8127
:1035B000422F50E053834283280F81E090E03D8109
:1035C000321302C080E090E09195819591090F90AF
:1035D0000F900F900F900F90DF91CF911F910F914F
:1035E000FF90EF90DF90CF90BF90AF909F907F9033
:1035F0006F905F904F903F902F900895CF92DF9201
:10360000EF92FF920F931F93CF93DF93EC01E62E7F
:1036100060E08E810E94DF17DC84CA8407E010E03E
:10362000F12CB701002E02C0759567950A94E2F758
:10363000617077278C2D0E94DF1761E08D2D0E942D
:10364000DF1760E08D2D0E94DF170150110948F748
:1036500061E08E81DF91CF911F910F91FF90EF90EC
:10366000DF90CF900C94DF171F93CF93DF93EC0183
:10367000162F60E088850E94DF17612FCE01DF9151
:10368000CF911F910C94FE1AEF92FF921F93CF934C
:10369000DF931F92CDB7DEB77C01162FFC01608B44
:1036A000718B4687578760E249830E94341B60E82C
:1036B000610FC7010E94341B498160E4640FC70198
:1036C0000F90DF91CF911F91FF90EF900C94341BDE
:1036D0008F929F92AF92BF92CF92DF92EF92FF9222
:1036E0000F931F93CF93DF93CDB7DEB72B970FB612
:1036F000F894DEBF0FBECDBF8C01B62E0E966C01C6
:103700009AE0691304C0C6010E94621C74C0F801EB
:103710004685578560897189C8010E94441B61E014
:10372000F80180850E94DF1788E6E82E80E0F82EF9
:103730004BE050E0B701CE0101960E94D12A8A8168
:103740008B1581F0FBE0EF0EF11C8DE7E81684E0AD
:10375000F80671F74BE050E068E670E0CE010196A4
:103760000E94D12AAA84BB84F801808991898A0D9C
:103770009B1D8335910580F0C6010E94621CF801F3
:103780004685578560897189C8010E94441B61E0A4
:10379000F80180850E94DF174E01F3E08F0E911C27
:1037A000E12CF12CEA14FB0451F0F40161914F017A
:1037B000C8010E94FE1AFFEFEF1AFF0AF3CF60E084
:1037C000C8010E94FE1A8FEFE816F806A1F0F80172
:1037D000208931892F5F3F4F318B208B2435310574
:1037E00030F0C6010E94621CF801118A108AF1E0D3
:1037F000EF1AF108E8CF81E090E02B960FB6F8942D
:10380000DEBF0FBECDBFDF91CF911F910F91FF9013
:10381000EF90DF90CF90BF90AF909F908F900895E2
:10382000CF92DF92EF92FF920F931F93CF93DF938C
:103830006C017A018B01C0E0D0E0CE15DF0589F084
:10384000D8016D918D01D601ED91FC910190F0812F
:10385000E02DC6010995892B11F47E0102C0219645
:10386000ECCFC701DF91CF911F910F91FF90EF90A7
:10387000DF90CF9008950F931F93CF93DF9361153F
:103880007105D9F0EB018C018CE090E00E94A42935
:10389000FC01148281E0858317821682D183C08364
:1038A00088EB9BE093838283BF01C8014296DF913E
:1038B000CF911F910F910C946410DF91CF911F91C4
:1038C0000F910895FC0180819181019691838083FD
:1038D00013821282069710F01182108208956115EA
:1038E000710579F0FB0101900020E9F73197AF01F4
:1038F000461B570BDC01ED91FC910280F381E02D1A
:10390000099480E090E008958F929F92AF92BF92C9
:103910000F931F93CF93DF93CDB7DEB7A1970FB669
:10392000F894DEBF0FBECDBF19A2423008F44AE0C2
:103930008E010F5D1F4F842E912CA12CB12CA5015F
:1039400094010E94A22DE62FB901CA01015011096C
:10395000EA3014F4E05D01C0E95CD801EC93232B5C
:10396000242B252B61F7B8018DE694E00E946F1C93
:10397000A1960FB6F894DEBF0FBECDBFDF91CF91F9
:103980001F910F91BF90AF909F908F900895CF930C
:10399000DF93EC01E881F9810284F385E02D09953C
:1039A000E881F9810684F785E02DCE01DF91CF9182
:1039B0000994CF93DF93EC01E881F9810480F581CC
:1039C000E02D0995E881F9810680F781E02DCE018F
:1039D0000995E881F9810084F185E02DCE01DF9120
:1039E000CF910994FC01838194810895FC01828127
:1039F000089521E3FC012283089522E3FC01228340
:103A0000089523E3FC012283089524E3FC0122832B
:103A1000089523E3FC012283089522E3FC0122831D
:103A20000895CF93DF93EC01E881F9810190F08153
:103A3000E02DCE0109951816190644F4E881F981A4
:103A40000684F785E02DCE010995EECFDF91CF9169
:103A50000895DC011496ED91FC9115971C968C91BC
:103A60001C97882361F01A962D913C911B97621741
:103A700073072CF01896ED91FC9119970AC020E07D
:103A800030E007C03097C9F00280F381E02D2F5F4E
:103A90003F4F26173707B4F32617370771F481E035
:103AA0001C968C931C971B963C932E931A971996F1
:103AB000FC93EE931897CF01089580E090E008956D
:103AC0000E94291D009721F0FC01808191810895B9
:103AD00080E090E00895CF93DF9377FD0EC0FC0166
:103AE000228133816217730744F4EA010E94291D81
:103AF000FC01D183C08381E001C080E0DF91CF91E0
:103B00000895FC018281938108958091DC05909154
:103B1000DD05DC01ED91FC910684F785E02D40E3A5
:103B200050E009948091DC059091DD05DC01ED9178
:103B3000FC910684F785E02D0994FC018381948132
:103B40000895FC018281089521E3FC0122830895F8
:103B500022E3FC012283089523E3FC0122830895DC
:103B600022E3FC0122830895089580E090E0089507
:103B70000895EF92FF920F931F93CF93DF938C01E1
:103B8000C0E0D0E07C0182E0E80EF11CF801248165
:103B90003581C217D3076CF4BE01C7010E94750FAF
:103BA000DC01ED91FC910480F581E02D09952196D1
:103BB000EDCFDF91CF911F910F91FF90EF9008957E
:103BC0000F931F93CF93DF93EC0180EF91E0DE0121
:103BD0008D939D938D018C819D81181619067CF41F
:103BE00060E070E0C8010E9404120097A1F3DC01BC
:103BF000ED91FC910280F381E02D0995ECCF88EDE9
:103C000091E09B838A838E819F81009741F0FC0124
:103C1000228133813F832E830E94392AF4CFDF91A2
:103C2000CF911F910F910895CF93DF93EC010E94E4
:103C3000E01DCE01DF91CF910C94392AEF92FF92D3
:103C40000F931F93CF93DF93FC016281738116164C
:103C5000170664F5EC01148661307105C1F06250FD
:103C600071090E94291D7C01FC0182819381FC0164
:103C7000008111810E94392AF70113821282FF828A
:103C8000EE828A819B8101979B838A830DC0848108
:103C90009581FC01008111810E94392A1D821C82BC
:103CA0001F821E821B821A82C80102C080E090E03F
:103CB000DF91CF911F910F91FF90EF900895EF92B8
:103CC000FF920F931F93CF93DF93DC0112962D91F8
:103CD0003C9113971216130624F521303105A1F0FB
:103CE000EC01EC81FD81E280F38000811181CF0144
:103CF0000E94392AFD82EC828A819B8101979B83F5
:103D00008A831C86C8010FC0DC01ED91FC910484FC
:103D1000F585E02DDF91CF911F910F91FF90EF90EE
:103D2000099480E090E0DF91CF911F910F91FF9077
:103D3000EF9008950F931F93CF93DF9377FD3EC0CD
:103D4000DC0112962D913C91139762177307B4F51D
:103D50006115710531F4ED91FC910684F785E02D34
:103D60000BC0215031096217730759F4DC01ED9142
:103D7000FC910484F585E02DDF91CF911F910F9187
:103D80000994EC01615071090E94291DDC01129611
:103D9000ED91FC911397008111812281338113965B
:103DA0003C932E931297CF010E94392A8A819B81DE
:103DB00001979B838A831C86C80102C080E090E043
:103DC000DF91CF911F910F9108950C94392A0C9493
:103DD000392AEF92FF920F931F93CF93DF93DC0169
:103DE00012960D911C9113970115110561F4ED9137
:103DF000FC910480F581E02DDF91CF911F910F910F
:103E0000FF90EF9009947B01EC0184E090E00E9428
:103E1000A4292C813D81FC0133832283F182E0823D
:103E20009D838C830F5F1F4F1B830A831C8681E059
:103E3000DF91CF911F910F91FF90EF900895CF9256
:103E4000DF92EF92FF920F931F93CF93DF939B012B
:103E5000BA01DC0112964D915C9113972417350736
:103E600034F0ED91FC910480F581E02D09C021151D
:103E7000310579F4DC01ED91FC910680F781E02DAC
:103E8000DF91CF911F910F91FF90EF90DF90CF9036
:103E900009947B01E9018C0184E090E00E94A4294F
:103EA0006C01FC011182108213821282BE016150EA
:103EB0007109C8010E94291DD6011196FC92EE924B
:103EC000FC012281338113963C932E931297D38267
:103ED000C282D80112968D919C91139701961396E8
:103EE0009C938E9312971C961C9281E0DF91CF9148
:103EF0001F910F91FF90EF90DF90CF9008950F9357
:103F00001F93CF93DF93EC018B0184E090E00E943C
:103F1000A429FC0113821282118300832C813D812C
:103F2000232B29F0EE81FF819383828302C09D833E
:103F30008C839F838E838A819B8101969B838A8356
:103F40001C8681E0DF91CF911F910F910895EF9230
:103F5000FF920F931F93CF93DF937C018B0184E03B
:103F600090E00E94A429EC01D8018D919C91998345
:103F700088830E94A4299B838A8320E030E0888183
:103F800099812817390780F4D8011296ED91FC9198
:103F90001397E20FF31F8081EA81FB81E20FF31F89
:103FA00080832F5F3F4FEBCFBE01C7010596DF91A6
:103FB000CF911F910F91FF90EF900C947F1F0F9363
:103FC0001F93CF93DF938C01DC0152968D919C91CE
:103FD0005397DC01ED91FC910488F589E02D09955A
:103FE000F801C289D389259668E574E0CE010E9464
:103FF0006F1C69E374E0CE010E946F1C82E3D8015C
:1040000012968C93DF91CF911F910F910895FC012F
:1040100082EB93E091838083748363838AE993E0E6
:1040200096838583128611861486138610861782DE
:1040300016861586108A1786118A81E38283089571
:10404000FC0182819381009711F00C94392A089524
:10405000EF92FF920F931F93CF93DF9300D000D086
:10406000CDB7DEB7DB012D913C9121153105A9F1CA
:104070008B017C01C90102969A8389830E94A4293D
:104080009C838B8321E0FC012083118220E030E0BF
:10409000F801808191812817390780F4D8011296A0
:1040A000ED91FC911397E20FF31F8081EB81FC816E
:1040B000E20FF31F82832F5F3F4FEACFD701ED91CD
:1040C000FC910488F589E02DBE016F5F7F4FC70129
:1040D0000995CE0101960E9420200F900F900F901D
:1040E0000F90DF91CF911F910F91FF90EF90089566
:1040F000EF92FF920F931F93CF93DF93EC0182EB2C
:1041000093E0998388837E0185E0E80EF11C2F817E
:1041100038851216130674F460E070E0C7010E943F
:104120009A1E8C01009799F30E942020C8010E94DA
:10413000392AEDCF8AE993E09E838D8389859A851C
:10414000009741F0FC01228133813A8729870E9440
:10415000392AF4CFDF91CF911F910F91FF90EF900B
:104160000895CF93DF93EC010E947820CE01DF9178
:10417000CF910C94392A08952AEA31E0FC01318369
:1041800020830C947820CF93DF93EC010E94BC2015
:10419000CE01DF91CF910C94392A0895CF93DF930C
:1041A000EC018A899B89DC01ED91FC910488F589F9
:1041B000E02D099582E38A83DF91CF910895CF9313
:1041C000DF93EC018D819E81DC01ED91FC910488EF
:1041D000F589E02D0995CE01DF91CF910C94D91C82
:1041E000CF92DF92EF92FF920E944B186B017C01FD
:1041F0000E944B18DC01CB018C199D09AE09BF0947
:10420000883E9340A105B10540F08DE694E0FF9013
:10421000EF90DF90CF900C9423168DE694E00E94EF
:104220004516181619068CF3E3CF0F931F93CF93FF
:10423000DF93CDB7DEB727970FB6F894DEBF0FBE7A
:10424000CDBF8C0197E0EAECF3E0DE01119601901E
:104250000D929A95E1F747E050E0BE016F5F7F4F06
:104260008DE694E00E94101C60ED77E080E090E025
:104270000E94701884E3F801828327960FB6F894A1
:10428000DEBF0FBECDBFDF91CF911F910F9108957B
:104290000F931F93CF93DF93CDB7DEB7C054D109EF
:1042A0000FB6F894DEBF0FBECDBF8C0196E0E1EDF6
:1042B000F3E0DE01DB9601900D929A95E1F798E02C
:1042C000E7EDF3E0DE01D39601900D929A95E1F7C8
:1042D00098E0EFEDF3E0DE019B9601900D929A9548
:1042E000E1F79BE0E7EEF3E0DE011F9601900D920F
:1042F0009A95E1F799E0E2EFF3E0DE015A9601903A
:104300000D929A95E1F798E0EBEFF3E0DE019396DA
:1043100001900D929A95E1F79EE0E3E0F4E0DE0172
:10432000119601900D929A95E1F746E050E0BE019A
:10433000655C7F4F8DE694E00E94101C60ED77E095
:1043400080E090E00E94701848E050E0BE016D5C93
:104350007F4F8DE694E00E94101C64EF71E080E0D6
:1043600090E00E94701846E050E0BE01655C7F4F0F
:104370008DE694E00E94101C60ED77E080E090E014
:104380000E9470184BE050E0BE01615F7F4F8DE6E8
:1043900094E00E94101C64EF71E080E090E00E94C5
:1043A000701849E050E0BE01665E7F4F8DE694E0F4
:1043B0000E94101C64EF71E080E090E00E94701891
:1043C00048E050E0BE016D5D7F4F8DE694E00E94B5
:1043D000101C64EF71E080E090E00E94701848E0EB
:1043E00050E0BE01655D7F4F8DE694E00E94101C99
:1043F00064EF71E080E090E00E9470184EE050E0C1
:10440000BE016F5F7F4F8DE694E00E94101C64EF49
:1044100071E080E090E00E94701883E3F8018283ED
:10442000C05CDF4F0FB6F894DEBF0FBECDBFDF918B
:10443000CF911F910F910895CF93DF93EC011882D4
:104440001B821C8289819A81009711F00E94392A6F
:104450001A821982DF91CF9108950C94392A0C9415
:10446000392A25E134E0FC01318320830C94782043
:10447000CF93DF93EC010E943122CE01DF91CF91E7
:104480000C94392A2F923F924F925F926F927F92B3
:104490008F929F92AF92BF92CF92DF92EF92FF9254
:1044A0000F931F93CF93DF93CDB7DEB760970FB60F
:1044B000F894DEBF0FBECDBF5C018DE694E00E9494
:1044C0004516181619067CF58DE694E00E943716FD
:1044D0008E3F910509F4F1C08DE694E00E94231609
:1044E000ECCF8DE694E00E9423168E3F910509F4EF
:1044F00033C10E94AA18DC01CB018C199D09AE09B9
:10450000BF098C329140A105B10558F3CE01019647
:104510000E941C2289818111DDC08A819B810097C4
:1045200011F00E94392A2501B5E04B0E511C2224BE
:10453000239445E5342ED50117968D919C911897BB
:10454000181619060CF083C160E070E0C2010E94E9
:104550009A1E7C01FC01C080D180C114D10409F4F1
:1045600084C002811381F8012081818190E0982F1D
:104570008827820F911D8130910509F070C0F5E008
:10458000CF16D10408F471C0C6010E94A4294C01C1
:10459000DC01F801CF01801B910B8C159D051CF4EB
:1045A00081918D93F7CF8FE08C0D682E712CC30114
:1045B0000E94A4298C01EEEFDC01EC938AE08C0DC3
:1045C00011968C931197F4E21296FC93129713961E
:1045D0002C92139714961C92149715961C9215976B
:1045E00016963C92169717963C92179718961C921F
:1045F000189719961C9219978F811A968C931A976F
:104600001B961C921B971C961C921C971D96CC9275
:10461000A6015527B401C8010E960E94062EF3018B
:104620003197E00FF11F9DE09C0DD801119680E0BD
:10463000915018F02D918227FBCF8083A301B80100
:104640008DE694E00E94101C0115110519F0C801B7
:104650000E94392A8114910429F1C40121C00297D2
:1046600009F527E0C216D10459F0E114F10409F468
:10467000EEC0C7010E942020C7010E94392AE7C06E
:1046800087E090E00E94A429F801DC019801295FED
:104690003F4F41914D93E217F307D9F7009711F07F
:1046A0000E94392AE114F10409F445CFC7010E94A0
:1046B0002020C7010E94392A3ECF19821C821D8208
:1046C0001B821A82F501028913890E94AA186B01C4
:1046D0007C010FCF8C81843409F01FCF8D8181380C
:1046E00009F01BCFEA81FB81008910E0043011053D
:1046F00008F413CF8189428950E0542F44277A016E
:10470000E80EF11C025011091E870D87C8010E9496
:10471000A429988B8F8780E090E0EA81FB81E80FE5
:10472000F91F2389EF85F889E80FF91F2083019687
:104730008017910790F3D501ED91FC910288F389E0
:10474000E02DA701BE01635F7F4FC5010995CE0132
:104750000D960E942020E1CEC8010E94F0208F3FDC
:10476000FFEF9F0709F4D2CE8983C8010E94F02091
:104770008F3FAFEF9A0709F4C9CE8C83C8010E941E
:10478000F0208F3FBFEF9B0709F4C0CE8D83C98017
:10479000D12CC6010E94A4298A839B834C01E12C61
:1047A000F12CEC14FD0498F50E94AA18609375048E
:1047B000709376048093770490937804E0916D046D
:1047C000F0916E040284F385E02D8DE694E0099566
:1047D00097FF2CC00E94AA18409075045090760450
:1047E0006090770470907804DC01CB0184199509FE
:1047F000A609B70940907104509072046090730448
:104800007090740484159505A605B705B8F28981E2
:104810008E117CCEC8010E94F02039819C819327A3
:104820002D8192272A81E22FFB8107C0F401819319
:104830004F01FFEFEF1AFF0AB4CF4E2F421B431771
:1048400018F441919427F9CF891360CE63CE609616
:104850000FB6F894DEBF0FBECDBFDF91CF911F9191
:104860000F91FF90EF90DF90CF90BF90AF909F900F
:104870008F907F906F905F904F903F902F90089512
:10488000CF93DF93FC01C581D6816D81062E000C8C
:10489000770BCE0106960E942E1A68857985072E21
:1048A000000C880B990B0E94E12ADF91CF910895AB
:1048B00008950895CF93DF93EC018A899B89DC01E9
:1048C000ED91FC910488F589E02D099582E38A83B6
:1048D000DF91CF910895CF93DF93EC018A899B8973
:1048E000DC01ED91FC910488F589E02D09958E8914
:1048F0009F89DC01ED91FC910488F589E02D0995F3
:1049000082E38A83DF91CF910895CF93DF93EC0107
:104910008D819E81DC01ED91FC910488F589E02D6B
:104920000995CE01DF91CF910C94D91CCF93DF93E1
:10493000EC018D819E81DC01ED91FC910488F5896B
:10494000E02D0995CE01DF91CF910C94D91C0C94E8
:10495000D91C0C94392A0C94392A0C94392A0C94B9
:10496000392ACF93DF93FC01C581D6816D81062E54
:10497000000C770BCE0106960E942E1A6E817F8165
:10498000072E000C880B990B0E94E12ADF91CF9132
:1049900008954F925F926F927F928F929F92AF9203
:1049A000BF92CF92DF92EF92FF920F931F93CF931C
:1049B000DF93CDB7DEB728970FB6F894DEBF0FBEF2
:1049C000CDBFFC0105811681F8016581062E000C22
:1049D000770BC80106960E942E1AF801668177812E
:1049E000072E000C880B990B0E94E12A4B015C01F9
:1049F000F80160857185072E000C880B990B0E94C9
:104A0000E12A26E636E646EE5FE30E94402B20E0F0
:104A100030E040E052E40E94192C6B017C0120E060
:104A200030E044E752E40E94192C2B013C0120E0C5
:104A300030E048E852E4C701B6010E94182C2AE988
:104A400039E949E95FE30E94402B9B01AC01C301B6
:104A5000B2010E94192C2B013C0122E133E840EC09
:104A60005DE3C501B4010E94402B9B01AC01C30171
:104A7000B2010E94192C20E030E040E05FE30E9488
:104A8000402B2B013C0120E030E04EE952E40E9433
:104A90002D2D18160CF075C1A7019601C701B6019E
:104AA0000E94402B2B013C01A5019401C501B401DA
:104AB0000E94402B6D837E838F83988721E133E2B0
:104AC00043E050E4C701B6010E94402B29E134E8DD
:104AD00049E252E40E94182C69837A838B839C8379
:104AE00026E13BE442E251E4C501B4010E94402BBF
:104AF0009B01AC0169817A818B819C810E94192C78
:104B000069837A838B839C8328E436E246E65EEBF6
:104B1000C701B6010E94402BA50194010E94402BC1
:104B20009B01AC0169817A818B819C810E94192C47
:104B300069837A838B839C8320EE3FE040EE5BEBBE
:104B4000C301B2010E94402B9B01AC0169817A81B3
:104B50008B819C810E94192C69837A838B839C832F
:104B600028EF37E840E65DEB6D817E818F81988587
:104B70000E94402B9B01AC0169817A818B819C81D1
:104B80000E94192C69837A838B839C832CEA3DE0F5
:104B900041EA5AE3C301B2010E94402BA5019401EE
:104BA0000E94402B9B01AC0169817A818B819C81A1
:104BB0000E94192C69837A838B839C8328EC3FE8BD
:104BC0004FE55AE3C701B6010E94402B2D813E817B
:104BD0004F8158850E94402B9B01AC0169817A81ED
:104BE0008B819C810E94192C69837A838B839C839F
:104BF00021EF3BE845E056EBC301B2010E94402B98
:104C00002D813E814F8158850E94402B9B01AC0134
:104C100069817A818B819C810E94192C2B013C0136
:104C200020E030E040E551E4C501B4010E94DA2AF9
:104C300087FF5CC020E030E040EA52E4C701B601E3
:104C40000E942D2D87FD52C020E030E040EE52E45E
:104C5000C701B6010E94DA2A18160CF4B7C0A501E4
:104C6000940160E070E080E591E40E94182C20E05F
:104C700030E040E85EE30E94402B4B015C0120E005
:104C800030E04EEB52E4C701B6010E94182C6B01D4
:104C90007C0120E030E0A9010E942D2D18164CF473
:104CA000A701960160E070E088E891E40E94182C6A
:104CB00008C020E030E048E851E4C701B6010E9496
:104CC000192C2EE33DEE40E75DE30E94402B0E944D
:104CD000382D9B01AC01C501B4010E94402B9B0102
:104CE000AC01C301B2010E94182C49C020E030E0A1
:104CF0004AEA52E4C501B4010E942D2D18160CF0A9
:104D000040C020E030E040EA52E4C701B6010E9412
:104D10002D2D87FD36C020E030E04EEA52E4C70179
:104D2000B6010E94DA2A181664F120E030E04AEA5F
:104D300052E4C501B4010E94182C2DEC3CEC4CEC63
:104D40005DE30E94402B4B015C01A701960160E0EE
:104D500070E08EEA92E40E94182C2DEC3CEC4CE4BE
:104D60005EE30E94402B9B01AC01C501B4010E948F
:104D7000402B9B01AC01C301B2010E94192C2B01F5
:104D80003C0120E030E040E052E4C301B2010E9467
:104D9000182C26E838E34EE05FE30E94402B28966B
:104DA0000FB6F894DEBF0FBECDBFDF91CF911F913C
:104DB0000F91FF90EF90DF90CF90BF90AF909F90BA
:104DC0008F907F906F905F904F90089520E030E03B
:104DD0004AEA52E4C501B4010E942D2D18160CF4C4
:104DE0009ACFCFCFCF93DF93EC018A899B89DC01E7
:104DF000ED91FC91008CF18DE02D099520E030E0E3
:104E0000A9010E94DA2A0E88DF89C02D811109C00C
:104E10006E818D810E94DF1781E08F83DF91CF91BA
:104E20000895CE01DF91CF910C94080E0895089556
:104E30000895089522E731E0FC01318320830C942A
:104E40007820CF93DF93EC010E941A27CE01DF91E7
:104E5000CF910C94392AF89482E08093B00080932B
:104E6000B10094E69093B3001092B200809370006A
:104E70007894EAE0F5E080831482818160E00C940C
:104E80000F182EE831E0FC01318320830C94782048
:104E9000CF93DF93EC010E944127CE01DF91CF91A8
:104EA0000C94392AEF92FF920F931F93CF93DF93C5
:104EB0001092700410926F0488EE93E0A0E0B0E0CE
:104EC0008093710490937204A0937304B09374045C
:104ED00086EC91E090936E0480936D0485EC90E0F5
:104EE00090937A048093790484EC90E090937C040E
:104EF00080937B0480EC90E090937E0480937D040B
:104F000081EC90E09093800480937F0482EC90E0A9
:104F1000909382048093810486EC90E090938404C3
:104F20008093830410928604109287041092880460
:104F30001092890488ED91E09093E1058093E0055B
:104F40001092E5051092E4051092E7051092E6052F
:104F50001092E3051092E2051092E9051092E8051F
:104F60001092EB051092EA051092EC0586E893E0AA
:104F70009093DF058093DE0585E090E00E94A429F0
:104F8000FC0180E390E09483838311E3128388E142
:104F900092E091838083F093EE05E093ED058AE043
:104FA00090E00E94A429EC0181E390E09C838B8334
:104FB0001A8384E392E09983888382E0F82EFD824D
:104FC000D093F005C093EF0587E090E00E94A429FC
:104FD000FC0182E390E094838383128380E592E076
:104FE00091838083D683C583F093F205E093F10526
:104FF00087E090E00E94A429FC0183E390E0948381
:10500000838312838EE692E091838083D683C58367
:10501000F093F405E093F30587E090E00E94A42963
:10502000FC0184E390E09483838312838CE892E014
:1050300091838083D683C583F093F605E093F505CD
:1050400088E090E00E94A429FC0186E390E094832C
:1050500083831283CAEAD2E0D183C08388E0858348
:1050600001E006831782F093F805E093F70588E0E6
:1050700090E00E94A429FC0187E390E0948383835D
:105080001283D183C08389E0858306831782F093DE
:10509000FA05E093F90588E090E00E94A429FC015C
:1050A00088E390E0948383831283D183C0838AE072
:1050B000858306831782F093FC05E093FB0588E067
:1050C00090E00E94A429FC0189E390E0948383830B
:1050D0001283D183C0838BE0858306831782F0938C
:1050E000FE05E093FD0588E090E00E94A429FC0104
:1050F0008BE390E0948383831283D183C0838CE01D
:10510000858306831782F0930006E093FF0587E00E
:1051100090E00E94A429FC0185E390E094838383BE
:105120001283C4EED2E0D183C08381E185830683FC
:10513000F0930206E093010687E090E00E94A42924
:10514000FC018CE390E0948383831283D183C0833A
:1051500080E18583F682F0930406E093030687E1FD
:1051600090E00E94A429EC0186E393E09983888370
:105170008AE390E09C838B831A838E010B5F1F4F21
:1051800018861F8282E093E09E838D831C8A1B8A8F
:105190001E8A1D8A87E090E09A87898786E090E0E2
:1051A0009C878B8785E090E09E878D8784E090E0E8
:1051B000988B8F8783E090E09A8B898B61E087E002
:1051C0000E940F1861E086E00E940F1861E085E000
:1051D0000E940F1861E084E00E940F1861E083E0F4
:1051E0000E940F181C8A1B8A1E8A1D8A60E089850E
:1051F0000E94DF1761E089850E94DF1761E08D85DD
:105200000E94DF1799EFE92EFF24F39460E0C801B4
:105210000E94FE1A81E0E81AF108C1F740E050E070
:1052200060E070E0C8010E94441B60E2C8010E9477
:10523000341B6CE0C8010E94341B61E2C8010E946B
:10524000341B64E1C8010E94341B61E2C8010E9462
:10525000341B6CEBC8010E94341B8EE093E09983F1
:1052600088838AE293E09E838D83D0930606C09361
:10527000050685E090E00E94A429FC018DE390E002
:105280009483838381E382838DE080930B05109266
:105290000D058AE693E091838083F0930806E093FE
:1052A00007068EED95E09093DD058093DC05DF9198
:1052B000CF911F910F91FF90EF900895789484B54E
:1052C000826084BD84B5816084BD85B5826085BD02
:1052D00085B5816085BDEEE6F0E0808181608083E8
:1052E000E1E8F0E0108280818260808380818160CB
:1052F0008083E0E8F0E0808181608083E1EBF0E092
:10530000808184608083E0EBF0E080818160808335
:10531000EAE7F0E08081846080838081826080831E
:105320008081816080838081806880831092C10049
:105330008EED95E00E949D0A8EED95E00E9414107E
:105340008EED95E00C94B40CCF93DF9382309105F1
:1053500010F482E090E0E0910B06F0910C0620E062
:1053600030E0C0E0D0E0309711F140815181481722
:105370005907C0F04817590761F48281938120973B
:1053800019F09B838A832BC090930C0680930B06A5
:1053900026C02115310519F04217530718F49A0158
:1053A000BE01DF01EF010280F381E02DDCCF21158A
:1053B000310509F1281B390B2430310590F4129680
:1053C0008D919C9113976115710521F0FB019383D9
:1053D000828304C090930C0680930B06FD013296E5
:1053E00044C0FD01E20FF31F8193919322503109D4
:1053F0002D933C933AC02091090630910A06232B45
:1054000041F4209102013091030130930A06209368
:10541000090620910001309101012115310541F467
:105420002DB73EB74091040150910501241B350B67
:10543000E0910906F0910A06E217F307A0F42E1B8B
:105440003F0B2817390778F0AC014E5F5F4F2417E8
:10545000350748F04E0F5F1F50930A064093090628
:105460008193919302C0E0E0F0E0CF01DF91CF9112
:1054700008950F931F93CF93DF93009709F48CC087
:10548000FC0132971382128200910B0610910C06D8
:105490000115110581F420813181820F931F209124
:1054A000090630910A062817390779F5F0930A069C
:1054B000E093090671C0D80140E050E0AE17BF0785
:1054C00050F412962D913C911397AD0121153105A1
:1054D00009F1D901F3CF9D01DA0133832283608181
:1054E0007181860F971F8217930769F4EC01288159
:1054F0003981260F371F2E5F3F4F318320838A81EA
:105500009B8193838283452B29F4F0930C06E093CF
:105510000B0642C01396FC93EE931297ED0149914E
:1055200059919E01240F351FE217F30771F4808112
:105530009181840F951F029611969C938E93828180
:10554000938113969C938E931297E0E0F0E0D8013C
:1055500012968D919C911397009719F0F8018C0188
:10556000F6CF8D919C9198012E5F3F4F820F931F34
:105570002091090630910A062817390769F43097F7
:1055800029F410920C0610920B0602C013821282AC
:1055900010930A0600930906DF91CF911F910F9196
:1055A0000895FB01DC0102C005900D92415050406E
:1055B000D8F708950E941C2B08F481E00895E89420
:1055C00009C097FB3EF490958095709561957F4F4B
:1055D0008F4F9F4F9923A9F0F92F96E9BB279395F9
:1055E000F695879577956795B795F111F8CFFAF409
:1055F000BB0F11F460FF1BC06F5F7F4F8F4F9F4F3A
:1056000016C0882311F096E911C0772321F09EE897
:10561000872F762F05C0662371F096E8862F70E0FD
:1056200060E02AF09A95660F771F881FDAF7880FD7
:105630009695879597F90895990F0008550FAA0B2D
:10564000E0E8FEEF16161706E807F907C0F0121695
:105650001306E407F50798F0621B730B840B950B98
:1056600039F40A2661F0232B242B252B21F40895ED
:105670000A2609F4A140A6958FEF811D811D08958A
:105680000E94532B0C94C42B0E94B62B38F00E941E
:10569000BD2B20F0952311F00C94AD2B0C94B32B63
:1056A00011240C94F82B0E94D52B70F3959FC1F315
:1056B000950F50E0551F629FF001729FBB27F00DC0
:1056C000B11D639FAA27F00DB11DAA1F649F662715
:1056D000B00DA11D661F829F2227B00DA11D621F64
:1056E000739FB00DA11D621F839FA00D611D221F1E
:1056F000749F3327A00D611D231F849F600D211D02
:10570000822F762F6A2F11249F5750409AF0F1F084
:1057100088234AF0EE0FFF1FBB1F661F771F881FED
:1057200091505040A9F79E3F510580F00C94AD2B4D
:105730000C94F82B5F3FE4F3983ED4F3869577956D
:105740006795B795F795E7959F5FC1F7FE2B880F93
:10575000911D9695879597F9089597F99F6780E829
:1057600070E060E008959FEF80EC089500240A94B3
:105770001616170618060906089500240A9412162C
:105780001306140605060895092E0394000C11F45F
:10579000882352F0BB0F40F4BF2B11F460FF04C00C
:1057A0006F5F7F4F8F4F9F4F089557FD9058440F65
:1057B000551F59F05F3F71F04795880F97FB991F70
:1057C00061F09F3F79F0879508951216130614062D
:1057D000551FF2CF4695F1DF08C0161617061806BA
:1057E000991FF1CF86957105610508940895E89495
:1057F000BB2766277727CB0197F908950E94092CCC
:10580000A59F900DB49F900DA49F800D911D112414
:105810000895A29FB001B39FC001A39F700D811D89
:105820001124911DB29F700D811D1124911D0895A9
:105830005058BB27AA270E94302C0C94C42B0E94DE
:10584000B62B38F00E94BD2B20F039F49F3F19F49D
:1058500026F40C94B32B0EF4E095E7FB0C94AD2BDF
:10586000E92F0E94D52B58F3BA17620773078407F4
:10587000950720F079F4A6F50C94F72B0EF4E0953B
:105880000B2EBA2FA02D0B01B90190010C01CA01FA
:10589000A0011124FF27591B99F0593F50F4503EA5
:1058A00068F11A16F040A22F232F342F4427585F97
:1058B000F3CF469537952795A795F0405395C9F7AF
:1058C0007EF41F16BA0B620B730B840BBAF0915067
:1058D000A1F0FF0FBB1F661F771F881FC2F70EC006
:1058E000BA0F621F731F841F48F4879577956795D9
:1058F000B795F7959E3F08F0B0CF9395880F08F0C5
:105900009927EE0F9795879508950E94992C0C94EE
:10591000C42B0E94BD2B58F00E94B62B40F029F4F6
:105920005F3F29F00C94AD2B51110C94F82B0C9483
:10593000B32B0E94D52B68F39923B1F3552391F330
:10594000951B550BBB27AA2762177307840738F0EE
:105950009F5F5F4F220F331F441FAA1FA9F335D04B
:105960000E2E3AF0E0E832D091505040E695001CFF
:10597000CAF72BD0FE2F29D0660F771F881FBB1FB9
:10598000261737074807AB07B0E809F0BB0B802D97
:10599000BF01FF2793585F4F3AF09E3F510578F0C3
:1059A0000C94AD2B0C94F82B5F3FE4F3983ED4F3AA
:1059B000869577956795B795F7959F5FC9F7880F97
:1059C000911D9695879597F90895E1E0660F771FE9
:1059D000881FBB1F621773078407BA0720F0621B7A
:1059E000730B840BBA0BEE1F88F7E09508950E94A5
:1059F000FE2C6894B1110C94F82B08950E94DD2BB5
:105A000088F09F5798F0B92F9927B751B0F0E1F07F
:105A1000660F771F881F991F1AF0BA95C9F714C02F
:105A2000B13091F00E94F72BB1E008950C94F72B60
:105A3000672F782F8827B85F39F0B93FCCF3869568
:105A400077956795B395D9F73EF4909580957095C5
:105A500061957F4F8F4F9F4F08950E941C2B08F434
:105A60008FEF089519F416F40C94B32B0C947D2D3C
:105A70000E94DD2BB8F39923C9F3B6F39F57550B5A
:105A800087FF0E948B2D0024A0E640EA90018058F9
:105A90005695979528F4805C660F771F881F20F035
:105AA00026173707480730F4621B730B840B202935
:105AB00031294A2BA69517940794202531254A278A
:105AC00058F7660F771F881F20F0261737074807FB
:105AD00030F4620B730B840B200D311D411DA0951A
