:100000000C947B060C94A3060C94A3060C94A306F4
:100010000C94A3060C94A3060C94A3060C948C17C2
:100020000C94A3060C94A3060C94A3060C94A306AC
:100030000C94A3060C94A3060C94A3060C94A3069C
:100040000C9448230C94A3060C9416220C94F021D3
:100050000C94A3060C94A3060C94A3060C94A3067C
:100060000C94A3060C94A306362E8C2E5C2E562ED2
:10007000712E752E802EFE03260503010321FE013D
:1000800041000040FE032605870101A7FE03260567
:100090008F0101AFFE0D240055000000000000019B
:1000A00000000100007CFE02254000006700000007
:1000B00000240027002A0000000000250028002B53
:1000C00000000000002300260029000404040404AA
:1000D00004040402020202020203030303030301F5
:1000E00002040810204080010204081020010204CC
:1000F00008102000000008000201000003040700AF
:100100000000000000000000060A00FE07019E0338
:100110003720FFFE09FE08FE000000060000010770
:1001200007060200808080808000800303030601B0
:1001300005A0A0A005050506000250F850F85005DE
:1001400009090600FF2070A8A07028A870200507E4
:100150000706000078A8B05068A8900507070600B9
:10016000006090A040A8906801030306020580800B
:10017000800309090601FF204080808080804020A4
:100180000309090601FF804020202020204080052F
:10019000050506000220A870A82005050506000137
:1001A0002020F820200204040601FEC0C040800385
:1001B0000101060103E0020202060200C0C0050AB6
:1001C0000A0600FE08081010202040408080050725
:1001D00007060000708898A8C88870050707060001
:1001E0000020E020202020F8050707060000708886
:1001F00008102040F805070706000070880830083E
:10020000887005070706000010305090F810380578
:100210000707060000F880F0080888700507070641
:1002200000007080F088888870050707060000F8D5
:100230000808102020200507070600007088887035
:10024000888870050707060000708888887808701D
:10025000020505060200C0C000C0C0020707060173
:10026000FEC0C000C0C04080040707060100102087
:100270004080402010050303060002F800F8040740
:100280000706010080402010204080050707060077
:1002900000708808102000200507070600007088FD
:1002A000B8A8B8807805070706000020505088F8E5
:1002B0008888050707060000F08888F08888F00520
:1002C0000707060000708880808088700507070691
:1002D0000000F08888888888F0050707060000F885
:1002E0008080F08080F8050707060000F88080F025
:1002F00080808005070706000070888098888870D5
:10030000050707060000888888F888888805070799
:10031000060000F82020202020F80507070600002E
:10032000080808088888700507070600008890A05C
:10033000C0A090880507070600008080808080802C
:10034000F805070706000088D8A8A8888888050748
:100350000706000088C8A89888888805070706004F
:100360000070888888888870050707060000F08874
:1003700088F08080800508080600FF7088888888DB
:10038000A87008050707060000F08888F0888888AC
:100390000507070600007088807008887005070749
:1003A000060000F820202020202005070706000076
:1003B00088888888888870050707060000888888EC
:1003C00050502020050707060000888888A8A8D874
:1003D0008805070706000088885020508888050790
:1003E000070600008888885020202005070706009F
:1003F00000F80810204080F80209090602FFC080BA
:10040000808080808080C0050A0A0601FE808040CE
:10041000402020101008080209090601FFC04040D2
:100420004040404040C005030306000420508806B9
:1004300001010600FEFC02020206010680400505DD
:100440000506000078888898680507070600008080
:1004500080F0888888F00505050600007088808097
:100460007805070706000008087888888878050559
:10047000050600007088F880780407070601003040
:1004800040E0404040400507070600FE7888888825
:100490007808700507070600008080F08888888843
:1004A0000307070601004000C0404040E00309097F
:1004B0000600FE2000602020202020C0050707063F
:1004C0000000808090A0E09088030707060100C02C
:1004D0004040404040E0050505060000F0A8A8A8FF
:1004E000A8050505060000B0C8888888050505062A
:1004F000000070888888700507070600FEF088886D
:1005000088F080800507070600FE788888887808CC
:1005100008050505060000B0C880808005050506B1
:10052000000078807008F00407070601004040E0F2
:100530004040403005050506000088888898680519
:1005400005050600008888505020050505060000B6
:10055000A8A8A8A8500505050600008850205088C6
:100560000507070600FE8888888878087005050555
:10057000060000F8102040F8030B0B0601FE204097
:100580004040408040404040200109090602FF8071
:100590008080808080808080030B0B0601FE80407D
:1005A0004040402040404040800502020600036871
:1005B000B00000000600000000000600000000007F
:1005C0000600000203030600FF404080050B0B06F7
:1005D00000FE18202020702020202020C0040303CB
:1005E0000600FF5050A0050101060000A803050504
:1005F00006010240E040404003050506010240E0DC
:1006000040E04003020206010640A006080806007A
:10061000007CA8B06068D454280509090600005081
:1006200020708880700888700204040600004080F2
:10063000804005070706000078A0A0B0A0A07800C1
:100640000000060000000000060000000000060098
:100650000000000006000002030306020440808040
:100660000203030602044040800403030601045011
:10067000A0A00403030601045050A00505050600D0
:100680000170F8F8F870030101060103E0060101AA
:10069000060003FC05020206000668B00603030616
:1006A0000004F45C5C050808060000502000788017
:1006B0007008F00204040600008040408005050533
:1006C00006000050A8B8A058000000060000000076
:1006D00000060000050909060000500088888850BF
:1006E000202020000000060000010707060300800C
:1006F0000080808080800507070600FF2070A8A08A
:10070000A07820050808060000609080E0808088BE
:10071000F00505050600008870507088050707067B
:1007200000008850F820F820200109090602FF8007
:100730008080800080808080050A0A0600FF708823
:1007400048A0904828908870030101060106A00582
:100750000707060000E01068886810E00406060637
:1007600001037090907000F00504040600004890AA
:100770009048050303060001F8080805010106007A
:1007800003F8050606060001E010C8A8C8B003017A
:1007900001060106E004040406010460909060056F
:1007A00006060600002020F82020F80304040601B5
:1007B00005C02040E0030505060104C0206020C0FC
:1007C00003020206020660C00507070600FE9090BD
:1007D0009090E8808005080806000078A8A8A8780E
:1007E000282828020202060202C0C00303030601F1
:1007F000FEE060C0030404060105C04040E00406BA
:10080000060601036090906000F0050404060000F5
:1008100090484890060909060000C04044E81028A6
:1008200058B808060909060000C04044E8103844DA
:10083000881C060909060000C0206428D02858B882
:100840000805070706000020002040808870050981
:1008500009060000402020505088F88888050909C2
:10086000060000102020505088F8888805090906E5
:100870000000205000205088F888880509090600EB
:100880000068B020505088F88888050909060000E3
:10089000500020505088F88888050909060000207B
:1008A0005020508888F8888805070706000078A03F
:1008B000A0F0A0A0B80509090600FE70888080801D
:1008C000887020400509090600004020F88080F06B
:1008D0008080F80509090600001020F88080F0806B
:1008E00080F80509090600002050F88080F080801B
:1008F000F80509090600005000F88080F08080F8B3
:100900000509090600004020F82020202020F805D5
:1009100009090600001020F82020202020F80509F1
:1009200009060000205000F820202020F8050909C1
:100930000600005000F82020202020F805070706B8
:100940000000704848E8484870050909060000683A
:10095000B088C8A898888888050909060000402042
:100960007088888888887005090906000010207042
:100970008888888888700509090600002050007062
:10098000888888887005090906000068B070888822
:1009900088888870050909060000500070888888DA
:1009A00088887005050506000188502050880507D5
:1009B00007060000708898A8C88870050909060015
:1009C000004020888888888888700509090600000A
:1009D000102088888888888870050909060000200A
:1009E0005000888888888870050909060000500032
:1009F0008888888888887005090906000010208882
:100A000088885020202005070706000080F088888D
:100A1000F080800509090600FF304888909088889A
:100A2000B0800508080600002010007888889868C3
:100A300005080806000010200078888898680508D6
:100A40000806000020500078888898680508080685
:100A5000000068B0007888889868050707060000DD
:100A60005000788888986805080806000020502003
:100A7000788888986805050506000070A8B8A078F1
:100A80000507070600FE708880807820400508086A
:100A90000600004020007088F880780508080600ED
:100AA000001020007088F8807805080806000020F3
:100AB00050007088F8807805070706000050007025
:100AC00088F88078030808060100804000C0404094
:100AD00040E0030808060100204000C0404040E01C
:100AE00003080806010040A000C0404040E00307A2
:100AF00007060100A000C0404040E00508080600CD
:100B00000060601078888888700508080600006812
:100B1000B000B0C88888880508080600004020009A
:100B2000708888887005080806000010200070880A
:100B300088887005080806000020500070888888A2
:100B40007005080806000068B00070888888700585
:100B500007070600005000708888887005050506A4
:100B600000012000F800200505050600007098A887
:100B7000C87005080806000040200088888898682A
:100B80000508080600001020008888889868050875
:100B90000806000020500088888898680507070626
:100BA000000050008888889868050A0A0600FE1030
:100BB0002000888888887808700509090600FE806A
:100BC00080F0888888F080800509090600FE5000C2
:100BD00088888888780870380E380E380E380EFCF1
:100BE0003FDE3BBE3D7E3EBC3DD81BF00FE003C068
:100BF00003E003C0030000380E380E380E380EFC38
:100C00003FFE3FFE3FFE3FFC3FF81FF00FE003C0FA
:100C100003E003C00300000000086004701278A91C
:100C20009DD5AFD5AFD5ABF595F949BA219C118EBD
:100C3000018701E307E0070000081004201248A91B
:100C400095D5ABD5ABD5ABA99592498421881180B8
:100C5000018001E007E007005A3C66663C5A00004C
:100C600018DBFF183C6E00000090044802240124A9
:100C7000014802900420092009900448024802908B
:100C80000420090000000000008000C001E003F023
:100C900007F80FDC1FFC1FEE3FE63FE63FE63FCCC8
:100CA0001FD80FE0030000C001E003601FA002A0F6
:100CB0001EA002A01EA002A01EB006980CCC19EC2B
:100CC0001BCC19180CF007FFE0FFD11000FFFEFF4E
:100CD000D0FFE0FFC1FFD1E240A0C8A6A22FF800DC
:100CE000238127AC00AFFF64A5FF64FF64A4FFD09D
:100CF000FFFE4633003311241FBECFEFD8E0DEBF26
:100D0000CDBF13E0A0E0B1E0E8E3F4E702C0059056
:100D10000D92A637B107D9F726E0A6E7B3E001C0E8
:100D20001D92A038B207E1F716E0CAE7D6E004C08A
:100D30002197FE010E94C439C937D107C9F70E9423
:100D400004330C940F3A0C9400002F923F924F9270
:100D50005F926F927F928F929F92AF92BF92CF924B
:100D6000DF92EF92FF920F931F93CF93DF93CDB754
:100D7000DEB766970FB6F894DEBF0FBECDBFDC01BD
:100D80001396ED90FC90149783E294E09C878B87F8
:100D90008091200490E09E878D878091ED0490E003
:100DA000988B8F8780911C04853009F049C680910B
:100DB000250490912604885891098D35910588F471
:100DC00080912004843041F480912704909128047C
:100DD0008097479708F4FBC180912004843408F081
:100DE000DDC1809120048A3108F446C0809123043B
:100DF00090912404843F914050F41A8619868FEF15
:100E00009FEFDC018D839E83AF83B8874FC08091B5
:100E100025049091260485974B9770F5E9E2F4E05C
:100E200082E090E040E050E0BA018C010F5F1F4F7C
:100E30002091200430E0021713076CF49F01225028
:100E40003109D9012D913C912750310927303105C5
:100E500008F4F1C1C8010197959587959A8789870C
:100E60000C971CF41A86198607C04D835E836F8326
:100E7000788784E090E0F3C2809120048A3108F4FE
:100E800045C080912304909124048032934008F45B
:100E9000B4CF8091250490912604C697869708F4D4
:100EA000E6C134C04D835E836F8378878BE090E02A
:100EB000D6C220813181255231092B31310508F00C
:100EC000E6C1440F551F661F771F41600296349696
:100ED0008C010F5F1F4F2091200430E00217130791
:100EE00064F49F0122503109D9012D913C912C507D
:100EF00031092B303105E8F2C801019795958795A6
:100F00009A8789870C9774F61A861986809120042F
:100F1000823208F441C080912504909126040697FE
:100F20000797D0F5E9E2F4E022E030E040E050E05D
:100F3000BA01C9010196A0912004B0E08A179B076D
:100F4000CCF4DF0112970D911C9111970E511109EC
:100F50000731110508F0A8C1440F551F661F771F00
:100F60004160A081B18134961397159720F42E5FCC
:100F70003F4FDFCFC9010197959587959A8789875C
:100F800040971CF41A86198607C04D835E836F83D1
:100F900078878CE090E063C21C8A1B8A81E090E035
:100FA0009A8B898B809120048D3008F479C009E7F1
:100FB00013E09E012D5E3F4FAE014F5E5F4FBE01BD
:100FC0006F5F7F4FC7010E941817892B09F068C017
:100FD0009E012D5E3F4FAE014F5E5F4FBE016F5FC2
:100FE0007F4FC7010E941817019709F059C09E0151
:100FF0002D5E3F4FAE014F5E5F4FBE016F5F7F4F73
:10100000C7010E941817892B09F04AC0412C512CA6
:101010003201C12CD12C8091200490E029893A8999
:1010200028173907A4F509E713E09E012D5E3F4F0D
:10103000AE014F5E5F4FBE016F5F7F4FC7010E94E1
:1010400018175C019E012D5E3F4FAE014F5E5F4F52
:10105000BE016F5F7F4FC7010E941817B1E0AB164A
:10106000B10449F4892BE1F4440C551C661C771C2F
:10107000689440F808C0AB2899F4019789F4440CAF
:10108000551C661C771CEFEFCE1ADE0AC4CFDA8639
:10109000C9864D825E826F82788681E090E0DFC1F2
:1010A0001C8A1B8A81E090E09A8B898B8D859E85B6
:1010B000181619060CF069C0EB85FC8582E090E0FB
:1010C0009A8B898B8281938189974E9708F05DC0B6
:1010D00083E090E09A8B898B848195810B970A97A6
:1010E00008F053C00CEB11E09E012D5E3F4FAE01A6
:1010F0004F5E5F4FCE0101965C01BC01C7010E94AB
:101100001817892B09F041C00CEB11E09E012D5EF0
:101110003F4FAE014F5E5F4FB501C7010E941817E8
:10112000019799F5412C512C3201C12CD12C3A2C2C
:101130002B2C29893A898D859E85281739070CF033
:10114000FFC00CEB11E09E012D5E3F4FAE014F5EE4
:101150005F4F632D722DC7010E9418174C01F3E0F9
:10116000CF16D10409F0ACC00CEB11E09E012D5E4E
:101170003F4FAE014F5E5F4F632D722DC7010E943E
:1011800018178816990609F49BC0EB85FC858281A7
:101190009381C697869708F4DCC085C180912704A7
:1011A00090912804825491098E9708F01ACE20E07D
:1011B00030E080E090E0DC01F901E75DFB4F408129
:1011C0005181495051094930510578F00ACE80913A
:1011D000290490912A040997099708F0FDCD1A86F1
:1011E00019868FEF9FEFDC0157C1F901E55DFB4FD9
:1011F00040815181475151094231510578F4880F9E
:10120000991FAA1FBB1F81602C5F3F4F20383105FB
:1012100099F620E230E03A8729873EC1408151812A
:10122000465051094730510508F0DBCD880F991F12
:10123000AA1FBB1FE9CF20813181235131092F30F3
:10124000310540F4440F551F661F771F4160029619
:101250003496EBCD208131812A5031092930310576
:1012600008F00ACE440F551F661F771FF0CF8091FC
:10127000270490912804C697869708F047CEEBE2A2
:10128000F4E083E090E040E050E0BA0121CE20811C
:1012900031812C5031092A30310508F037CE440F06
:1012A000551F661F771F12CE0D90BC91A02D1C9765
:1012B0001B9708F071CE440F551F661F771F51CE44
:1012C0000CEB11E09E012D5E3F4FAE014F5E5F4F74
:1012D000632D722DC7010E9418175C0123E0C2160E
:1012E000D10489F40CEB11E09E012D5E3F4FAE015D
:1012F0004F5E5F4F632D722DC7010E941817A8160D
:10130000B90609F042CF8114910459F4AA94AB288C
:1013100009F03BCF440C551C661C771C689440F8C0
:101320000BC08A94892809F030CFAB2809F02DCF63
:10133000440C551C661C771CAFEFCA1ADA0AF9CEAA
:10134000DA86C9864D825E826F82788682E090E07E
:1013500086C0848195814B97459708F0A4C0DF0132
:1013600016967F0196ECE90EF11C20E030E040E09B
:1013700050E060E070E080E090E00D911C911197EA
:10138000095011090830110508F08DC012960D9111
:101390001C911397015111090D301105D0F401E092
:1013A0000E94CA3921601496AE15BF0531F72D830E
:1013B0003E834F83588700E20E94E5392B833C83AC
:1013C00085E090E09A83898380E390E09A8789871B
:1013D00048C012960D911C911397045011090530C5
:1013E000110508F060C001E00E94CA39DCCF980105
:1013F00022503109D9012D913C91295031092830D1
:10140000310508F0FEC0BC016F5F7F4FD8012D9100
:101410003C91275031092730310508F0C3C2440FF1
:10142000551F416002960C5F1F4F2091200430E051
:101430002450310982179307D4F201979595879527
:101440009A8789878A970CF4DCC0052E000C660BFE
:10145000770B4D835E836F83788789E090E09A8372
:10146000898382E080931C041092200460E373E07F
:101470008FE793E00E9492214D815E816F81788594
:101480002AE08FE793E00E94A7216CE373E08FE7E7
:1014900093E00E949221D4C28D839E83AF83B8874C
:1014A00083E090E0DCCF80912004893370F1828169
:1014B0009381895791098335910508F438C125C076
:1014C000D90112966D917C91139766517109613122
:1014D000710508F052C1D701C601880F991FAA1FD4
:1014E000BB1F6C017D016894C0F84E5F5F4F2C5F9D
:1014F0003F4F4B33510509F429C1D9016D917C91BE
:101500006A50710969307105D8F2809120048232E5
:1015100031F4828193810A97099708F43EC1828150
:1015200093818957910983359105D0F480912004E6
:101530008132B0F084819581CA97899788F49F01A0
:101540002A5F3F4FC12CD12C760143E050E0D901F6
:101550006D917C916A5071096930710508F436C14A
:10156000828193818C549109C59778F480912004ED
:10157000843031F4848195818097479708F47FC146
:1015800080912004843408F061C180912004863465
:1015900060F1828193810C970B9708F4B2C125C04A
:1015A000D90112966D917C9113976E517109673133
:1015B000710508F0D8C1D701C601880F991FAA1F6D
:1015C000BB1F6C017D016894C0F84E5F5F4F2C5FBC
:1015D0003F4F4534510509F4AFC1D9016D917C915C
:1015E0006C5071096B307105D8F2809120048835F8
:1015F00040F082819381855891098B35910508F4DB
:10160000C2C1809120048032E1F4828193810697E7
:101610000697B8F4848195810997099790F49F0102
:101620002A5F3F4FBF01625C7F4FC12CD12C7601F6
:10163000D9014D915C91465051094630510508F44D
:10164000BEC18D859E859E8B8D8B06970CF4ECC15B
:101650008F010A5F1F4F73E0272E312CE5ECCE2E51
:10166000EDE9DE2EECE1EE2EE1E8FE2ED8016D91E3
:101670007C91F8013497A080B18080E090E00E94D6
:10168000DF362B013C01B50180E090E00E94DF369F
:101690004B015C012DEC3CEC4CE45FE30E944037D5
:1016A0009B01AC01C301B2010E94DA3687FD17C06D
:1016B0002DEC3CEC4CE45FE3C301B2010E944037E7
:1016C0009B01AC01C501B4010E94DA36E82F880FF6
:1016D000FF0BEE27FF0FEE1FFF27319602C0E0E061
:1016E000F0E0A701960163E971E080E091E00E94DB
:1016F00092396F01FF0FEE08FF08C626D726E826AD
:10170000F926BFEF2B1A3B0A0E5F1F4FED89FE89AA
:101710002E163F0609F0AACFCD82DE82EF82F88630
:1017200080E290E09A8789878FEF9FEF98CE84813F
:101730009581CA97899708F0E8CE9F012A5F3F4FAD
:10174000C12CD12C760143E050E0D7CE9F012A581E
:101750003F4FD9012D913C912A5031092930310553
:1017600008F0D3CE2CE130E03A872987CD82DE82A3
:10177000EF82F8868AE090E072CED90112966D91E0
:101780007C911397665071096730710508F0BDCEE2
:10179000CC0CDD1CEE1CFF1CA8CE20912004CF0138
:1017A000820F911D820F911DDC0112978D919C91EA
:1017B0000A97099708F0B3CE1A8619868FEF9FEF24
:1017C000DC018D839E83AF83B88734C1D901129623
:1017D0006D917C911397665171096131710558F1D2
:1017E00012966D917C91139766507109673071055F
:1017F00008F0B6CECC0CDD1CEE1CFF1C4E5F5F4F1C
:101800002C5F3F4F4332510509F0A1CE9F012A5B67
:101810003F4FD9012D913C912A5031092930310592
:1018200008F09ECE20E130E03A872987CD82DE8223
:10183000EF82F886FFC0D701C601880F991FAA1F43
:10184000BB1F6C017D016894C0F8D8CF848195815D
:1018500089549109C39708F098CE9F012A5F3F4FA2
:10186000BF016A577F4FC12CD12C7601D9014D9110
:101870005C91495051094930510588F086CE8681E6
:1018800097810997099708F07BCE1A8619868FEF02
:101890009FEFDC018D839E83AF83B887CEC0D901D3
:1018A00012964D915C911397465151094131510562
:1018B000C0F4D701C601880F991FAA1FBB1F6C0176
:1018C0007D016894C0F82C5F3F4F2617370771F6EB
:1018D00020E230E03A872987CD82DE82EF82F886E7
:1018E000ACC0D90112964D915C91139746505109A5
:1018F0004730510508F049CECC0CDD1CEE1CFF1C16
:10190000E2CF848195810997099708F06ECE868190
:1019100097818C974F9708F068CE8085918589973D
:101920004D9708F062CE9F01265F3F4FC12CD12C0E
:10193000760145E050E051CE9F0126573F4FD90137
:101940002D913C912C5031092B30310508F04DCEB2
:1019500020E230E03A872987CD82DE82EF82F88666
:1019600088E090E07CCDD90112966D917C9113971F
:10197000695071096930710508F037CECC0CDD1C57
:10198000EE1CFF1C22CE84819581825491098E9792
:1019900008F037CE8F01045C1F4F8DE190E040E0EE
:1019A00050E043CDD8012D913C912851310922318D
:1019B000310510F0CB0141CD440F551F33CDD90176
:1019C00012964D915C91139749515109433151053C
:1019D000D8F4D701C601880F991FAA1FBB1F6C013D
:1019E0007D016894C0F82C5F3F4F2617370709F038
:1019F0001FCE2EE030E03A872987CD82DE82EF824B
:101A0000F8868FE090E02BCDD90112964D915C9134
:101A10001397495051094930510508F012CECC0CAA
:101A2000DD1CEE1CFF1CDFCF82E080931C041092B3
:101A3000200406C086E090E012CD87E090E00FCD54
:101A400066960FB6F894DEBF0FBECDBFDF91CF9183
:101A50001F910F91FF90EF90DF90CF90BF90AF90CC
:101A60009F908F907F906F905F904F903F902F90BE
:101A70000895DC0113968D919C911497DC01ED91F2
:101A8000FC910480F581E02D0994CF93DF93EC0164
:101A9000E881F9810190F081E02DCE0109951816B9
:101AA000190644F4E881F9810684F785E02DCE011A
:101AB0000995EECFDF91CF910895DC011496ED9159
:101AC000FC9115971C968C911C97882361F01A96AF
:101AD0002D913C911B97621773072CF01896ED918E
:101AE000FC9119970AC020E030E007C03097C9F098
:101AF0000280F381E02D2F5F3F4F26173707B4F3A5
:101B00002617370771F481E01C968C931C971B965F
:101B10003C932E931A971996FC93EE931897CF0146
:101B2000089580E090E00895CF93DF9377FD0EC095
:101B3000FC01228133816217730744F4EA010E9499
:101B40005D0DFC01D183C08381E001C080E0DF91A5
:101B5000CF9108950E945D0D009721F0FC018081D6
:101B60009181089580E090E00895FC018281938145
:101B70000895DF92EF92FF920F931F93CF93DF931D
:101B80008C01D62EC0E0D0E07C018BE0E80EF11C89
:101B9000F80185859685C817D907ACF4BE01C70141
:101BA0000E94AA0DFC0182818D110BC0BE01C701EC
:101BB000DF91CF911F910F91FF90EF90DF900C94E8
:101BC000AA0D2196E5CF80E090E0DF91CF911F91A3
:101BD0000F91FF90EF90DF900895EF92FF920F9397
:101BE0001F93CF93DF938C01C0E0D0E07C018BE0AA
:101BF000E80EF11CF80125853685C217D3076CF471
:101C0000BE01C7010E94AA0DDC01ED91FC91048088
:101C1000F581E02D09952196EDCF14821382DF9195
:101C2000CF911F910F91FF90EF900895CF93DF9385
:101C3000EC01E881F9810190F081E02DCE01099558
:101C40001816190644F4E881F9810684F785E02D19
:101C5000CE010995EECFDF91CF910895CF93DF9319
:101C6000FC01C381D4816A8170E0CE0103960E9499
:101C700046186D817E81072E000C880B990B0E94FF
:101C8000E136DF91CF9108950C9442360C944236A0
:101C90000C9442360C9442360C9442360C944236E4
:101CA000EF92FF920F931F93CF93DF93FC0162811A
:101CB00073811616170664F5EC0114866130710500
:101CC000C1F0625071090E945D0D7C01FC018281AE
:101CD0009381FC01008111810E944236F701138239
:101CE0001282FF82EE828A819B8101979B838A8385
:101CF0000DC084819581FC01008111810E944236D2
:101D00001D821C821F821E821B821A82C80102C091
:101D100080E090E0DF91CF911F910F91FF90EF90C5
:101D20000895EF92FF920F931F93CF93DF93DC01FF
:101D300012962D913C9113971216130624F521301B
:101D40003105A1F0EC01EC81FD81E280F38000819E
:101D50001181CF010E944236FD82EC828A819B81F3
:101D600001979B838A831C86C8010FC0DC01ED911B
:101D7000FC910484F585E02DDF91CF911F910F91A7
:101D8000FF90EF90099480E090E0DF91CF911F9158
:101D90000F91FF90EF9008950F931F93CF93DF93D0
:101DA00077FD3EC0DC0112962D913C91139762178E
:101DB0007307B4F56115710531F4ED91FC9106845A
:101DC000F785E02D0BC0215031096217730759F4D4
:101DD000DC01ED91FC910484F585E02DDF91CF913C
:101DE0001F910F910994EC01615071090E945D0DE2
:101DF000DC011296ED91FC911397008111812281F3
:101E0000338113963C932E931297CF010E94423652
:101E10008A819B8101979B838A831C86C80102C0AB
:101E200080E090E0DF91CF911F910F910895FC0128
:101E300084818130E1F483818E3008F08E50877088
:101E4000806480937C0080917A00806480937A0023
:101E500080917A0086FDFCCF6091780080917900B6
:101E600070E0782B072E000C880B990B07C083813C
:101E70000E944822BC01990F880B990B0E94E13601
:101E8000089560E0FC0183810C94A122CF93DF933D
:101E9000EC0161E08B810E94A1228C81813011F4E0
:101EA00060E001C061E08B810E9471221D82DF91A0
:101EB000CF9108950F931F93CF93DF93EC018B0184
:101EC00084E090E00E94AD35FC0113821282118300
:101ED00000832C813D81232B29F0EE81FF819383A8
:101EE000828302C09D838C839F838E838A819B81A2
:101EF00001969B838A831C8681E0DF91CF911F919D
:101F00000F910895EF92FF920F931F93CF93DF935A
:101F1000EC01E0918F03F091900382E08083E091E7
:101F20008B03F0918C031082E0918D03F0918E036E
:101F300087E6808310929703E0919303F0919403D6
:101F400086E08083E0919103F0919203808180612B
:101F50008083E0919103F091920380818860808377
:101F6000E0919103F0919203808180688083E091F9
:101F70009103F091920380818F7D80837E018DECAF
:101F8000E80EF11CBE01665A7F4FC7010E949F25D3
:101F9000BE01615A7F4FC7010E949F25BE016C5947
:101FA0007F4FC7010E949F25BE0167597F4F8E0159
:101FB00003521F4F6115710521F0C8010B960E9455
:101FC0005A0FBE0161597F4F21F0C8010B960E9444
:101FD0005A0FBE016B587F4F21F0C8010B960E942B
:101FE0005A0FE881F981BE0167567F4F0484F58559
:101FF000E02DCE010995E881F981BE0163577F4F3D
:102000000484F585E02DCE010995E881F981BE01B2
:102010006E537F4F0484F585E02DCE010995E8814C
:10202000F9810484F585E02DB701CE010995E88199
:10203000F9810484F585E02DB801CE010995E88188
:10204000F981BE016B507F4F0484F585E02DCE01F0
:102050000995E881F981BE0162507F4F0484F585BE
:10206000E02DCE010995CE01DF91CF911F910F9107
:10207000FF90EF900C94BA1BEF92FF920F931F9377
:10208000CF93DF93DC0112960D911C9113970115EC
:10209000110561F4ED91FC910480F581E02DDF9153
:1020A000CF911F910F91FF90EF9009947B01EC016C
:1020B00084E090E00E94AD352C813D81FC013383AA
:1020C0002283F182E0829D838C830F5F1F4F1B83ED
:1020D0000A831C8681E0DF91CF911F910F91FF90C1
:1020E000EF900895CF92DF92EF92FF920F931F939C
:1020F000CF93DF939B01BA01DC0112964D915C9165
:1021000013972417350734F0ED91FC910480F58185
:10211000E02D09C02115310579F4DC01ED91FC9128
:102120000680F781E02DDF91CF911F910F91FF90F5
:10213000EF90DF90CF9009947B01E9018C0184E05E
:1021400090E00E94AD356C01FC0111821082138277
:102150001282BE0161507109C8010E945D0DD60155
:102160001196FC92EE92FC012281338113963C93EE
:102170002E931297D382C282D80112968D919C9190
:102180001397019613969C938E9312971C961C920C
:1021900081E0DF91CF911F910F91FF90EF90DF9041
:1021A000CF900895EF92FF920F931F93CF93DF93F9
:1021B00000D000D0CDB7DEB78C017B0184E090E089
:1021C0009A8389830E94AD35FC019C838B8392E0C6
:1021D00090839183D70112968C91129782831596E2
:1021E0008C91882319F081E0838301C09383D80107
:1021F000ED91FC910288F389E02DBE016F5F7F4F66
:10220000C8010995CE0101960E94451F0F900F90BD
:102210000F900F90DF91CF911F910F91FF90EF9052
:102220000895EF92FF920F931F93CF93DF9300D007
:1022300000D0CDB7DEB78C017B0183E090E09A83BC
:1022400089830E94AD35FC019C838B8384E080836D
:10225000D70115968C91159712969C91913021F487
:102260009183882379F005C0923029F491838111FC
:1022700007C0928309C0933099F49183882311F0A9
:1022800081E001C082E08283D801ED91FC91008859
:10229000F189E02D45E3BE016F5F7F4FC8010995CD
:1022A000CE0101960E94451F0F900F900F900F9046
:1022B000DF91CF911F910F91FF90EF900895EF92D2
:1022C000FF920F931F93CF93DF93EC018B819C813F
:1022D000892BE1F400E010E07E018BE0E80EF11CB8
:1022E0002D853E85021713075CF4B801C7010E94D3
:1022F000AA0DBC01CE010E94D2100F5F1F4FF0CF7C
:102300000E943C236D837E838F83988786E891E1CA
:102310009C838B830E943C230D811E812F813885F5
:10232000AB01BC01401B510B620B730B89859A8575
:10233000A0E0B0E0481759076A077B0758F680E02D
:1023400090E0DF91CF911F910F91FF90EF90089552
:102350000C945F1108950895089508950895CF93FA
:10236000DF93EC018C81813011F460E001C061E009
:102370008B810E9471221D82DF91CF910895AF92CF
:10238000BF92CF92DF92EF92FF920F931F93CF9362
:10239000DF9300D000D0CDB7DEB7DB01CD90DC906D
:1023A0001197C114D10409F486C07B018C011296E7
:1023B000ED91FC91139780818333D9F5B3E0CB166F
:1023C000D10409F078C06181C8010E94B90D5C0197
:1023D000892B09F470C0DA82C98283E090E00E9400
:1023E000AD35FC019C838B8384E38083D5011296F9
:1023F0008C911297818315968C91882311F081E03E
:1024000001C082E08283F80180819181F701A2817D
:10241000B381FC012089318912964C91BE016F5F16
:102420007F4FC801F9010995CE0101960E94451F11
:1024300042C0813399F46181C8010E94B90D7C01C9
:102440000097C9F1DC0114966C91149713968C9146
:102450000E94712281E0F70185830BC0823371F401
:102460006181C8010E94B90D7C01009721F10E9491
:10247000AF11B701C8010E9411111DC0803FD9F4EE
:10248000CA94CD28C1F4E12CF12C6801ABE0CA0E4E
:10249000D11CF80125853685E216F30664F4B701F0
:1024A000C6010E94AA0DBC01C8010E94D2108FEF84
:1024B000E81AF80AEECF0F900F900F900F90DF916F
:1024C000CF911F910F91FF90EF90DF90CF90BF9031
:1024D000AF90089508950F931F93CF93DF93EC016E
:1024E0008CEA92E0998388838E01055F1F4F2D85CA
:1024F0003E85121613067CF460E070E0C8010E946D
:10250000CC0E0097A1F3DC01ED91FC910280F381E8
:10251000E02D0995ECCF84E992E09C878B878F852D
:102520009889009741F0FC0122813381388B2F87F5
:102530000E944236F4CFDF91CF911F910F91089501
:10254000CF93DF93EC0180E293E099838883CE01FF
:1025500083529F4F0E946B12CE0183539F4F0E9464
:10256000271ECE01DF91CF910C947228CF93DF9379
:10257000EC010E94A012CE01DF91CF910C94423663
:10258000CF93DF93EC010E946B12CE01DF91CF91CC
:102590000C944236CF92DF92EF92FF92CF93DF936B
:1025A000EC01072E000C880B990B0E94E1366B01A1
:1025B0007C0120E030E040E45FE30E94403720E00F
:1025C00030E048E452E40E9485380E94F738C6178C
:1025D000D707D4F020E030E040EA5FE3C701B6015E
:1025E0000E94403720E030E048E452E40E94853801
:1025F00020E030E040E85FE30E9419380E94F7389D
:1026000021E06C177D070CF420E0822F90E0DF9131
:10261000CF91FF90EF90DF90CF900895CF93DF930D
:10262000EC018B819C81DC01ED91FC910480F581B2
:10263000E02D09951E821D82DF91CF910895CF93E1
:10264000DF93EC018B819C81DC01ED91FC91048096
:10265000F581E02D09951E821D82DF91CF910895AD
:10266000FC0181819281009711F00C94423608950B
:10267000CF92DF92FF920F931F93CF93DF938B0143
:10268000FB01F1848FE08F0DC82ED12CC6010E9472
:10269000AD35EC018EEF88838AE08F0D898384E26B
:1026A0008A8381E08B83F80180818C8381818D8393
:1026B00082818E8383818F838481888785818987C6
:1026C00086818A8787818B8780858C87FD864F2DC1
:1026D00050E062857385CE010E960E94063AF6019F
:1026E0003197EC0FFD1F9DE09F0DDE01119680E0FC
:1026F000915018F02D918227FBCF8083A601BE0157
:102700008FE793E00E943D20209751F0CE01DF91AA
:10271000CF911F910F91FF90DF90CF900C94423694
:10272000DF91CF911F910F91FF90DF90CF9008958F
:10273000EF92FF920F931F93CF93DF9300D0CDB70B
:10274000DEB78B01CA0149835A830E94AD357C01F3
:1027500049815A81840F951FD7010E191F09A817A7
:10276000B90731F0F801EA0FFB1FE491ED93F7CFC1
:10277000B7018FE793E00E943D20E114F10459F086
:10278000C7010F900F90DF91CF911F910F91FF9094
:10279000EF900C9442360F900F90DF91CF911F91E4
:1027A0000F91FF90EF900895CF92DF92EF92FF92FA
:1027B0000F931F93CF93DF93CDB7DEB72C970FB650
:1027C000F894DEBF0FBECDBFFB0100811181011562
:1027D000110599F17C0185E58B838C831D821E8216
:1027E0001F8218861986C280D380F60180818230CC
:1027F000F1F403301105D8F019821A820A87C80152
:102800000E94AD358B879C87FC01D601CD018C19C8
:102810009D09801791071CF48D918193F7CFBE011C
:102820006F5F7F4FF701838194810E9438138B85FE
:102830009C85009711F00E9442362C960FB6F894B2
:10284000DEBF0FBECDBFDF91CF911F910F91FF90E3
:10285000EF90DF90CF9008950F931F93CF93DF9366
:10286000CDB7DEB72A970FB6F894DEBF0FBECDBF47
:102870008C018FE793E00E949920181619062CF41A
:102880008FE793E00E947720F4CF1E8219861A8684
:1028900018861F8248E050E066E770E0C8010E9499
:1028A000981319821C821D821B821A8244E150E017
:1028B000BE016F5F7F4FC8010E94D925CE010196EE
:1028C0000E94301346E050E06EE770E0C8010E94BD
:1028D000981319821C821D821B821A8244EA56E0D8
:1028E000BE016F5F7F4FC8010E94D925CE010196BE
:1028F0000E94301348E050E064E870E0C8010E9494
:10290000981319821C821D821B821A8244E150E0B6
:10291000BE016F5F7F4FC8010E94D925CE0101968D
:102920000E94301348E050E06CE870E0C8010E945B
:10293000981319821C821D821B821A8244E150E086
:10294000BE016F5F7F4FC8010E94D925CE0101965D
:102950000E94301342E150E064E970E0C8010E9437
:10296000981319821C821D821B821A8244E150E056
:10297000BE016F5F7F4FC8010E94D925CE0101962D
:102980000E94301347E050E066EA70E0C8010E9400
:10299000981364E670E080E090E00E940223CE018C
:1029A00006960E9430132A960FB6F894DEBF0FBE2B
:1029B000CDBFDF91CF911F910F9108950F931F937A
:1029C000CF93DF9300D000D01F92CDB7DEB78C013C
:1029D00082E090E09A8389836D830E94AD35FC018B
:1029E0009C838B8383E080836D81662311F081E07B
:1029F00001C082E08183D801ED91FC910088F189CA
:102A0000E02D45E3BE016F5F7F4FC8010995CE0100
:102A100001960E94451F0F900F900F900F900F90FE
:102A2000DF91CF911F910F910895CF92DF92EF9296
:102A3000FF920F931F93CF93DF93CDB7DEB72C9701
:102A40000FB6F894DEBF0FBECDBF8C01FC018581AF
:102A50009681892B99F5F8018385882311F01386D7
:102A600004C060E0C8010E94DE1485E58B838C837E
:102A70001D821E821886198619821A8281E08A8731
:102A800081E090E00E94AD359C878B8724E0FC01BB
:102A90002083BE016F5F7F4FF801838194810E9484
:102AA00038138B859C85009711F00E9442360E9456
:102AB0003C23F80167837087818792878EE595E1D3
:102AC000F801968385830E943C23F801C780D08457
:102AD000E184F284DC01CB018C199D09AE09BF09A8
:102AE00088389341A105B10508F0B5CF80E090E0AA
:102AF0002C960FB6F894DEBF0FBECDBFDF91CF91FD
:102B00001F910F91FF90EF90DF90CF900895EF927B
:102B1000FF920F931F93CF93DF93CDB7DEB72A9722
:102B20000FB6F894DEBF0FBECDBF8C018FE793E0E8
:102B30000E9499201816190644F58FE793E00E9429
:102B40008B208E3F910529F08FE793E00E9477203C
:102B5000EDCF19821C821D821B821A82F8018381AB
:102B60009481DC0112964D915C911397BE016F5FC9
:102B70007F4F0E94D9258981882319F08C81843464
:102B8000A1F0CE0101960E943013C8010E941515D4
:102B90002A960FB6F894DEBF0FBECDBFDF91CF915E
:102BA0001F910F91FF90EF9008958D81813849F723
:102BB000EA81FB81808990E0009719F32189213017
:102BC00041F583309105E8F242897C0122E0E21A66
:102BD000F108FF82EE82C7014A870E94AD359987CE
:102BE000888780E090E04A85EA81FB81E80FF91F41
:102BF0002389E885F985E80FF91F208301968E1552
:102C00009F0590F3D801ED91FC910088F189E02DAA
:102C100053C0253041F481E0F801838761E0C801A9
:102C20000E94DE14AECF233031F5499709F0A9CFC9
:102C300089E190E09F838E830E94AD3599878887D4
:102C400022E0DC012C9381E090E0EA81FB81E80F37
:102C5000F91F2189E885F985E80FF91F208301967E
:102C60008931910591F7D801ED91FC910088F189A6
:102C7000E02D45E321C0263009F083CF81E090E0CC
:102C80009F838E830E94AD359987888720EFFC0152
:102C90002083D801ED91FC910088F189E02D43E378
:102CA000BE016A5F7F4FC8010995D801ED91FC9183
:102CB0000088F189E02D41E3BE016A5F7F4FC801C2
:102CC0000995CE0106960E94451F5BCF0F93FC012C
:102CD0000150040F84A996A9941718F0081728F436
:102CE00002C0081750F0041740F42150260F83A9A2
:102CF00095A9961720F4281720F480E007C028171C
:102D000020F481E0261710F0F8CF81E00F910895AC
:102D10002F923F924F925F926F927F928F929F92EB
:102D2000AF92BF92CF92DF92EF92FF920F931F93D9
:102D3000CF93DF9300D01F92CDB7DEB79B838A83FA
:102D4000B62E542E122FA02E0E946616882309F448
:102D500059C087E0810FC82EC694C694C694D12C62
:102D6000252C2A0C87E0482E4B0C812F86958695C2
:102D70008695882E912C0B2D98E0899F000D1124AB
:102D8000342C310E6A807B80ECE16E0E711C177062
:102D90005214C1F15701542D832D851B8830B8F092
:102DA000F5018491EA81FB8162817381548F558E94
:102DB00092E0978F868F93014BE3CF0159830E9456
:102DC000C523EFEFAE1ABE0A5981585FE5CFF70170
:102DD000E80DF91DA12E112389F0B490202FB0FE2B
:102DE00008C0452D622F8A819B8129830E94D624A9
:102DF00029812F5FAA94B694A110F1CFEC0CFD1C91
:102E00005394C6CF0F900F900F90DF91CF911F91E9
:102E10000F91FF90EF90DF90CF90BF90AF909F9079
:102E20008F907F906F905F904F903F902F9008957C
:102E30008F929F92AF92BF92CF92DF92EF92FF92CA
:102E40000F931F93CF93DF93DA01CD91DC91FB01B8
:102E500084859585C817D9070CF04CC0CE01880F22
:102E6000991F0284F385E02DE80FF91F808091807F
:102E7000C170DD27F1E0CF27209719F484E690E0B8
:102E800002C08CE99FEF59016A017801E80EF91E32
:102E9000B701C4010E94CA12892B99F4E00EF11EF9
:102EA000B701C4010E94CA12892B71F4B701600FE7
:102EB000711FC4010E94CA12892BF9F023E030E08F
:102EC00005C021E030E002C022E030E0D5018D9164
:102ED0009C91119701968217930744F0F501118296
:102EE0001082D6018D919C91119701968D939C93A0
:102EF000CE0105C081E090E002C08FEF9FEFDF912F
:102F0000CF911F910F91FF90EF90DF90CF90BF90E6
:102F1000AF909F908F9008951F920F920FB60F92CF
:102F200011242F933F934F935F936F937F938F93CE
:102F30009F93AF93BF93EF93FF9380911D040E94E3
:102F4000482220912104309122042F5F3F4F30937B
:102F500022042093210490912004953618F096E0E5
:102F600090931C0490911C049430C9F128F4923081
:102F700069F09330D1F05EC0953009F451C09630BD
:102F800009F058C091E09093ED0451C0811152C0F6
:102F900020912104309122042436310508F442C0E6
:102FA0001092ED04109220041CC0813009F042C040
:102FB000E091200491E09E0F90932004F0E0209196
:102FC000210430912204EE0FFF1FE45EFB4F308797
:102FD0002783109222041092210494E029C08111C9
:102FE00017C0E091200491E09E0F90932004F0E040
:102FF0002091210430912204EE0FFF1FE45EFB4F6D
:1030000030872783109222041092210493E010C08D
:1030100020912104309122042536310558F007C053
:10302000811108C0109222041092210403C095E07F
:1030300090931C0490911F049923B9F081110AC048
:1030400080911E04882321F080911E0461E009C054
:103050002D9A0BC080911E04882331F080911E04AC
:1030600060E00E94712201C02D98FF91EF91BF9105
:10307000AF919F918F917F916F915F914F913F9110
:103080002F910F900FBE0F901F9018952F923F9287
:103090004F925F926F927F929F92AF92BF92CF9228
:1030A000DF92EF92FF920F931F93CF93DF9300D0A5
:1030B00000D01F92CDB7DEB76C01162F19821A828D
:1030C0001B821C821D8261E0812F0E94A12260E090
:1030D000812F0E94712262E170E080E090E00E9406
:1030E000022361E0812F0E9471228BE990E0019719
:1030F000F1F760E0812F0E94A12251E1E52E57E215
:10310000F52E812F0E944822892B39F481E0E81A9C
:10311000F108B9F78EEF9FEF72C041E1E42E47E26C
:10312000F42E812F0E944822019729F4E1E0EE1A43
:10313000F108B9F7EFCF28E2E22EF12C912C07E04D
:10314000AA24A394B12C91E1692E97E2792E812FC4
:103150000E944822892B29F4F1E06F1A7108B9F70F
:10316000D9CF0E94DD221B012C0181E1682E87E26C
:10317000782E812F0E944822019729F481E0681A55
:103180007108B9F7C7CF0E94DD22DC01CB0182199B
:103190009309A409B5098997A105B10578F0E1E083
:1031A000F0E0EC0FFD1FE90DF11D80819501002E6F
:1031B00001C0220F0A94EAF7282B2083011103C0D3
:1031C000939407E001C00150E1E0EE1AF10809F024
:1031D000BACF8981282F30E0F601318320832B81FB
:1031E000422F50E053834283280F81E090E03D81DD
:1031F000321302C080E090E09195819591090F9083
:103200000F900F900F900F90DF91CF911F910F9122
:10321000FF90EF90DF90CF90BF90AF909F907F9006
:103220006F905F904F903F902F900895CF92DF92D4
:10323000EF92FF920E94DD226B017C010E94DD2251
:10324000DC01CB018C199D09AE09BF09883E934072
:10325000A105B10540F08FE793E0FF90EF90DF907C
:10326000CF900C9477208FE793E00E949920181656
:1032700019068CF3E3CFCF93DF93EC0118821B8206
:103280001C8289819A81009711F00E9442361A822D
:103290001982DF91CF910895FC01508141813281E3
:1032A0002381652F742F832F922F0895FA01608355
:1032B00071838283938308954F925F926F927F927E
:1032C0008F929F92AF92BF92CF92DF92EF92FF9236
:1032D0000F931F93CF93DF93CDB7DEB728970FB629
:1032E000F894DEBF0FBECDBF7C01DC0115968D9139
:1032F0009C911697892B09F067C0F701C380D48091
:10330000D60112966C9170E0C60103960E94461891
:10331000F60165817681072E000C880B990B0E94BF
:10332000E1362B013C01D60113966D917C911497E7
:10333000072E000C880B990B0E94E1364B015C01B3
:103340008B019C01B301A201C6010E9488306D83EC
:103350007E838F8398878DE090E09A8389830E9493
:10336000AD358B839C83FC0181E08193AF01C30168
:10337000B2010E9456194B815C814B5F5F4FC501C2
:10338000B4010E9456194B815C81475F5F4F6D818C
:103390007E818F8198850E945619D701ED91FC910D
:1033A0000088F189E02D45E3BE016F5F7F4FC701C3
:1033B0000995CE0101960E94451F0E943C23F7010A
:1033C000678370878187928784EE99E1D70116968B
:1033D0009C938E9315970E943C23F70187809084DD
:1033E000A184B284DC01CB0188199909AA09BB091F
:1033F000883B9B40A105B10508F07FCF80E090E0BD
:1034000028960FB6F894DEBF0FBECDBFDF91CF91E7
:103410001F910F91FF90EF90DF90CF90BF90AF90F2
:103420009F908F907F906F905F904F9008950C9435
:103430005C19DC011496ED91FC9115971C968C910A
:103440001C97882361F01A962D913C911B97621767
:1034500073072CF01896ED91FC9119970AC020E0A3
:1034600030E007C03097C9F00280F381E02D2F5F74
:103470003F4F26173707B4F32617370771F481E05B
:103480001C968C931C971B963C932E931A97199617
:10349000FC93EE931897CF01089580E090E0089593
:1034A000CF93DF9377FD0EC0FC0122813381621739
:1034B000730744F4EA010E94191AFC01D183C08306
:1034C00081E001C080E0DF91CF9108950E94191A38
:1034D000009721F0FC0180819181089580E090E0C7
:1034E0000895FC01828193810895EF92FF920F93DA
:1034F0001F93CF93DF938C01C0E0D0E07C0183E089
:10350000E80EF11CF80125813681C217D30784F437
:10351000BE01C7010E94661ADC018D919C91DC01FD
:10352000ED91FC910480F581E02D09952196EACF7B
:10353000DF91CF911F910F91FF90EF900895CF935E
:10354000DF93EC01E881F9810190F081E02DCE015B
:1035500009951816190644F4E881F9810684F7855F
:10356000E02DCE010995EECFDF91CF910895DC01DA
:103570001496ED91FC9115971C968C911C978823BD
:1035800061F01A962D913C911B97621773072CF0EE
:103590001896ED91FC9119970AC020E030E007C021
:1035A0003097C9F00280F381E02D2F5F3F4F26173F
:1035B0003707B4F32617370771F481E01C968C9314
:1035C0001C971B963C932E931A971996FC93EE9397
:1035D0001897CF01089580E090E00895CF93DF938E
:1035E00077FD0EC0FC01228133816217730744F41A
:1035F000EA010E94B71AFC01D183C08381E001C0B7
:1036000080E0DF91CF9108950E94B71A009721F0D2
:10361000FC0180819181089580E090E00895FC0193
:103620008281938108959F92AF92BF92CF92DF9251
:10363000EF92FF920F931F93CF93DF937C016B0167
:10364000942EC0E0D0E05C0182E0A80EB11CF7012E
:1036500024813581C217D307CCF4BE01C5010E9475
:10366000041B8C01DC01ED91FC910484F585E02DB7
:103670000995891109C0D801ED91FC910684F7855F
:10368000E02DB601C80109952196E1CFDF91CF91D8
:103690001F910F91FF90EF90DF90CF90BF90AF9070
:1036A0009F900895EF92FF920F931F93CF93DF9314
:1036B0008C01C0E0D0E07C0182E0E80EF11CF80152
:1036C00024813581C217D3076CF4BE01C7010E9463
:1036D000041BDC01ED91FC910284F385E02D09953A
:1036E0002196EDCFDF91CF911F910F91FF90EF9039
:1036F0000895EF92FF920F931F93CF93DF938C0166
:10370000C0E0D0E07C0182E0E80EF11CF8012481E9
:103710003581C217D3076CF4BE01C7010E94041B98
:10372000DC01ED91FC910084F185E02D0995219655
:10373000EDCFDF91CF911F910F91FF90EF90089502
:103740008C017C0182E0E80EF11CC0E0D0E0F801C1
:1037500084819581C817D907C4F7BE01C7010E94AB
:10376000041BDC01ED91FC910680F781E02D0995A9
:103770002196EDCFEF92FF920F931F93CF93DF939C
:103780008C01C0E0D0E07C0182E0E80EF11CF80181
:1037900024813581C217D3076CF4BE01C7010E9492
:1037A000041BDC01ED91FC910480F581E02D09956D
:1037B0002196EDCFDF91CF911F910F91FF90EF9068
:1037C0000895EF92FF920F931F93CF93DF93DC0145
:1037D00012960D911C9113970115110561F4ED914D
:1037E000FC910480F581E02DDF91CF911F910F9125
:1037F000FF90EF9009947B01EC0184E090E00E943F
:10380000AD352C813D81FC0133832283F182E0823E
:103810009D838C830F5F1F4F1B830A831C8681E06F
:10382000DF91CF911F910F91FF90EF900895CF926C
:10383000DF92EF92FF920F931F93CF93DF939B0141
:10384000BA01DC0112964D915C911397241735074C
:1038500034F0ED91FC910480F581E02D09C0211533
:10386000310579F4DC01ED91FC910680F781E02DC2
:10387000DF91CF911F910F91FF90EF90DF90CF904C
:1038800009947B01E9018C0184E090E00E94AD3550
:103890006C01FC011182108213821282BE01615000
:1038A0007109C8010E94191AD6011196FC92EE9274
:1038B000FC012281338113963C932E931297D3827D
:1038C000C282D80112968D919C91139701961396FE
:1038D0009C938E9312971C961C9281E0DF91CF915E
:1038E0001F910F91FF90EF90DF90CF9008950F936D
:1038F0001F93CF93DF93EC018B0184E090E00E9453
:10390000AD35FC0113821282118300832C813D812D
:10391000232B29F0EE81FF819383828302C09D8354
:103920008C839F838E838A819B8101969B838A836C
:103930001C8681E0DF91CF911F910F910895EF9246
:10394000FF920F931F93CF93DF93DC0112960D919B
:103950001C9113970115110561F4ED91FC91048000
:10396000F581E02DDF91CF911F910F91FF90EF90A6
:1039700009947B01EC0184E090E00E94AD352C813C
:103980003D81FC0133832283F182E0829D838C831D
:103990000F5F1F4F1B830A831C8681E0DF91CF914D
:1039A0001F910F91FF90EF900895CF92DF92EF92C9
:1039B000FF920F931F93CF93DF939B01BA01DC011A
:1039C00012964D915C9113972417350734F0ED91C1
:1039D000FC910480F581E02D09C02115310579F4B1
:1039E000DC01ED91FC910680F781E02DDF91CF9114
:1039F0001F910F91FF90EF90DF90CF9009947B0182
:103A0000E9018C0184E090E00E94AD356C01FC017D
:103A10001182108213821282BE0161507109C801A5
:103A20000E94B71AD6011196FC92EE92FC012281F7
:103A3000338113963C932E931297D382C282D8017E
:103A400012968D919C911397019613969C938E9349
:103A500012971C961C9281E0DF91CF911F910F91DC
:103A6000FF90EF90DF90CF9008950F931F93CF9327
:103A7000DF93EC018B0184E090E00E94AD35FC0106
:103A800013821282118300832C813D81232B29F024
:103A9000EE81FF819383828302C09D838C839F8309
:103AA0008E838A819B8101969B838A831C8681E019
:103AB000DF91CF911F910F91089502960C94351DBF
:103AC000EF92FF920F931F93CF93DF93FC016281DC
:103AD00073811616170664F5EC01148661307105C2
:103AE000C1F0625071090E94191A7C01FC018281A7
:103AF0009381FC01008111810E944236F7011382FB
:103B00001282FF82EE828A819B8101979B838A8346
:103B10000DC084819581FC01008111810E94423693
:103B20001D821C821F821E821B821A82C80102C053
:103B300080E090E0DF91CF911F910F91FF90EF9087
:103B40000895EF92FF920F931F93CF93DF93DC01C1
:103B500012962D913C9113971216130624F52130DD
:103B60003105A1F0EC01EC81FD81E280F380008160
:103B70001181CF010E944236FD82EC828A819B81B5
:103B800001979B838A831C86C8010FC0DC01ED91DD
:103B9000FC910484F585E02DDF91CF911F910F9169
:103BA000FF90EF90099480E090E0DF91CF911F911A
:103BB0000F91FF90EF9008950F931F93CF93DF9392
:103BC00077FD3EC0DC0112962D913C911397621750
:103BD0007307B4F56115710531F4ED91FC9106841C
:103BE000F785E02D0BC0215031096217730759F496
:103BF000DC01ED91FC910484F585E02DDF91CF91FE
:103C00001F910F910994EC01615071090E94191ADA
:103C1000DC011296ED91FC911397008111812281B4
:103C2000338113963C932E931297CF010E94423614
:103C30008A819B8101979B838A831C86C80102C06D
:103C400080E090E0DF91CF911F910F910895EF9266
:103C5000FF920F931F93CF93DF93EC018CE792E0D9
:103C6000998388837E0183E0E80EF11C2D813E81DB
:103C700012161306C4F460E070E0C7010E94DC1D58
:103C80008C01009799F3DC018D919C91009739F09C
:103C9000DC01ED91FC910280F381E02D0995C801D2
:103CA0000E944236E3CF84E692E09C838B838F812F
:103CB0009885009741F0FC012281338138872F835A
:103CC0000E944236F4CFDF91CF911F910F91FF9068
:103CD000EF900895CF93DF93EC010E94271ECE0151
:103CE000DF91CF910C944236EF92FF920F931F9386
:103CF000CF93DF93FC01628173811616170664F57A
:103D0000EC01148661307105C1F0625071090E94A6
:103D1000B71A7C01FC0182819381FC010081118131
:103D20000E944236F70113821282FF82EE828A815C
:103D30009B8101979B838A830DC084819581FC01BF
:103D4000008111810E9442361D821C821F821E82C8
:103D50001B821A82C80102C080E090E0DF91CF91FF
:103D60001F910F91FF90EF900895EF92FF920F93A4
:103D70001F93CF93DF93DC0112962D913C91139703
:103D80001216130624F521303105A1F0EC01EC8167
:103D9000FD81E280F38000811181CF010E944236D3
:103DA000FD82EC828A819B8101979B838A831C869A
:103DB000C8010FC0DC01ED91FC910484F585E02D74
:103DC000DF91CF911F910F91FF90EF90099480E0C8
:103DD00090E0DF91CF911F910F91FF90EF900895A8
:103DE0000F931F93CF93DF9377FD3EC0DC011296B4
:103DF0002D913C91139762177307B4F56115710506
:103E000031F4ED91FC910684F785E02D0BC0215033
:103E100031096217730759F4DC01ED91FC910484B8
:103E2000F585E02DDF91CF911F910F910994EC0161
:103E3000615071090E94B71ADC011296ED91FC9154
:103E40001397008111812281338113963C932E9325
:103E50001297CF010E9442368A819B8101979B83F2
:103E60008A831C86C80102C080E090E0DF91CF9178
:103E70001F910F910895CF93DF93EC010E94722858
:103E8000CE01DF91CF910C944236FC018281938167
:103E9000009711F00C94423608958F929F92AF9242
:103EA000BF92EF92FF920F931F93CF93DF9300D0B7
:103EB00000D0CDB7DEB77C018B01DB01ED91FC9129
:103EC0000084F185E02DCB0109954B015C0187E071
:103ED00090E09A8389830E94AD35FC019C838B839B
:103EE00082E0808381E08183D80112968C91828365
:103EF000AF014D5F5F4FC501B4010E945619D70154
:103F0000ED91FC910288F389E02DBE016F5F7F4F38
:103F1000C7010995CE0101960E94451F0F900F9091
:103F20000F900F90DF91CF911F910F91FF90EF9025
:103F3000BF90AF909F908F900895CF92DF92EF92B5
:103F4000FF920F931F93CF93DF938C01EB018E8130
:103F50009F81892B59F468817981C8010E944D1F86
:103F60000E943C23688779878A879B8786EB9FE13D
:103F70009F838E830E943C23C884D984EA84FB8477
:103F8000DC01CB018C199D09AE09BF094A815B8117
:103F900060E070E084179507A607B707E0F680E0B9
:103FA00090E0DF91CF911F910F91FF90EF90DF9004
:103FB000CF900895EF92FF920F931F93CF93DF93CB
:103FC0008C01C0E0D0E07C0183E0E80EF11CF80138
:103FD00025813681C217D30794F4BE01C7010E9420
:103FE000661ABC01FC018581882321F0C8010E946A
:103FF0009D1F03C0FB01178216822196E8CFDF9137
:10400000CF911F910F91FF90EF900895EF92FF9243
:104010000F931F93CF93DF93DB012D913C91119769
:104020002115310519F11296ED91FC9113974081FC
:10403000403FE1F421303105C9F4EC0100E010E02B
:104040007C01F3E0EF0EF11C2D813E810217130776
:104050006CF4B801C7010E94661AFC01608171818D
:10406000CE010E944D1F0F5F1F4FEECFDF91CF910A
:104070001F910F91FF90EF900895CF92DF92EF92F2
:10408000FF920F931F93CF93DF936C017A018B0103
:10409000C0E0D0E0CE15DF0589F0D8016D918D012B
:1040A000D601ED91FC910190F081E02DC6010995BA
:1040B000892B11F47E0102C02196ECCFC701DF915C
:1040C000CF911F910F91FF90EF90DF90CF900895C7
:1040D000FC01538D448D252F30E0842F90E0821B0E
:1040E000930B541710F0CF96089501970895FC0193
:1040F000918D828D981761F0828DDF01A80FB11D1F
:104100005D968C91928D9F5F9F73928F90E0089542
:104110008FEF9FEF0895FC01918D828D981731F0FC
:10412000828DE80FF11D858D90E008958FEF9FEF50
:104130000895FC01918D228D892F90E0805C9F4F26
:10414000821B91098F73992708958FE793E00E944E
:10415000992021E0892B09F420E0822F0895FC01A9
:10416000848DDF01A80FB11DA35ABF4F2C91848D00
:1041700090E001968F739927848FA689B7892C9335
:10418000A089B1898C9180648C93938D848D9813D0
:1041900006C00288F389E02D80818F7D8083089599
:1041A000EF92FF920F931F93CF93DF93EC0181E087
:1041B000888F9B8D8C8D981305C0E889F989808143
:1041C00085FD24C0F62E0B8D10E00F5F1F4F0F737F
:1041D0001127E02E8C8DE8120CC00FB607FCFACF29
:1041E000E889F989808185FFF5CFCE010E94AF2053
:1041F000F1CF8B8DFE01E80FF11DE35AFF4FF082E6
:104200000B8FEA89FB898081806207C0EE89FF8974
:104210006083E889F98980818064808381E090E00F
:10422000DF91CF911F910F91FF90EF900895CF9361
:10423000DF93EC01888D8823C9F0EA89FB898081AE
:1042400085FD05C0A889B9898C9186FD0FC00FB680
:1042500007FCF5CF808185FFF2CFA889B9898C91C1
:1042600085FFEDCFCE010E94AF20E7CFDF91CF9148
:10427000089580E090E0892B29F00E94A52081110B
:104280000C9400000895833081F028F4813099F077
:104290008230A1F008958730A9F08830B9F08430D9
:1042A000D1F4809180008F7D03C0809180008F7752
:1042B00080938000089584B58F7702C084B58F7D88
:1042C00084BD08958091B0008F7703C08091B000C5
:1042D0008F7D8093B00008950895DC011696ED91CE
:1042E000FC91179712968C91481B477081E090E0E3
:1042F00001C0880F4A95EAF7E60FF11D30812223AD
:1043000011F0832B02C0809583238083089580E081
:1043100008950E94013ADC01ED91FC910190F08139
:10432000E02D09946115710579F0FB0101900020E1
:10433000E9F73197AF01461B570BDC01ED91FC917A
:104340000280F381E02D099480E090E008954F927F
:104350005F926F927F92EF92FF920F931F93CF9392
:10436000DF93CDB7DEB7A1970FB6F894DEBF0FBECF
:10437000CDBF7C01FA01CB0119A2223008F42AE05A
:104380008E010F5D1F4F422E512C612C712CBF01ED
:10439000A30192010E94A239F901CA010150110939
:1043A0006A3014F4605D01C0695CD8016C93232B02
:1043B000242B252B61F7B801C7010E949221A196F9
:1043C0000FB6F894DEBF0FBECDBFDF91CF911F9126
:1043D0000F91FF90EF907F906F905F904F900895B6
:1043E0001F920F920FB60F9211242F933F934F936A
:1043F0005F936F937F938F939F93AF93BF93EF934D
:10440000FF938FE793E00E94AF20FF91EF91BF9160
:10441000AF919F918F917F916F915F914F913F915C
:104420002F910F900FBE0F901F9018951F920F9213
:104430000FB60F9211242F938F939F93EF93FF93B7
:10444000E0918F03F09190038081E0919503F091CA
:10445000960382FD12C09081809198038F5F8F73C5
:1044600020919903821751F0E0919803F0E0E15810
:10447000FC4F958F8093980301C08081FF91EF914D
:104480009F918F912F910F900FBE0F901F901895B5
:10449000CF93DF93282F30E0F901ED50FF4F849147
:1044A000F901E152FF4FD491F901E553FF4FC49157
:1044B000CC2391F081110E944321EC2FF0E0EE0F0C
:1044C000FF1FEF53FF4FA591B491EC91ED2381E0D5
:1044D00090E021F480E002C080E090E0DF91CF9195
:1044E00008951F93CF93DF93282F30E0F901ED500B
:1044F000FF4F8491F901E152FF4FD491F901E55347
:10450000FF4FC491CC23C9F0162F81110E94432183
:10451000EC2FF0E0EE0FFF1FE954FF4FA591B4918F
:104520008FB7F894111105C09C91ED2FE095E92308
:1045300002C0EC91ED2BEC938FBFDF91CF911F91D7
:104540000895CF93DF9390E0FC01E152FF4F249157
:10455000FC01E553FF4F8491882361F190E0880FBF
:10456000991FFC01E355FF4FC591D491FC01E9541B
:10457000FF4FA591B491611109C09FB7F89488814C
:10458000209582238883EC912E230BC0623061F446
:104590009FB7F8943881822F809583238883EC918C
:1045A0002E2B2C939FBF06C08FB7F894E8812E2B3B
:1045B00028838FBFDF91CF9108953FB7F894809102
:1045C0007B0390917C03A0917D03B0917E0326B57F
:1045D000A89B05C02F3F19F00196A11DB11D3FBF3B
:1045E000BA2FA92F982F8827820F911DA11DB11DC9
:1045F000BC01CD0142E0660F771F881F991F4A95C5
:10460000D1F708958F929F92AF92BF92CF92DF928F
:10461000EF92FF926B017C010E94DD224B015C0155
:10462000C114D104E104F104F1F00E94DD22DC01A7
:10463000CB0188199909AA09BB09883E9340A105B5
:10464000B10570F321E0C21AD108E108F10888EE43
:10465000880E83E0981EA11CB11CC114D104E10492
:10466000F10419F7DDCFFF90EF90DF90CF90BF906E
:10467000AF909F908F9008952FB7F8946091770333
:10468000709178038091790390917A032FBF0895F8
:104690001F920F920FB60F9211242F933F938F9377
:1046A0009F93AF93BF938091770390917803A091EC
:1046B0007903B0917A033091760323E0230F2D37ED
:1046C00020F40196A11DB11D05C026E8230F029616
:1046D000A11DB11D209376038093770390937803F7
:1046E000A0937903B0937A0380917B0390917C032C
:1046F000A0917D03B0917E030196A11DB11D809311
:104700007B0390937C03A0937D03B0937E03BF91C2
:10471000AF919F918F913F912F910F900FBE0F906E
:104720001F901895FB014181DC0112962C91129784
:10473000421768F013962C911397241740F060816C
:1047400015962C91621718F424810C946D2108950C
:10475000FC0180819281980F92832181921760F4ED
:1047600094819F5F94839381890F821710F08FEF5C
:10477000820F838381E0089580E00895FC01128216
:1047800080818150838314820895DB01ED91FC9137
:1047900009948F929F92AF92BF92CF92DF92EF9245
:1047A000FF920F931F93CF93DF931F92CDB7DEB786
:1047B0004C01F62E042F122F522FE42EE20EBB24B2
:1047C000B394AA24AA946C018CE1C80ED11C8E2D3E
:1047D000851B583080F0F40162817381F48E858FDF
:1047E000B78EA68E96014BE3C40159830E94C52360
:1047F00059815850ECCF812F887F080F212F2770C7
:1048000031F187E02827F40162817381F48E058FEE
:1048100081E0878F2F5F27708FEF90E001C0880FB6
:104820002A95EAF7868F9401245E3F4F4BE3C4013B
:104830000F90DF91CF911F910F91FF90EF90DF903C
:10484000CF90BF90AF909F908F900C94C5230F9006
:10485000DF91CF911F910F91FF90EF90DF90CF905C
:10486000BF90AF909F908F9008958F929F92BF922C
:10487000CF92DF92EF92FF920F931F93CF93DF932C
:104880001F92CDB7DEB74C01062FF42E122F522FF8
:10489000E62EE20EBB24BA946C018CE1C80ED11C4A
:1048A0008E2D851B583080F0F40162817381848FD6
:1048B000F58E178EB68E96014BE3C40159830E9484
:1048C000C52359815850ECCF812F887F080F212FA5
:1048D000277021F187E02827F40162817381048F1A
:1048E000F58E178E2F5F27708FEF90E001C0880F35
:1048F0002A95EAF7868F9401245E3F4F4BE3C4016B
:104900000F90DF91CF911F910F91FF90EF90DF906B
:10491000CF90BF909F908F900C94C5230F90DF9104
:10492000CF911F910F91FF90EF90DF90CF90BF90AC
:104930009F908F900895DF92EF92FF920F931F93B5
:10494000CF93DF937C01162FC42FD22ED02F0E943D
:104950006616882319F12D2D4C2F612FC7010E9457
:1049600035242D2F4C2F612FC7010E94C9236FEFD3
:104970006D0D610F2D2F4C2FC7010E94C9234FEFE2
:104980004D0F4C0F2D2D612FC701DF91CF911F913E
:104990000F91FF90EF90DF900C943524DF91CF9131
:1049A0001F910F91FF90EF90DF900895262FFC014B
:1049B00062817381248F458F9C01245E3F4F42E3C7
:1049C0000C94C523EF92FF920F931F93CF93DF9325
:1049D0001F92CDB7DEB78C01DC011296ED90FC90F2
:1049E0001397D196ED91FC91D29782E0099520E042
:1049F00030E04AE0B701C8010E94C523F82ED80173
:104A0000D196ED91FC91D29783E00995D801D1968A
:104A1000ED91FC91D29780E00995FF20A1F1F8017A
:104A2000628173819E012F5F3F4F46E4C8010E945F
:104A3000C5238981D8018C9312966D917C9113972F
:104A40009E012F5F3F4F47E4C8010E94C523898123
:104A5000F80181836281738120E030E048E4C8017D
:104A60000E94C523D8011B968C931B9798012D5C3F
:104A70003F4F12966D917C91139747E1C8010E94B8
:104A8000C52381E001C080E00F90DF91CF911F919D
:104A90000F91FF90EF9008959F92AF92BF92CF92A7
:104AA000DF92EF92FF920F931F93CF93DF93EC016E
:104AB000162F042FE22E922E941A85E7B82EB60EEA
:104AC000492D6B2DCE010E94D624AE2CA11A95E75C
:104AD000C92EC00E4A2D6C2DCE010E94D62425E78A
:104AE000F22EDF2CD11A492D6D2DCE010E94D62435
:104AF000F01A4A2D6F2DCE010E94D6240E0D402FA4
:104B00006B2DCE010E94D6241E0D412F6C2DCE019F
:104B10000E94D624402F6D2DCE010E94D624412F15
:104B20006F2DCE01DF91CF911F910F91FF90EF90EC
:104B3000DF90CF90BF90AF909F900C94D6240F93AE
:104B40001F93CF93DF9361157105D9F0EB018C01B1
:104B50008CE090E00E94AD35FC01148281E08583F9
:104B600017821682D183C08380E797E19383828383
:104B7000BF01C8010396DF91CF911F910F910C9453
:104B8000771CDF91CF911F910F9108951F93CF93C1
:104B9000DF93EC01162F262F41E060E00E944C25A8
:104BA000212F40E061E0CE01DF91CF911F910C9465
:104BB0004C254F925F926F927F928F929F92AF920D
:104BC000BF92CF92DF92EF92FF920F931F93CF93FA
:104BD000DF938C01EB016A010E943C234B015C01D5
:104BE000E12CF12C8FE793E00E9477208E3F910516
:104BF00001F10E943C23DC01CB0188199909AA0923
:104C0000BB098C159D05AE05BF0560F3CE01DF9194
:104C1000CF911F910F91FF90EF90DF90CF90BF90B9
:104C2000AF909F908F907F906F905F904F900C947B
:104C30003B19C8010E9416198F3F2FEF920731F3DD
:104C40008883C8010E9416198F3F2FEF9207F1F257
:104C50008B83C8010E9416198F3FEFEF9E07B1F2B8
:104C60008C83C880D12CC6010E94AD3589839A837C
:104C70005C01E12CF12CEC14FD0498F50E943C231E
:104C800060938703709388038093890390938A03CA
:104C9000E0917F03F09180030284F385E02D8FE79C
:104CA00093E0099597FF2BC00E943C234090870317
:104CB000509088036090890370908A03DC01CB01D7
:104CC00084199509A609B70940908303509084037D
:104CD000609085037090860384159505A605B70539
:104CE000B8F288818E1192CFC8010E9416194881AE
:104CF0009B8194272C81922720E030E007C0F501AA
:104D000081935F01FFEFEF1AFF0AB5CF241748F434
:104D1000E981FA81E20FF31F508195272F5F3F4F02
:104D2000F5CF891373CFDF91CF911F910F91FF9032
:104D3000EF90DF90CF90BF90AF909F908F907F903B
:104D40006F905F904F9008954F925F926F927F9215
:104D50008F929F92AF92BF92CF92DF92EF92FF928B
:104D6000CF93DF93EC016A017B01B22E9A01AB0174
:104D7000C701B6010E947839882319F06FE373E008
:104D800027C026013701E89477F82FEF3FEF4FE770
:104D90005FE7C301B2010E94783981110DC02FEF86
:104DA0003FEF4FE75FE7C301B2010E94DA36181602
:104DB0001CF463E473E00CC02FEF3FEF4FE75FE4B8
:104DC000C701B6010E942D3918169CF467E473E000
:104DD000CE01DF91CF91FF90EF90DF90CF90BF9009
:104DE000AF909F908F907F906F905F904F900C94BA
:104DF00092212FEF3FEF4FE75FECC701B6010E9412
:104E0000DA3687FDE3CF20E030E0A901C701B60123
:104E10000E94DA3687FF0AC06DE2CE010E948B2124
:104E20004C01F7FAF094F7F8F09402C0812C912C21
:104E3000A12C60E070E080E09FE3AB1441F020E043
:104E400030E040E251E40E948538A394F6CF9B0104
:104E5000AC01C701B6010E9419382B013C010E9428
:104E6000FE386B017C010E94DF369B01AC01C3015F
:104E7000B2010E9418382B013C012AE0B701A601BB
:104E8000CE010E94A7217C01E80CF91CBB2031F067
:104E90006EE2CE010E948B21E80EF91EDB2CDD2094
:104EA00029F120E030E040E251E4C301B2010E9468
:104EB00040372B013C010E94FE384B01A12CB12C44
:104EC0002AE0B501A401CE010E94A721E80EF91E37
:104ED000C501B4010E94DF369B01AC01C301B201E0
:104EE0000E9418382B013C01DA94D9CFC701DF9119
:104EF000CF91FF90EF90DF90CF90BF90AF909F90B9
:104F00008F907F906F905F904F900895BF92CF9257
:104F1000DF92EF92FF920F931F93CF93DF93EC01F9
:104F2000B62E69017A0120E030E0A901C701B6017F
:104F30000E94DA3687FF0BC0EB81FC8183E585AFE9
:104F4000B6AE8B819C816DE202960E948B2120E09F
:104F500030E0A901C701B6010E942D390B811C81E7
:104F600018165CF420E030E040E251E4C701B601DD
:104F70000E94DA3687FF0DC00AC020E030E040E230
:104F800051ECC701B6010E942D39181614F48EE5B4
:104F900001C088E5F80185AFB6AE20E030E0A90198
:104FA000C701B6010E942D39B701A60118160CF0F1
:104FB00070588B819C8121E00296DF91CF911F91E7
:104FC0000F91FF90EF90DF90CF90BF900C94A426AC
:104FD0008091EE049091EF04DC01ED91FC91068448
:104FE000F785E02D40E3099408958091EE049091B7
:104FF000EF04DC01ED91FC910684F785E02D099426
:10500000FC018281089508950895089508950895F2
:1050100080E090E00895CF93DF93EC018B819C8139
:10502000DC01ED91FC910480F581E02D0995AB81C7
:10503000BC811A968D919C911B978750914009F4E1
:105040004EC087E091E01B969C938E931A975D96D5
:105050008C915D97811109C0ECE0F1E0E4915E96DE
:10506000EC935E97E3E1F1E013C0813049F4E6E1AF
:10507000F1E0E4915E96EC935E97E7E1F1E008C021
:10508000E4E1F1E0E4915E96EC935E97E5E1F1E016
:10509000E4915F96EC935F975E968C915E97082EF5
:1050A000000C990B5F962C915F97821B910927FD4D
:1050B000939590962C919097203441F0829FC00157
:1050C000112426E0969587952A95E1F791968C9381
:1050D000919787E891E25C969C938E935B97DF9122
:1050E000CF9108950F931F93CF93DF93EC0182E448
:1050F00091E0DE018D939D938D018C819D81181629
:1051000019067CF460E070E0C8010E94F01E009770
:10511000A1F3DC01ED91FC910280F381E02D099572
:10512000ECCF8AE291E09B838A838E819F810097F6
:1051300041F0FC01228133813F832E830E9442365D
:10514000F4CFDF91CF911F910F9108950C944236C7
:105150000C94423621E0FC0127AF06960C94E22421
:10516000CF92DF92EF92FF920F931F93CF93DF9333
:105170001F92CDB7DEB76C01DC01DC961C91DC9789
:10518000DB960C917C01B4E0EB0EF11CDC0159962E
:10519000ED91FC915A97C70169830995482F410FFA
:1051A0002981602FC7010E949B2EF60123AD082E96
:1051B000000C990B820F911D83AF81E090E00F905E
:1051C000DF91CF911F910F91FF90EF90DF90CF90E3
:1051D0000895AF92BF92CF92DF92EF92FF920F931A
:1051E0001F93CF93DF93DB012D913C912115310566
:1051F00009F4B5C2FB01EC0102811381F801808141
:105200008130E9F42D30310509F0A9C2C8010196B9
:105210000E944C196D837E838F839887C801059601
:105220000E944C1969877A878B879C87C8010996E9
:105230000E944C196D877E878F87988B6BC0823058
:1052400069F52931310509F08AC2C80101960E9429
:105250004C19698B7A8B8B8B9C8BC80105960E94AD
:105260004C196D8B7E8B8F8B988FC80109960E948D
:105270004C19698F7A8F8B8F9C8FC8010D960E9475
:105280004C1969A37AA38BA39CA3C80141960E94E1
:105290004C196D8F7E8F8F8F98A33CC0833069F43B
:1052A0002230310509F05BC28181813011F48DA378
:1052B00031C0823079F51DA22DC0843059F52330DC
:1052C000310509F04CC2F8018181813041F48281BD
:1052D000813011F48EA303C0823009F41EA2D801DC
:1052E00011968C911197823049F412968C918130ED
:1052F00011F48FA303C0823009F41FA2F801818149
:10530000833041F48281813011F488A703C0823058
:1053100009F418A60B811C81D801DF968C91DF97C8
:10532000F80136967F01811106C081E0DF968C93EB
:10533000CF010E94E224F801C084D18407A8F0AD17
:10534000E02D82E00995D801D796ED91FC91D89790
:1053500081E0099520E030E044E1B601C7010E94F8
:10536000C5239801275C3F4F47E1B601C7010E9462
:10537000C523D801D796ED91FC91D89780E0099587
:105380003BE0D32E8B819C8106E12CE440E064E37A
:1053900006960E949B248B819C812CE445E164E36A
:1053A00006960E949B248B819C8105E12CE44AE2B5
:1053B00064E306960E949B248B819C8125E34AE24C
:1053C00060E006960E949B248B819C81A7EAEA2ECE
:1053D000ACE0FA2E00E120E143E066E306960E948D
:1053E00088168B819C81B7E8EB2EBCE0FB2E20E178
:1053F00048E166E306960E9488168B819C8117E639
:10540000E12E1CE0F12E20E14DE266E306960E94BB
:1054100088168B819C810FE5E02E0CE0F02E08E0D1
:1054200028E04CE262E006960E9488168B819C81FF
:1054300027E5E22E2CE0F22E28E045E362E0069616
:105440000E9488168B819C812BE433E048E061E068
:1054500002960E94C3328B819C8120E533E048E0B4
:1054600065E102960E94C3328B819C8126E533E080
:105470004AE067E402960E94C3328B819C8129E551
:1054800033E043E167E402960E94C332EB80FC8084
:10549000B6E0EB0EF11C04E024E041E063E7C70155
:1054A0000E946616882321F063E0C7010E94C6258A
:1054B0008B819C812CE533E04AE068E702960E94EC
:1054C000C332EB80FC80E6E0EE0EF11C04E024E049
:1054D0004AE063E7C7010E946616882321F06CE06A
:1054E000C7010E94C6258B819C812CE533E043E1F6
:1054F00068E702960E94C3328B819C8126E533E0E7
:105500004FE167E402960E94C3328B819C8129E5BA
:1055100033E048E267E402960E94C3328B819C81AB
:105520002EE533E04FE168E702960E94C3328B819B
:105530009C812EE533E048E268E702960E94C33280
:105540008B819C8126E533E044E367E402960E9468
:10555000C3328B819C8129E533E04DE367E40296F9
:105560000E94C3328B819C8120E633E044E36FE2EA
:1055700002960E94C3328B819C8122E633E04DE388
:105580006FE202960E94C3322D813E814F81588581
:105590006AE0CE010E94862729893A894B895C8975
:1055A00063E1CE010E94862729853A854B855C857B
:1055B0006FE1CE010E9486272D893E894F89588D43
:1055C00068E2CE010E9486272D853E854F85588949
:1055D00064E3CE010E948627298D3A8D4B8D5C8D28
:1055E0006DE3CE010E948627EB81FC81D5AE84E37A
:1055F00086AF49A15AA16BA17CA18B819C8121E03E
:1056000002960E94A426EB81FC81D5AE8DE386AF85
:105610004D8D5E8D6F8D78A18B819C8121E00296EE
:105620000E94A4262DA18B819C81222361F0F7E3A7
:10563000EF2EFCE0FF2E00E120E148E064E1069659
:105640000E94881614C0E7E1EE2EECE0FE2E00E189
:1056500020E148E064E106960E9488168B819C81D7
:1056600024E633E046E161E202960E94C3322EA1B5
:105670008B819C81222329F077EFE72E7BE0F72EA8
:1056800004C067EDE62E6BE0F62E00E120E149E173
:1056900062E006960E9488162FA18B819C812223AE
:1056A00029F057EFE52E5BE0F52E04C047EDE42E20
:1056B0004BE0F42E00E120E149E162E106960E9410
:1056C000881628A58B819C81222329F037EFE32EB1
:1056D0003BE0F32E04C027EDE22E2BE0F22E00E19A
:1056E00020E149E162E206960E9488160B811C8146
:1056F0007801F6E0EF0EF11CD8015496ED91FC9183
:105700005597309711F0C7010995F801A084B1842D
:1057100007A8F0ADE02D82E00995D801D796ED916C
:10572000FC91D89781E0099520E030E045E1B50192
:10573000C7010E94C523C82E882341F09801275C29
:105740003F4F47E1B501C7010E94C523D801D79655
:10575000ED91FC91D89780E00995C11013CEDF91AF
:10576000CF911F910F91FF90EF90DF90CF90BF905E
:10577000AF900895089508950B96FC0184910895C3
:105780000A96FC0184910895FC01849108950E9479
:10579000C42B882321F0823011F083E0089586E045
:1057A0000895FC01E60FF11D849190E0982F882761
:1057B0003196E4918E0F911D089568E00C94D12BE1
:1057C00066E00C94D12B2EE93FE0009729F0F90117
:1057D0003197F1F70197F9CF089550917B066091C9
:1057E0007A064091790630917806A0917606B091BC
:1057F0007706E0917406F09175069FB79093730653
:10580000F89498E02C9187FF02C0252B01C0262335
:105810002C932081242B2083880F20812323208315
:10582000915081F7809173068FBF0895282F30E043
:10583000F901E553FF4FE491F0E0EE0FFF1FE9544B
:10584000FF4F85919491909377068093760670E050
:10585000FB01E553FF4F9491E92FF0E0EE0FFF1F9E
:10586000E954FF4F85919491909375068093740647
:10587000F901E152FF4F249120937B06FB01E15295
:10588000FF4F649160937906609560937806209548
:1058900020937A060895DB011496ED91FC911597FB
:1058A00020E030E065E00994DB011496ED91FC9175
:1058B000159720E030E062E00994DB011496ED9149
:1058C000FC91159720E030E063E00994CF92DF92DD
:1058D000EF92FF920F931F93CF93DF938C017B0185
:1058E0006A0180E0F601C49181110BC0CF3F09F439
:1058F0004CC04C2FB701C8010E944B2C811143C0F2
:1059000049C0CF3F11F44FEFF5CFCE3F09F444C06B
:10591000C03FC8F5C03E38F04C2F4F70B701C801EA
:105920000E94542C30C0C03D38F04C2F4F70B7014E
:10593000C8010E945D2C27C0C03CF8F0D701149626
:10594000ED91FC91159720E030E040E064E0C80163
:105950000995C295C07FCE5FD0E0CE010E94E32BB7
:10596000D7011496ED91FC91159720E030E041E0CD
:1059700064E0C8010995CE0104C0C7FD04C08C2FA6
:1059800090E00E94E32B80E001C081E0BFEFCB1AE2
:10599000DB0AA8CF80E001C081E0DF91CF911F91A9
:1059A0000F91FF90EF90DF90CF9008958F929F928C
:1059B000AF92BF92DF92EF92FF920F931F93CF931C
:1059C000DF9300D0CDB7DEB77C018B01D42E490127
:1059D0002FE0421709F444C035E14317A9F08AE0EB
:1059E000481359C0DB011496ED91FC91159720E006
:1059F00030E042E061E0C70109954FEC5CE0B8019E
:105A0000C7010E94662C47C0FB01A280B38047EC0F
:105A10005CE00E94662CD50114964C91406BB80155
:105A2000C7010E944B2C41E0B801C7010E94542CD1
:105A3000F50126813781D8011496ED91FC911597D7
:105A4000D50115964C9166E0C7010995811102C0F8
:105A500080E0DBC040E0B801C7010E945D2C1BC0A4
:105A600041E00E945D2C40E0B801C7010E94542C27
:105A700041E8B801C7010E944B2CF40140814695D2
:105A80004695B801C7010E944B2C40E0B801C70100
:105A90000E945D2CB9C0D80112960D911C911397EC
:105AA000B2E3DB1609F474C0BD15B8F0E5E1DE160B
:105AB00009F47BC0F7E1DF1609F48DC024E1D212AE
:105AC000A3C0D8011696ED91FC91179715968C916D
:105AD0009F01280F311DC90160C036E4D31609F4B7
