:100000000C9458000C9480000C9480000C94800098
:100010000C9480000C9480000C9480000C94800060
:100020000C9480000C9480000C9480000C94800050
:100030000C9480000C9480000C9480000C94800040
:100040000C94C8030C9480000C9496030C947003D9
:100050000C9480000C9480000C9480000C94800020
:100060000C9412040C94800000000000250028006D
:100070002B00040404040404040402020202020229
:10008000030303030303010204081020408001025C
:1000900004081020010204081020000000080002DB
:1000A00001000003040700000000000000004005FC
:1000B00011241FBECFEFD8E0DEBFCDBF11E0A0E01E
:1000C000B1E0E6E3F1E102C005900D92AC32B10778
:1000D000D9F722E0ACE2B1E001C01D92A939B20724
:1000E000E1F710E0C8E5D0E004C02197FE010E94CE
:1000F0008E08C735D107C9F70E9485050C94990869
:100100000C940000382F2091E8019091E7012132F2
:1001100008F049C08091C4018111FCCF42E04093B6
:10012000C4013093C3013FEF3093C2011092C1016B
:100130002093C001A7ECB1E040EA51E0FA013E2F64
:10014000341B321718F43D913193F9CF10929F016F
:1001500020919F01990F922B90939F0190919E0166
:10016000913061F410929E0190919F019093BB0099
:100170009091BC0093FDF8CF95EC01C095EE909363
:10018000BC009091C4019230E1F39091C2019F3F75
:1001900079F08091C201803241F08091C2018033B8
:1001A00031F084E005C081E003C082E001C083E05B
:1001B0001092C6011092E8011092C501089590E0D6
:1001C000FC01E656FF4F2491FC01EA57FF4F3491A2
:1001D000FC01EE58FF4FE491EE23B1F1222339F1F7
:1001E000233091F038F42130A9F0223001F584B5A4
:1001F0008F7D12C0273091F02830A1F02430B9F45F
:10020000809180008F7D03C0809180008F778093E4
:1002100080000DC084B58F7784BD09C08091B00087
:100220008F7703C08091B0008F7D8093B000F0E0A5
:10023000EE0FFF1FE859FF4FA591B4918FB7F894C7
:10024000EC913E2B3C938FBF0895CF92DF92EF92BB
:10025000FF920F931F93CF93DF936C017A018B0171
:10026000C0E0D0E0CE15DF0589F0D8016D918D0199
:10027000D601ED91FC910190F081E02DC601099528
:10028000892B11F47E0102C02196ECCFC701DF91CA
:10029000CF911F910F91FF90EF90DF90CF90089535
:1002A000FC01538D448D252F30E0842F90E0821B7C
:1002B000930B541710F0CF96089501970895FC0101
:1002C000918D828D981761F0828DDF01A80FB11D8D
:1002D0005D968C91928D9F5F9F73928F90E00895B1
:1002E0008FEF9FEF0895FC01918D828D981731F06B
:1002F000828DE80FF11D858D90E008958FEF9FEFBF
:100300000895FC01918D228D892F90E0805C9F4F94
:10031000821B91098F739927089589EE91E00E94BD
:10032000810121E0892B09F420E0822F0895FC014E
:10033000848DDF01A80FB11DA35ABF4F2C91848D6E
:1003400090E001968F739927848FA689B7892C93A3
:10035000A089B1898C9180648C93938D848D98133E
:1003600006C00288F389E02D80818F7D8083089507
:10037000EF92FF920F931F93CF93DF93EC0181E0F5
:10038000888F9B8D8C8D981305C0E889F9898081B1
:1003900085FD24C0F62E0B8D10E00F5F1F4F0F73ED
:1003A0001127E02E8C8DE8120CC00FB607FCFACF97
:1003B000E889F989808185FFF5CFCE010E949701F8
:1003C000F1CF8B8DFE01E80FF11DE35AFF4FF08254
:1003D0000B8FEA89FB898081806207C0EE89FF89E3
:1003E0006083E889F98980818064808381E090E07E
:1003F000DF91CF911F910F91FF90EF900895CF93D0
:10040000DF93EC01888D8823C9F0EA89FB8980811C
:1004100085FD05C0A889B9898C9186FD0FC00FB6EE
:1004200007FCF5CF808185FFF2CFA889B9898C912F
:1004300085FFEDCFCE010E949701E7CFDF91CF91ED
:10044000089580E090E0892B29F00E948D018111B0
:100450000C94000008953FB7F89480917801909132
:100460007901A0917A01B0917B0126B5A89B05C0C6
:100470002F3F19F00196A11DB11D3FBFBA2FA92F23
:10048000982F8827820F911DA11DB11DBC01CD01A0
:1004900042E0660F771F881F991F4A95D1F708958C
:1004A0008F929F92AF92BF92CF92DF92EF92FF9284
:1004B0000E942B024B015C0188EEC82E83E0D82EEF
:1004C000E12CF12C0E942B02DC01CB018819990947
:1004D000AA09BB09883E9340A105B10558F021E067
:1004E000C21AD108E108F10888EE880E83E0981E50
:1004F000A11CB11CC114D104E104F10419F7FF904F
:10050000EF90DF90CF90BF90AF909F908F90089525
:1005100085ED8093BC008091BC0084FDFCCF1092DF
:10052000C401089540914E01262F30E0240F311D63
:1005300021323105DCF42091C4012430C9F4FC01DE
:1005400080E090E0861758F430914E012191DC0153
:10055000A45DBE4FA30FB11D2C930196F3CF8091E4
:100560004E01680F60934E0180E0089581E0089588
:1005700082E008950895E0917D0180917C01E81763
:1005800030F4F0E0E258FE4F808190E008958FEF64
:100590009FEF089590917D0180917C01981750F410
:1005A000E92FF0E0E258FE4F208130E09F5F90930A
:1005B0007D0102C02FEF3FEFC901089580917C01BA
:1005C00090E020917D01821B91090895CF92DF92E6
:1005D000EF92FF920F931F93CF93DF937C01262F0F
:1005E000972F8A018091C501882391F0C62FD72FBC
:1005F0006E01C40ED51ECC15DD0571F06991D701D1
:10060000ED91FC910190F081E02DC7010995F3CFA8
:10061000642F822F0E949202C801DF91CF911F9117
:100620000F91FF90EF90DF90CF900895CF93DF93DD
:100630001F92CDB7DEB769832091C5012223D1F087
:100640002091E801203240F021E030E0FC013383CA
:10065000228380E090E015C08091C601E82FF0E091
:10066000E953FE4F998190838F5F8093C6018093F9
:10067000E80105C061E0CE0101960E94920281E08E
:1006800090E00F90DF91CF9108959091920221E038
:100690002093C5019093E7011092C6011092E801E2
:1006A000682F86E892E00E94160381E00C94820095
:1006B000089580E090E00895009769F0FC010190B2
:1006C0000020E9F73197AF01481B590BBC0189EEB7
:1006D00091E00C94250180E090E008950E94940838
:1006E0001F920F920FB60F9211242F933F934F93A7
:1006F0005F936F937F938F939F93AF93BF93EF938A
:10070000FF9389EE91E00E949701FF91EF91BF91D5
:10071000AF919F918F917F916F915F914F913F9199
:100720002F910F900FBE0F901F9018951F920F9250
:100730000FB60F9211242F938F939F93EF93FF93F4
:10074000E091F901F091FA018081E091FF01F091CF
:10075000000282FD12C09081809102028F5F8F7330
:1007600020910302821751F0E0910202F0E0E7517C
:10077000FE4F958F8093020201C08081FF91EF911F
:100780009F918F912F910F900FBE0F901F901895F2
:100790001F920F920FB60F9211242F933F938F93B6
:1007A0009F93AF93BF938091740190917501A09135
:1007B0007601B09177013091730123E0230F2D373B
:1007C00020F40196A11DB11D05C026E8230F029655
:1007D000A11DB11D20937301809374019093750145
:1007E000A0937601B093770180917801909179017F
:1007F000A0917A01B0917B010196A11DB11D80935A
:10080000780190937901A0937A01B0937B01BF9115
:10081000AF919F918F913F912F910F900FBE0F90AD
:100820001F9018951F920F920FB60F9211242F93BD
:100830003F934F935F936F937F938F939F93AF9368
:10084000BF93EF93FF938091B900887F803609F4BE
:100850009CC068F5883209F45BC090F4803109F4DB
:1008600054C038F4882309F4F6C0883009F44DC028
:10087000F6C0883109F44CC0803209F45DC0EFC085
:10088000803409F468C048F4803309F455C08833D3
:1008900009F0E5C08093C201D8C0803509F44FC08B
:1008A000883509F45DC0883409F0D9C0D6C08839CC
:1008B00009F4C7C0A8F4883709F467C038F488364B
:1008C00009F463C0803709F460C0C9C0883809F4EE
:1008D000B8C0803909F45FC0803809F0C0C05BC07F
:1008E000803B09F486C038F4803A09F466C0883A3F
:1008F00009F47FC0B4C0803C09F4A7C0883C09F467
:10090000A4C0883B09F48AC0AAC080919F0110C08E
:100910009091C1018091C001981770F5E091C101DB
:1009200081E08E0F8093C101F0E0E056FE4F8081A0
:100930008093BB0085EC86C08093C2018EC0E0919D
:10094000C10181E08E0F8093C1018091BB00F0E076
:10095000E056FE4F80839091C1018091C0016EC02E
:10096000E091C10181E08E0F8093C1018091BB00B5
:10097000F0E0E056FE4F80838091C30181116DC08D
:1009800081E080939E0184EA61C083E08093C4018A
:1009900010927201CFCF80917201803208F051C065
:1009A000E091720181E08E0F809372018091BB0013
:1009B000F0E0EE5AFE4F8083BDCF85EC8093BC0003
:1009C0001092C40180917201803230F4E091720182
:1009D000F0E0EE5AFE4F10826091720170E0E091FB
:1009E0005001F091510182E591E009951092720158
:1009F00036C084E08093C40110924F0110924E01E2
:100A0000E0914C01F0914D01099580914E018111C9
:100A100005C081E080934E0110922C01E0914F01BE
:100A200081E08E0F80934F01F0E0E45DFE4F808106
:100A30008093BB0090914F0180914E01981708F46C
:100A400079CF85E88093BC000AC085EC8093BC0018
:100A50001092C40104C01092C2010E948802FF914A
:100A6000EF91BF91AF919F918F917F916F915F9126
:100A70004F913F912F910F900FBE0F901F9018959F
:100A8000E9EEF1E01382128288EE93E0A0E0B0E09C
:100A900084839583A683B78324E031E03183208368
:100AA00025EC30E03587248724EC30E03787268733
:100AB00020EC30E0318B208B21EC30E0338B228B2B
:100AC00022EC30E0358B248B26EC30E0378B268B04
:100AD000118E128E138E148EE6E8F2E013821282CB
:100AE00084839583A683B78386E191E09183808395
:100AF000E2E9F2E083E2808380E1828385E481831E
:100B000080E190E0968385830895CF93DF93CDB7FE
:100B1000DEB7A5970FB6F894DEBF0FBECDBF7894B1
:100B200084B5826084BD84B5816084BD85B58260F2
:100B300085BD85B5816085BD80916E0081608093A3
:100B40006E0010928100809181008260809381000C
:100B5000809181008160809381008091800081601C
:100B6000809380008091B10084608093B100809177
:100B7000B00081608093B00080917A00846080939F
:100B80007A0080917A00826080937A0080917A0066
:100B9000816080937A0080917A00806880937A00E7
:100BA0001092C100E091F901F091FA0182E0808396
:100BB000E091F501F091F6011082E091F701F091DA
:100BC000F8018FEC808310920102E091FD01F09119
:100BD000FE0186E08083E091FB01F091FC018081C1
:100BE00080618083E091FB01F091FC01808188604D
:100BF0008083E091FB01F091FC018081806880831B
:100C0000E091FB01F091FC0180818F7D8083109247
:100C10007D0110927C011092C6011092E8011092A1
:100C2000C40111E01093C30110929E0182E10E9461
:100C3000DF0083E10E94DF008091B9008E7F809306
:100C4000B9008091B9008D7F8093B90088E48093CA
:100C5000B80085E48093BC001093C50183E28093C3
:100C6000E7011092C6011092E80180919702982F37
:100C700091608D7F8160813111F0813219F4909300
:100C8000940203C080E180939402809194020E94B8
:100C900045038EEF8093930287E40E9445038EE71D
:100CA0000E9445030E94500211E00FEF85EE782E5E
:100CB00095EC692E2EE7C22E21E0D22E3AE0832E4B
:100CC000912CA12CB12C809192021093C50180939C
:100CD000E7011092C6011092E8019091C4019111B0
:100CE000FCCF1093C4011093C3010093C201109272
:100CF000C1011093C00110939F0190919F01880F33
:100D0000892B80939F0180919E01813069F410921C
:100D10009E0180919F018093BB008091BC0083FD68
:100D2000F8CF6092BC0002C07092BC008091C401F8
:100D30008130E1F38091C101823018F48091C101CA
:100D400001C082E0A0EAB1E0EEE7F1E09E2F9C193D
:100D5000981718F49D919193F9CF10927D0180938B
:100D60007C0186E892E00E94CA02F82E86E892E0B2
:100D70000E94CA02E82E81E00E948200E092950261
:100D8000F092960260919502709196028091940281
:100D9000833139F0833229F02AE939E949E95FE3FF
:100DA00004C02AE939E949E150E480E090E02AA34F
:100DB0003BA34CA35DA30E94DE072AA13BA14CA14B
:100DC0005DA10E9436070E94A8071B01770F440807
:100DD000550857FE26C0E091E901F091EA01019023
:100DE000F081E02D6DE289EE91E00995222733270D
:100DF000A901221933094409550919A2CE01819686
:100E00007C01CA01B901A50194010E946C08605DD2
:100E1000F70162937F01211531054105510589F7DD
:100E200015C0A201910119A2CE0181967C01CA01CF
:100E3000B901A50194010E946C08605DF7016293FD
:100E40007F01211531054105510589F7C7010E9430
:100E50005C0384E291E00E945C0389E291E00E94DD
:100E60005C030E9450020E9421022DCF0E944A077B
:100E70000C9432080E942B0858F00E94240840F07D
:100E800029F45F3F29F00C941B0851110C9466085B
:100E90000C9421080E94430868F39923B1F3552369
:100EA00091F3951B550BBB27AA276217730784077D
:100EB00038F09F5F5F4F220F331F441FAA1FA9F313
:100EC00035D00E2E3AF0E0E832D091505040E69501
:100ED000001CCAF72BD0FE2F29D0660F771F881F62
:100EE000BB1F261737074807AB07B0E809F0BB0B55
:100EF000802DBF01FF2793585F4F3AF09E3F510569
:100F000078F00C941B080C9466085F3FE4F3983E5D
:100F1000D4F3869577956795B795F7959F5FC9F751
:100F2000880F911D9695879597F90895E1E0660FD2
:100F3000771F881FBB1F621773078407BA0720F04B
:100F4000621B730B840BBA0BEE1F88F7E0950895B4
:100F50000E94AF076894B1110C94660808950E942E
:100F60004B0888F09F5798F0B92F9927B751B0F0E8
:100F7000E1F0660F771F881F991F1AF0BA95C9F71D
:100F800014C0B13091F00E946508B1E008950C944E
:100F90006508672F782F8827B85F39F0B93FCCF301
:100FA000869577956795B395D9F73EF4909580959A
:100FB000709561957F4F8F4F9F4F0895E89409C0BA
:100FC00097FB3EF490958095709561957F4F8F4F7C
:100FD0009F4F9923A9F0F92F96E9BB279395F69592
:100FE000879577956795B795F111F8CFFAF4BB0F10
:100FF00011F460FF1BC06F5F7F4F8F4F9F4F16C074
:10100000882311F096E911C0772321F09EE8872FFD
:10101000762F05C0662371F096E8862F70E060E0B9
:101020002AF09A95660F771F881FDAF7880F969532
:10103000879597F9089597F99F6780E870E060E0D9
:1010400008959FEF80EC089500240A941616170661
:1010500018060906089500240A94121613061406A9
:1010600005060895092E0394000C11F4882352F00C
:10107000BB0F40F4BF2B11F460FF04C06F5F7F4FC4
:101080008F4F9F4F089557FD9058440F551F59F0AB
:101090005F3F71F04795880F97FB991F61F09F3F65
:1010A00079F087950895121613061406551FF2CF8E
:1010B0004695F1DF08C0161617061806991FF1CFDE
:1010C00086957105610508940895E894BB27662705
:1010D0007727CB0197F90895A1E21A2EAA1BBB1B13
:1010E000FD010DC0AA1FBB1FEE1FFF1FA217B307F4
:1010F000E407F50720F0A21BB30BE40BF50B661F0A
:10110000771F881F991F1A9469F7609570958095CD
:1011100090959B01AC01BD01CF010895EE0FFF1F1B
:101120000590F491E02D099481E090E0F8940C94FE
:061130009908F894FFCFBE
:1011360000000000B80125015001FF0181015F0197
:101146007301000000001603E6025903BA02DE022C
:0C115600CA02BB02206C7820000D0A00C9
:107E0000112484B714BE81FFF0D085E080938100F7
:107E100082E08093C00088E18093C10086E0809377
:107E2000C20080E18093C4008EE0C9D0259A86E02C
:107E300020E33CEF91E0309385002093840096BBD3
:107E4000B09BFECF1D9AA8958150A9F7CC24DD24C4
:107E500088248394B5E0AB2EA1E19A2EF3E0BF2EE7
:107E6000A2D0813461F49FD0082FAFD0023811F036
:107E7000013811F484E001C083E08DD089C08234E0
:107E800011F484E103C0853419F485E0A6D080C0E4
:107E9000853579F488D0E82EFF2485D0082F10E0AE
:107EA000102F00270E291F29000F111F8ED06801E7
:107EB0006FC0863521F484E090D080E0DECF843638
:107EC00009F040C070D06FD0082F6DD080E0C81688
:107ED00080E7D80618F4F601B7BEE895C0E0D1E017
:107EE00062D089930C17E1F7F0E0CF16F0E7DF06D8
:107EF00018F0F601B7BEE89568D007B600FCFDCFD4
:107F0000A601A0E0B1E02C9130E011968C91119780
:107F100090E0982F8827822B932B1296FA010C0160
:107F200087BEE89511244E5F5F4FF1E0A038BF0790
:107F300051F7F601A7BEE89507B600FCFDCF97BE46
:107F4000E89526C08437B1F42ED02DD0F82E2BD052
:107F50003CD0F601EF2C8F010F5F1F4F84911BD097
:107F6000EA94F801C1F70894C11CD11CFA94CF0C13
:107F7000D11C0EC0853739F428D08EE10CD085E9AC
:107F80000AD08FE07ACF813511F488E018D01DD067
:107F900080E101D065CF982F8091C00085FFFCCF94
:107FA0009093C60008958091C00087FFFCCF809118
:107FB000C00084FD01C0A8958091C6000895E0E648
:107FC000F0E098E1908380830895EDDF803219F02E
:107FD00088E0F5DFFFCF84E1DECF1F93182FE3DFCA
:107FE0001150E9F7F2DF1F91089580E0E8DFEE27F6
:047FF000FF270994CA
:027FFE00040479
:0400000300007E007B
:00000001FF