:100000000C9463000C948B000C948B000C948B006C
:100010000C948B000C948B000C948B000C948B0034
:100020000C948B000C948B000C948B000C948B0024
:100030000C948B000C948B000C948B000C948B0014
:100040000C943B130C948B000C94F2110C94CC1177
:100050000C948B000C948B000C948B000C948B00F4
:100060000C949D180C948B000000000024002700C5
:100070002A0000000000250028002B0000000000DE
:1000800023002600290004040404040404040202DA
:100090000202020203030303030301020408102007
:1000A0004080010204081020010204081020000012
:1000B0000008000201000003040700000000000027
:1000C0000000CF19CB1911241FBECFEFD8E0DEBF3F
:1000D000CDBF13E0A0E0B1E0E6E7FDE302C005908C
:1000E0000D92A039B107D9F725E0A0E9B3E001C02E
:1000F0001D92AB31B207E1F710E0C2E6D0E004C0D8
:100100002197FE010E949A1EC136D107C9F70E94AD
:10011000C81A0C94AE1E0C940000FC0182819381DD
:100120000895CF93DF93EC01E881F9810284F38590
:10013000E02D0995E881F9810684F785E02DCE014F
:10014000DF91CF910994CF93DF93EC01E881F9819E
:100150000480F581E02D0995E881F9810680F78119
:10016000E02DCE010995E881F9810084F185E02D2B
:10017000CE01DF91CF910994FC0183819481089590
:10018000FC018281089521E3FC012283089522E38A
:10019000FC012283089523E3FC012283089524E3D4
:1001A000FC012283089523E3FC012283089522E3C6
:1001B000FC0122830895CF93DF93EC01E881F9815C
:1001C0000190F081E02DCE0109951816190644F42E
:1001D000E881F9810684F785E02DCE010995EECFFF
:1001E000DF91CF910895DC011496ED91FC91159764
:1001F0001C968C911C97882361F01A962D913C9146
:100200001B97621773072CF01896ED91FC911997C4
:100210000AC020E030E007C03097C9F00280F381C7
:10022000E02D2F5F3F4F26173707B4F32617370708
:1002300071F481E01C968C931C971B963C932E9333
:100240001A971996FC93EE931897CF01089580E0C2
:1002500090E008950E94F300009721F0FC01808156
:100260009181089580E090E00895CF93DF9377FD2A
:100270000EC0FC01228133816217730744F4EA0146
:100280000E94F300FC01D183C08381E001C080E0C3
:10029000DF91CF910895FC0182819381089580912F
:1002A000840490918504DC01ED91FC910684F7852E
:1002B000E02D40E350E009948091840490918504FE
:1002C000DC01ED91FC910684F785E02D0994FC0199
:1002D000838194810895FC018281089521E3FC01CA
:1002E0002283089522E3FC012283089523E3FC0185
:1002F0002283089522E3FC0122830895CF93DF93A4
:10030000EC018D819E81DC01ED91FC910488F589E1
:10031000E02D0995CE01DF91CF910C94A300CF93EE
:10032000DF93EC018D819E81DC01ED91FC910488CD
:10033000F589E02D0995CE01DF91CF910C94A300B2
:100340000C94A300EF92FF920F931F93CF93DF9330
:10035000DC0112962D913C9113971216130624F589
:1003600021303105A1F0EC01EC81FD81E280F380C8
:1003700000811181CF010E949F1BFD82EC828A8146
:100380009B8101979B838A831C86C8010FC0DC0177
:10039000ED91FC910484F585E02DDF91CF911F91C3
:1003A0000F91FF90EF90099480E090E0DF91CF9162
:1003B0001F910F91FF90EF900895EF92FF920F938E
:1003C0001F93CF93DF93FC0162817381161617068A
:1003D00064F5EC01148661307105C1F06250710959
:1003E0000E94F3007C01FC0182819381FC01008169
:1003F00011810E949F1BF70113821282FF82EE82FD
:100400008A819B8101979B838A830DC0848195811A
:10041000FC01008111810E949F1B1D821C821F8292
:100420001E821B821A82C80102C080E090E0DF9128
:10043000CF911F910F91FF90EF900895EF92FF924F
:100440000F931F93CF93DF93DC0112962D913C9174
:1004500013971216130624F521303105A1F0EC0193
:10046000EC81FD81E280F38000811181CF010E9447
:100470009F1BFD82EC828A819B8101979B838A83EB
:100480001C86C8010FC0DC01ED91FC910484F58548
:10049000E02DDF91CF911F910F91FF90EF90099484
:1004A00080E090E0DF91CF911F910F91FF90EF904E
:1004B00008950F931F93CF93DF9377FD3EC0DC0128
:1004C00012962D913C91139762177307B4F561153D
:1004D000710531F4ED91FC910684F785E02D0BC098
:1004E000215031096217730759F4DC01ED91FC9139
:1004F0000484F585E02DDF91CF911F910F91099430
:10050000EC01615071090E94F300DC011296ED913B
:10051000FC911397008111812281338113963C93C2
:100520002E931297CF010E949F1B8A819B81019776
:100530009B838A831C86C80102C080E090E0DF9123
:10054000CF911F910F9108950C949F1B0C949F1BAA
:100550000C949F1B0C949F1B0C949F1B0C949F1B33
:100560000F931F93CF93DF93EC018B0184E090E016
:100570000E940A1BFC0113821282118300832C81CA
:100580003D81232B29F0EE81FF819383828302C07A
:100590009D838C839F838E838A819B8101969B831D
:1005A0008A831C8681E0DF91CF911F910F9108957E
:1005B00002960C94B002EF92FF920F931F93CF9389
:1005C000DF93DC0112960D911C9113970115110513
:1005D00061F4ED91FC910480F581E02DDF91CF91E4
:1005E0001F910F91FF90EF9009947B01EC0184E043
:1005F00090E00E940A1B2C813D81FC013383228301
:10060000F182E0829D838C830F5F1F4F1B830A83DF
:100610001C8681E0DF91CF911F910F91FF90EF90A9
:100620000895CF92DF92EF92FF920F931F93CF9393
:10063000DF939B01BA01DC0112964D915C911397F7
:100640002417350734F0ED91FC910480F581E02DFD
:1006500009C02115310579F4DC01ED91FC9106808A
:10066000F781E02DDF91CF911F910F91FF90EF90D7
:10067000DF90CF9009947B01E9018C0184E090E048
:100680000E940A1B6C01FC011182108213821282EB
:10069000BE0161507109C8010E94F300D601119694
:1006A000FC92EE92FC012281338113963C932E93AF
:1006B0001297D382C282D80112968D919C91139782
:1006C000019613969C938E9312971C961C9281E030
:1006D000DF91CF911F910F91FF90EF90DF90CF901E
:1006E00008950F931F93CF93DF93EC018B0184E068
:1006F00090E00E940A1BFC01138212821183008386
:100700002C813D81232B29F0EE81FF81938382830D
:1007100002C09D838C839F838E838A819B810196F7
:100720009B838A831C8681E0DF91CF911F910F917B
:100730000895EF92FF920F931F93CF93DF937C0165
:100740008B0184E090E00E940A1BEC01D8018D919E
:100750009C91998388830E940A1B9B838A8320E053
:1007600030E0888199812817390780F4D8011296E2
:10077000ED91FC911397E20FF31F8081EA81FB81D9
:10078000E20FF31F80832F5F3F4FEBCFBE01C70106
:100790000596DF91CF911F910F91FF90EF900C94F0
:1007A00071030F931F93CF93DF938C0160E0FC01E3
:1007B00085810E944D128BE594E00197F1F7F801D5
:1007C00086810E94B912EC018BE990E00197F1F764
:1007D00061E0F80185810E944D128BE397E9019752
:1007E000F1F7BE01DD0F880B990B0E943E1C20E043
:1007F00030E040EA5BE30E949D1C2BE734E14EE2CF
:100800005EE30E949D1C2DEC3CEC4CEC5DE30E94F1
:100810005B1D20E030E04AE754E40E949D1C8B0100
:10082000D82FC92F20E030E0A9010E94371C87FD96
:1008300010C020E030E04EE354E4B8018D2F9C2F2F
:100840000E943A1E18164CF400E010E0DEE3C4E407
:1008500004C000E010E0D0E0C0E0B8018D2F9C2F74
:10086000DF91CF911F910F910895CF93DF93EC010A
:1008700061E08D810E947D1260E08E810E947D1278
:1008800083E38A83DF91CF910895CF93DF93FC01B7
:10089000C581D6816D81062E000C770BCE010696A0
:1008A0000E9485136E817F81072E000C880B990BA7
:1008B0000E943E1CDF91CF9108954F925F926F92FC
:1008C0007F928F929F92AF92BF92CF92DF92EF92E0
:1008D000FF920F931F93CF93DF93CDB7DEB7289787
:1008E0000FB6F894DEBF0FBECDBFFC0105811681A7
:1008F000F8016581062E000C770BC80106960E9450
:100900008513F80166817781072E000C880B990BFF
:100910000E943E1C4B015C01F80160857185072E29
:10092000000C880B990B0E943E1C26E636E646EE2C
:100930005FE30E949D1C20E030E040E052E40E9412
:100940005C1D6B017C0120E030E044E752E40E9432
:100950005C1D2B013C0120E030E048E852E4C70177
:10096000B6010E945B1D2AE939E949E95FE30E946B
:100970009D1C9B01AC01C301B2010E945C1D2B01B7
:100980003C0122E133E840EC5DE3C501B4010E9483
:100990009D1C9B01AC01C301B2010E945C1D20E0C3
:1009A00030E040E05FE30E949D1C2B013C0120E011
:1009B00030E04EE952E40E943A1E18160CF075C160
:1009C000A7019601C701B6010E949D1C2B013C01A5
:1009D000A5019401C501B4010E949D1C6D837E8315
:1009E0008F83988721E133E243E050E4C701B601E9
:1009F0000E949D1C29E134E849E252E40E945B1DFB
:100A000069837A838B839C8326E13BE442E251E451
:100A1000C501B4010E949D1C9B01AC0169817A81D2
:100A20008B819C810E945C1D69837A838B839C836C
:100A300028E436E246E65EEBC701B6010E949D1C43
:100A4000A50194010E949D1C9B01AC0169817A81E2
:100A50008B819C810E945C1D69837A838B839C833C
:100A600020EE3FE040EE5BEBC301B2010E949D1C13
:100A70009B01AC0169817A818B819C810E945C1D04
:100A800069837A838B839C8328EF37E840E65DEBAC
:100A90006D817E818F8198850E949D1C9B01AC0198
:100AA00069817A818B819C810E945C1D69837A8334
:100AB0008B839C832CEA3DE041EA5AE3C301B201F7
:100AC0000E949D1CA50194010E949D1C9B01AC01EC
:100AD00069817A818B819C810E945C1D69837A8304
:100AE0008B839C8328EC3FE84FE55AE3C701B601AE
:100AF0000E949D1C2D813E814F8158850E949D1C26
:100B00009B01AC0169817A818B819C810E945C1D73
:100B100069837A838B839C8321EF3BE845E056EB26
:100B2000C301B2010E949D1C2D813E814F815885D9
:100B30000E949D1C9B01AC0169817A818B819C8103
:100B40000E945C1D2B013C0120E030E040E551E4B7
:100B5000C501B4010E94371C87FF5CC020E030E073
:100B600040EA52E4C701B6010E943A1E87FD52C016
:100B700020E030E040EE52E4C701B6010E94371C8D
:100B800018160CF4B7C0A501940160E070E080E590
:100B900091E40E945B1D20E030E040E85EE30E94AB
:100BA0009D1C4B015C0120E030E04EEB52E4C7019C
:100BB000B6010E945B1D6B017C0120E030E0A901C1
:100BC0000E943A1E18164CF4A701960160E070E0EE
:100BD00088E891E40E945B1D08C020E030E048E80E
:100BE00051E4C701B6010E945C1D2EE33DEE40E7D3
:100BF0005DE30E949D1C0E94451E9B01AC01C50146
:100C0000B4010E949D1C9B01AC01C301B2010E9472
:100C10005B1D49C020E030E04AEA52E4C501B4015E
:100C20000E943A1E18160CF040C020E030E040EA66
:100C300052E4C701B6010E943A1E87FD36C020E08B
:100C400030E04EEA52E4C701B6010E94371C181684
:100C500064F120E030E04AEA52E4C501B4010E94A8
:100C60005B1D2DEC3CEC4CEC5DE30E949D1C4B01AC
:100C70005C01A701960160E070E08EEA92E40E94B8
:100C80005B1D2DEC3CEC4CE45EE30E949D1C9B0143
:100C9000AC01C501B4010E949D1C9B01AC01C301C4
:100CA000B2010E945C1D2B013C0120E030E040E0DD
:100CB00052E4C301B2010E945B1D26E838E34EE016
:100CC0005FE30E949D1C28960FB6F894DEBF0FBE0E
:100CD000CDBFDF91CF911F910F91FF90EF90DF90EB
:100CE000CF90BF90AF909F908F907F906F905F90CC
:100CF0004F90089520E030E04AEA52E4C501B40183
:100D00000E943A1E18160CF49ACFCFCFEF92FF92A2
:100D10000F931F93CF93DF9300D000D0CDB7DEB7F2
:100D20007C0144E050E067E873E08BED93E00E94C3
:100D3000121042E050E06CE873E08BED93E00E940B
:100D40001210F701858191E09093B7038093D90346
:100D50001092B8031092DA039091B6039111FCCF70
:100D600091E09093B6039093B5032FEF2093B403D3
:100D70001092B3039093B2039093910390919103D7
:100D8000880F892B8093910380919003813061F4C7
:100D900010929003809191038093BB008091BC00DE
:100DA00083FDF8CF85EC01C085EE8093BC00809177
:100DB000B6038130E1F38091B303823018F480915F
:100DC000B30301C082E0A2E9B3E02EEA34E0F90106
:100DD0009E2F921B981718F49D919193F9CF109222
:100DE000CF048093CE0488E794E00E949714182FD4
:100DF00088E794E00E949714082F81E00E946F1109
:100E0000F70100871187608571858781833139F00B
:100E1000833229F02AE939E949E95FE304C02AE984
:100E200039E949E150E480E090E029833A834B833B
:100E30005C830E943C1C29813A814B815C810E9429
:100E4000C81D0F900F900F900F90DF91CF911F91C1
:100E50000F91FF90EF9008950F931F93CF93DF931F
:100E6000EC011092CF041092CE041092B8031092AD
:100E7000DA031092B60311E01093B50310929003B9
:100E800061E082E10E944D1261E083E10E944D1217
:100E90008091B9008E7F8093B9008091B9008D7FD9
:100EA0008093B90088E48093B80085E48093BC0007
:100EB0001093B70383E28093D9031092B803109282
:100EC000DA038E010B5F1F4F9A85292F2D7F21603A
:100ED000213111F0213219F491609F8302C080E129
:100EE0008F836F81C8010E948B188EEF8E8367E419
:100EF000C8010E948B186EE7C8010E948B1883E31B
:100F00008A83DF91CF911F910F910895DC01149690
:100F1000ED91FC9115971C968C911C97882361F09C
:100F20001A962D913C911B97621773072CF0189617
:100F3000ED91FC9119970AC020E030E007C030978E
:100F4000C9F00280F381E02D2F5F3F4F261737074E
:100F5000B4F32617370771F481E01C968C931C9725
:100F60001B963C932E931A971996FC93EE93189721
:100F7000CF01089580E090E00895EF92FF920F93E3
:100F80001F93CF93DF93FC016281738116161706BE
:100F900064F5EC01148661307105C1F0625071098D
:100FA0000E9486077C01FC0182819381FC01008103
:100FB00011810E949F1BF70113821282FF82EE8231
:100FC0008A819B8101979B838A830DC0848195814F
:100FD000FC01008111810E949F1B1D821C821F82C7
:100FE0001E821B821A82C80102C080E090E0DF915D
:100FF000CF911F910F91FF90EF9008950E94860767
:10100000009721F0FC0180819181089580E090E0BB
:1010100008958F929F92AF92BF92CF92DF92EF92FC
:10102000FF920F931F93CF93DF937C016B015A01C3
:10103000C0E0D0E04C0182E0880E911CF701848171
:101040009581C817D907D4F4BE01C4010E94FE07D8
:101050008C01DC01ED91FC910684F785E02D09956A
:101060008A159B0549F4D801ED91FC910088F1891E
:10107000E02DB601C80109952196E0CFDF91CF910F
:101080001F910F91FF90EF90DF90CF90BF90AF90A6
:101090009F908F900895EF92FF920F931F93CF939D
:1010A000DF938C01C0E0D0E07C0182E0E80EF11C0F
:1010B000F80124813581C217D3076CF4BE01C70142
:1010C0000E94FE07DC01ED91FC910284F385E02D86
:1010D00009952196EDCFDF91CF911F910F91FF9050
:1010E000EF900895EF92FF920F931F93CF93DF93AA
:1010F0008C01C0E0D0E07C0182E0E80EF11CF80138
:1011000024813581C217D3076CF4BE01C7010E9448
:10111000FE07DC01ED91FC910084F185E02D09953D
:101120002196EDCFDF91CF911F910F91FF90EF901E
:1011300008958C017C0182E0E80EF11CC0E0D0E053
:10114000F80184819581C817D907C4F7BE01C7018A
:101150000E94FE07DC01ED91FC910680F781E02DF5
:1011600009952196EDCFEF92FF920F931F93CF93A6
:10117000DF938C01C0E0D0E07C0182E0E80EF11C3E
:10118000F80124813581C217D3076CF4BE01C70171
:101190000E94FE07DC01ED91FC910480F581E02DB9
:1011A00009952196EDCFDF91CF911F910F91FF907F
:1011B000EF9008950F931F93CF93DF9377FD3EC079
:1011C000DC0112962D913C91139762177307B4F5C9
:1011D0006115710531F4ED91FC910684F785E02DE0
:1011E0000BC0215031096217730759F4DC01ED91EE
:1011F000FC910484F585E02DDF91CF911F910F9133
:101200000994EC01615071090E948607DC01129675
:10121000ED91FC9113970081118122813381139606
:101220003C932E931297CF010E949F1B8A819B8132
:1012300001979B838A831C86C80102C080E090E0EE
:10124000DF91CF911F910F9108950F931F93CF932B
:10125000DF93EC018EEA91E0DE018D939D938D0189
:101260008C819D81181619067CF460E070E0C8013D
:101270000E94DA080097A1F3DC01ED91FC91028055
:10128000F381E02D0995ECCF86E991E09B838A8379
:101290008E819F81009741F0FC01228133813F8341
:1012A0002E830E949F1BF4CFDF91CF911F910F914E
:1012B0000895CF93DF93EC010E942509CE01DF91C1
:1012C000CF910C949F1BFC0182819381009711F0B8
:1012D0000C949F1B0895EF92FF920F931F93CF934F
:1012E000DF9300D000D0CDB7DEB7DB012D913C916C
:1012F00021153105A9F18B017C01C90102969A8360
:1013000089830E940A1B9C838B8321E0FC0120833C
:10131000118220E030E0F80180819181281739079F
:1013200080F4D8011296ED91FC911397E20FF31F10
:101330008081EB81FC81E20FF31F82832F5F3F4F9F
:10134000EACFD701ED91FC910488F589E02DBE012B
:101350006F5F7F4FC7010995CE0101960E94630917
:101360000F900F900F900F90DF91CF911F910F91E1
:10137000FF90EF900895EF92FF920F931F93CF93FA
:10138000DF93EC0182E291E0998388837E0185E01E
:10139000E80EF11C2F8138851216130674F460E0F4
:1013A00070E0C7010E9459028C01009799F30E94D6
:1013B0006309C8010E949F1BEDCF8AE091E09E83E4
:1013C0008D8389859A85009741F0FC0122813381C4
:1013D0003A8729870E949F1BF4CFDF91CF911F91FD
:1013E0000F91FF90EF900895CF93DF93EC010E944F
:1013F000BB09CE01DF91CF910C949F1B08950895F6
:101400000895089508950895CF93DF93EC01E8813E
:10141000F9810190F081E02DCE0109951816190689
:1014200044F4E881F9810684F785E02DCE01099521
:10143000EECFDF91CF910895DC011496ED91FC91F0
:1014400015971C968C911C97882361F01A962D9104
:101450003C911B97621773072CF01896ED91FC9145
:1014600019970AC020E030E007C03097C9F0028029
:10147000F381E02D2F5F3F4F26173707B4F3261770
:10148000370771F481E01C968C931C971B963C9354
:101490002E931A971996FC93EE931897CF010895FF
:1014A00080E090E00895CF93DF9377FD0EC0FC01BC
:1014B000228133816217730744F4EA010E941C0AF7
:1014C000FC01D183C08381E001C080E0DF91CF9136
:1014D00008950E941C0A009721F0FC0180819181EF
:1014E000089580E090E00895FC0182819381089541
:1014F000EF92FF920F931F93CF93DF938C01C0E085
:10150000D0E07C0182E1E80EF11CF80124893589E4
:10151000C217D30784F4BE01C7010E94690ADC0127
:101520008D919C91DC01ED91FC910488F589E02D71
:1015300009952196EACF82E38283DF91CF911F91B3
:101540000F91FF90EF900895CF93DF93EC01E88126
:10155000F9810190F081E02DCE0109951816190648
:1015600044F4E881F9810684F785E02DCE010995E0
:10157000EECFDF91CF910895CF93DF93EC018D8172
:101580009E81DC01ED91FC910488F589E02D09959F
:10159000CE01DF91CF910C94A3000C949F1B0C946F
:1015A0009F1B0C949F1BEF92FF920F931F93CF935F
:1015B000DF93FC01628173811616170664F5EC0156
:1015C000148661307105C1F0625071090E941C0AD5
:1015D0007C01FC0182819381FC01008111810E94C8
:1015E0009F1BF70113821282FF82EE828A819B8108
:1015F00001979B838A830DC084819581FC010081C2
:1016000011810E949F1B1D821C821F821E821B82D1
:101610001A82C80102C080E090E0DF91CF911F9153
:101620000F91FF90EF900895EF92FF920F931F9309
:10163000CF93DF93DC0112962D913C9113971216F4
:10164000130624F521303105A1F0EC01EC81FD8178
:10165000E280F38000811181CF010E949F1BFD82F7
:10166000EC828A819B8101979B838A831C86C801B7
:101670000FC0DC01ED91FC910484F585E02DDF9134
:10168000CF911F910F91FF90EF90099480E090E02F
:10169000DF91CF911F910F91FF90EF9008950F93DD
:1016A0001F93CF93DF9377FD3EC0DC0112962D91FF
:1016B0003C91139762177307B4F56115710531F406
:1016C000ED91FC910684F785E02D0BC02150310986
:1016D0006217730759F4DC01ED91FC910484F585E0
:1016E000E02DDF91CF911F910F910994EC01615092
:1016F00071090E941C0ADC011296ED91FC9113976E
:10170000008111812281338113963C932E9312978D
:10171000CF010E949F1B8A819B8101979B838A83B3
:101720001C86C80102C080E090E0DF91CF911F913C
:101730000F910895AF92BF92DF92EF92FF920F93B5
:101740001F93CF93DF938C01EBEDF3E0A089B18978
:1017500082E08C93A485B5851C92A685B78587E623
:101760008C93108EA489B58986E08C93A289B38965
:101770008C9180618C93A289B3898C9188608C93C1
:10178000A289B3898C9180688C930288F389E02DBB
:1017900080818F7D808384E190E00E940A1B7C0120
:1017A000D8011F968D919C91509720E330E0F7016E
:1017B000348323832AE0A22E21E0B22EB682A582B2
:1017C0001286118614861386108617821686158651
:1017D000108A1786118A31E3D32ED2822FE633E0A6
:1017E00031832083938B828B8FE190E00E940A1BD0
:1017F000EC0181E390E09C838B83BE82AD821A86EC
:1018000019861C861B8618861F821E861D86188ACE
:101810001F86198ADA8286E591E0998388838EE3B0
:1018200091E09B8B8A8B1F8A1E8A198E188E1D8AC7
:101830001C8A1B8E1A8E1D8E1C8E1E8ED8015396EE
:101840006D917C9154974CEE53E1CE010E9443116F
:10185000F8016589768940E554E1CE010E94431183
:10186000D80157966D917C91589744EB54E1CE0185
:101870000E944311F801638D748D48E155E1CE015A
:101880000E944311D80159966D917C915A974CE76B
:1018900055E1CE010E944311F801658D768D40EE31
:1018A00055E1CE010E944311D801ED91FC910484D1
:1018B000F585E02DB701C8010995D801ED91FC919E
:1018C0000484F585E02DBE01C8010995C801DF91AA
:1018D000CF911F910F91FF90EF90DF90BF90AF904D
:1018E0000C94B308EF92FF920F931F93CF93DF9363
:1018F000DC0112960D911C9113970115110561F4ED
:10190000ED91FC910480F581E02DDF91CF911F9145
:101910000F91FF90EF9009947B01EC0184E090E03F
:101920000E940A1B2C813D81FC0133832283F182BA
:10193000E0829D838C830F5F1F4F1B830A831C866D
:1019400081E0DF91CF911F910F91FF90EF9008956B
:10195000CF92DF92EF92FF920F931F93CF93DF937B
:101960009B01BA01DC0112964D915C9113972417EB
:10197000350734F0ED91FC910480F581E02D09C02C
:101980002115310579F4DC01ED91FC910680F78198
:10199000E02DDF91CF911F910F91FF90EF90DF909D
:1019A000CF9009947B01E9018C0184E090E00E94D2
:1019B0000A1B6C01FC011182108213821282BE018B
:1019C00061507109C8010E941C0AD6011196FC924F
:1019D000EE92FC012281338113963C932E93129751
:1019E000D382C282D80112968D919C911397019651
:1019F00013969C938E9312971C961C9281E0DF9114
:101A0000CF911F910F91FF90EF90DF90CF900895AD
:101A10000F931F93CF93DF93EC018B0184E090E051
:101A20000E940A1BFC0113821282118300832C8105
:101A30003D81232B29F0EE81FF819383828302C0B5
:101A40009D838C839F838E838A819B8101969B8358
:101A50008A831C8681E0DF91CF911F910F910895B9
:101A6000EF92FF920F931F93CF93DF93DC011296B7
:101A70000D911C9113970115110561F4ED91FC91E5
:101A80000480F581E02DDF91CF911F910F91FF90A0
:101A9000EF9009947B01EC0184E090E00E940A1B26
:101AA0002C813D81FC0133832283F182E0829D837E
:101AB0008C830F5F1F4F1B830A831C8681E0DF919D
:101AC000CF911F910F91FF90EF900895FC018681B7
:101AD000813021F485810E94B91203C085810E9462
:101AE0002412BC01990F880B990B0E943E1C08958B
:101AF000CF93DF93EC0160E08D810E947D1283E340
:101B00008A83DF91CF9108958F929F92AF92BF9277
:101B1000CF92DF92EF92FF920F931F93CF93DF93B9
:101B200000D000D000D0CDB7DEB75C018B01DB0167
:101B300016968D919C911797892B09F044C0F80156
:101B4000C080D180D601ED91FC91008CF18DE02D0B
:101B5000C60109954C0188E090E09A8389836D83E2
:101B60007E830E940A1B7C019C838B8381E0F701AA
:101B700080831182D601ED91FC910288F389E02DDA
:101B8000C6010995F70182839383EB81FC816D8106
:101B900064837E81758386829782D501ED91FC9165
:101BA0000688F789E02DBE016F5F7F4FC50109955B
:101BB000CE0101960E9463090E942F13F8016087ED
:101BC00071878287938783EE9DE0D80117969C9357
:101BD0008E9316970E942F13F801C084D184E2845B
:101BE000F384AB01BC014C195D096E097F09828148
:101BF0009381A0E0B0E0481759076A077B0708F017
:101C00009ECF80E090E026960FB6F894DEBF0FBE20
:101C1000CDBFDF91CF911F910F91FF90EF90DF909B
:101C2000CF90BF90AF909F908F9008955F926F92EA
:101C30007F928F929F92AF92BF92CF92DF92EF925C
:101C4000FF920F931F93CF93DF937C014C0185E0AC
:101C5000880E911C5701A2E1AA0EB11C5524539481
:101C6000D70117968D919C9118971816190624F58F
:101C700060E070E0C4010E945902EC018881998102
:101C80008230910588F0EA81FB812081018110E09A
:101C9000102F0027020F111D980121533109233005
:101CA0003105B8F4049770F4209731F0CE010E940A
:101CB0006309CE010E949F1BC0E0D0E087010E5E49
:101CC0001F4F60C08281C380D12CDC2CCC24C80E75
:101CD000D11C612C712CF7018489958968167906CD
:101CE0001CF7B301C5010E94690AFC018081918142
:101CF000DC01ED91FC910288F389E02D09958C15AA
:101D00009D0541F4B301C5010E94690AFC01892BBC
:101D100029F4CACFBFEF6B1A7B0ADDCF013311055F
:101D200011F4558218C00233110511F4158213C045
:101D30000333110581F488819981069708F4BCCF9B
:101D4000AA81BB8114968C91149715969C9100974B
:101D500011F093838283209709F482CFCE010E94F1
:101D60006309CE010E949F1B7BCFBE01C8010E9468
:101D7000690ABC01FC018581882359F0C7010E94D2
:101D8000840D2196F70124893589C217D3076CF396
:101D900003C017821682F5CFDF91CF911F910F916B
:101DA000FF90EF90DF90CF90BF90AF909F908F907B
:101DB0007F906F905F900895EF92FF920F931F9323
:101DC000CF93DF93EC0186E591E0998388837E01D0
:101DD00082E1E80EF11C2C893D8912161306C4F429
:101DE00060E070E0C7010E944F0B8C01009799F3EF
:101DF000DC018D919C91009739F0DC01ED91FC9113
:101E00000280F381E02D0995C8010E949F1BE3CF5A
:101E10008EE391E09B8B8A8B8E899F89009741F09E
:101E2000FC01228133813F8B2E8B0E949F1BF4CFBC
:101E3000CE01DF91CF911F910F91FF90EF900C9405
:101E4000BB09CF93DF93EC010E94DC0ECE01DF9142
:101E5000CF910C949F1BCF93DF9377FD0EC0FC01B5
:101E6000228133816217730744F4EA010E948607D6
:101E7000FC01D183C08381E001C080E0DF91CF917C
:101E80000895CF92DF92EF92FF920F931F93CF931B
:101E9000DF939B01BA01DC0112964D915C9113977F
:101EA0002417350734F0ED91FC910480F581E02D85
:101EB00009C02115310579F4DC01ED91FC91068012
:101EC000F781E02DDF91CF911F910F91FF90EF905F
:101ED000DF90CF9009947B01E9018C0184E090E0D0
:101EE0000E940A1B6C01FC01118210821382128273
:101EF000BE0161507109C8010E948607D601119682
:101F0000FC92EE92FC012281338113963C932E9336
:101F10001297D382C282D80112968D919C91139709
:101F2000019613969C938E9312971C961C9281E0B7
:101F3000DF91CF911F910F91FF90EF90DF90CF90A5
:101F4000089508950895CF93DF93EC0184E193E021
:101F5000998388838F859889009739F0DC01ED910A
:101F6000FC910280F381E02D099589899A89009777
:101F700039F0DC01ED91FC910280F381E02D0995AF
:101F80008B899C89009739F0DC01ED91FC910280EE
:101F9000F381E02D09958D899E89009739F0DC0148
:101FA000ED91FC910280F381E02D09958F89988D48
:101FB000009739F0DC01ED91FC910280F381E02D76
:101FC0000995898D9A8D009739F0DC01ED91FC918E
:101FD0000280F381E02D09958B8D9C8D009739F05F
:101FE000DC01ED91FC910280F381E02D09958D8D4E
:101FF0009E8D009739F0DC01ED91FC910280F38118
:10200000E02D0995CE01DF91CF910C942509CF9356
:10201000DF93EC010E94A30FCE01DF91CF910C94CE
:102020009F1B0895CF92DF92EF92FF920F931F9321
:10203000CF93DF936C017A018B01C0E0D0E0CE1525
:10204000DF0589F0D8016D918D01D601ED91FC91EC
:102050000190F081E02DC6010995892B11F47E01D4
:1020600002C02196ECCFC701DF91CF911F910F9154
:10207000FF90EF90DF90CF900895FC01538D448D39
:10208000252F30E0842F90E0821B930B541710F023
:10209000CF96089501970895FC01918D828D981730
:1020A00061F0828DDF01A80FB11D5D968C91928D3C
:1020B0009F5F9F73928F90E008958FEF9FEF089539
:1020C000FC01918D828D981731F0828DE80FF11D02
:1020D000858D90E008958FEF9FEF0895FC01918D1D
:1020E000228D892F90E0805C9F4F821B91098F7316
:1020F000992708958BED93E00E946E1021E0892BC3
:1021000009F420E0822F0895FC01848DDF01A80FDF
:10211000B11DA35ABF4F2C91848D90E001968F730F
:102120009927848FA689B7892C93A089B1898C912E
:1021300080648C93938D848D981306C00288F389F4
:10214000E02D80818F7D80830895EF92FF920F9321
:102150001F93CF93DF93EC0181E0888F9B8D8C8D53
:10216000981305C0E889F989808185FD24C0F62E81
:102170000B8D10E00F5F1F4F0F731127E02E8C8D1A
:10218000E8120CC00FB607FCFACFE889F989808104
:1021900085FFF5CFCE010E948410F1CF8B8DFE011B
:1021A000E80FF11DE35AFF4FF0820B8FEA89FB899C
:1021B0008081806207C0EE89FF896083E889F989A0
:1021C00080818064808381E090E0DF91CF911F91D6
:1021D0000F91FF90EF900895CF93DF93EC01888DDE
:1021E0008823C9F0EA89FB89808185FD05C0A8891B
:1021F000B9898C9186FD0FC00FB607FCF5CF8081A1
:1022000085FFF2CFA889B9898C9185FFEDCFCE01EA
:102210000E948410E7CFDF91CF91089580E090E095
:10222000892B29F00E947A1081110C9400000895E6
:10223000833081F028F4813099F08230A1F0089544
:102240008730A9F08830B9F08430D1F480918000D3
:102250008F7D03C0809180008F77809380000895E8
:1022600084B58F7702C084B58F7D84BD0895809139
:10227000B0008F7703C08091B0008F7D8093B00055
:1022800008950E94A01EEF92FF920F931F93CF9389
:10229000DF9361157105E1F07A01EB018C018CE0AF
:1022A00090E00E940A1BFC01148281E08583178262
:1022B0001682D183C083F382E282BF01C8014296B5
:1022C000DF91CF911F910F91FF90EF900C94080D2B
:1022D000DF91CF911F910F91FF90EF900895382FCC
:1022E0002091DA039091D903213208F049C08091FE
:1022F000B6038111FCCF42E04093B6033093B5039F
:102300003FEF3093B4031092B3032093B203A9EBD1
:10231000B3E042E953E0FA013E2F341B321718F4C0
:102320003D913193F9CF1092910320919103990F30
:10233000922B9093910390919003913061F41092BD
:102340009003909191039093BB009091BC0093FDFA
:10235000F8CF95EC01C095EE9093BC009091B60338
:102360009230E1F39091B4039F3F79F08091B403F0
:10237000803241F08091B403803331F084E005C0B5
:1023800081E003C082E001C083E01092B8031092A4
:10239000DA031092B70308951F920F920FB60F92AF
:1023A00011242F933F934F935F936F937F938F935A
:1023B0009F93AF93BF93EF93FF938BED93E00E94B6
:1023C0008410FF91EF91BF91AF919F918F917F9179
:1023D0006F915F914F913F912F910F900FBE0F9092
:1023E0001F9018951F920F920FB60F9211242F93E2
:1023F0008F939F93EF93FF93E091EB03F091EC03A6
:102400008081E091F103F091F20382FD12C090818E
:102410008091F4038F5F8F732091F503821751F041
:10242000E091F403F0E0E552FC4F958F8093F403C4
:1024300001C08081FF91EF919F918F912F910F901B
:102440000FBE0F901F901895CF93DF93282F30E089
:10245000F901E255FF4F8491F901E656FF4FD491FF
:10246000F901EA57FF4FC491CC2391F081110E94EA
:102470001811EC2FF0E0EE0FFF1FE458FF4FA5916D
:10248000B491EC91ED2381E090E021F480E002C072
:1024900080E090E0DF91CF9108951F93CF93DF9379
:1024A000282F30E0F901E255FF4F8491F901E656FB
:1024B000FF4FD491F901EA57FF4FC491CC23C9F0E3
:1024C000162F81110E941811EC2FF0E0EE0FFF1F64
:1024D000EE58FF4FA591B4918FB7F894111105C034
:1024E0009C91ED2FE095E92302C0EC91ED2BEC934C
:1024F0008FBFDF91CF911F910895CF93DF9390E02D
:10250000FC01E656FF4F2491FC01EA57FF4F8491EE
:10251000882361F190E0880F991FFC01E859FF4F73
:10252000C591D491FC01EE58FF4FA591B491611172
:1025300009C09FB7F8948881209582238883EC9105
:102540002E230BC0623061F49FB7F8943881822F3C
:10255000809583238883EC912E2B2C939FBF06C0FC
:102560008FB7F894E8812E2B28838FBFDF91CF910E
:1025700008958E3008F08E508770806480937C00C0
:1025800080917A00806480937A0080917A0086FD41
:10259000FCCF809178002091790090E0922B0895F3
:1025A0003FB7F8948091AA049091AB04A091AC0439
:1025B000B091AD0426B5A89B05C02F3F19F0019638
:1025C000A11DB11D3FBFBA2FA92F982F8827820FB9
:1025D000911DA11DB11DBC01CD0142E0660F771F09
:1025E000881F991F4A95D1F708958F929F92AF92B5
:1025F000BF92CF92DF92EF92FF926B017C010E941B
:10260000D0124B015C01C114D104E104F104F1F0DA
:102610000E94D012DC01CB0188199909AA09BB09D3
:10262000883E9340A105B10570F321E0C21AD1089C
:10263000E108F10888EE880E83E0981EA11CB11C09
:10264000C114D104E104F10419F7DDCFFF90EF903C
:10265000DF90CF90BF90AF909F908F9008952FB74D
:10266000F8946091A6047091A7048091A8049091B9
:10267000A9042FBF08951F920F920FB60F92112435
:102680002F933F938F939F93AF93BF938091A60413
:102690009091A704A091A804B091A9043091A50439
:1026A00023E0230F2D3720F40196A11DB11D05C095
:1026B00026E8230F0296A11DB11D2093A504809347
:1026C000A6049093A704A093A804B093A9048091B2
:1026D000AA049091AB04A091AC04B091AD04019612
:1026E000A11DB11D8093AA049093AB04A093AC04E8
:1026F000B093AD04BF91AF919F918F913F912F9176
:102700000F900FBE0F901F9018952F923F924F92EF
:102710005F926F927F929F92AF92BF92CF92DF9221
:10272000EF92FF920F931F93CF93DF9300D000D0CF
:102730001F92CDB7DEB76C01162F19821A821B8249
:102740001C821D8261E0812F0E947D1260E0812F3A
:102750000E944D1262E170E080E090E00E94F5126C
:1027600061E0812F0E944D128BE990E00197F1F713
:1027700060E0812F0E947D1251E1E52E57E2F52E97
:10278000812F0E942412892B39F481E0E81AF10884
:10279000B9F78EEF9FEF72C041E1E42E47E2F42ECD
:1027A000812F0E942412019729F4E1E0EE1AF1082A
:1027B000B9F7EFCF28E2E22EF12C912C07E0AA2402
:1027C000A394B12C91E1692E97E2792E812F0E947A
:1027D0002412892B29F4F1E06F1A7108B9F7D9CFC7
:1027E0000E94D0121B012C0181E1682E87E2782E15
:1027F000812F0E942412019729F481E0681A710840
:10280000B9F7C7CF0E94D012DC01CB01821993091E
:10281000A409B5098997A105B10578F0E1E0F0E0D8
:10282000EC0FFD1FE90DF11D80819501002E01C007
:10283000220F0A94EAF7282B2083011103C09394F6
:1028400007E001C00150E1E0EE1AF10809F0BACF4B
:102850008981282F30E0F601318320832B81422F9C
:1028600050E053834283280F81E090E03D81321392
:1028700002C080E090E09195819591090F900F90B2
:102880000F900F900F90DF91CF911F910F91FF90BC
:10289000EF90DF90CF90BF90AF909F907F906F9020
:1028A0005F904F903F902F90089585ED8093BC00EE
:1028B0008091BC0084FDFCCF1092B6030895409136
:1028C000F204262F30E0240F311D21323105DCF4D3
:1028D0002091B6032430C9F4FC0180E090E0861713
:1028E00058F43091F2042191DC01A053BB4FA30FA7
:1028F000B11D2C930196F3CF8091F204680F609381
:10290000F20480E0089581E0089582E0089508953A
:10291000E091CF048091CE04E81730F4F0E0E25566
:10292000FB4F808190E008958FEF9FEF0895909185
:10293000CF048091CE04981750F4E92FF0E0E255CF
:10294000FB4F208130E09F5F9093CF0402C02FEFB8
:102950003FEFC90108958091CE0490E02091CF040B
:10296000821B91090895CF92DF92EF92FF920F930D
:102970001F93CF93DF937C01262F972F8A0180919D
:10298000B703882391F0C62FD72F6E01C40ED51E32
:10299000CC15DD0571F06991D701ED91FC910190A5
:1029A000F081E02DC7010995F3CF642F822F0E949B
:1029B0005F14C801DF91CF911F910F91FF90EF90AD
:1029C000DF90CF900895CF93DF931F92CDB7DEB7FE
:1029D00069832091B7032223D1F02091DA032032BA
:1029E00040F021E030E0FC013383228380E090E07E
:1029F00015C08091B803E82FF0E0E754FC4F9981AF
:102A000090838F5F8093B8038093DA0305C061E001
:102A1000CE0101960E945F1481E090E00F90DF915B
:102A2000CF910895089580E090E00895CF93DF93CB
:102A3000EC018A899B89DC01ED91FC910488F58980
:102A4000E02D099582E38A83DF91CF910895CF929B
:102A5000DF92EF92FF920E94D0126B017C010E94E4
:102A6000D012DC01CB018C199D09AE09BF09883E4B
:102A70009340A105B10540F08BED93E0FF90EF90FE
:102A8000DF90CF900C944C108BED93E00E946E1071
:102A9000181619068CF3E3CF0F931F93CF93DF9390
:102AA000CDB7DEB727970FB6F894DEBF0FBECDBF08
:102AB0008C0197E0E4E2F3E0DE01119601900D92C3
:102AC0009A95E1F747E050E0BE016F5F7F4F8BEDD5
:102AD00093E00E94121060ED77E080E090E00E94A9
:102AE000F51284E3F801828327960FB6F894DEBFCF
:102AF0000FBECDBFDF91CF911F910F9108950F931E
:102B00001F93CF93DF93CDB7DEB7C054D1090FB673
:102B1000F894DEBF0FBECDBF8C0196E0EBE2F3E090
:102B2000DE01DB9601900D929A95E1F798E0E1E3E2
:102B3000F3E0DE01D39601900D929A95E1F798E0CB
:102B4000E9E3F3E0DE019B9601900D929A95E1F79F
:102B50009BE0E1E4F3E0DE011F9601900D929A956F
:102B6000E1F799E0ECE4F3E0DE015A9601900D9272
:102B70009A95E1F798E0E5E5F3E0DE0193960190A0
:102B80000D929A95E1F79EE0EDE5F3E0DE011196F6
:102B900001900D929A95E1F746E050E0BE01655C28
:102BA0007F4F8BED93E00E94121060ED77E080E0A4
:102BB00090E00E94F51248E050E0BE016D5C7F4F4E
:102BC0008BED93E00E94121064EF71E080E090E0E2
:102BD0000E94F51246E050E0BE01655C7F4F8BED30
:102BE00093E00E94121060ED77E080E090E00E9498
:102BF000F5124BE050E0BE01615F7F4F8BED93E03B
:102C00000E94121064EF71E080E090E00E94F512E3
:102C100049E050E0BE01665E7F4F8BED93E00E947D
:102C2000121064EF71E080E090E00E94F51248E03D
:102C300050E0BE016D5D7F4F8BED93E00E9412105E
:102C400064EF71E080E090E00E94F51248E050E00F
:102C5000BE01655D7F4F8BED93E00E94121064EF23
:102C600071E080E090E00E94F5124EE050E0BE017D
:102C70006F5F7F4F8BED93E00E94121064EF71E065
:102C800080E090E00E94F51283E3F8018283C05C4B
:102C9000DF4F0FB6F894DEBF0FBECDBFDF91CF91EF
:102CA0001F910F910895CF93DF93EC0118821B823F
:102CB0001C8289819A81009711F00E949F1B1A82C1
:102CC0001982DF91CF9108952FE633E0FC01318323
:102CD00020830C94BB09CF93DF93EC010E94641610
:102CE000CE01DF91CF910C949F1B2F923F924F9278
:102CF0005F926F927F928F929F92AF92BF92CF928C
:102D0000DF92EF92FF920F931F93CF93DF93CDB794
:102D1000DEB760970FB6F894DEBF0FBECDBF5C0183
:102D20008BED93E00E946E10181619067CF58BED62
:102D300093E00E9460108E3F910509F4F1C08BED85
:102D400093E00E944C10ECCF8BED93E00E944C106E
:102D50008E3F910509F433C10E942F13DC01CB0192
:102D60008C199D09AE09BF098C329140A105B105AE
:102D700058F3CE0101960E94531689818111DDC05E
:102D80008A819B81009711F00E949F1B2501B5E06D
:102D90004B0E511C2224239445E5342ED501179661
:102DA0008D919C911897181619060CF083C160E05C
:102DB00070E0C2010E9459027C01FC01C080D180F8
:102DC000C114D10409F484C002811381F801208167
:102DD000818190E0982F8827820F911D8130910585
:102DE00009F070C0F5E0CF16D10408F471C0C60137
:102DF0000E940A1B4C01DC01F801CF01801B910BE2
:102E00008C159D051CF481918D93F7CF8FE08C0D6F
:102E1000682E712CC3010E940A1B8C01EEEFDC01AD
:102E2000EC938AE08C0D11968C931197F4E2129634
:102E3000FC93129713962C92139714961C92149746
:102E400015961C92159716963C92169717963C92DB
:102E5000179718961C92189719961C9219978F819C
:102E60001A968C931A971B961C921B971C961C9271
:102E70001C971D96CC92A6015527B401C8010E9649
:102E80000E94A51EF3013197E00FF11F9DE09C0DFC
:102E9000D801119680E0915018F02D918227FBCF38
:102EA0008083A301B8018BED93E00E9412100115FD
:102EB000110519F0C8010E949F1B8114910429F18A
:102EC000C40121C0029709F527E0C216D10459F0C8
:102ED000E114F10409F4EEC0C7010E946309C701BF
:102EE0000E949F1BE7C087E090E00E940A1BF80148
:102EF000DC019801295F3F4F41914D93E217F307A1
:102F0000D9F7009711F00E949F1BE114F10409F416
:102F100045CFC7010E946309C7010E949F1B3ECF96
:102F200019821C821D821B821A82F5010289138973
:102F30000E942F136B017C010FCF8C81843409F028
:102F40001FCF8D81813809F01BCFEA81FB81008979
:102F500010E00430110508F413CF8189428950E054
:102F6000542F44277A01E80EF11C025011091E87E4
:102F70000D87C8010E940A1B988B8F8780E090E024
:102F8000EA81FB81E80FF91F2389EF85F889E80FB3
:102F9000F91F208301968017910790F3D501ED91D9
:102FA000FC910288F389E02DA701BE01635F7F4F8A
:102FB000C5010995CE010D960E946309E1CEC801B5
:102FC0000E9427158F3FFFEF9F0709F4D2CE898318
:102FD000C8010E9427158F3FAFEF9A0709F4C9CEA9
:102FE0008C83C8010E9427158F3FBFEF9B0709F410
:102FF000C0CE8D83C980D12CC6010E940A1B8A8352
:103000009B834C01E12CF12CEC14FD0498F50E94FB
:103010002F136093E3037093E4038093E50390938D
:10302000E603E091DB03F091DC030284F385E02DFD
:103030008BED93E0099597FF2CC00E942F134090D1
:10304000E3035090E4036090E5037090E603DC0135
:10305000CB0184199509A609B7094090DF03509068
:10306000E0036090E1037090E20384159505A605E6
:10307000B705B8F289818E117CCEC8010E94271550
:1030800039819C8193272D8192272A81E22FFB8110
:1030900007C0F40181934F01FFEFEF1AFF0AB4CF8D
:1030A0004E2F421B431718F441919427F9CF8913EF
:1030B00060CE63CE60960FB6F894DEBF0FBECDBF74
:1030C000DF91CF911F910F91FF90EF90DF90CF9004
:1030D000BF90AF909F908F907F906F905F904F9038
:1030E0003F902F900895CF93DF93FC01C581D68147
:1030F0006D81062E000C770BCE0106960E9485137B
:1031000068857985072E000C880B990B0E943E1C60
:10311000DF91CF910895FC01808191E09093B703F6
:103120008093D9031092B8031092DA0388E794E0F1
:103130000E94E31481E00C946F111F920F920FB65E
:103140000F9211242F933F934F935F936F937F932D
:103150008F939F93AF93BF93EF93FF938091B900A9
:10316000887F803609F49CC068F5883209F45BC01A
:1031700090F4803109F454C038F4882309F4F6C07F
:10318000883009F44DC0F6C0883109F44CC0803253
:1031900009F45DC0EFC0803409F468C048F480339E
:1031A00009F455C0883309F0E5C08093B403D8C052
:1031B000803509F44FC0883509F45DC0883409F0C2
:1031C000D9C0D6C0883909F4C7C0A8F4883709F433
:1031D00067C038F4883609F463C0803709F460C0EA
:1031E000C9C0883809F4B8C0803909F45FC0803894
:1031F00009F0C0C05BC0803B09F486C038F4803A57
:1032000009F466C0883A09F47FC0B4C0803C09F470
:10321000A7C0883C09F4A4C0883B09F48AC0AAC0AE
:103220008091910310C09091B3038091B2039817DD
:1032300070F5E091B30381E08E0F8093B303F0E06B
:10324000EE56FC4F80818093BB0085EC86C0809356
:10325000B4038EC0E091B30381E08E0F8093B3037B
:103260008091BB00F0E0EE56FC4F80839091B30359
:103270008091B2036EC0E091B30381E08E0F809322
:10328000B3038091BB00F0E0EE56FC4F8083809149
:10329000B50381116DC081E08093900384EA61C021
:1032A00083E08093B60310921605CFCF8091160568
:1032B000803208F051C0E091160581E08E0F8093B6
:1032C00016058091BB00F0E0EA50FB4F8083BDCF34
:1032D00085EC8093BC001092B60380911605803275
:1032E00030F4E0911605F0E0EA50FB4F1082609157
:1032F000160570E0E091F404F091F50486EF94E097
:1033000009951092160536C084E08093B60310929A
:10331000F3041092F204E091F004F091F1040995A5
:103320008091F204811105C081E08093F204109233
:10333000D004E091F30481E08E0F8093F304F0E079
:10334000E053FB4F80818093BB009091F304809108
:10335000F204981708F479CF85E88093BC000AC07E
:1033600085EC8093BC001092B60304C01092B403A5
:103370000E945514FF91EF91BF91AF919F918F9152
:103380007F916F915F914F913F912F910F900FBE61
:103390000F901F90189586E894E00C94A30FEF927D
:1033A000FF920F931F93CF93DF93EBEDF3E0138224
:1033B000128288EE93E0A0E0B0E084839583A68338
:1033C000B78322E731E03183208325EC30E0358775
:1033D000248724EC30E03787268720EC30E0318BDF
:1033E000208B21EC30E0338B228B22EC30E0358BCC
:1033F000248B26EC30E0378B268B118E128E138EA9
:10340000148EE8E7F4E01382128284839583A68306
:10341000B78384E891E091838083C6E8D4E086E9AD
:1034200091E09B838A831F821E82198618861D82E3
:103430001C821B861A861D861C861E8684E193E0EC
:103440009983888385E090E00E940A1BFC0180E953
:1034500090E09483838311E3128386ED91E091835E
:103460008083F88BEF878AE090E00E940A1B7C0142
:1034700081E990E0F70194838383128382EF91E0E6
:103480009183808389E08583FA8AE98A87E090E0E6
:103490000E940A1BFC0182E990E0948383831283DB
:1034A0008EE092E091838083F682E582FC8BEB8B49
:1034B00087E090E00E940A1BFC0183E990E094837E
:1034C000838312838CE292E091838083F682E5828B
:1034D000FE8BED8B87E090E00E940A1BFC0184E9E3
:1034E00090E09483838312838AE492E091838083C3
:1034F000F682E582F88FEF8B87E090E00E940A1B4E
:10350000FC0185E990E094838383128388E692E04E
:103510009183808381E1858381E08683FA8FE98FBF
:103520008CE090E00E940A1BFC0187E990E0948304
:103530008383128386E892E09183808383E285838C
:1035400000E1078385E4868380E190E093878287AA
:10355000FC8FEB8F87E090E00E940A1BFC0186E95C
:1035600090E094838383128386EF92E0918380833B
:103570008AE085830683FE8FED8FD0938504C09308
:103580008404DF91CF911F910F91FF90EF900895E8
:10359000789484B5826084BD84B5816084BD85B52E
:1035A000826085BD85B5816085BDEEE6F0E08081F5
:1035B00081608083E1E8F0E0108280818260808316
:1035C000808181608083E0E8F0E080818160808399
:1035D000E1EBF0E0808184608083E0EBF0E08081CB
:1035E00081608083EAE7F0E080818460808380816D
:1035F0008260808380818160808380818068808315
:103600001092C10086E894E00E949A0B86E894E04C
:103610000E949908CF93DF938230910510F482E0E5
:1036200090E0E0911905F0911A0520E030E0C0E04B
:10363000D0E0309711F14081518148175907C0F00F
:103640004817590761F482819381209719F09B8371
:103650008A832BC090931A058093190526C02115E3
:10366000310519F04217530718F49A01BE01DF0122
:10367000EF010280F381E02DDCCF2115310509F146
:10368000281B390B2430310590F412968D919C91B2
:1036900013976115710521F0FB019383828304C0A8
:1036A00090931A0580931905FD01329644C0FD01DF
:1036B000E20FF31F81939193225031092D933C9394
:1036C0003AC02091170530911805232B41F4209121
:1036D00002013091030130931805209317052091C2
:1036E0000001309101012115310541F42DB73EB79C
:1036F0004091040150910501241B350BE091170501
:10370000F0911805E217F307A0F42E1B3F0B2817C2
:10371000390778F0AC014E5F5F4F2417350748F04A
:103720004E0F5F1F50931805409317058193919397
:1037300002C0E0E0F0E0CF01DF91CF9108950F9358
:103740001F93CF93DF93009709F48CC0FC0132974D
:10375000138212820091190510911A0501151105A5
:1037600081F420813181820F931F209117053091C0
:1037700018052817390779F5F0931805E093170510
:1037800071C0D80140E050E0AE17BF0750F4129668
:103790002D913C911397AD012115310509F1D90106
:1037A000F3CF9D01DA013383228360817181860F1B
:1037B000971F8217930769F4EC0128813981260F3E
:1037C000371F2E5F3F4F318320838A819B819383F4
:1037D0008283452B29F4F0931A05E093190542C022
:1037E0001396FC93EE931297ED01499159919E0126
:1037F000240F351FE217F30771F480819181840F44
:10380000951F029611969C938E93828193811396B5
:103810009C938E931297E0E0F0E0D80112968D9180
:103820009C911397009719F0F8018C01F6CF8D91B8
:103830009C9198012E5F3F4F820F931F2091170597
:10384000309118052817390769F4309729F4109238
:103850001A051092190502C01382128210931805DE
:1038600000931705DF91CF911F910F9108950E944A
:10387000791C08F481E00895E89409C097FB3EF4B0
:1038800090958095709561957F4F8F4F9F4F9923AD
:10389000A9F0F92F96E9BB279395F695879577952B
:1038A0006795B795F111F8CFFAF4BB0F11F460FFEB
:1038B0001BC06F5F7F4F8F4F9F4F16C0882311F043
:1038C00096E911C0772321F09EE8872F762F05C057
:1038D000662371F096E8862F70E060E02AF09A95F2
:1038E000660F771F881FDAF7880F9695879597F9E7
:1038F0000895990F0008550FAA0BE0E8FEEF161681
:103900001706E807F907C0F012161306E407F507D3
:1039100098F0621B730B840B950B39F40A2661F047
:10392000232B242B252B21F408950A2609F4A140EA
:10393000A6958FEF811D811D08950E94B01C0C94E7
:10394000211D0E94131D38F00E941A1D20F095239E
:1039500011F00C940A1D0C94101D11240C94551D8B
:103960000E94321D70F3959FC1F3950F50E0551FD3
:10397000629FF001729FBB27F00DB11D639FAA27C4
:10398000F00DB11DAA1F649F6627B00DA11D661F13
:10399000829F2227B00DA11D621F739FB00DA11D34
:1039A000621F839FA00D611D221F749F3327A00DEE
:1039B000611D231F849F600D211D822F762F6A2F8A
:1039C00011249F5750409AF0F1F088234AF0EE0FEF
:1039D000FF1FBB1F661F771F881F91505040A9F71C
:1039E0009E3F510580F00C940A1D0C94551D5F3FBD
:1039F000E4F3983ED4F3869577956795B795F79558
:103A0000E7959F5FC1F7FE2B880F911D96958795CF
:103A100097F9089597F99F6780E870E060E008954E
:103A20009FEF80EC089500240A94161617061806D6
:103A30000906089500240A941216130614060506B2
:103A40000895092E0394000C11F4882352F0BB0F43
:103A500040F4BF2B11F460FF04C06F5F7F4F8F4FA6
:103A60009F4F089557FD9058440F551F59F05F3FE1
:103A700071F04795880F97FB991F61F09F3F79F090
:103A800087950895121613061406551FF2CF469512
:103A9000F1DF08C0161617061806991FF1CF869594
:103AA0007105610508940895E894BB276627772778
:103AB000CB0197F908955058BB27AA270E94731D80
:103AC0000C94211D0E94131D38F00E941A1D20F035
:103AD00039F49F3F19F426F40C94101D0EF4E09570
:103AE000E7FB0C940A1DE92F0E94321D58F3BA1708
:103AF000620773078407950720F079F4A6F50C9404
:103B0000541D0EF4E0950B2EBA2FA02D0B01B90118
:103B100090010C01CA01A0011124FF27591B99F043
:103B2000593F50F4503E68F11A16F040A22F232F4F
:103B3000342F4427585FF3CF469537952795A7959F
:103B4000F0405395C9F77EF41F16BA0B620B730B46
:103B5000840BBAF09150A1F0FF0FBB1F661F771FB7
:103B6000881FC2F70EC0BA0F621F731F841F48F46C
:103B7000879577956795B795F7959E3F08F0B0CFF5
:103B80009395880F08F09927EE0F979587950895DC
:103B90000E94DC1D0C94211D0E941A1D58F00E94E9
:103BA000131D40F029F45F3F29F00C940A1D5111B8
:103BB0000C94551D0C94101D0E94321D68F399231E
:103BC000B1F3552391F3951B550BBB27AA27621719
:103BD0007307840738F09F5F5F4F220F331F441F26
:103BE000AA1FA9F335D00E2E3AF0E0E832D091505A
:103BF0005040E695001CCAF72BD0FE2F29D0660F47
:103C0000771F881FBB1F261737074807AB07B0E889
:103C100009F0BB0B802DBF01FF2793585F4F3AF08F
:103C20009E3F510578F00C940A1D0C94551D5F3F82
:103C3000E4F3983ED4F3869577956795B795F79515
:103C40009F5FC9F7880F911D9695879597F90895FD
:103C5000E1E0660F771F881FBB1F62177307840799
:103C6000BA0720F0621B730B840BBA0BEE1F88F7A8
:103C7000E09508950E94791C08F48FEF089519F4D7
:103C800016F40C94101D0C94851E0E943A1DB8F376
:103C90009923C9F3B6F39F57550B87FF0E94931ED4
:103CA0000024A0E640EA900180585695979528F4A4
:103CB000805C660F771F881F20F02617370748079C
:103CC00030F4621B730B840B202931294A2BA695F3
:103CD00017940794202531254A2758F7660F771F38
:103CE000881F20F026173707480730F4620B730B44
:103CF000840B200D311D411DA09581F7B901842F42
:103D00009158880F9695879508959F3F31F091506F
:103D100020F4879577956795B795880F911D9695AF
:103D2000879597F9089591505040660F771F881F27
:103D3000D2F70895EE0FFF1F0590F491E02D09943E
:103D400081E090E0F8940C94AE1EFB01DC0102C00F
:103D500001900D9241505040D8F7089510E0C2E60E
:103D6000D0E004C0FE010E949A1E2196C336D107FE
:063D7000C9F7F894FFCF33
:103D760000001B058000000000004B0111037103C9
:103D8600DB0235015902DD011E022A01DB000000BB
:103D96000000BB09F4097A01760172016E016B011C
:103DA600670199035C014F016B0900000000740A6A
:103DB600A80C080D720C530A4F0BD30A140B690A90
:103DC600040A00000000DC0E210F780A160E7201AC
:103DD6006E016B01670199035C014F016B090000DD
:103DE6000000A51012103D10EC106E104C10601063
:103DF60000000000E314B31413158714AB149714D2
:103E06008814000000008D00410FB002300D2B0F0A
:103E1600DA08BD07A201FE07A40A00000000250972
:103E26005909B308990872084B08D8020908000016
:103E360000000000000041114111411141114111E2
:103E4600411100000000A20FCF0AD7007F154C15C4
:103E5600CB00C700C300C000BC00A3009100000057
:103E66000000020AAC02D700D300CF00CB00C70087
:103E7600C300C000BC00A001910000000000A10F1B
:103E8600CD0AD700D300CF00CB00C700C300C000C7
:103E9600BC00BC0A9100731800000000FF09A602CE
:103EA600D700D300CF00CB00C700C300C000BC00C2
:103EB6007E019100450400000000000AA802D70018
:103EC600D300CF00CB00C700C300C000BC008F01E9
:103ED60091005D04000000001110D10AD700780D92
:103EE600CF00CB00C700C300C000BC00A3009100F8
:103EF600660D00000000010AAA02D7002C07CF00B9
:103F0600CB00C700C300C000BC00A300910086061A
:103F160000000000030AAE02D700D300CF00CB009A
:103F2600C700C300C000BC00A30091000000000051
:103F3600000000004111411141114111411141118F
:103F4600411141110000000000000000D700D3001D
:103F5600CF00CB00C700C300C000BC00A300910087
:103F6600411100000000FE09A402D7003504CF006D
:103F7600CB00C700C300C000BC00A3009100D10362
:103F860000000000A30F07109A0B990872084B084F
:103F9600D8020908FE022540000067FE0141000024
:103FA60040FE03260503010321FE0326058F0101BA
:103FB600AFFE062605840400080000ADFE042605B3
:103FC6008302FFFFA6FE032605870101A7FE09243B
:103FD60000550000000000000000780000000064AA
:103FE600166B161615751672016E016B016701992F
:103FF600035C014F016B0935353535000D0A0000AC
:00000001FF
