:100000000C947F000C94A7000C94A7000C94A700FC
:100010000C94A7000C94A7000C94A7000C94A700C4
:100020000C94A7000C94A7000C94A7000C94A700B4
:100030000C94A7000C94A7000C94A7000C94A700A4
:100040000C944F0B0C94A7000C9465160C943F165F
:100050000C94A7000C94A7000C94A7000C94A70084
:100060000C947B0C0C94A700FE03260503010321CE
:10007000FE0141000040FE032605870101A7FE03A3
:1000800026058F0101AFFE0D240055000000000081
:10009000000100000100007CFE0225400000670016
:1000A000000000240027002A00000000002500288E
:1000B000002B000000000023002600290004040497
:1000C0000404040404020202020202030303030301
:1000D00003010204081020408001020408102001DE
:1000E00002040810200000000800020100000304C0
:1000F000070000000000000000009B169716112466
:100100001FBECFEFD8E0DEBFCDBF12E0A0E0B1E070
:10011000EAEFF6E302C005900D92AC39B107D9F7CA
:1001200024E0ACE9B2E001C01D92AB36B207E1F7C2
:1001300010E0CEE7D0E004C02197FE010E945C1BD6
:10014000CD37D107C9F70E948A170C94701B0C9405
:100150000000FC01828193810895809102049091B6
:100160000304DC01ED91FC910684F785E02D40E964
:10017000099408958091020490910304DC01ED91AB
:10018000FC910684F785E02D0994FC018281089595
:100190000895089508950895CF93DF93EC018B811E
:1001A0009C81DC01ED91FC910480F581E02D0995A5
:1001B0008D819E81DC01ED91FC910480F581E02D23
:1001C00009958F819885DC01ED91FC910480F58182
:1001D000E02D099589859A85DC01ED91FC910480DB
:1001E000F581E02D09951C861B86DF91CF9108953E
:1001F000DC0113968D919C911497DC01ED91FC919B
:100200000480F581E02D0994DC0113968D919C9179
:100210001497DC01ED91FC910480F581E02D0994A7
:10022000089508950E946313009721F0FC018081D6
:100230009181089580E090E008959F92AF92BF92DF
:10024000CF92DF92EF92FF920F931F93CF93DF93A2
:100250007C016B01942EC0E0D0E05C0182E0A80E2E
:10026000B11CF70124813581C217D307CCF4BE013C
:10027000C5010E9412018C01DC01ED91FC91048406
:10028000F585E02D0995891109C0D801ED91FC9102
:100290000684F785E02DB601C80109952196E1CFC6
:1002A000DF91CF911F910F91FF90EF90DF90CF9052
:1002B000BF90AF909F900895EF92FF920F931F937E
:1002C000CF93DF938C01C0E0D0E07C0182E0E80EA8
:1002D000F11CF80124813581C217D3076CF4BE01EB
:1002E000C7010E941201DC01ED91FC910284F385AB
:1002F000E02D09952196EDCFDF91CF911F910F91C0
:10030000FF90EF900895EF92FF920F931F93CF937A
:10031000DF938C01C0E0D0E07C0182E0E80EF11CAC
:10032000F80124813581C217D3076CF4BE01C701DF
:100330000E941201DC01ED91FC910084F185E02D19
:1003400009952196EDCFDF91CF911F910F91FF90ED
:10035000EF9008958C017C0182E0E80EF11CC0E072
:10036000D0E0F80184819581C817D907C4F7BE0190
:10037000C7010E941201DC01ED91FC910680F7811A
:10038000E02D09952196EDCFEF92FF920F931F93E9
:10039000CF93DF938C01C0E0D0E07C0182E0E80ED7
:1003A000F11CF80124813581C217D3076CF4BE011A
:1003B000C7010E941201DC01ED91FC910480F581DE
:1003C000E02D09952196EDCFDF91CF911F910F91EF
:1003D000FF90EF900895EF92FF920F931F93CF93AA
:1003E000DF93FC01628173811616170664F5EC0138
:1003F000148661307105C1F0625071090E94631367
:100400007C01FC0182819381FC01008111810E94A9
:100410006118F70113821282FF82EE828A819B812A
:1004200001979B838A830DC084819581FC010081A3
:1004300011810E9461181D821C821F821E821B82F4
:100440001A82C80102C080E090E0DF91CF911F9135
:100450000F91FF90EF900895EF92FF920F931F93EB
:10046000CF93DF93DC0112962D913C9113971216D6
:10047000130624F521303105A1F0EC01EC81FD815A
:10048000E280F38000811181CF010E946118FD821A
:10049000EC828A819B8101979B838A831C86C80199
:1004A0000FC0DC01ED91FC910484F585E02DDF9116
:1004B000CF911F910F91FF90EF90099480E090E011
:1004C000DF91CF911F910F91FF90EF9008950F93BF
:1004D0001F93CF93DF9377FD3EC0DC0112962D91E1
:1004E0003C91139762177307B4F56115710531F4E8
:1004F000ED91FC910684F785E02D0BC02150310968
:100500006217730759F4DC01ED91FC910484F585C1
:10051000E02DDF91CF911F910F910994EC01615073
:1005200071090E946313DC011296ED91FC911397FF
:10053000008111812281338113963C932E9312976F
:10054000CF010E9461188A819B8101979B838A83D6
:100550001C86C80102C080E090E0DF91CF911F911E
:100560000F9108950F931F93CF93DF93EC0186E4CF
:1005700091E0DE018D939D938D018C819D811816F4
:1005800019067CF460E070E0C8010E9467020097E1
:10059000A1F3DC01ED91FC910280F381E02D09953E
:1005A000ECCF8EE291E09B838A838E819F810097BE
:1005B00041F0FC01228133813F832E830E94611828
:1005C000F4CFDF91CF911F910F910895CF93DF93D7
:1005D000EC010E94B202CE01DF91CF910C94611820
:1005E0000C9461180C9461180C9461180C946118A7
:1005F0000C9461180C9461180C9461180C94611897
:100600000F931F93CF93DF93EC018B0184E090E075
:100610000E94CC17FC0113821282118300832C816B
:100620003D81232B29F0EE81FF819383828302C0D9
:100630009D838C839F838E838A819B8101969B837C
:100640008A831C8681E0DF91CF911F910F910895DD
:1006500002960C9400030F931F93CF93DF938C01AA
:1006600060E0FC0183810E94C00A8BE594E0019761
:10067000F1F7F80184810E942C0BEC018BE990E0EA
:100680000197F1F761E0F80183810E94C00A8BE3D2
:1006900097E90197F1F7BE01DD0F880B990B0E94D6
:1006A000001920E030E040EA5BE30E945F192BE78D
:1006B00034E14EE25EE30E945F192DEC3CEC4CEC21
:1006C0005DE30E941D1A20E030E04AE754E40E94F6
:1006D0005F198B01D82FC92F20E030E0A9010E94BB
:1006E000F91887FD10C020E030E04EE354E4B80173
:1006F0008D2F9C2F0E94FC1A18164CF400E010E07D
:10070000DEE3C4E404C000E010E0D0E0C0E0B801E3
:100710008D2F9C2FDF91CF911F910F910895CF9333
:10072000DF93EC0161E08B810E94F00A60E08C8134
:10073000DF91CF910C94F00ACF93DF93FC01C3813A
:10074000D4816A8170E0CE0103960E94990B6B817F
:100750007C81072E000C880B990B0E940019DF91F9
:10076000CF910895EF92FF920F931F93CF93DF9352
:1007700000D000D0CDB7DEB77C01FC01838191E0D1
:1007800090933503809357031092360310925803C9
:10079000909134039111FCCF91E0909334039093A6
:1007A00033032FEF209332031092310390933003E1
:1007B00090930F0390910F03880F892B80930F0361
:1007C00080910E03813061F410920E0380910F032B
:1007D0008093BB008091BC0083FDF8CF85EC01C005
:1007E00085EE8093BC00809134038130E1F38091E9
:1007F0003103823018F48091310301C082E0A0E11E
:10080000B3E02CE932E0F9019E2F921B981718F4FF
:100810009D919193F9CF1092BD028093BC0286EF17
:1008200093E00E94A608182F86EF93E00E94A60886
:10083000082F81E00E941715F70106831783668150
:1008400077818581833139F0833229F02AE939E9CA
:1008500049E95FE304C02AE939E949E150E480E06D
:1008600090E029833A834B835C830E94FE182981A0
:100870003A814B815C810E948A1A0F900F900F90F1
:100880000F90DF91CF911F910F91FF90EF900895FE
:100890000F931F93CF93DF93EC011092BD02109240
:1008A000BC0210923603109258031092340311E0E8
:1008B0001093330310920E0361E082E10E94C00A9C
:1008C00061E083E10E94C00A8091B9008E7F80932D
:1008D000B9008091B9008D7F8093B90088E480933E
:1008E000B80085E48093BC001093350383E28093C5
:1008F000570310923603109258038E010D5F1F4F5D
:100900009885292F2D7F2160213111F0213219F492
:1009100091609D8302C080E18D836D81C8010E943A
:10092000690C8EEF8C8367E4C8010E94690C6EE746
:10093000C801DF91CF911F910F910C94690C4F92D8
:100940005F926F927F928F929F92AF92BF92CF925F
:10095000DF92EF92FF920F931F93CF93DF93CDB768
:10096000DEB728970FB6F894DEBF0FBECDBF6A0181
:100970007B014801590124EA30E74DEF5FE3C701ED
:10098000B6010E945F192B013C0122E133E840E4EB
:100990005DE3C501B4010E945F199B01AC01C30175
:1009A000B2010E941E1A26E636E646EC51E40E9489
:1009B0001E1A2B013C0120E030E04EE952E40E9477
:1009C000FC1A18160CF075C1A7019601C701B601F3
:1009D0000E945F192B013C01A5019401C501B401DE
:1009E0000E945F196D837E838F83988721E133E2B4
:1009F00043E050E4C701B6010E945F1929E134E8E1
:100A000049E252E40E941D1A69837A838B839C8396
:100A100026E13BE442E251E4C501B4010E945F19C2
:100A20009B01AC0169817A818B819C810E941E1A95
:100A300069837A838B839C8328E436E246E65EEB07
:100A4000C701B6010E945F19A50194010E945F19B8
:100A50009B01AC0169817A818B819C810E941E1A65
:100A600069837A838B839C8320EE3FE040EE5BEBCF
:100A7000C301B2010E945F199B01AC0169817A81B7
:100A80008B819C810E941E1A69837A838B839C834D
:100A900028EF37E840E65DEB6D817E818F81988598
:100AA0000E945F199B01AC0169817A818B819C81D5
:100AB0000E941E1A69837A838B839C832CEA3DE013
:100AC00041EA5AE3C301B2010E945F19A5019401F2
:100AD0000E945F199B01AC0169817A818B819C81A5
:100AE0000E941E1A69837A838B839C8328EC3FE8DB
:100AF0004FE55AE3C701B6010E945F192D813E817F
:100B00004F8158850E945F199B01AC0169817A81F0
:100B10008B819C810E941E1A69837A838B839C83BC
:100B200021EF3BE845E056EBC301B2010E945F199B
:100B30002D813E814F8158850E945F199B01AC0138
:100B400069817A818B819C810E941E1A2B013C0154
:100B500020E030E040E551E4C501B4010E94F918FD
:100B600087FF5CC020E030E040EA52E4C701B601F4
:100B70000E94FC1A87FD52C020E030E040EE52E4B3
:100B8000C701B6010E94F91818160CF4B7C0A501E8
:100B9000940160E070E080E591E40E941D1A20E07D
:100BA00030E040E85EE30E945F194B015C0120E009
:100BB00030E04EEB52E4C701B6010E941D1A6B01F2
:100BC0007C0120E030E0A9010E94FC1A18164CF4C8
:100BD000A701960160E070E088E891E40E941D1A88
:100BE00008C020E030E048E851E4C701B6010E94A7
:100BF0001E1A2EE33DEE40E75DE30E945F190E945E
:100C0000071B9B01AC01C501B4010E945F199B0148
:100C1000AC01C301B2010E941D1A49C020E030E0BE
:100C20004AEA52E4C501B4010E94FC1A18160CF0FD
:100C300040C020E030E040EA52E4C701B6010E9423
:100C4000FC1A87FD36C020E030E04EEA52E4C701CE
:100C5000B6010E94F918181664F120E030E04AEA63
:100C600052E4C501B4010E941D1A2DEC3CEC4CEC81
:100C70005DE30E945F194B015C01A701960160E0F2
:100C800070E08EEA92E40E941D1A2DEC3CEC4CE4DC
:100C90005EE30E945F199B01AC01C501B4010E9493
:100CA0005F199B01AC01C301B2010E941E1A2B0106
:100CB0003C0120E030E040E052E4C301B2010E9478
:100CC0001D1A26E838E34EE05FE30E945F1928967C
:100CD0000FB6F894DEBF0FBECDBFDF91CF911F914D
:100CE0000F91FF90EF90DF90CF90BF90AF909F90CB
:100CF0008F907F906F905F904F90089520E030E04C
:100D00004AEA52E4C501B4010E94FC1A18160CF418
:100D10009ACFCFCFCF92DF92EF92FF920F931F9394
:100D2000CF93DF93FC01C381D4816A8170E0CE014F
:100D300003960E94990B6B817C81072E000C880B17
:100D4000990B0E9400196B017C018D819E81BC0171
:100D5000990F880B990B0E940019AB01BC019701F8
:100D60008601CE010E949F04DF91CF911F910F91C8
:100D7000FF90EF90DF90CF90089508950895089523
:100D8000FC0182819381009711F00C946118089501
:100D90002F923F924F925F926F927F928F929F928B
:100DA000AF92BF92CF92DF92EF92FF920F931F9379
:100DB000CF93DF93CDB7DEB760970FB6F894DEBF61
:100DC0000FBECDBF1C01DC011B968D919C911C9721
:100DD000892B09F0ABC0F10163807480D3011296B6
:100DE0006C9170E0C30103960E94990BF301658139
:100DF0007681072E000C880B990B0E9400194B017D
:100E00005C01D30113966D917C911497072E000C11
:100E1000880B990B0E9400196B017C018B019C01CE
:100E2000B501A401C3010E949F046D877E878F874F
:100E3000988BF10181859285DC01ED91FC91008414
:100E4000F185E02D09956D837E838F839887F1016D
:100E500085819681DC01ED91FC910084F185E02D86
:100E6000099569877A878B879C87F10187819085AF
:100E7000DC01ED91FC910084F185E02D09952B01B9
:100E80003C0189E190E09A8389830E94CC178B838F
:100E90009C83AC0183E0FA018193AF01C501B401E9
:100EA0000E9401124B815C814B5F5F4FC701B6010D
:100EB0000E9401124B815C81475F5F4F6D857E858B
:100EC0008F8598890E9401124B815C81435F5F4F3F
:100ED000C301B2010E9401124B815C814F5E5F4FE2
:100EE00069857A858B859C850E9401124B815C8186
:100EF0004B5E5F4F6D817E818F8198850E940112CC
:100F0000D101ED91FC910288F389E02DBE016F5F64
:100F10007F4FC1010995CE0101960E94C0060E9433
:100F2000430BF101658776878787908B86E997E089
:100F3000D1011C969C938E931B970E94430BF10149
:100F4000C584D684E784F088DC01CB018C199D0927
:100F5000AE09BF09883B9B40A105B10508F03BCF16
:100F600080E090E060960FB6F894DEBF0FBECDBF74
:100F7000DF91CF911F910F91FF90EF90DF90CF9075
:100F8000BF90AF909F908F907F906F905F904F90A9
:100F90003F902F9008950C94C806089508950895E1
:100FA0000895089580E090E0892B29F00E9478143C
:100FB00081110C9400000895833081F028F4813071
:100FC00099F08230A1F008958730A9F08830B9F007
:100FD0008430D1F4809180008F7D03C080918000A7
:100FE0008F7780938000089584B58F7702C084B591
:100FF0008F7D84BD08958091B0008F7703C080916C
:10100000B0008F7D8093B00008953FB7F894809131
:101010000A0390910B03A0910C03B0910D0326B528
:10102000A89B05C02F3F19F00196A11DB11D3FBF20
:10103000BA2FA92F982F8827820F911DA11DB11DAE
:10104000BC01CD0142E0660F771F881F991F4A95AA
:10105000D1F708958F929F92AF92BF92CF92DF9275
:10106000EF92FF926B017C010E9405084B015C012D
:10107000C114D104E104F104F1F00E940508DC017F
:10108000CB0188199909AA09BB09883E9340A1059B
:10109000B10570F321E0C21AD108E108F10888EE29
:1010A000880E83E0981EA11CB11CC114D104E10478
:1010B000F10419F7DDCFFF90EF90DF90CF90BF9054
:1010C000AF909F908F90089585ED8093BC008091A4
:1010D000BC0084FDFCCF1092340308954091E002DF
:1010E000262F30E0240F311D21323105DCF4209110
:1010F00034032430C9F4FC0180E090E0861758F4F2
:101100003091E0022191DC01A254BD4FA30FB11D2B
:101110002C930196F3CF8091E002680F6093E00278
:1011200080E0089581E0089582E008950895E091B7
:10113000BD028091BC02E81730F4F0E0E456FD4FA8
:10114000808190E008958FEF9FEF08959091BD0208
:101150008091BC02981750F4E92FF0E0E456FD4F5F
:10116000208130E09F5F9093BD0202C02FEF3FEFE0
:10117000C90108958091BC0290E02091BD02821BBC
:1011800091090895CF92DF92EF92FF920F931F93F0
:10119000CF93DF937C01262F972F8A01809135030F
:1011A000882391F0C62FD72F6E01C40ED51ECC1503
:1011B000DD0571F06991D701ED91FC910190F0810D
:1011C000E02DC7010995F3CF642F822F0E946E088E
:1011D000C801DF91CF911F910F91FF90EF90DF90A9
:1011E000CF900895CF93DF931F92CDB7DEB7698379
:1011F000209135032223D1F020915803203240F072
:1012000021E030E0FC013383228380E090E015C0D0
:1012100080913603E82FF0E0E95CFC4F99819083E0
:101220008F5F809336038093580305C061E0CE0141
:1012300001960E946E0881E090E00F90DF91CF91BF
:101240000895089580E090E008950E94621BEF9257
:10125000FF920F931F93CF93DF9300D0CDB7DEB7EC
:101260008B01CA0149835A830E94CC177C014981B2
:101270005A81840F951FD7010E191F09A817B907A6
:1012800031F0F801EA0FFB1FE491ED93F7CFB701BE
:1012900089E593E00E941014E114F10459F0C701AC
:1012A0000F900F90DF91CF911F910F91FF90EF90D2
:1012B0000C9461180F900F90DF91CF911F910F91B7
:1012C000FF90EF9008950F931F93CF93DF9300D07B
:1012D00000D01F92CDB7DEB78C0189E593E00E9464
:1012E0006C14181619062CF489E593E00E944A1430
:1012F000F4CF48E050E068E670E0C8010E9427099A
:1013000019821C821D821B821A8244E150E0BE01B8
:101310006F5F7F4FC8010E947415CE0101960E9435
:10132000F91146E050E060E770E0C8010E9427092B
:1013300019821C821D821B821A824CED55E0BE016F
:101340006F5F7F4FC8010E947415CE0101960E9405
:10135000F91148E050E066E770E0C8010E942709F3
:1013600019821C821D821B821A8244E150E0BE0158
:101370006F5F7F4FC8010E947415CE0101960E94D5
:10138000F91148E050E06EE770E0C8010E942709BB
:1013900019821C821D821B821A8244E150E0BE0128
:1013A0006F5F7F4FC8010E947415CE0101960E94A5
:1013B000F91142E150E066E870E0C8010E94270997
:1013C00019821C821D821B821A8244E150E0BE01F8
:1013D0006F5F7F4FC8010E947415CE0101960E9475
:1013E000F91147E050E068E970E0C8010E94270960
:1013F00064E670E080E090E00E942A080F900F9071
:101400000F900F900F90DF91CF911F910F91089542
:101410000F931F93CF93DF93CDB7DEB729970FB606
:10142000F894DEBF0FBECDBF8C0189E593E00E942A
:101430006C14181619060CF04EC089E593E00E9452
:101440005E148E3F910529F089E593E00E944A14CD
:10145000ECCF19821C821D821B821A82F8018381C3
:101460009481DC0112964D915C911397BE016F5FE0
:101470007F4F0E9474158981882349F18C818434BF
:1014800031F58D81813819F5EA81FB8180898823C6
:10149000F1F081898630D9F481E090E09F838E83DA
:1014A0000E94CC179987888720EFDC012C93D80104
:1014B000ED91FC910088F189E02D41E9BE016A5F60
:1014C0007F4FC8010995CE0106960E94C006CE0145
:1014D00001960E94F91129960FB6F894DEBF0FBE4F
:1014E000CDBFDF91CF911F910F910895FC01848DA5
:1014F000DF01A80FB11DA35ABF4F2C91848D90E03E
:1015000001968F739927848FA689B7892C93A08918
:10151000B1898C9180648C93938D848D981306C0CF
:101520000288F389E02D80818F7D80830895CF9399
:10153000DF93282F30E0F901EB51FF4F8491F9013F
:10154000EF52FF4FD491F901E354FF4FC491CC23E4
:1015500091F081110E94DC07EC2FF0E0EE0FFF1FED
:10156000ED54FF4FA591B491EC91ED2381E090E013
:1015700021F480E002C080E090E0DF91CF910895F7
:101580001F93CF93DF93282F30E0F901EB51FF4FEA
:101590008491F901EF52FF4FD491F901E354FF4FC9
:1015A000C491CC23C9F0162F81110E94DC07EC2FC7
:1015B000F0E0EE0FFF1FE755FF4FA591B4918FB7F5
:1015C000F894111105C09C91ED2FE095E92302C01C
:1015D000EC91ED2BEC938FBFDF91CF911F9108958C
:1015E000CF93DF9390E0FC01EF52FF4F2491FC0179
:1015F000E354FF4F8491882361F190E0880F991F95
:10160000FC01E156FF4FC591D491FC01E755FF4F16
:10161000A591B491611109C09FB7F8948881209574
:1016200082238883EC912E230BC0623061F49FB734
:10163000F8943881822F809583238883EC912E2B18
:101640002C939FBF06C08FB7F894E8812E2B288378
:101650008FBFDF91CF9108958E3008F08E50877044
:10166000806480937C0080917A00806480937A000B
:1016700080917A0086FDFCCF8091780020917900DE
:1016800090E0922B08952FB7F89460910603709123
:10169000070380910803909109032FBF08951F92BB
:1016A0000F920FB60F9211242F933F938F939F9316
:1016B000AF93BF938091060390910703A091080315
:1016C000B09109033091050323E0230F2D3720F457
:1016D0000196A11DB11D05C026E8230F0296A11D8C
:1016E000B11D209305038093060390930703A093F5
:1016F0000803B093090380910A0390910B03A09112
:101700000C03B0910D030196A11DB11D80930A0336
:1017100090930B03A0930C03B0930D03BF91AF9173
:101720009F918F913F912F910F900FBE0F901F901F
:1017300018952F923F924F925F926F927F929F9255
:10174000AF92BF92CF92DF92EF92FF920F931F93CF
:10175000CF93DF9300D000D01F92CDB7DEB76C01DE
:10176000162F19821A821B821C821D8261E0812F32
:101770000E94F00A60E0812F0E94C00A62E170E0DE
:1017800080E090E00E942A0861E0812F0E94C00A58
:101790008BE990E00197F1F760E0812F0E94F00A59
:1017A00051E1E52E57E2F52E812F0E94970A892BF1
:1017B00039F481E0E81AF108B9F78EEF9FEF72C0B3
:1017C00041E1E42E47E2F42E812F0E94970A01970F
:1017D00029F4E1E0EE1AF108B9F7EFCF28E2E22EA2
:1017E000F12C912C07E0AA24A394B12C91E1692E4D
:1017F00097E2792E812F0E94970A892B29F4F1E034
:101800006F1A7108B9F7D9CF0E9405081B012C0186
:1018100081E1682E87E2782E812F0E94970A019736
:1018200029F481E0681A7108B9F7C7CF0E9405084A
:10183000DC01CB0182199309A409B5098997A10597
:10184000B10578F0E1E0F0E0EC0FFD1FE90DF11DCE
:1018500080819501002E01C0220F0A94EAF7282BFF
:101860002083011103C0939407E001C00150E1E01F
:10187000EE1AF10809F0BACF8981282F30E0F6017D
:10188000318320832B81422F50E053834283280FE2
:1018900081E090E03D81321302C080E090E09195BC
:1018A000819591090F900F900F900F900F90DF91FD
:1018B000CF911F910F91FF90EF90DF90CF90BF904D
:1018C000AF909F907F906F905F904F903F902F9040
:1018D0000895FC01808191E0909335038093570334
:1018E000109236031092580386EF93E00E94F2089C
:1018F00081E00C9417151F920F920FB60F921124CE
:101900002F933F934F935F936F937F938F939F9307
:10191000AF93BF93EF93FF938091B900887F803698
:1019200009F49CC068F5883209F45BC090F48031FA
:1019300009F454C038F4882309F4F6C0883009F457
:101940004DC0F6C0883109F44CC0803209F45DC046
:10195000EFC0803409F468C048F4803309F455C0FE
:10196000883309F0E5C080933203D8C0803509F48C
:101970004FC0883509F45DC0883409F0D9C0D6C09D
:10198000883909F4C7C0A8F4883709F467C038F467
:10199000883609F463C0803709F460C0C9C088384C
:1019A00009F4B8C0803909F45FC0803809F0C0C0BC
:1019B0005BC0803B09F486C038F4803A09F466C005
:1019C000883A09F47FC0B4C0803C09F4A7C0883CC1
:1019D00009F4A4C0883B09F48AC0AAC080910F030F
:1019E00010C09091310380913003981770F5E09109
:1019F000310381E08E0F80933103F0E0E05FFC4F14
:101A000080818093BB0085EC86C0809332038EC0BA
:101A1000E091310381E08E0F809331038091BB0010
:101A2000F0E0E05FFC4F80839091310380913003C0
:101A30006EC0E091310381E08E0F8093310380917D
:101A4000BB00F0E0E05FFC4F8083809133038111A5
:101A50006DC081E080930E0384EA61C083E08093CF
:101A6000340310920403CFCF80910403803208F036
:101A700051C0E091040381E08E0F809304038091B4
:101A8000BB00F0E0EC51FD4F8083BDCF85EC80932F
:101A9000BC001092340380910403803230F4E09152
:101AA0000403F0E0EC51FD4F10826091040370E0FC
:101AB000E091E202F091E30284EE92E00995109247
:101AC000040336C084E0809334031092E102109244
:101AD000E002E091DE02F091DF0209958091E002E0
:101AE000811105C081E08093E0021092BE02E09176
:101AF000E10281E08E0F8093E102F0E0E254FD4FBD
:101B000080818093BB009091E1028091E002981760
:101B100008F479CF85E88093BC000AC085EC8093F7
:101B2000BC001092340304C0109232030E94640877
:101B3000FF91EF91BF91AF919F918F917F916F91A5
:101B40005F914F913F912F910F900FBE0F901F907B
:101B50001895CF92DF92FF920F931F93CF93DF934D
:101B60008B01FB01F1848FE08F0DC82ED12CC601B3
:101B70000E94CC17EC018EEF88838AE08F0D898359
:101B800084E28A8381E08B83F80180818C83818168
:101B90008D8382818E8383818F83848188878581F1
:101BA000898786818A8787818B8780858C87FD8658
:101BB0004F2D50E062857385CE010E960E94671B03
:101BC000F6013197EC0FFD1F9DE09F0DDE01119690
:101BD00080E0915018F02D918227FBCF8083A601E1
:101BE000BE0189E593E00E941014209751F0CE01C8
:101BF000DF91CF911F910F91FF90DF90CF900C94C8
:101C00006118DF91CF911F910F91FF90DF90CF90DE
:101C10000895CF92DF92EF92FF920E9405086B0128
:101C20007C010E940508DC01CB018C199D09AE09DD
:101C3000BF09883E9340A105B10540F089E593E0D6
:101C4000FF90EF90DF90CF900C944A1489E593E0D9
:101C50000E946C14181619068CF3E3CFCF93DF9310
:101C6000EC0118821B821C8289819A81009711F0F5
:101C70000E9461181A821982DF91CF910895DC01C8
:101C800013968D919C911497DC01ED91FC91048049
:101C9000F581E02D0994DC0113968D919C911497A8
:101CA000DC01ED91FC910480F581E02D0994CF9346
:101CB000DF93EC01E881F9810190F081E02DCE0104
:101CC00009951816190644F4E881F9810684F78508
:101CD000E02DCE010995EECFDF91CF910895DC0183
:101CE0001496ED91FC9115971C968C911C97882366
:101CF00061F01A962D913C911B97621773072CF097
:101D00001896ED91FC9119970AC020E030E007C0C9
:101D10003097C9F00280F381E02D2F5F3F4F2617E7
:101D20003707B4F32617370771F481E01C968C93BC
:101D30001C971B963C932E931A971996FC93EE933F
:101D40001897CF01089580E090E00895CF93DF9336
:101D500077FD0EC0FC01228133816217730744F4C2
:101D6000EA010E946F0EFC01D183C08381E001C0B3
:101D700080E0DF91CF9108950E946F0E009721F0CF
:101D8000FC0180819181089580E090E00895FC013C
:101D9000828193810895EF92FF920F931F93CF93C7
:101DA000DF938C01C0E0D0E07C0183E0E80EF11C01
:101DB000F80125813681C217D30784F4BE01C7011B
:101DC0000E94BC0EDC018D919C91DC01ED91FC9197
:101DD0000480F581E02D09952196EACFDF91CF911E
:101DE0001F910F91FF90EF900895CF93DF93EC0137
:101DF000E881F9810190F081E02DCE010995181656
:101E0000190644F4E881F9810684F785E02DCE01B6
:101E10000995EECFDF91CF9108950C9461180C9441
:101E200061180C9461180C946118EF92FF920F9353
:101E30001F93CF93DF93FC016281738116161706FF
:101E400064F5EC01148661307105C1F062507109CE
:101E50000E946F0E7C01FC0182819381FC01008154
:101E600011810E946118F70113821282FF82EE82B3
:101E70008A819B8101979B838A830DC08481958190
:101E8000FC01008111810E9461181D821C821F8249
:101E90001E821B821A82C80102C080E090E0DF919E
:101EA000CF911F910F91FF90EF900895EF92FF92C5
:101EB0000F931F93CF93DF93DC0112962D913C91EA
:101EC00013971216130624F521303105A1F0EC0109
:101ED000EC81FD81E280F38000811181CF010E94BD
:101EE0006118FD82EC828A819B8101979B838A83A2
:101EF0001C86C8010FC0DC01ED91FC910484F585BE
:101F0000E02DDF91CF911F910F91FF90EF900994F9
:101F100080E090E0DF91CF911F910F91FF90EF90C3
:101F200008950F931F93CF93DF9377FD3EC0DC019D
:101F300012962D913C91139762177307B4F56115B2
:101F4000710531F4ED91FC910684F785E02D0BC00D
:101F5000215031096217730759F4DC01ED91FC91AE
:101F60000484F585E02DDF91CF911F910F910994A5
:101F7000EC01615071090E946F0EDC011296ED9127
:101F8000FC911397008111812281338113963C9338
:101F90002E931297CF010E9461188A819B8101972D
:101FA0009B838A831C86C80102C080E090E0DF9199
:101FB000CF911F910F910895CF92DF92EF92FF92F0
:101FC0000F931F93CF93DF93CDB7DEB72C970FB648
:101FD000F894DEBF0FBECDBFDB012D913C912115E2
:101FE000310509F459C07B016C0185E58B838C8335
:101FF0001D821E8218861986FB0102811381D80179
:102000008C918230C1F42730310509F03FC019822C
:102010001A8287E08A8787E090E00E94CC178B873E
:102020009C87F801DC01C801079621912D93E817E0
:10203000F907D9F723C0833049F52931310531F546
:1020400019821A8289E18A8789E190E00E94CC177F
:102050009C878B8720E030E0D7011296ED91FC91B0
:102060001397E20FF31F8081EB85FC85E20FF31FCE
:1020700080832F5F3F4F2931310571F7BE016F5FBC
:102080007F4FF601838194810E94A90D8B859C85E9
:10209000009711F00E9461182C960FB6F894DEBFDD
:1020A0000FBECDBFDF91CF911F910F91FF90EF90A9
:1020B000DF90CF900895CF92DF92EF92FF920F932F
:1020C0001F93CF93DF939B01BA01DC0112964D91D0
:1020D0005C9113972417350734F0ED91FC9104803F
:1020E000F581E02D09C02115310579F4DC01ED9170
:1020F000FC910680F781E02DDF91CF911F910F9128
:10210000FF90EF90DF90CF9009947B01E9018C0163
:1021100084E090E00E94CC176C01FC0111821082D7
:1021200013821282BE0161507109C8010E946F0EB4
:10213000D6011196FC92EE92FC0122813381139616
:102140003C932E931297D382C282D80112968D911E
:102150009C911397019613969C938E9312971C96BD
:102160001C9281E0DF91CF911F910F91FF90EF9032
:10217000DF90CF900895EF92FF920F931F93CF932C
:10218000DF93DC0112960D911C9113970115110537
:1021900061F4ED91FC910480F581E02DDF91CF9108
:1021A0001F910F91FF90EF9009947B01EC0184E067
:1021B00090E00E94CC172C813D81FC013383228367
:1021C000F182E0829D838C830F5F1F4F1B830A8304
:1021D0001C8681E0DF91CF911F910F91FF90EF90CE
:1021E00008950F931F93CF93DF93EC018B0184E04D
:1021F00090E00E94CC17FC011382128211830083AD
:102200002C813D81232B29F0EE81FF8193838283F2
:1022100002C09D838C839F838E838A819B810196DC
:102220009B838A831C8681E0DF91CF911F910F9160
:102230000895EF92FF920F931F93CF93DF93DC01EA
:1022400012960D911C9113970115110561F4ED91F2
:10225000FC910480F581E02DDF91CF911F910F91CA
:10226000FF90EF9009947B01EC0184E090E00E94E4
:10227000CC172C813D81FC0133832283F182E082E3
:102280009D838C830F5F1F4F1B830A831C8681E015
:10229000DF91CF911F910F91FF90EF900895CF9311
:1022A000DF93FC01C381D4816A8170E0CE01039683
:1022B0000E94990B6D817E81072E000C880B990B73
:1022C0000E940019DF91CF9108950F931F93CF9330
:1022D000DF93EC01E9E5F3E0A089B18982E08C931A
:1022E000A485B5851C92A685B78587E68C93108E4C
:1022F000A489B58986E08C93A289B3898C91806189
:102300008C93A289B3898C9188608C93A289B389BC
:102310008C9180688C930288F389E02D80818F7D79
:1023200080838E010D5A1F4FBE01665E7F4F48EBC2
:102330005BE0C8010E94EB14BE01615E7F4F4CE17F
:102340005CE0C8010E94EB14BE016C5D7F4F40E869
:102350005CE0C8010E94EB14BE01625D7F4F44EE59
:102360005CE0C8010E94EB14BE01675D7F4F48E44A
:102370005DE0C8010E94EB14BE01685C7F4F4CEA2F
:102380005DE0C8010E94EB14E881F981BE01635C45
:102390007F4F0484F585E02DCE010995E881F98110
:1023A0000484F585E02DB801CE010995E881F98115
:1023B000BE016E5B7F4F0484F585E02DCE0109954B
:1023C000CE01DF91CF911F910F910C94C401FC01BC
:1023D0008481813021F483810E942C0B03C083818E
:1023E0000E94970ABC01990F880B990B0E94001953
:1023F0000895FC0181819281009711F00C9461187D
:102400000895FA01608371838283938308958F9284
:102410009F92AF92BF92EF92FF920F931F93CF9331
:10242000DF9300D000D0CDB7DEB77C018B01DB019C
:10243000ED91FC910084F185E02DCB0109954B01D4
:102440005C0187E090E09A8389830E94CC17FC01AD
:102450009C838B8382E0808381E08183D801129604
:102460008C918283AF014D5F5F4FC501B4010E9423
:102470000112D701ED91FC910288F389E02DBE0194
:102480006F5F7F4FC7010995CE0101960E94C0067C
:102490000F900F900F900F90DF91CF911F910F91A0
:1024A000FF90EF90BF90AF909F908F900895CF9244
:1024B000DF92EF92FF920F931F93CF93DF938C01E4
:1024C000EB018E819F81892B59F468817981C80144
:1024D0000E9407120E94430B688779878A879B872F
:1024E00080E792E19F838E830E94430BC884D98446
:1024F000EA84FB84DC01CB018C199D09AE09BF097C
:102500004A815B8160E070E084179507A607B707F2
:10251000E0F680E090E0DF91CF911F910F91FF9066
:10252000EF90DF90CF900895EF92FF920F931F935B
:10253000CF93DF938C01C0E0D0E07C0183E0E80E14
:10254000F11CF80125813681C217D30794F4BE012E
:10255000C7010E94BC0EBC01FC018581882321F0CB
:10256000C8010E94571203C0FB01178216822196F0
:10257000E8CFDF91CF911F910F91FF90EF900895D9
:10258000EF92FF920F931F93CF93DF93DB012D9177
:102590003C9111972115310519F11296ED91FC919D
:1025A00013974081403FE1F421303105C9F4EC013B
:1025B00000E010E07C01F3E0EF0EF11C2D813E8184
:1025C000021713076CF4B801C7010E94BC0EFC018E
:1025D00060817181CE010E9407120F5F1F4FEECF05
:1025E000DF91CF911F910F91FF90EF900895089583
:1025F000089508950895EF92FF920F931F93CF933C
:10260000DF93EC0188E492E0998388837E0183E084
:10261000E80EF11C2D813E8112161306C4F460E011
:1026200070E0C7010E94910F8C01009799F3DC01C3
:102630008D919C91009739F0DC01ED91FC91028025
:10264000F381E02D0995C8010E946118E3CF80E372
:1026500092E09C838B838F819885009741F0FC01E9
:102660002281338138872F830E946118F4CFDF9154
:10267000CF911F910F91FF90EF900895CF93DF932B
:10268000EC018CE892E099838883CE018D5A9F4FAC
:102690000E94FB12CE01DF91CF910C94B202CF9336
:1026A000DF93EC010E943E13CE01DF91CF910C9499
:1026B0006118CF93DF93EC010E94FB12CE01DF91F2
:1026C000CF910C946118DC011496ED91FC91159753
:1026D0001C968C911C97882361F01A962D913C9141
:1026E0001B97621773072CF01896ED91FC911997C0
:1026F0000AC020E030E007C03097C9F00280F381C3
:10270000E02D2F5F3F4F26173707B4F32617370703
:1027100071F481E01C968C931C971B963C932E932E
:102720001A971996FC93EE931897CF01089580E0BD
:1027300090E00895CF93DF9377FD0EC0FC012281D6
:1027400033816217730744F4EA010E946313FC01AA
:10275000D183C08381E001C080E0DF91CF910895F3
:10276000CF92DF92EF92FF920F931F93CF93DF935D
:102770009B01BA01DC0112964D915C9113972417CD
:10278000350734F0ED91FC910480F581E02D09C00E
:102790002115310579F4DC01ED91FC910680F7817A
:1027A000E02DDF91CF911F910F91FF90EF90DF907F
:1027B000CF9009947B01E9018C0184E090E00E94B4
:1027C000CC176C01FC011182108213821282BE01AF
:1027D00061507109C8010E946313D6011196FC92E1
:1027E000EE92FC012281338113963C932E93129733
:1027F000D382C282D80112968D919C911397019633
:1028000013969C938E9312971C961C9281E0DF91F5
:10281000CF911F910F91FF90EF90DF90CF9008958F
:10282000CF92DF92EF92FF920F931F93CF93DF939C
:102830006C017A018B01C0E0D0E0CE15DF0589F094
:10284000D8016D918D01D601ED91FC910190F0813F
:10285000E02DC6010995892B11F47E0102C0219655
:10286000ECCFC701DF91CF911F910F91FF90EF90B7
:10287000DF90CF900895FC01538D448D252F30E0DB
:10288000842F90E0821B930B541710F0CF9608957D
:1028900001970895FC01918D828D981761F0828DCA
:1028A000DF01A80FB11D5D968C91928D9F5F9F7384
:1028B000928F90E008958FEF9FEF0895FC01918D26
:1028C000828D981731F0828DE80FF11D858D90E093
:1028D00008958FEF9FEF0895FC01918D228D892F30
:1028E00090E0805C9F4F821B91098F739927089518
:1028F00089E593E00E946C1421E0892B09F420E023
:10290000822F0895EF92FF920F931F93CF93DF933F
:10291000EC0181E0888F9B8D8C8D981305C0E88930
:10292000F989808185FD24C0F62E0B8D10E00F5FA4
:102930001F4F0F731127E02E8C8DE8120CC00FB6BD
:1029400007FCFACFE889F989808185FFF5CFCE01B0
:102950000E94760AF1CF8B8DFE01E80FF11DE35A3C
:10296000FF4FF0820B8FEA89FB898081806207C06C
:10297000EE89FF896083E889F9898081806480839A
:1029800081E090E0DF91CF911F910F91FF90EF9048
:102990000895CF93DF93EC01888D8823C9F0EA89ED
:1029A000FB89808185FD05C0A889B9898C9186FD48
:1029B0000FC00FB607FCF5CF808185FFF2CFA88945
:1029C000B9898C9185FFEDCFCE010E94760AE7CFC1
:1029D000DF91CF910895EF92FF920F931F93CF93C2
:1029E000DF9361157105E1F07A01EB018C018CE058
:1029F00090E00E94CC17FC01148281E0858317824D
:102A00001682D183C083F382E282BF01C80103969C
:102A1000DF91CF911F910F91FF90EF900C94F110E7
:102A2000DF91CF911F910F91FF90EF900895382F74
:102A30002091580390915703213208F049C08091AA
:102A400034038111FCCF42E04093340330933303CD
:102A50003FEF309332031092310320933003A7E30A
:102A6000B3E040E153E0FA013E2F341B321718F473
:102A70003D913193F9CF10920F0320910F03990FDD
:102A8000922B90930F0390910E03913061F410926A
:102A90000E0390910F039093BB009091BC0093FDA7
:102AA000F8CF95EC01C095EE9093BC009091340363
:102AB0009230E1F3909132039F3F79F0809132039D
:102AC000803241F080913203803331F084E005C0E0
:102AD00081E003C082E001C083E0109236031092CF
:102AE00058031092350308954F925F926F927F9230
:102AF0008F929F92AF92BF92CF92DF92EF92FF920E
:102B00000F931F93CF93DF938C01EB016A010E9417
:102B1000430B4B015C01E12CF12C89E593E00E9411
:102B20004A148E3F910501F10E94430BDC01CB0159
:102B300088199909AA09BB098C159D05AE05BF0521
:102B400060F3CE01DF91CF911F910F91FF90EF9035
:102B5000DF90CF90BF90AF909F908F907F906F90BD
:102B60005F904F900C942E0EC8010E94090E8F3F6B
:102B70002FEF920731F38883C8010E94090E8F3F1F
:102B80002FEF9207F1F28B83C8010E94090E8F3F4D
:102B9000EFEF9E07B1F28C83C880D12CC6010E9452
:102BA000CC1789839A835C01E12CF12CEC14FD0491
:102BB00098F50E94430B60936103709362038093C6
:102BC000630390936403E0915903F0915A030284E4
:102BD000F385E02D89E593E0099597FF2BC00E94CE
:102BE000430B4090610350906203609063037090C8
:102BF0006403DC01CB0184199509A609B70940904B
:102C00005D0350905E0360905F03709060038415D5
:102C10009505A605B705B8F288818E1192CFC80137
:102C20000E94090E48819B8194272C81922720E0E5
:102C300030E007C0F50181935F01FFEFEF1AFF0A53
:102C4000B5CF241748F4E981FA81E20FF31F5081D0
:102C500095272F5F3F4FF5CF891373CFDF91CF912A
:102C60001F910F91FF90EF90DF90CF90BF90AF90AA
:102C70009F908F907F906F905F904F9008951F92DC
:102C80000F920FB60F9211242F933F934F935F93A0
:102C90006F937F938F939F93AF93BF93EF93FF9324
:102CA00089E593E00E94760AFF91EF91BF91AF9181
:102CB0009F918F917F916F915F914F913F912F9154
:102CC0000F900FBE0F901F9018951F920F920FB686
:102CD0000F9211242F938F939F93EF93FF93E09183
:102CE0006903F0916A038081E0916F03F0917003B2
:102CF00082FD12C09081809172038F5F8F7320914B
:102D00007303821751F0E0917203F0E0E75AFC4F31
:102D1000958F8093720301C08081FF91EF919F9105
:102D20008F912F910F900FBE0F901F90189584E0F8
:102D300094E00C943E13E9E5F3E01382128288EEEE
:102D400093E0A0E0B0E084839583A683B7832AE074
:102D500031E03183208325EC30E03587248724EC73
:102D600030E03787268720EC30E0318B208B21EC58
:102D700030E0338B228B22EC30E0358B248B26EC39
:102D800030E0378B268B118E128E138E148EE6EF69
:102D9000F3E01382128284839583A683B7838CE148
:102DA00091E091838083E4E0F4E08EE291E093830C
:102DB00082831782168211861086158214821386EA
:102DC00012861586148616868CE892E0918380839D
:102DD0008EE691E0908B878788EC90E0928B818BD8
:102DE0008AE791E0948B838B89E0858B21E1248FA6
:102DF00086E891E0938F828F87E194E0968F858FAC
:102E000032E131A344E951E050A3478F93A382A359
:102E100033E136A342EA51E055A344A390A787A328
:102E200034E133A740EB51E052A741A724A721E0AA
:102E300025A726E120AB2EEB31E037A726A723E21A
:102E400021AB20E123AB35E432AB40E150E057AB9E
:102E500046AB35E132AF4CEC51E051AF40AF3AE018
:102E600033AF24AF20E032E030934204209341049A
:102E700023E134E0309345042093440420E9209377
:102E8000430428E132E030934704209346049093B2
:102E90004A048093490482E394E090934C04809325
:102EA0004B048CE394E090934E0480934D048DE2A8
:102EB00094E09093500480934F0482E980934804F7
:102EC00088E492E0909358048093570480E392E062
:102ED00090935B0480935A0410925F0410925E04F6
:102EE000109261041092600410925D0410925C04D0
:102EF00010926304109262041092650410926404AC
:102F00001092660481E980935904F0930304E093DE
:102F100002040895789484B5826084BD84B581608C
:102F200084BD85B5826085BD85B5816085BDEEE6D1
:102F3000F0E0808181608083E1E8F0E010828081B0
:102F400082608083808181608083E0E8F0E080811E
:102F500081608083E1EBF0E0808184608083E0EB3E
:102F6000F0E0808181608083EAE7F0E08081846026
:102F70008083808182608083808181608083808182
:102F8000806880831092C10084E094E00E94651103
:102F900084E094E00E94AA01CF93DF9382309105F0
:102FA00010F482E090E0E0916904F0916A0420E07E
:102FB00030E0C0E0D0E0309711F1408151814817F6
:102FC0005907C0F04817590761F48281938120970F
:102FD00019F09B838A832BC090936A0480936904C1
:102FE00026C02115310519F04217530718F49A012C
:102FF000BE01DF01EF010280F381E02DDCCF21155E
:10300000310509F1281B390B2430310590F4129653
:103010008D919C9113976115710521F0FB019383AC
:10302000828304C090936A0480936904FD01329600
:1030300044C0FD01E20FF31F8193919322503109A7
:103040002D933C933AC02091670430916804232B60
:1030500041F42091020130910301309368042093E0
:10306000670420910001309101012115310541F4DF
:103070002DB73EB74091040150910501241B350B3B
:10308000E0916704F0916804E217F307A0F42E1BA7
:103090003F0B2817390778F0AC014E5F5F4F2417BC
:1030A000350748F04E0F5F1F509368044093670444
:1030B0008193919302C0E0E0F0E0CF01DF91CF91E6
:1030C00008950F931F93CF93DF93009709F48CC05B
:1030D000FC013297138212820091690410916A04F4
:1030E0000115110581F420813181820F931F2091F8
:1030F0006704309168042817390779F5F09368045C
:10310000E093670471C0D80140E050E0AE17BF07FC
:1031100050F412962D913C911397AD012115310574
:1031200009F1D901F3CF9D01DA0133832283608154
:103130007181860F971F8217930769F4EC0128812C
:103140003981260F371F2E5F3F4F318320838A81BD
:103150009B8193838283452B29F4F0936A04E09347
:10316000690442C01396FC93EE931297ED014991C6
:1031700059919E01240F351FE217F30771F48081E6
:103180009181840F951F029611969C938E93828154
:10319000938113969C938E931297E0E0F0E0D80110
:1031A00012968D919C911397009719F0F8018C015C
:1031B000F6CF8D919C9198012E5F3F4F820F931F08
:1031C00020916704309168042817390769F4309713
:1031D00029F410926A041092690402C013821282C8
:1031E0001093680400936704DF91CF911F910F91B2
:1031F00008950E943B1908F481E00895E89409C0FD
:1032000097FB3EF490958095709561957F4F8F4F19
:103210009F4F9923A9F0F92F96E9BB279395F6952F
:10322000879577956795B795F111F8CFFAF4BB0FAD
:1032300011F460FF1BC06F5F7F4F8F4F9F4F16C011
:10324000882311F096E911C0772321F09EE8872F9B
:10325000762F05C0662371F096E8862F70E060E057
:103260002AF09A95660F771F881FDAF7880F9695D0
:10327000879597F90895990F0008550FAA0BE0E874
:10328000FEEF16161706E807F907C0F01216130628
:10329000E407F50798F0621B730B840B950B39F468
:1032A0000A2661F0232B242B252B21F408950A26CE
:1032B00009F4A140A6958FEF811D811D08950E94FC
:1032C00072190C94E3190E94D51938F00E94DC1988
:1032D00020F0952311F00C94CC190C94D2191124E0
:1032E0000C94171A0E94F41970F3959FC1F3950F6F
:1032F00050E0551F629FF001729FBB27F00DB11D7A
:10330000639FAA27F00DB11DAA1F649F6627B00D09
:10331000A11D661F829F2227B00DA11D621F739FF2
:10332000B00DA11D621F839FA00D611D221F749F00
:103330003327A00D611D231F849F600D211D822F47
:10334000762F6A2F11249F5750409AF0F1F088236E
:103350004AF0EE0FFF1FBB1F661F771F881F91509B
:103360005040A9F79E3F510580F00C94CC190C9465
:10337000171A5F3FE4F3983ED4F3869577956795E7
:10338000B795F795E7959F5FC1F7FE2B880F911DC5
:103390009695879597F9089597F99F6780E870E06B
:1033A00060E008959FEF80EC089500240A941616BB
:1033B000170618060906089500240A941216130623
:1033C000140605060895092E0394000C11F48823B1
:1033D00052F0BB0F40F4BF2B11F460FF04C06F5FCD
:1033E0007F4F8F4F9F4F089557FD9058440F551FA3
:1033F00059F05F3F71F04795880F97FB991F61F077
:103400009F3F79F087950895121613061406551FED
:10341000F2CF4695F1DF08C0161617061806991F59
:10342000F1CF86957105610508940895E894BB274E
:1034300066277727CB0197F908955058BB27AA270D
:103440000E94351A0C94E3190E94D51938F00E9495
:10345000DC1920F039F49F3F19F426F40C94D219AA
:103460000EF4E095E7FB0C94CC19E92F0E94F419B7
:1034700058F3BA17620773078407950720F079F4A9
:10348000A6F50C94161A0EF4E0950B2EBA2FA02D6B
:103490000B01B90190010C01CA01A0011124FF2701
:1034A000591B99F0593F50F4503E68F11A16F040FC
:1034B000A22F232F342F4427585FF3CF46953795FB
:1034C0002795A795F0405395C9F77EF41F16BA0BC0
:1034D000620B730B840BBAF09150A1F0FF0FBB1F6E
:1034E000661F771F881FC2F70EC0BA0F621F731FB7
:1034F000841F48F4879577956795B795F7959E3F14
:1035000008F0B0CF9395880F08F09927EE0F9795A4
:10351000879508950E949E1A0C94E3190E94DC1965
:1035200058F00E94D51940F029F45F3F29F00C941F
:10353000CC1951110C94171A0C94D2190E94F41939
:1035400068F39923B1F3552391F3951B550BBB27D2
:10355000AA2762177307840738F09F5F5F4F220F17
:10356000331F441FAA1FA9F335D00E2E3AF0E0E80E
:1035700032D091505040E695001CCAF72BD0FE2F58
:1035800029D0660F771F881FBB1F261737074807EC
:10359000AB07B0E809F0BB0B802DBF01FF279358A4
:1035A0005F4F3AF09E3F510578F00C94CC190C9483
:1035B000171A5F3FE4F3983ED4F3869577956795A5
:1035C000B795F7959F5FC9F7880F911D96958795D9
:1035D00097F90895E1E0660F771F881FBB1F6217F8
:1035E00073078407BA0720F0621B730B840BBA0BB6
:1035F000EE1F88F7E09508950E943B1908F48FEFBD
:10360000089519F416F40C94D2190C94471B0E94D7
:10361000FC19B8F39923C9F3B6F39F57550B87FFED
:103620000E94551B0024A0E640EA90018058569560
:10363000979528F4805C660F771F881F20F0261767
:103640003707480730F4621B730B840B202931299C
:103650004A2BA69517940794202531254A2758F719
:10366000660F771F881F20F026173707480730F4AA
:10367000620B730B840B200D311D411DA09581F74A
:10368000B901842F9158880F9695879508959F3F8B
:1036900031F0915020F4879577956795B795880F0D
:1036A000911D9695879597F9089591505040660F12
:1036B000771F881FD2F70895EE0FFF1F0590F49132
:1036C000E02D099481E090E0F8940C94701BFB01CC
:1036D000DC0102C001900D9241505040D8F708958E
:1036E00010E0CEE7D0E004C0FE010E945C1B2196F2
:0A36F000CF37D107C9F7F894FFCFD8
:1036FA0000006B04800000000000821410143B14C8
:10370A00C9146C144A145E1400000000F208C208BE
:10371A0022099608BA08A608970800000000A9001E
:10372A00B013000319119A136702EB012C0212015C
:10373A00F50E00000000B202E602C401AA018301EC
:10374A005C0128031D01000000000000000025099B
:10375A002509250925092509250900000000F9126E
:10376A00110F6309100100000000D007FC021101CB
:10377A00100100000000F8120D0F4B0E10014F113E
:10378A0000000000CD07F602F80010019C030000BB
:10379A000000CE07F802040110018A0600000000AA
:1037AA00FA12130F11011001E71100000000CF07F0
:1037BA00FA0248041001B20300000000BD06F0023C
:1037CA008F0310012B03000000000000000011010C
:1037DA001001250900000000D107FE0211011001A5
:1037EA000000000000000000250925090000000073
:1037FA00F7120F0F3F0E080AC900C800C500DC0FF8
:10380A00BA00AD0000000000BE06F202CC00CB07F1
:10381A00C900C800C500B900BA00AD000000000028
:10382A00C70E5B10F110BB10A60E910F150F560FA5
:10383A00BC0E570E00000000FB125913CB0E941257
:10384A00C900C800C500C012BA00AD0000000000DF
:10385A00BF06F402CB00CA00C900C800C500B900FF
:10386A00BA00AD000000000000000000250925098B
:10387A002509250925092509000000003E134F13D3
:0C388A006511AA0183015C0128031D01E7
:00000001FF
