:100000000C9463000C948B000C948B000C948B006C
:100010000C948B000C948B000C948B000C94BC0FF4
:100020000C948B000C948B000C948B000C948B0024
:100030000C948B000C948B000C948B000C948B0014
:100040000C9467020C948B000C943E100C941810C6
:100050000C948B000C948B000C948B000C948B00F4
:100060000C94B1020C948B000000000024002700C7
:100070002A0000000000250028002B0000000008D6
:10008000000201000003040700000000000000005F
:1000900002000000002300260029000404040404D8
:1000A0000404040202020202020303030303030125
:1000B00002040810204080010204081020010204FC
:1000C00008102000701011241FBECFEFD8E0DEBF53
:1000D000CDBF11E0A0E0B1E0ECE2FAE202C0059091
:1000E0000D92A83CB107D9F723E0A8ECB1E001C01C
:1000F0001D92AA37B207E1F710E0C3E6D0E004C0D2
:100100002197FE010E94FA14C236D107C9F70E9456
:10011000D5100C9414150C940000833081F028F451
:10012000813099F08230A1F008958730A9F08830AD
:10013000B9F08430D1F4809180008F7D03C080912C
:1001400080008F7780938000089584B58F7702C0F8
:1001500084B58F7D84BD08958091B0008F7703C0F2
:100160008091B0008F7D8093B00008958E3008F0AC
:100170008E508770806480937C0080917A008064C8
:1001800080937A0080917A0086FDFCCF8091780080
:100190002091790090E0922B08953FB7F8948091D8
:1001A000420290914302A0914402B091450226B5CB
:1001B000A89B05C02F3F19F00196A11DB11D3FBF9F
:1001C000BA2FA92F982F8827820F911DA11DB11D2D
:1001D000BC01CD0142E0660F771F881F991F4A9529
:1001E000D1F7089585ED8093BC008091BC0084FD1B
:1001F000FCCF10929302089540911802262F30E010
:10020000240F311D21323105DCF42091930224307A
:10021000C9F4FC0180E090E0861758F43091180290
:100220002191DC01AA50BE4FA30FB11D2C93019662
:10023000F3CF80911802680F6093180280E0089550
:1002400081E0089582E008950895E0915F02809131
:100250005E02E81730F4F0E0EA52FE4F808190E051
:1002600008958FEF9FEF089590915F0280915E0255
:10027000981750F4E92FF0E0EA52FE4F208130E069
:100280009F5F90935F0202C02FEF3FEFC901089577
:1002900080915E0290E020915F02821B9109089597
:1002A000CF92DF92EF92FF920F931F93CF93DF9342
:1002B0007C01262F972F8A0180919402882391F048
:1002C000C62FD72F6E01C40ED51ECC15DD0571F0DB
:1002D0006991D701ED91FC910190F081E02DC7016A
:1002E0000995F3CF642F822F0E94FC00C801DF9193
:1002F000CF911F910F91FF90EF90DF90CF900895D5
:10030000CF93DF931F92CDB7DEB76983209194021C
:100310002223D1F02091B702203240F021E030E0DA
:10032000FC013383228380E090E015C08091950228
:10033000E82FF0E0EA56FD4F998190838F5F80931C
:1003400095028093B70205C061E0CE0101960E943C
:10035000FC0081E090E00F90DF91CF910895089527
:1003600080E090E008950E940F151F93CF93DF93D4
:10037000282F30E0F901E458FF4F8491F901E1554D
:10038000FF4FD491F901E556FF4FC491CC23C9F03A
:10039000162F81110E948D00EC2FF0E0EE0FFF1F51
:1003A000EE58FF4FA591B4918FB7F894111105C085
:1003B0009C91ED2FE095E92302C0EC91ED2BEC939D
:1003C0008FBFDF91CF911F910895CF93DF9390E07E
:1003D000FC01E155FF4F2491FC01E556FF4F84914C
:1003E000882361F190E0880F991FFC01E859FF4FC5
:1003F000C591D491FC01EE58FF4FA591B4916111C4
:1004000009C09FB7F8948881209582238883EC9156
:100410002E230BC0623061F49FB7F8943881822F8D
:10042000809583238883EC912E2B2C939FBF06C04D
:100430008FB7F894E8812E2B28838FBFDF91CF915F
:1004400008958F929F92AF92BF92CF92DF92EF92D8
:10045000FF926B017C010E94CD004B015C01C11435
:10046000D104E104F104F1F00E94CD00DC01CB01E4
:1004700088199909AA09BB09883E9340A105B105CD
:1004800070F321E0C21AD108E108F10888EE880E65
:1004900083E0981EA11CB11CC114D104E104F10435
:1004A00019F7DDCFFF90EF90DF90CF90BF90AF9026
:1004B0009F908F9008952FB7F89460913E027091AD
:1004C0003F0280914002909141022FBF08951F92F8
:1004D0000F920FB60F9211242F933F938F939F93F8
:1004E000AF93BF9380913E0290913F02A091400252
:1004F000B091410230913D0223E0230F2D3720F4CB
:100500000196A11DB11D05C026E8230F0296A11D6D
:10051000B11D20933D0280933E0290933F02A09331
:100520004002B09341028091420290914302A09117
:100530004402B09145020196A11DB11D8093420273
:1005400090934302A0934402B0934502BF91AF91B0
:100550009F918F913F912F910F900FBE0F901F9001
:1005600018951F920F920FB60F9211242F933F935D
:100570004F935F936F937F938F939F93AF93BF93AB
:10058000EF93FF938091B900887F803609F49CC077
:1005900068F5883209F45BC090F4803109F454C0E6
:1005A00038F4882309F4F6C0883009F44DC0F6C049
:1005B000883109F44CC0803209F45DC0EFC080344A
:1005C00009F468C048F4803309F455C0883309F051
:1005D000E5C080939102D8C0803509F44FC08835BA
:1005E00009F45DC0883409F0D9C0D6C0883909F44F
:1005F000C7C0A8F4883709F467C038F4883609F40E
:1006000063C0803709F460C0C9C0883809F4B8C035
:10061000803909F45FC0803809F0C0C05BC0803BFE
:1006200009F486C038F4803A09F466C0883A09F4BF
:100630007FC0B4C0803C09F4A7C0883C09F4A4C0C2
:10064000883B09F48AC0AAC080916E0210C09091C4
:10065000900280918F02981770F5E091900281E0EE
:100660008E0F80939002F0E0E159FD4F80818093DE
:10067000BB0085EC86C0809391028EC0E091900211
:1006800081E08E0F809390028091BB00F0E0E159F1
:10069000FD4F80839091900280918F026EC0E09117
:1006A000900281E08E0F809390028091BB00F0E079
:1006B000E159FD4F80838091920281116DC081E0EC
:1006C00080936D0284EA61C083E08093930210926C
:1006D0003C02CFCF80913C02803208F051C0E091C3
:1006E0003C0281E08E0F80933C028091BB00F0E0E1
:1006F000E45EFD4F8083BDCF85EC8093BC001092FB
:10070000930280913C02803230F4E0913C02F0E0B0
:10071000E45EFD4F108260913C0270E0E0911A02AD
:10072000F0911B028CE192E0099510923C0236C0D8
:1007300084E0809393021092190210921802E091C3
:100740001602F0911702099580911802811105C0D7
:1007500081E0809318021092F601E091190281E085
:100760008E0F80931902F0E0EA50FE4F8081809353
:10077000BB009091190280911802981708F479CF64
:1007800085E88093BC000AC085EC8093BC00109281
:10079000930204C0109291020E94F200FF91EF9127
:1007A000BF91AF919F918F917F916F915F914F9189
:1007B0003F912F910F900FBE0F901F9018954F9261
:1007C0005F926F927F928F929F92AF92BF92CF92E1
:1007D000DF92EF92FF928091520290915302892B07
:1007E00051F40E945B02609354027093550280930F
:1007F0005602909357028BEF93E0909353028093AD
:1008000052020E945B02C0905402D0905502E090C8
:100810005602F0905702DC01CB018C199D09AE09FC
:10082000BF098C3D9540A105B10508F45AC060E0B0
:100830008AE00E94B5018BE594E00197F1F780E131
:100840000E94B600BC01990F880B990B0E940813F7
:100850002B013C018BE990E00197F1F761E08AE020
:100860000E94B5018BE397E90197F1F720E030E0B2
:1008700040EA5BE3C301B2010E94BD134B015C017E
:100880002BE734E14EE25EE30E94BD132DEC3CEC1D
:100890004CEC5DE30E94EC116B017C0120E030E048
:1008A000A9010E94591287FF03C0C12CD12C7601E7
:1008B00089E391E00E94610DC301B2010E948D0E97
:1008C00084E591E00E94610DC501B4010E948D0E86
:1008D0008DE591E00E94610DC701B6010E948D0E69
:1008E00080CF80E090E0FF90EF90DF90CF90BF90BE
:1008F000AF909F908F907F906F905F904F900895F2
:10090000CF92DF92EF92FF920F931F93CF93DF93DB
:1009100000D000D0CDB7DEB7809160029091610227
:10092000892B51F40E945B02609362027093630210
:1009300080936402909365028CE994E09093610245
:10094000809360020E945B02C0906202D0906302BA
:10095000E0906402F0906502DC01CB018C199D09E6
:10096000AE09BF098C3D9540A105B10508F4B4C09E
:100970008091610391E0909394028093B60210926B
:1009800095021092B702909193029111FCCF91E0E1
:1009900090939302909392022FEF209391021092E2
:1009A000900290938F0290936E0290916E02880F46
:1009B000892B80936E0280916D02813061F41092D8
:1009C0006D0280916E028093BB008091BC0083FD1C
:1009D000F8CF85EC01C085EE8093BC008091930236
:1009E0008130E1F380919002823018F4809190027E
:1009F00001C082E0AFE6B2E026ED31E0F9019E2FC2
:100A0000921B981718F49D919193F9CF10925F0261
:100A100080935E0285E593E00E943401082F85E50E
:100A200093E00E943401182F81E00E94DB0C1093A8
:100A30006403009365036091640370916503809182
:100A40006303833139F0833229F02AE939E949E92E
:100A50005FE304C02AE939E949E150E480E090E02D
:100A600029833A834B835C830E94061329813A8150
:100A70004B815C810E945E120E94D0128B016B013F
:100A8000770FEE08FF08F7FE0CC08DE20E94AE0D56
:100A900066277727CB016C197D098E099F094AE0EB
:100AA00003C04AE0C701B6010E946D0D8BE691E0DC
:100AB0000E94610D0436110534F461E084E00E9467
:100AC000B50161E005C060E084E00E94B50160E02E
:100AD00084E00E94B50126CF80E090E00F900F9057
:100AE0000F900F90DF91CF911F910F91FF90EF909A
:100AF000DF90CF9008950F931F93809158029091AB
:100B00005902892B51F40E945B0260935A02709340
:100B10005B0280935C0290935D028DE895E0909378
:100B20005902809358020E945B0200915A02109170
:100B30005B0220915C0230915D02DC01CB01801BE5
:100B4000910BA20BB30B8C3D9540A105B105B0F004
:100B500080E791E00E944B0D81E10E94B600BC014C
:100B6000990F880B990B0E94081324E13EEA43E297
:100B700051E40E945E120E948D0EC5CF80E090E08D
:100B80001F910F9108952F923F924F925F926F9213
:100B90007F928F929F92AF92BF92CF92DF92EF920D
:100BA000FF920F931F93CF93DF93CDB7DEB72997B3
:100BB0000FB6F894DEBF0FBECDBF8DED95E09093DC
:100BC0004D0280934C02EEE7F0E08491E1EBF0E01F
:100BD0000491EDE9F0E01491112309F47BC2811135
:100BE0000E948D00E12FF0E0EE0FFF1FEF56FF4F48
:100BF000A591B491EC91E02309F46CC28BE091E0F3
:100C00009E838D83E1E0F1E0F887EF83ED81FE8143
:100C100061917191FE83ED8388EE93E00E948A14C6
:100C20008B01EF81F88521903190F887EF838091D7
:100C300000012B01770F660877088B3029F4E0E973
:100C4000F0E0F491F9877BC08F3F09F0C8C18BE0D9
:100C500080930001E0E9F0E084918F3F09F4BFC187
:100C6000813019F1823009F444C0811167C014BC8D
:100C700015BC84B5826084BD85B5816085BDE6EA1A
:100C8000F0E08491E82FF0E0EE0FFF1FEE58FF4FE9
:100C9000859194919093CD018093CC01EAEBF0E0A3
:100CA00084918093CB0119864DC0109280001092E0
:100CB0008100809181008860809381008091810013
:100CC000816080938100E6EAF0E08491E82FF0E013
:100CD000EE0FFF1FEE58FF4F859194919093CA013C
:100CE0008093C901EAEBF0E084918093C801F1E0C0
:100CF00023C01092B0001092B1008091B0008260C9
:100D00008093B0008091B10081608093B100E6EAE9
:100D1000F0E08491E82FF0E0EE0FFF1FEE58FF4F58
:100D2000859194919093670280936602EAEBF0E0DC
:100D3000849180936802F2E0F98704C0898729854D
:100D400027FD4DC161E08BE00E94E5014101A12C2E
:100D5000B12C89858D7F09F0BDC060E072E18AE722
:100D600090E0A50194010E94C01429833A834B832B
:100D70005C8369017A0181E0C81AD108E108F108B1
:100D80009FEFC916D104E104F10409F008F44DC045
:100D900060E472E48FE090E0A50194010E94C01429
:100DA00069017A01E1E0CE1AD108E108F108F9857C
:100DB000F23001F52FEFC216D104E104F10409F07D
:100DC00008F486C160E970ED83E090E0A50194012C
:100DD0000E94C01469017A0181E0C81AD108E108B3
:100DE000F1089FEFC916D104E104F10409F0E0F520
:100DF00083E069C0EFEFCE16D104E104F104B9F04D
:100E0000B0F068E478EE81E090E0A50194010E94E2
:100E1000C01469017A01F1E0CF1AD108E108F108A4
:100E20002985222309F4F9C04AC181E001C082E08A
:100E300029852223A1F047C089819A81AB81BC8199
:100E40002AE0B595A795979587952A95D1F76C01D6
:100E50007D01F1E0CF1AD108E108F10885E095B5F0
:100E6000987F892B85BD6FC068E478EE81E090E0C3
:100E7000A50194010E94C01469017A0181E0C81A99
:100E8000D108E108F1089FEFC916D104E104F1048B
:100E900009F008F4C0C064E274EF80E090E0A501BE
:100EA00094010E94C01469017A0181E0C81AD10836
:100EB000E108F1089FEFC916D104E104F10411F033
:100EC00008F0CDC085E09091B100987F892B809388
:100ED000B10039C060E072E18AE790E0A5019401B9
:100EE0000E94C01469017A0181E0C81AD108E108A2
:100EF000F108C114D10491E0E906F10488F068E436
:100F000078EE81E090E0A50194010E94C01469018F
:100F10007A01E1E0CE1AD108E108F10893E001C0BE
:100F200091E0F985F13079F480918100887F892BF7
:100F300080938100411451046104710449F42FEF3E
:100F40003FEFA9012BC0411451046104710469F001
:100F50009101220F331FD8010E94DF1428EE33E0E5
:100F600040E050E00E949E1403C02FEF3FEFA90124
:100F70008985813099F0823019F1811130C0C7BC68
:100F80002093D2013093D3014093D4015093D501E3
:100F900080916E00826080936E0021C0D0928900A3
:100FA000C09288002093CE013093CF014093D001AE
:100FB0005093D10180916F00826080936F000FC0C9
:100FC000C092B3002093690230936A0240936B028F
:100FD00050936C0280917000826080937000C30116
:100FE000B2010E94081326E636E646EA5FE30E9455
:100FF000BD130E94D012072E000C880B990B0E9483
:1010000021028BE00E94910FED81FE81E551F140BC
:1010100009F0FCCDD2CD84E056CF2FEFC216D1041B
:10102000E104F104D1F0C8F062E17AE780E090E0F9
:10103000A50194010E94C01469017A01E1E0CE1A71
:10104000D108E108F108FFEFCF16D104E104F10463
:1010500011F008F0F1CE84E002CF83E000CF62E12E
:101060007AE780E090E0A50194010E94C014690134
:101070007A0181E0C81AD108E108F1089FEFC9168A
:10108000D104E104F104C9F0C0F089819A81AB81F7
:10109000BC815AE0B595A795979587955A95D1F754
:1010A0006C017D01E1E0CE1AD108E108F108F98573
:1010B000FF2309F4D3CE87E006CF86E0B9CEEFEF69
:1010C000CE16D104E104F10409F048F684E0B0CE74
:1010D00082E0F9CE80E090E029960FB6F894DEBF6A
:1010E0000FBECDBFDF91CF911F910F91FF90EF9079
:1010F000DF90CF90BF90AF909F908F907F906F9038
:101100005F904F903F902F9008954F925F926F9213
:101110007F928F929F92AF92BF92CF92DF92EF9287
:10112000FF921F93CF93DF93CDB7DEB72C970FB607
:10113000F894DEBF0FBECDBF80914602909147026A
:10114000892B51F40E945B0260934802709349021C
:1011500080934A0290934B028CEA98E09093470266
:10116000809346020E945B02C0904802D0904902E0
:10117000E0904A02F0904B02DC01CB018C199D09F2
:10118000AE09BF098C3D9540A105B10508F4A7C281
:101190000E949A0E8823B1F180916E038B3041F149
:1011A00088F18551823070F56091680370E080E0CD
:1011B00090E00E94061320E030E040E853E40E94F3
:1011C000BD136B017C0180916903682F70E080E0A2
:1011D00090E00E9408139B01AC01C701B6010E9478
:1011E000ED112DEC3CEC4CEC5DE30E94BD1307C00F
:1011F0006091680370E080E090E00E9406132B018C
:101200003C0106C0412C512C80EC682E8FE7782ED3
:101210000E949A0E882309F45FC080916E038B3080
:1012200031F008F43FC08551823068F03BC06091D6
:101230006A0370E080E090E00E94061369837A837D
:101240008B839C8337C010916A03612F6F7770E0A6
:1012500080E090E00E94081320E030E040E853E492
:101260000E94BD136B017C0180916B03682F70E0BD
:1012700080E090E00E9408139B01AC01C701B60119
:101280000E94ED112DEC3CEC4CEC5DE30E94BD1393
:1012900069837A838B839C8317FF0CC0DC01CB01AD
:1012A000B05804C080E090E0A0ECBFE789839A8347
:1012B000AB83BC83A3019201C301B2010E947014ED
:1012C00081110AC029813A814B815C81CA01B9012F
:1012D0000E947014882329F08FEA91E00E94610D2A
:1012E00031CF26E636E646EE5FE369817A818B816F
:1012F0009C810E94BD1320E030E040E052E40E9457
:10130000ED114B015C0120E030E044E752E40E9423
:10131000ED116B017C0120E030E048E852E4C501AA
:10132000B4010E94EC112AE939E949E95FE30E941E
:10133000BD139B01AC01C701B6010E94ED116B0109
:101340007C0122E133E840EC5DE3C301B2010E947D
:10135000BD139B01AC01C701B6010E94ED1120E055
:1013600030E040E05FE30E94BD136B017C0120E0B0
:1013700030E04EE952E40E94B81318160CF069C12F
:10138000A5019401C501B4010E94BD136D837E8344
:101390008F839887A3019201C301B2010E94BD13FC
:1013A00069877A878B879C8721E133E243E050E4A9
:1013B000C501B4010E94BD1329E134E849E252E4B9
:1013C0000E94EC116B017C0126E13BE442E251E416
:1013D000C301B2010E94BD139B01AC01C701B6015C
:1013E0000E94ED116B017C0128E436E246E65EEBDB
:1013F000C501B4010E94BD13A30192010E94BD1357
:101400009B01AC01C701B6010E94ED116B017C018B
:1014100020EE3FE040EE5BEB6D817E818F81988511
:101420000E94BD139B01AC01C701B6010E94ED11E2
:101430006B017C0128EF37E840E65DEB69857A8532
:101440008B859C850E94BD139B01AC01C701B60131
:101450000E94ED116B017C012CEA3DE041EA5AE368
:101460006D817E818F8198850E94BD13A3019201B9
:101470000E94BD139B01AC01C701B6010E94ED1192
:101480006B017C0128EC3FE84FE55AE3C501B4014C
:101490000E94BD1329853A854B855C850E94BD134A
:1014A0009B01AC01C701B6010E94ED116B017C01EB
:1014B00021EF3BE845E056EB6D817E818F81988579
:1014C0000E94BD1329853A854B855C850E94BD131A
:1014D0009B01AC01C701B6010E94ED116B017C01BB
:1014E00020E030E040E551E4C301B2010E9459120E
:1014F00087FF60C020E030E040EA52E4C501B4015B
:101500000E94B81387FD56C020E030E040EE52E460
:10151000C501B4010E94591218160CF4D4C0A301DD
:10152000920160E070E080E591E40E94EC1120E01F
:1015300030E040E85EE30E94BD136D837E838F83BD
:10154000988720E030E04EEB52E4C501B4010E94E0
:10155000EC114B015C0120E030E0A9010E94B813BE
:1015600018164CF4A501940160E070E088E891E45D
:101570000E94EC1108C020E030E048E851E4C501C9
:10158000B4010E94ED112EE33DEE40E75DE30E94C1
:10159000BD130E9430149B01AC016D817E818F814F
:1015A00098850E94BD139B01AC01C701B6010E9442
:1015B000EC114DC020E030E04AEA52E4C301B20130
:1015C0000E94B81318160CF044C020E030E040EA46
:1015D00052E4C501B4010E94B81387FD3AC020E06F
:1015E00030E04EEA52E4C501B4010E9459121816C7
:1015F00084F120E030E04AEA52E4C301B2010E94E3
:10160000EC112DEC3CEC4CEC5DE30E94BD136D83C2
:101610007E838F839887A501940160E070E08EEA55
:1016200092E40E94EC112DEC3CEC4CE45EE30E9451
:10163000BD139B01AC016D817E818F8198850E94D5
:10164000BD139B01AC01C701B6010E94ED116B01F6
:101650007C0182E891E00E944B0D42E0C301B2019F
:101660000E94B90D8DE891E00E944B0D0E945D0D26
:1016700080E991E00E944B0D42E069817A818B8183
:101680009C810E94B90D8EE991E00E944B0D0E9451
:101690005D0D82EA91E00E944B0D20E030E040E0D9
:1016A00052E4C701B6010E94EC1126E838E34EE08F
:1016B0005FE30E94BD1342E00E94B90D0E945D0DE0
:1016C0000E945D0D3FCD20E030E04AEA52E4C301C4
:1016D000B2010E94B81318160CF481CFBACF80E083
:1016E00090E02C960FB6F894DEBF0FBECDBFDF9111
:1016F000CF911F91FF90EF90DF90CF90BF90AF9070
:101700009F908F907F906F905F904F9008958F92F1
:101710009F92AF92BF92CF92DF92EF92FF92CF93C0
:10172000DF93A0916F03882311F03A2F01C030E0BE
:101730008091700390E0880F991F8F569F4FC09043
:101740007503D0907603E0907703F090780340E043
:1017500050E0BA01FC01C591D49128812A232313BA
:101760000FC04A015B012FEF821A920AA20AB20A45
:101770004C155D056E057F0538F4B501A401EACF6F
:10178000342F252FCB0104C030E020E080E090E032
:10179000632F722FDF91CF91FF90EF90DF90CF906A
:1017A000BF90AF909F908F900895CF92DF92EF926D
:1017B000FF920F931F93CF93DF936C017A018B01FC
:1017C000C0E0D0E0CE15DF0589F0D8016D918D0124
:1017D000D601ED91FC910190F081E02DC6010995B3
:1017E000892B11F47E0102C02196ECCFC701DF9155
:1017F000CF911F910F91FF90EF90DF90CF900895C0
:10180000FC01538D448D252F30E0842F90E0821B06
:10181000930B541710F0CF96089501970895FC018B
:10182000918D828D981761F0828DDF01A80FB11D17
:101830005D968C91928D9F5F9F73928F90E008953B
:101840008FEF9FEF0895FC01918D828D981731F0F5
:10185000828DE80FF11D858D90E008958FEF9FEF49
:101860000895FC01918D228D892F90E0805C9F4F1F
:10187000821B91098F739927089588EB92E00E944B
:10188000310C21E0892B09F420E0822F0895FC011E
:10189000848DDF01A80FB11DA35ABF4F2C91848DF9
:1018A00090E001968F739927848FA689B7892C932E
:1018B000A089B1898C9180648C93938D848D9813C9
:1018C00006C00288F389E02D80818F7D8083089592
:1018D000EF92FF920F931F93CF93DF93EC0181E080
:1018E000888F9B8D8C8D981305C0E889F98980813C
:1018F00085FD24C0F62E0B8D10E00F5F1F4F0F7378
:101900001127E02E8C8DE8120CC00FB607FCFACF21
:10191000E889F989808185FFF5CFCE010E94470CC7
:10192000F1CF8B8DFE01E80FF11DE35AFF4FF082DE
:101930000B8FEA89FB898081806207C0EE89FF896D
:101940006083E889F98980818064808381E090E008
:10195000DF91CF911F910F91FF90EF900895CF935A
:10196000DF93EC01888D8823C9F0EA89FB898081A7
:1019700085FD05C0A889B9898C9186FD0FC00FB679
:1019800007FCF5CF808185FFF2CFA889B9898C91BA
:1019900085FFEDCFCE010E94470CE7CFDF91CF91BD
:1019A000089580E090E0892B29F00E943D0C811180
:1019B0000C9400000895382F2091B7029091B60240
:1019C000213208F049C0809193028111FCCF42E09E
:1019D00040939302309392023FEF30939102109222
:1019E000900220938F02A6E9B2E04FE652E0FA019E
:1019F0003E2F341B321718F43D913193F9CF1092DA
:101A00006E0220916E02990F922B90936E0290912C
:101A10006D02913061F410926D0290916E0290937C
:101A2000BB009091BC0093FDF8CF95EC01C095EE02
:101A30009093BC00909193029230E1F390919102C7
:101A40009F3F79F080919102803241F08091910224
:101A5000803331F084E005C081E003C082E001C042
:101A600083E0109295021092B702109294020895AA
:101A70009091610321E0209394029093B60210921A
:101A800095021092B702682F85E593E00E948001CD
:101A900081E00C94DB0C009769F0FC0101900020C0
:101AA000E9F73197AF01481B590BBC0188EB92E075
:101AB0000C94D50B80E090E0089588EB91E00C94B5
:101AC0004B0DCF93DF930E944B0DEC010E945D0DF7
:101AD0008C0F9D1FDF91CF9108958F929F92AF92AF
:101AE000BF920F931F93CF93DF93CDB7DEB7A1972C
:101AF0000FB6F894DEBF0FBECDBF19A2423008F476
:101B00004AE08E010F5D1F4F842E912CA12CB12C29
:101B1000A50194010E949E14E62FB901CA0101504B
:101B20001109EA3014F4E05D01C0E95CD801EC93DE
:101B3000232B242B252B61F7C8010E944B0DA19666
:101B40000FB6F894DEBF0FBECDBFDF91CF911F91CE
:101B50000F91BF90AF909F908F900895E091B80241
:101B6000F091B9020190F081E02D682F88EB92E0AE
:101B700009944F925F926F927F928F929F92AF9251
:101B8000BF92CF92DF92EF92FF926B017C01B42E55
:101B90009B01AC010E947014882319F08BEB91E03B
:101BA00027C026013701E89477F82FEF3FEF4FE782
:101BB0005FE7C301B2010E94701481110DC02FEFC5
:101BC0003FEF4FE75FE7C301B2010E9459121816B9
:101BD0001CF48FEB91E00CC02FEF3FEF4FE75FE479
:101BE000C701B6010E94B813181684F483EC91E083
:101BF000FF90EF90DF90CF90BF90AF909F908F902D
:101C00007F906F905F904F900C944B0D2FEF3FEFB4
:101C10004FE75FECC701B6010E94591287FDE6CF7E
:101C200020E030E0A901C701B6010E94591287FFE8
:101C300009C08DE20E94AE0D4C01F7FAF094F7F85E
:101C4000F09402C0812C912CA12C60E070E080E027
:101C50009FE3AB1441F020E030E040E251E40E9409
:101C60005E12A394F6CF9B01AC01C701B6010E949E
:101C7000ED112B013C010E94D7126B017C010E94E7
:101C800006139B01AC01C301B2010E94EC112B01B0
:101C90003C014AE0C701B6010E946D0D7C01E80CD1
:101CA000F91CBB2029F08EE20E94AE0DE80EF91E51
:101CB000DB2CDD2021F120E030E040E251E4C301E3
:101CC000B2010E94BD132B013C010E94D7124B01AF
:101CD000A12CB12C4AE0C501B4010E946D0DE80EA3
:101CE000F91EC501B4010E9406139B01AC01C3019A
:101CF000B2010E94EC112B013C01DA94DACFC7014A
:101D0000FF90EF90DF90CF90BF90AF909F908F901B
:101D10007F906F905F904F900895CF93DF9342E054
:101D20000E94B90DEC010E945D0D8C0F9D1FDF918B
:101D3000CF910895CF92DF92EF92FF920F931F936E
:101D4000CF93DF93CDB7DEB7C054D1400FB6F89430
:101D5000DEBF0FBECDBF0E945B02009171031091E8
:101D6000720320917303309174036B017C01C01ADC
:101D7000D10AE20AF30A40EDC41647E0D406E104B2
:101D8000F10418F480917903BCC0609371037093DF
:101D90007203809373039093740310926C031092F8
:101DA0006B0310926A03109269031092680361E05A
:101DB00080916D030E94B5016AEF70E080E090E0D1
:101DC0000E94210261E080916D030E94E50160E0C4
:101DD00080916D030E94B50164E170E080E090E0C5
:101DE0000E942102F89461E080916D030E94B50188
:101DF0008BE990E00197F1F762E080916D030E941A
:101E0000E50183E290E00197F1F780E00E94870B03
:101E1000672B682B692B21F41092790378943EC0CC
:101E200081E00E94870B672B682B692BA9F38E0139
:101E30000F5F1F4F6E018FEBC81A8EEFD80A780123
:101E400080E00E94870BF701608371838283938314
:101E500081E00E94870BF7016483758386839783F3
:101E6000F8E0EF0EF11CEC14FD0451F7789420E03B
:101E700030E0F8014081518162817381C480D58056
:101E8000E680F780411551056105710529F0C114FF
:101E9000D104E104F10421F41092790380E031C00F
:101EA000F90183E0F595E7958A95E1F7E859FC4F4C
:101EB0008081880F4C155D056E057F0508F48160F3
:101EC00080832F5F3F4F085F1F4F2832310589F60F
:101ED00020916C0330E0409168038091690390E0A9
:101EE000840F911D40916A03840F911D40916B03F3
:101EF000840F911D99272817390771F681E0809387
:101F00007903C05CDE4F0FB6F894DEBF0FBECDBFC5
:101F1000DF91CF911F910F91FF90EF90DF90CF90C5
:101F2000089590910001981324C0E0E9F0E0E49155
:101F30009FEF90930001E130B9F098F0E230C9F4DE
:101F4000909170009D7F9093700091E09093B0000D
:101F50009091B100987F94609093B1001092B3007B
:101F600008C010926E0005C090916F009D7F909305
:101F70006F0060E00C94B5011F920F920FB60F92A4
:101F800011242F933F934F935F936F937F938F937E
:101F90009F93AF93BF93EF93FF93809169029091CA
:101FA0006A02A0916B02B0916C02892B8A2B8B2B59
:101FB00051F180916802E0916602F0916702908190
:101FC000892780838091690290916A02A0916B02B7
:101FD000B0916C02181619061A061B06C4F48091FB
:101FE000690290916A02A0916B02B0916C02019714
:101FF000A109B1098093690290936A02A0936B02D0
:10200000B0936C0204C0809100010E94910FFF9177
:10201000EF91BF91AF919F918F917F916F915F9160
:102020004F913F912F910F900FBE0F901F901895D9
:102030001F920F920FB60F9211242F933F934F933D
:102040005F936F937F938F939F93AF93BF93EF9320
:10205000FF9388EB92E00E94470CFF91EF91BF91B4
:10206000AF919F918F917F916F915F914F913F9130
:102070002F910F900FBE0F901F9018951F920F92E7
:102080000FB60F9211242F938F939F93EF93FF938B
:10209000E091C802F091C9028081E091CE02F091F6
:1020A000CF0282FD12C090818091D1028F5F8F7329
:1020B0002091D202821751F0E091D102F0E0E85471
:1020C000FD4F958F8093D10201C08081FF91EF91E8
:1020D0009F918F912F910F900FBE0F901F90189589
:1020E000E8EBF2E01382128288EE93E0A0E0B0E029
:1020F00084839583A683B78329E131E031832083EC
:1021000025EC30E03587248724EC30E037872687BC
:1021100020EC30E0318B208B21EC30E0338B228BB4
:1021200022EC30E0358B248B26EC30E0378B268B8D
:10213000118E128E138E148EE5E5F3E01382128257
:1021400084839583A683B7838BE291E09183808318
:10215000E1E6F3E083E2808380E1828385E48183AA
:1021600080E190E096838583A8E6B3E089E0159648
:102170008C9315978BE016968C931697E8EBF0E00E
:10218000E4911796EC931797E4EAF0E0E49118963F
:10219000EC93189740E85EE360E070E01D964D9385
:1021A0005D936D937C9350970895789484B5826085
:1021B00084BD84B5816084BD85B5826085BD85B5EB
:1021C000816085BD80916E00816080936E00109269
:1021D00081008091810082608093810080918100E4
:1021E0008160809381008091800081608093800075
:1021F0008091B10084608093B1008091B0008160D3
:102200008093B00080917A00846080937A008091FE
:102210007A00826080937A0080917A008160809356
:102220007A0080917A00806880937A001092C100D1
:10223000E091C802F091C90282E08083E091C4027B
:10224000F091C5021082E091C602F091C7028FECB6
:1022500080831092D002E091CC02F091CD0286E012
:102260008083E091CA02F091CB02808180618083FB
:10227000E091CA02F091CB02808188608083E09176
:10228000CA02F091CB02808180688083E091CA020B
:10229000F091CB0280818F7D808310924702109253
:1022A000460262E080916D030E94E50180E398EFB1
:1022B000AFEFBFEF8093710390937203A09373030A
:1022C000B093740360E082E00E94E50161E08BE07E
:1022D0000E94E50110924D0210924C0261E08AE0EA
:1022E0000E94E501109253021092520260E081E1D7
:1022F0000E94E501109259021092580261E084E0B8
:102300000E94E50160E084E00E94B50161E084E0A4
:102310000E94E50160E084E00E94B50110925F0236
:1023200010925E02109295021092B70210929302E0
:10233000C1E0C093920210926D0261E082E10E94BE
:10234000B50161E083E10E94B5018091B9008E7F03
:102350008093B9008091B9008D7F8093B90088E4A3
:102360008093B80085E48093BC00C093940283E21C
:102370008093B602109295021092B7028091660384
:10238000982F91608D7F8160813111F0813219F435
:102390009093630303C080E18093630380916303A0
:1023A0000E94380D8EEF8093620387E40E94380DFF
:1023B0008EE70E94380D10926102109260020E9416
:1023C00085080E94C3050E94DF030E947B050E94CE
:1023D00080040E94D10CF3CF5058BB27AA270E943B
:1023E00004120C947E130E94701338F00E9477132D
:1023F00020F039F49F3F19F426F40C946D130EF479
:10240000E095E7FB0C946713E92F0E948F1358F3B4
:10241000BA17620773078407950720F079F4A6F5C9
:102420000C94B1130EF4E0950B2EBA2FA02D0B01D6
:10243000B90190010C01CA01A0011124FF27591B09
:1024400099F0593F50F4503E68F11A16F040A22F0F
:10245000232F342F4427585FF3CF46953795279580
:10246000A795F0405395C9F77EF41F16BA0B620B7F
:10247000730B840BBAF09150A1F0FF0FBB1F661FC6
:10248000771F881FC2F70EC0BA0F621F731F841F09
:1024900048F4879577956795B795F7959E3F08F02F
:1024A000B0CF9395880F08F09927EE0F97958795F1
:1024B00008950E94431308F481E008950E94721267
:1024C0000C947E130E94771358F00E94701340F012
:1024D00029F45F3F29F00C94671351110C94B21347
:1024E0000C946D130E948F1368F39923B1F3552355
:1024F00091F3951B550BBB27AA2762177307840717
:1025000038F09F5F5F4F220F331F441FAA1FA9F3AC
:1025100035D00E2E3AF0E0E832D091505040E6959A
:10252000001CCAF72BD0FE2F29D0660F771F881FFB
:10253000BB1F261737074807AB07B0E809F0BB0BEE
:10254000802DBF01FF2793585F4F3AF09E3F510502
:1025500078F00C9467130C94B2135F3FE4F3983E49
:10256000D4F3869577956795B795F7959F5FC9F7EB
:10257000880F911D9695879597F90895E1E0660F6C
:10258000771F881FBB1F621773078407BA0720F0E5
:10259000621B730B840BBA0BEE1F88F7E09508954E
:1025A0000E94D7126894B1110C94B21308950E943E
:1025B000971388F09F5798F0B92F9927B751B0F02B
:1025C000E1F0660F771F881F991F1AF0BA95C9F7B7
:1025D00014C0B13091F00E94B113B1E008950C9491
:1025E000B113672F782F8827B85F39F0B93FCCF344
:1025F000869577956795B395D9F73EF49095809534
:10260000709561957F4F8F4F9F4F0895E89409C053
:1026100097FB3EF490958095709561957F4F8F4F15
:102620009F4F9923A9F0F92F96E9BB279395F6952B
:10263000879577956795B795F111F8CFFAF4BB0FA9
:1026400011F460FF1BC06F5F7F4F8F4F9F4F16C00D
:10265000882311F096E911C0772321F09EE8872F97
:10266000762F05C0662371F096E8862F70E060E053
:102670002AF09A95660F771F881FDAF7880F9695CC
:10268000879597F90895990F0008550FAA0BE0E870
:10269000FEEF16161706E807F907C0F01216130624
:1026A000E407F50798F0621B730B840B950B39F464
:1026B0000A2661F0232B242B252B21F408950A26CA
:1026C00009F4A140A6958FEF811D811D089597F90A
:1026D0009F6780E870E060E008959FEF80EC0895C8
:1026E00000240A94161617061806090608950024F1
:1026F0000A9412161306140605060895092E03946B
:10270000000C11F4882352F0BB0F40F4BF2B11F4DE
:1027100060FF04C06F5F7F4F8F4F9F4F089557FD3D
:102720009058440F551F59F05F3F71F04795880F3F
:1027300097FB991F61F09F3F79F0879508951216D6
:1027400013061406551FF2CF4695F1DF08C0161682
:1027500017061806991FF1CF869571056105089433
:102760000895E894BB2766277727CB0197F908954A
:102770000E94431308F48FEF08950E94D0130C9425
:102780007E130E94701338F00E94771320F0952377
:1027900011F00C9467130C946D1311240C94B21364
:1027A0000E948F1370F3959FC1F3950F50E0551F52
:1027B000629FF001729FBB27F00DB11D639FAA2796
:1027C000F00DB11DAA1F649F6627B00DA11D661FE5
:1027D000829F2227B00DA11D621F739FB00DA11D06
:1027E000621F839FA00D611D221F749F3327A00DC0
:1027F000611D231F849F600D211D822F762F6A2F5C
:1028000011249F5750409AF0F1F088234AF0EE0FC0
:10281000FF1FBB1F661F771F881F91505040A9F7ED
:102820009E3F510580F00C9467130C94B2135F3FE8
:10283000E4F3983ED4F3869577956795B795F79529
:10284000E7959F5FC1F7FE2B880F911D96958795A1
:1028500097F9089519F416F40C946D130C947514EB
:102860000E949713B8F39923C9F3B6F39F57550BFA
:1028700087FF0E9483140024A0E640EA900180585C
:102880005695979528F4805C660F771F881F20F077
:1028900026173707480730F4621B730B840B202977
:1028A00031294A2BA69517940794202531254A27CC
:1028B00058F7660F771F881F20F02617370748073D
:1028C00030F4620B730B840B200D311D411DA0955C
:1028D00081F7B901842F9158880F969587950895AF
:1028E0000E944313880B990B08959F3F31F091503C
:1028F00020F4879577956795B795880F911D9695E4
:10290000879597F9089591505040660F771F881F5B
:10291000D2F7089597FB072E16F4009407D077FDA1
:1029200009D00E94E61407FC05D03EF490958195ED
:102930009F4F0895709561957F4F0895A1E21A2EDB
:10294000AA1BBB1BFD010DC0AA1FBB1FEE1FFF1F53
:10295000A217B307E407F50720F0A21BB30BE40BA3
:10296000F50B661F771F881F991F1A9469F76095EA
:102970007095809590959B01AC01BD01CF010895A4
:10298000052E97FB1EF400940E94D71457FD07D024
:102990000E949E1407FC03D04EF40C94D71450955B
:1029A0004095309521953F4F4F4F5F4F089590953B
:1029B0008095709561957F4F8F4F9F4F08950E942E
:1029C0000015B7FF0895821B930B0895AA1BBB1B2C
:1029D00051E107C0AA1FBB1FA617B70710F0A61B1F
:1029E000B70B881F991F5A95A9F780959095BC0140
:1029F000CD010895EE0FFF1F0590F491E02D09948D
:102A0000A29FB001B39FC001A39F700D811D11242F
:102A1000911DB29F700D811D1124911D089581E0BB
:0C2A200090E0F8940C941415F894FFCF8B
:102A2C00FF0601C400C400DC00C400080008000458
:102A3C00000400080000000000680CD50B000CAF6F
:102A4C000C310C0F0C230C0000000080015001B065
:102A5C000124014801340125015261772053696733
:102A6C006E616C2056616C75652028302D313032CA
:102A7C0033293A00566F6C746167653A004475737C
:102A8C00742044656E736974793A00206C78200068
:102A9C00736F6C69642068756D6964697479203A28
:102AAC00200048756D69646974793A20002025000E
:102ABC0054656D70657261747572653A2000202AD8
:102ACC0043004865617420696E6465783A2000B6ED
:102ADC00C1C8A1CAA7B0DC000D0A006E616E006906
:082AEC006E66006F76660000C3
:00000001FF
