:100000000C945C000C9479000C9479000C947900A9
:100010000C9479000C9479000C9479000C9479007C
:100020000C9479000C9479000C9479000C9479006C
:100030000C9479000C9479000C9479000C9479005C
:100040000C946F010C9479000C9479000C94790055
:100050000C9479000C9479000C9479000C9479003C
:100060000C9479000C947900000000080002010053
:100070000003040700000000000000000000000072
:10008000250028002B0000000000240027002A0083
:10009000040404040404040402020202020203032E
:1000A0000303030301020408102040800102040836
:1000B000102001020408102011241FBECFEFD8E049
:1000C000DEBFCDBF23E0A6E0B3E001C01D92AF309C
:1000D000B207E1F713E0A0E0B1E0E6ECF6E002C021
:1000E00005900D92A630B107D9F70E94B9010C9482
:1000F00061030C94000090E0FC01EC55FF4F24914B
:10010000FC01E057FF4F8491882399F090E0880F1D
:10011000991FFC01EA57FF4FA591B491FC01E458E7
:10012000FF4F859194918FB7F894EC91E22BEC936B
:100130008FBF089590E0FC01E859FF4F3491FC0116
:10014000EC55FF4F2491FC01E057FF4FE491EE2363
:1001500009F43BC0332339F1333091F038F43130B6
:10016000A9F0323001F584B58F7D12C0373091F09F
:100170003830A1F03430B9F4809180008F7D03C015
:10018000809180008F77809380000DC084B58F7739
:1001900084BD09C08091B0008F7703C08091B0000A
:1001A0008F7D8093B000F0E0EE0FFF1FE458FF4F0B
:1001B000A591B4918FB7F894EC91611103C020958B
:1001C0002E2301C02E2B2C938FBF08953FB7F89498
:1001D00080910B0390910C03A0910D03B0910E033D
:1001E00026B5A89B05C02F3F19F00196A11DB11D92
:1001F0003FBFBA2FA92F982F8827820F911DA11DCD
:10020000B11DBC01CD0142E0660F771F881F991F09
:100210004A95D1F708950F931F93CF93DF93062F3D
:10022000682F85E00E949A0060E086E00E949A00B4
:10023000C7E0D0E010E0B8010C2E02C075956795BC
:100240000A94E2F76170772784E00E949A0061E0E7
:1002500083E00E949A0060E083E00E949A00219768
:1002600050F761E086E0DF91CF911F910F910C94E0
:100270009A00EF92FF920F931F93CF93DF931F92F9
:10028000CDB7DEB7182F60E081E099830E940B01A3
:10029000E12E9981F92E8701005F1F4FF7016191CF
:1002A0007F0181E00E940B01E016F106B9F760E0E2
:1002B00081E00F90DF91CF911F910F91FF90EF9010
:1002C0000C940B01CF93C62F682F606880E00E94CA
:1002D0000B016C2F606480E0CF910C940B011F9296
:1002E0000F920FB60F9211242F933F938F939F93EA
:1002F000AF93BF938091070390910803A0910903E6
:10030000B0910A033091060323E0230F2D3720F428
:100310000196A11DB11D05C026E8230F0296A11D5F
:10032000B11D209306038093070390930803A093C5
:100330000903B0930A0380910B0390910C03A091E1
:100340000D03B0910E030196A11DB11D80930B0307
:1003500090930C03A0930D03B0930E03BF91AF9144
:100360009F918F913F912F910F900FBE0F901F90F3
:100370001895789484B5826084BD84B5816084BD0D
:1003800085B5826085BD85B5816085BD80916E0033
:10039000816080936E001092810080918100826064
:1003A00080938100809181008160809381008091A1
:1003B00080008160809380008091B1008460809390
:1003C000B1008091B00081608093B00080917A008C
:1003D000846080937A0080917A00826080937A00B2
:1003E00080917A00816080937A0080917A008068A1
:1003F00080937A001092C10086E00E947B0087E023
:100400000E947B0085E00E947B0084E00E947B00CC
:1004100083E00E947B0060E087E00E949A0061E038
:1004200087E00E949A0061E280E00E940B016FEB7E
:1004300080E00E940B0164E080E00E940B0160E11B
:1004400080E00E940B016CE080E00E940B0160E202
:1004500080E00E940B016CE080E00E940B0108EF3D
:1004600011E060E081E00E940B0101501109C9F721
:1004700000E010E060E070E0C8010E94620161E00D
:1004800081E00E940B010F5F1F4F0435110591F7AA
:1004900000E010E065E070E0C8010E94620160E8E1
:1004A00081E00E940B010F5F1F4F0435110591F78A
:1004B00000E010E0B80183E590E00E9462016FEF78
:1004C00081E00E940B010F5F1F4F0630110591F76D
:1004D00000E010E0B80180E090E00E9462016FEF60
:1004E00081E00E940B010F5F1F4F0630110591F74D
:1004F00000E010E060E070E080E090E00E946201C7
:1005000080E191E00E94390161E070E080E090E0DC
:100510000E94620180E091E00E94390160E070E099
:1005200080E190E00E94620180E191E00E94390147
:1005300061E070E080E190E00E94620180E091E083
:100540000E94390160E070E080E290E00E94620168
:1005500080E191E00E94390161E070E080E290E08A
:100560000E94620180E091E00E94390160E070E049
:1005700080E390E00E94620180E191E00E943901F5
:1005800061E070E080E390E00E94620180E091E031
:100590000E94390160E070E080E490E00E94620116
:1005A00080E191E00E94390161E070E080E490E038
:1005B0000E94620180E091E00E94390162E070E0F7
:1005C00080E090E00E94620180E191E00E943901A8
:1005D00063E070E080E090E00E94620180E091E0E2
:1005E0000E94390164E070E080E090E00E946201C6
:1005F00080E191E00E94390165E070E080E090E0E8
:100600000E94620180E091E00E94390164E070E0A4
:1006100080E290E00E94620190E0A92E93E0B92E62
:10062000F501C1915F01CC23F9F060E081E00E9407
:100630000B0125E0C20270011124C12CD12CF6015E
:10064000EE0DFF1DE058FF4F608181E00E940B011D
:100650008FEFC81AD80AE5E0CE16D10481F760E022
:1006600081E00E940B01DCCF0E94E6004B015C019F
:1006700088ECC82ED12CE12CF12C0E94E600DC0184
:10068000CB0188199909AA09BB09883E9340A105A5
:10069000B10558F0F1E0CF1AD108E108F10828EED1
:1006A000820E23E0921EA11CB11CC114D104E104EE
:1006B000F10419F70115110509F41CCF0E9400007F
:0606C00019CFF894FFCFF2
:1006C600080804442A1281FC01122A64040C04005E
:1006D600088A4A2AFE29499048271C44847E040039
:1006E600000000000000005F000000070007001483
:1006F6007F147F14242A7F2A122313086462364942
:100706005522500005030000001C22410000412232
:100716001C0014083E081408083E08080050300063
:10072600000808080808006060000020100804029D
:100736003E5149453E00427F4000426151494621B3
:1007460041454B311814127F1027454545393C4A1F
:10075600494930017109050336494949360649496F
:10076600291E0036360000005636000008142241C5
:10077600001414141414004122140802015109062D
:10078600324979413E7E1111117E7F494949363EF3
:10079600414141227F4141221C7F494949417F090C
:1007A6000909013E4149497A7F0808087F00417FCF
:1007B60041002040413F017F081422417F404040D4
:1007C600407F020C027F7F0408107F3E4141413E7C
:1007D6007F090909063E4151215E7F0919294646CE
:1007E6004949493101017F01013F4040403F1F20F7
:1007F60040201F3F4038403F6314081463070870C9
:1008060008076151494543007F4141000204081031
:10081600200041417F000402010204404040404064
:10082600000102040020545454787F484444383868
:1008360044444420384444487F3854545418087E6D
:100846000901020C5252523E7F0804047800447D8E
:1008560040002040443D007F1028440000417F4076
:10086600007C041804787C0804047838444444382E
:100876007C14141408081414187C7C080404084812
:1008860054545420043F4440203C4040207C1C20CB
:1008960040201C3C4030403C44281028440C50501A
:1008A600503C4464544C44000836410000007F002C
:1008B600000041360800100808100800060909065D
:0608C60048454C4C4F00B8
:107E0000112484B714BE81FFF0D085E080938100F7
:107E100082E08093C00088E18093C10086E0809377
:107E2000C20080E18093C4008EE0C9D0259A86E02C
:107E300020E33CEF91E0309385002093840096BBD3
:107E4000B09BFECF1D9AA8958150A9F7CC24DD24C4
:107E500088248394B5E0AB2EA1E19A2EF3E0BF2EE7
:107E6000A2D0813461F49FD0082FAFD0023811F036
:107E7000013811F484E001C083E08DD089C08234E0
:107E800011F484E103C0853419F485E0A6D080C0E4
:107E9000853579F488D0E82EFF2485D0082F10E0AE
:107EA000102F00270E291F29000F111F8ED06801E7
:107EB0006FC0863521F484E090D080E0DECF843638
:107EC00009F040C070D06FD0082F6DD080E0C81688
:107ED00080E7D80618F4F601B7BEE895C0E0D1E017
:107EE00062D089930C17E1F7F0E0CF16F0E7DF06D8
:107EF00018F0F601B7BEE89568D007B600FCFDCFD4
:107F0000A601A0E0B1E02C9130E011968C91119780
:107F100090E0982F8827822B932B1296FA010C0160
:107F200087BEE89511244E5F5F4FF1E0A038BF0790
:107F300051F7F601A7BEE89507B600FCFDCF97BE46
:107F4000E89526C08437B1F42ED02DD0F82E2BD052
:107F50003CD0F601EF2C8F010F5F1F4F84911BD097
:107F6000EA94F801C1F70894C11CD11CFA94CF0C13
:107F7000D11C0EC0853739F428D08EE10CD085E9AC
:107F80000AD08FE07ACF813511F488E018D01DD067
:107F900080E101D065CF982F8091C00085FFFCCF94
:107FA0009093C60008958091C00087FFFCCF809118
:107FB000C00084FD01C0A8958091C6000895E0E648
:107FC000F0E098E1908380830895EDDF803219F02E
:107FD00088E0F5DFFFCF84E1DECF1F93182FE3DFCA
:107FE0001150E9F7F2DF1F91089580E0E8DFEE27F6
:047FF000FF270994CA
:027FFE00040479
:0400000300007E007B
:00000001FF