:100000000C9462000C948A000C948A000C948A0070
:100010000C948A000C948A000C948A000C9466025A
:100020000C948A000C948A000C948A000C948A0028
:100030000C948A000C948A000C948A000C948A0018
:100040000C941C020C948A000C94EA010C94C401D8
:100050000C948A000C948A000C948A000C948A00F8
:100060000C948A000C948A000000000025002800EF
:100070002B0000000000240027002A0004040404D0
:100080000404040402020202020203030303030342
:10009000010204081020408001020408102001021F
:1000A00004081020000000002300260029000000A2
:1000B0000008000201000003040700000000000027
:1000C0000000BD0B11241FBECFEFD8E0DEBFCDBFB7
:1000D00011E0A0E0B1E0E0E7FDE102C005900D9283
:1000E000A631B107D9F722E0A6E1B1E001C01D9227
:1000F000AF39B207E1F710E0C2E6D0E004C02197C3
:10010000FE010E949C0EC136D107C9F70E942E0441
:100110000C94B60E0C940000089580E090E00895D1
:10012000FC01538D448D252F30E0842F90E0821BFD
:10013000930B541710F0CF96089501970895FC0182
:10014000918D828D981761F0828DDF01A80FB11D0E
:100150005D968C91928D9F5F9F73928F90E0089532
:100160008FEF9FEF0895FC01918D828D981731F0EC
:10017000828DE80FF11D858D90E008958FEF9FEF40
:100180000895FC01918D228D892F90E0805C9F4F16
:10019000821B91098F73992708958FE291E00E9445
:1001A000C10021E0892B09F420E0822F0895FC0191
:1001B000848DDF01A80FB11DA35ABF4F2C91848DF0
:1001C00090E001968F739927848FA689B7892C9325
:1001D000A089B1898C9180648C93938D848D9813C0
:1001E00006C00288F389E02D80818F7D8083089589
:1001F000EF92FF920F931F93CF93DF93EC0181E077
:10020000888F9B8D8C8D981305C0E889F989808132
:1002100085FD24C0F62E0B8D10E00F5F1F4F0F736E
:100220001127E02E8C8DE8120CC00FB607FCFACF18
:10023000E889F989808185FFF5CFCE010E94D7003A
:10024000F1CF8B8DFE01E80FF11DE35AFF4FF082D5
:100250000B8FEA89FB898081806207C0EE89FF8964
:100260006083E889F98980818064808381E090E0FF
:10027000DF91CF911F910F91FF90EF900895CF9351
:10028000DF93EC01888D8823C9F0EA89FB8980819E
:1002900085FD05C0A889B9898C9186FD0FC00FB670
:1002A00007FCF5CF808185FFF2CFA889B9898C91B1
:1002B00085FFEDCFCE010E94D700E7CFDF91CF9130
:1002C000089580E090E0892B29F00E94CD008111F3
:1002D0000C9400000895833081F028F4813099F067
:1002E0008230A1F008958730A9F08830B9F08430C9
:1002F000D1F4809180008F7D03C0809180008F7742
:1003000080938000089584B58F7702C084B58F7D77
:1003100084BD08958091B0008F7703C08091B000B4
:100320008F7D8093B00008951F93CF93DF93282F84
:1003300030E0F901E255FF4F8491F901E057FF4F9A
:10034000D491F901E458FF4FC491CC23C9F0162F82
:1003500081110E946B01EC2FF0E0EE0FFF1FE859B6
:10036000FF4FA591B4918FB7F894111105C09C91DE
:10037000ED2FE095E92302C0EC91ED2BEC938FBFBC
:10038000DF91CF911F9108951F920F920FB60F9298
:1003900011242F933F934F935F936F937F938F938A
:1003A0009F93AF93BF93EF93FF938FE291E00E94EF
:1003B000D700FF91EF91BF91AF919F918F917F9166
:1003C0006F915F914F913F912F910F900FBE0F90C2
:1003D0001F9018951F920F920FB60F9211242F9312
:1003E0008F939F93EF93FF93E0913F01F091400132
:1003F0008081E0914501F091460182FD12C090811B
:10040000809148018F5F8F7320914901821751F0CD
:10041000E0914801F0E0E15DFE4F958F8093480147
:1004200001C08081FF91EF919F918F912F910F904B
:100430000FBE0F901F9018951F920F920FB60F923C
:1004400011242F933F938F939F93AF93BF938091EA
:100450001B0190911C01A0911D01B0911E013091D2
:100460001A0123E0230F2D3720F40196A11DB11DA1
:1004700005C026E8230F0296A11DB11D20931A0185
:1004800080931B0190931C01A0931D01B0931E014A
:100490008091160190911701A0911801B091190156
:1004A0000196A11DB11D8093160190931701A09391
:1004B0001801B0931901BF91AF919F918F913F9116
:1004C0002F910F900FBE0F901F9018951F920F92B3
:1004D0000FB60F9211242F933F934F935F936F9317
:1004E0007F938F939F93AF93BF93CF93DF93EF93BC
:1004F000FF932091CD0130E0F901E255FF4F849147
:10050000F901E057FF4FD491F901E458FF4FC4912E
:10051000CC23A1F081110E946B01EC2FF0E0EE0FD3
:10052000FF1FEC55FF4FA591B491EC91ED2331E005
:1005300020E009F430E0832F922F02C080E090E0A9
:100540002091D1013091D2012F5F3F4F3093D201E2
:100550002093D1012091D001253618F026E0209378
:10056000CC012091CC012430D9F128F4223069F05B
:100570002330D9F060C0253009F453C0263009F08B
:100580005AC021E020939D0253C0009709F053C048
:100590002091D1013091D2012436310508F443C0B5
:1005A00010929D021092D0011DC08130910509F07A
:1005B00042C0E091D00121E02E0F2093D001F0E065
:1005C0002091D1013091D201EE0FFF1FE453FE4F75
:1005D000308727831092D2011092D10124E029C0E4
:1005E0000097B9F4E091D00121E02E0F2093D001C3
:1005F000F0E02091D1013091D201EE0FFF1FE453C2
:10060000FE4F308727831092D2011092D10123E050
:1006100010C02091D1013091D2012536310558F01A
:1006200007C0009741F41092D2011092D10103C08B
:1006300025E02093CC012091CF012223B9F0892B12
:1006400051F48091CE01882321F08091CE0161E0A8
:1006500009C02D9A0BC08091CE01882331F0809182
:10066000CE0160E00E94940101C02D98FF91EF91AE
:10067000DF91CF91BF91AF919F918F917F916F91BA
:100680005F914F913F912F910F900FBE0F901F9050
:100690001895CF92DF92EF92FF92CF93DF93EC0108
:1006A000072E000C880B990B0E940B0D6B017C012F
:1006B00020E030E040E45FE30E94BB0D20E030E04A
:1006C00048E452E40E94610C0E94D30CC617D7077D
:1006D000D4F020E030E040EA5FE3C701B6010E94B9
:1006E000BB0D20E030E048E452E40E94610C20E0C1
:1006F00030E040E85FE30E94F00B0E94D30C21E061
:100700006C177D070CF420E0822F90E0DF91CF91F1
:10071000FF90EF90DF90CF900895CF92DF92EF920D
:10072000FF920F931F93CF93DF936C017A018B019C
:10073000C0E0D0E0CE15DF0589F0D8016D918D01C4
:10074000D601ED91FC910190F081E02DC601099553
:10075000892B11F47E0102C02196ECCFC701DF91F5
:10076000CF911F910F91FF90EF90DF90CF90089560
:100770000E94B10E8F929F92AF92BF92CF92DF9262
:10078000EF92FF920F931F93CF93DF93FC01C081F1
:10079000D18120912B0130912C01C217D3070CF08D
:1007A0004BC09E01220F331FE0912901F0912A01D5
:1007B000E20FF31F80809180C170DD27F1E0CF2729
:1007C000209719F404E610E002C00CE91FEF7A014B
:1007D0005B016C01040F151FB801C4010E9449039D
:1007E000892B99F40E0D1F1DB801C4010E94490305
:1007F000892B71F4B8016E0D7F1DC4010E9449035D
:10080000892BE9F023E030E005C021E030E002C0B0
:1008100022E030E0F50180819181019682179307F3
:100820003CF0F50111821082F601808191810196E0
:1008300091838083CE0105C081E090E002C08FEFFC
:100840009FEFDF91CF911F910F91FF90EF90DF907D
:10085000CF90BF90AF909F908F900895CF93DF93EC
:10086000CDB7DEB7AB970FB6F894DEBF0FBECDBFE6
:10087000789484B5826084BD84B5816084BD85B57B
:10088000826085BD85B5816085BD80916E00816087
:1008900080936E001092810080918100826080932D
:1008A000810080918100816080938100809180002F
:1008B0008160809380008091B10084608093B1005A
:1008C0008091B00081608093B00080917A00846054
:1008D00080937A0080917A00826080937A00809180
:1008E0007A00816080937A0080917A00806880939A
:1008F0007A001092C100E0913F01F091400182E046
:100900008083E0913B01F0913C011082E0913D0138
:10091000F0913E0190E1908310924701E0914301F4
:10092000F091440196E09083E0914101F091420101
:10093000908190619083E0914101F091420190811A
:1009400098609083E0914101F0914201908190681C
:100950009083E0914101F091420190819F7D9083CD
:10096000F8948093B0008093B10094E69093B30024
:100970001092B2008093700078948093CC01109212
:10098000D0018091CD0190E0FC01E057FF4F249110
:10099000FC01E458FF4F84918823C9F090E0880F50
:1009A000991FFC01EE58FF4F45915491FC01E85905
:1009B000FF4FA591B4919FB7F894FA0180812095DB
:1009C000822380838C91E22FE823EC939FBF10E277
:1009D000212E312C44244A94542C320123ED31E051
:1009E00030932A01209329018091D00190E09093C7
:1009F0002C0180932B0180919D0290E090932E0119
:100A000080932D018091CC01853009F07EC28091C8
:100A1000D5019091D601885891098D35910588F4BA
:100A20008091D001843041F48091D7019091D80118
:100A30008097479708F485C28091D001843408F0EC
:100A400067C28091D0018A3108F44FC08091D301F0
:100A50009091D401843F914068F410922801109243
:100A60002701409223015092240160922501709247
:100A7000260159C08091D5019091D60185974B9759
:100A8000A0F5E9EDF1E082E090E0C12CD12C7601F7
:100A9000AC014F5F5F4F2091D00130E04217530708
:100AA0005CF4DF0112972D913C91275031092730DA
:100AB000310508F490C2CA010197959587959093E6
:100AC0002801809327010C972CF410922801109292
:100AD00027010BC0C0922301D0922401E09225018E
:100AE000F092260184E090E04BC38091D0018A31DE
:100AF00008F44CC08091D3019091D401803293408E
:100B000008F4ABCF8091D5019091D601C697869716
:100B100008F47EC23BC0C0922301D0922401E0922F
:100B20002501F09226018BE090E02AC320813181DB
:100B3000255231092B31310508F07AC2CC0CDD1C6D
:100B4000EE1CFF1C6894C0F802963496AC014F5F0F
:100B50005F4F2091D00130E04217530754F4DF017A
:100B600012972D913C912C5031092B303105F0F228
:100B7000CA01019795958795909328018093270145
:100B80000C974CF610922801109227018091D00109
:100B9000823208F44DC08091D5019091D60106971C
:100BA000079708F045C0E9EDF1E082E090E0C12C44
:100BB000D12C76019C012F5F3F4F4091D00150E036
:100BC00024173507E4F4DF0112974D915C911197DA
:100BD0004E5151094731510508F037C2CC0CDD1C8C
:100BE000EE1CFF1C6894C0F840815181349643503C
:100BF00051094530510510F40296DCCFC901019727
:100C000095958795909328018093270140972CF420
:100C100010922801109227010BC0C0922301D0929C
:100C20002401E0922501F09226018CE090E0A8C218
:100C30001BA21AA281E090E09A8389838091D0015F
:100C40008D3008F46BC049E753E0BE016E5D7F4F05
:100C5000CE0101960E94BA03892B09F05FC049E7D3
:100C600053E0BE016E5D7F4FCE0101960E94BA0334
:100C7000019709F053C049E753E0BE016E5D7F4F15
:100C8000CE0101960E94BA03892B09F047C0812C3E
:100C9000912C540100E010E08091D00190E0298176
:100CA0003A81281739075CF549E753E0BE016E5DCC
:100CB0007F4FCE0101960E94BA037C0149E753E0C1
:100CC000BE016E5D7F4FCE0101960E94BA03E1E046
:100CD000EE16F10449F4892B09F5880C991CAA1C1D
:100CE000BB1C689480F808C0EF28C1F40197B1F4E8
:100CF000880C991CAA1CBB1C0F5F1F4FCDCF1093F3
:100D00002801009327018092230190922401A09250
:100D10002501B092260181E090E032C21BA21AA206
:100D200081E090E09A83898380912B0190912C013E
:100D3000181619060CF058C0E0912901F0912A010B
:100D400082E090E09A8389838281938189974E978C
:100D500008F04AC023E030E03A83298384819581FA
:100D60000B970A9708F040C04CEB51E0BE016E5D56
:100D70007F4FCE0101960E94BA03892BA9F54CEB57
:100D800051E0BE016E5D7F4FCE0101960E94BA0315
:100D9000019751F5812C912C540100E010E029813C
:100DA0003A8180912B0190912C01281739070CF082
:100DB0008FC14CEB51E0BE016E5D7F4FCE010196BD
:100DC0000E94BA036C010330110509F04BC14CEBD2
:100DD00051E0BE016E5D7F4FCE0101960E94BA03C5
:100DE000C816D90609F43EC1E0912901F0912A0103
:100DF00082819381C697869708F088C18481958106
:100E00004B97459708F082C1DF0116967F0136ECBB
:100E1000E30EF11C20E030E040E050E060E070E0E4
:100E200080E090E0CD90DC90119719E0C11AD108D4
:100E300018E0C116D10408F069C11296CD90DC907B
:100E4000139711E1C11AD1081DE0C116D10408F0B1
:100E50004EC101E00E94650E21601496AE15BF05DB
:100E600009F72093230130932401409325015093E7
:100E7000260100E20E94800E20932101309322017E
:100E800085E090E09093200180931F0180E390E043
:100E90009093280180932701209123013091240110
:100EA000409125015091260119A28E010F5D1F4F1F
:100EB000CA01B9012AE030E040E050E00E94380E5B
:100EC000605DD8016E938D012115310541055105F5
:100ED00079F7109769F0FD0101900020E9F731974B
:100EE000AF014A1B5B0BBD018FE291E00E948D03B5
:100EF00042E050E062E171E08FE291E00E948D03F8
:100F000082E08093CC011092D0010E94610166CDF5
:100F10008091D7019091D801825491098E9708F061
:100F200090CD80E090E040E050E0BA01FC01E75253
:100F3000FE4F208131812950310929303105E0F0FF
:100F400080CD8091D9019091DA010997099708F035
:100F500073CD1092280110922701409223015092E4
:100F600024016092250170922601E3E0F0E0F09305
:100F70002001E0931F0190CFFC01E552FE4F20813C
:100F800031812751310922313105C0F4440F551FF9
:100F9000661F771F416004968038910539F63092BC
:100FA000280120922701409323015093240160934C
:100FB00025017093260183E090E0E2C02081318119
:100FC000265031092730310508F03BCD440F551F1D
:100FD000661F771FE0CF20813181235131092F30E7
:100FE000310548F4CC0CDD1CEE1CFF1C6894C0F8E5
:100FF000029634964DCD208131812A503109293015
:10100000310508F072CDCC0CDD1CEE1CFF1CF0CFBE
:101010008091D7019091D801C697869708F0B6CDF8
:10102000EBEDF1E083E090E0C12CD12C76018ECD88
:10103000208131812C5031092A30310508F0A6CDAC
:10104000CC0CDD1CEE1CFF1C7FCD4D915C914C50F7
:1010500051094B30510508F0EBCDCC0CDD1CEE1CDA
:10106000FF1CC2CD4CEB51E0BE016E5D7F4FCE0147
:1010700001960E94BA037C010330110569F44CEB20
:1010800051E0BE016E5D7F4FCE0101960E94BA0312
:10109000E816F90609F0A8CEC114D10459F4EA946F
:1010A000EF2809F0A1CE880C991CAA1CBB1C6894DF
:1010B00080F80BC0CA94CD2809F096CEEF2809F02D
:1010C00093CE880C991CAA1CBB1C0F5F1F4F67CEC8
:1010D000109328010093270180922301909224010C
:1010E000A0922501B092260182E090E049C01296BC
:1010F000CD90DC90139714E0C11AD10815E0C11609
:10110000D10420F401E00E94650EA7CE8091D001A9
:10111000893340F082819381895791098335910504
:1011200008F449C18091D001823279F182819381A2
:10113000895791098335910508F4B8C1828193815B
:101140008C549109C59768F58091D001843021F5C0
:101150008481958180974797F8F4868197810997D4
:101160000997D0F410922801109227014092230190
:1011700050922401609225017092260187E090E050
:101180009093200180931F0187CE828193810A97DB
:10119000099708F46FC1CACF8091D001843408F058
:1011A000EAC18091D001863460F1828193810C97ED
:1011B0000B9708F42EC225C0D90112966D917C912F
:1011C00013976E5171096731710508F058C2D70144
:1011D000C601880F991FAA1FBB1F6C017D0168946F
:1011E000C0F84E5F5F4F2C5F3F4F4534510509F407
:1011F0002BC2D9016D917C916C5071096B307105D6
:10120000D8F28091D001883580F182819381855810
:1012100091098B35910508F442C227C0BC016F5F6C
:101220007F4FD8014D915C9111974750510947303C
:10123000510508F043C2220F331F216002960C5F54
:101240001F4F4091D00150E0445051098417950739
:101250000CF03CC2A80142505109DA014D915C9159
:101260004950510948305105C8F28091D00180326F
:10127000E1F48281938106970697B8F48481958181
:101280000997099790F49F012A5F3F4FBF01625C65
:101290007F4FC12CD12C7601D9014D915C914650E4
:1012A00051094630510508F42DC220912B0130918F
:1012B0002C013FA32EA3263031050CF421CE8F0143
:1012C0000A5F1F4F95ECC92E9DE9D92E9CE1E92EAE
:1012D00091E8F92E83E090E09DA38CA3D8016D9155
:1012E0007C91F8013497A080B18080E090E00E946A
:1012F000090D68A779A78AA79BA7B50180E090E0B0
:101300000E94090D4B015C012DEC3CEC4CE45FE3C9
:101310000E94BB0D9B01AC0168A579A58AA59BA580
:101320000E945C0C87FD19C02DEC3CEC4CE45FE3A3
:1013300068A579A58AA59BA50E94BB0D9B01AC0160
:10134000C501B4010E945C0CE82F880FFF0BEE274B
:10135000FF0FEE1FFF27319602C0E0E0F0E0A7018B
:10136000960163E971E080E091E00E94280E6F0130
:10137000FF0FEE08FF08C626D726E826F926ECA1BF
:10138000FDA13196FDA3ECA30E5F1F4F2EA13FA13F
:10139000E217F30709F0A2CFC0922301D0922401F3
:1013A000E0922501F0922601309228012092270137
:1013B0008FEF9FEFE5CE84819581CA97899708F0DA
:1013C000B1CE9F012A5F3F4FC12CD12C760143E063
:1013D00050E0D9016D917C916A50710969307105B5
:1013E00008F0A0CED90112966D917C9113976651A9
:1013F00071096131710570F5D701C601880F991F18
:10140000AA1FBB1F6C017D016894C0F84E5F5F4F3F
:101410002C5F3F4F4B335105E1F69F012A583F4F58
:10142000D9012D913C912A5031092930310508F01C
:1014300079CE2CE130E03093280120932701C0922F
:101440002301D0922401E0922501F09226018AE046
:1014500090E096CED90112966D917C9113976650CB
:1014600071096730710508F05DCECC0CDD1CEE1CF7
:10147000FF1CCCCF2091D001CF01820F911D820F94
:10148000911DDC0112978D919C910A97099708F0A4
:101490004DCE1092280110922701409223015092C4
:1014A0002401609225017092260162C08091D001D2
:1014B000813208F443CE84819581CA97899708F0D8
:1014C0003DCE9F012A5F3F4FC12CD12C760143E0D6
:1014D00050E0D9016D917C916A50710969307105B4
:1014E00008F02CCED90112966D917C91139766511C
:1014F00071096131710560F5D701C601880F991F27
:10150000AA1FBB1F6C017D016894C0F84E5F5F4F3E
:101510002C5F3F4F43325105E1F69F012A5B3F4F5D
:10152000D9012D913C912A5031092930310508F01B
:1015300005CE20E130E03093280120932701C092AE
:101540002301D0922401E0922501F092260110C0DF
:10155000D90112966D917C9113976650710967308D
:10156000710508F0EBCDCC0CDD1CEE1CFF1CCECFC2
:1015700086E090E005CE8481958189549109C397D6
:1015800008F00FCE9F012A5F3F4FBF016A577F4F80
:10159000C12CD12C7601D9014D915C914950510952
:1015A0004930510508F0FDCDD90112964D915C915D
:1015B0001397465151094131510500F112964D9151
:1015C0005C911397465051094730510508F0E9CD19
:1015D000CC0CDD1CEE1CFF1C2C5F3F4F2617370781
:1015E000D1F63092280120922701C0922301D09297
:1015F0002401E0922501F0922601C0CDD701C60159
:10160000880F991FAA1FBB1F6C017D016894C0F849
:10161000E3CF848195810997099708F0F2CD8681FF
:1016200097818C974F9708F0ECCD808591858997AD
:101630004D9708F0E6CD9F01265F3F4FC12CD12C7E
:10164000760145E050E0D5CD9F0126573F4FD901A7
:101650002D913C912C5031092B30310508F0D1CD22
:101660003092280120922701C0922301D0922401B8
:10167000E0922501F092260188E090E081CDD90129
:1016800012966D917C9113976950710969307105BB
:1016900008F0B7CDCC0CDD1CEE1CFF1CA2CD848164
:1016A0009581825491098E9708F0DFCD8F01045CFB
:1016B0001F4F8DE190E020E030E0C3CD4D915C9173
:1016C0004851510942315105D0F0CB010197959510
:1016D000879590932801809327018A970CF4C5CDB4
:1016E000C901330FAA0BBB0B8093230190932401F4
:1016F000A0932501B093260189E090E041CD220F0F
:10170000331F9CCDD90112964D915C91139749518D
:1017100051094331510508F5D701C601880F991FBA
:10172000AA1FBB1F6C017D016894C0F82C5F3F4F5E
:101730002617370709F0B0CD2EE030E030932801AE
:1017400020932701C0922301D0922401E092250129
:10175000F09226018FE090E013CDD90112964D91C1
:101760005C911397495051094930510508F09DCDBE
:10177000CC0CDD1CEE1CFF1CD9CFEFE2F1E0138294
:10178000128288EE93E0A0E0B0E084839583A68384
:10179000B78384E091E09183808385EC90E0958726
:1017A000848784EC90E09787868780EC90E0918B2B
:1017B000808B81EC90E0938B828B82EC90E0958B18
:1017C000848B86EC90E0978B868B118E128E138E15
:1017D000148EECECF1E089E0818313820895505877
:1017E000BB27AA270E94070C0C94810D0E94730D41
:1017F00038F00E947A0D20F039F49F3F19F426F456
:101800000C94700D0EF4E095E7FB0C946A0DE92F33
:101810000E94920D58F3BA17620773078407950761
:1018200020F079F4A6F50C94B40D0EF4E0950B2E8F
:10183000BA2FA02D0B01B90190010C01CA01A00122
:101840001124FF27591B99F0593F50F4503E68F17D
:101850001A16F040A22F232F342F4427585FF3CFBE
:10186000469537952795A795F0405395C9F77EF48F
:101870001F16BA0B620B730B840BBAF09150A1F0D8
:10188000FF0FBB1F661F771F881FC2F70EC0BA0F5E
:10189000621F731F841F48F4879577956795B795E6
:1018A000F7959E3F08F0B0CF9395880F08F09927E1
:1018B000EE0F9795879508950E94460D08F481E0F4
:1018C00008950E94750C0C94810D0E947A0D58F0B9
:1018D0000E94730D40F029F45F3F29F00C946A0DCB
:1018E00051110C94B50D0C94700D0E94920D68F37B
:1018F0009923B1F3552391F3951B550BBB27AA27C9
:1019000062177307840738F09F5F5F4F220F331F02
:10191000441FAA1FA9F335D00E2E3AF0E0E832D0CA
:1019200091505040E695001CCAF72BD0FE2F29D0CD
:10193000660F771F881FBB1F261737074807AB079F
:10194000B0E809F0BB0B802DBF01FF2793585F4F14
:101950003AF09E3F510578F00C946A0D0C94B50D49
:101960005F3FE4F3983ED4F3869577956795B795F6
:10197000F7959F5FC9F7880F911D9695879597F901
:101980000895E1E0660F771F881FBB1F621773077A
:101990008407BA0720F0621B730B840BBA0BEE1F8F
:1019A00088F7E09508950E94DA0C6894B1110C94C0
:1019B000B50D08950E949A0D88F09F5798F0B92FA1
:1019C0009927B751B0F0E1F0660F771F881F991F74
:1019D0001AF0BA95C9F714C0B13091F00E94B40D55
:1019E000B1E008950C94B40D672F782F8827B85F65
:1019F00039F0B93FCCF3869577956795B395D9F7CC
:101A00003EF490958095709561957F4F8F4F9F4FD5
:101A10000895E89409C097FB3EF4909580957095E1
:101A200061957F4F8F4F9F4F9923A9F0F92F96E92A
:101A3000BB279395F695879577956795B795F1119F
:101A4000F8CFFAF4BB0F11F460FF1BC06F5F7F4F3C
:101A50008F4F9F4F16C0882311F096E911C077234E
:101A600021F09EE8872F762F05C0662371F096E857
:101A7000862F70E060E02AF09A95660F771F881F26
:101A8000DAF7880F9695879597F90895990F0008CA
:101A9000550FAA0BE0E8FEEF16161706E807F90740
:101AA000C0F012161306E407F50798F0621B730BDB
:101AB000840B950B39F40A2661F0232B242B252B5C
:101AC00021F408950A2609F4A140A6958FEF811DFF
:101AD000811D089597F99F6780E870E060E00895A0
:101AE0009FEF80EC089500240A9416161706180636
:101AF0000906089500240A94121613061406050612
:101B00000895092E0394000C11F4882352F0BB0FA2
:101B100040F4BF2B11F460FF04C06F5F7F4F8F4F05
:101B20009F4F089557FD9058440F551F59F05F3F40
:101B300071F04795880F97FB991F61F09F3F79F0EF
:101B400087950895121613061406551FF2CF469571
:101B5000F1DF08C0161617061806991FF1CF8695F3
:101B60007105610508940895E894BB2766277727D7
:101B7000CB0197F908950E94CE0D0C94810D0E941F
:101B8000730D38F00E947A0D20F0952311F00C941B
:101B90006A0D0C94700D11240C94B50D0E94920DD9
:101BA00070F3959FC1F3950F50E0551F629FF001B0
:101BB000729FBB27F00DB11D639FAA27F00DB11DC9
:101BC000AA1F649F6627B00DA11D661F829F222752
:101BD000B00DA11D621F739FB00DA11D621F839FD9
:101BE000A00D611D221F749F3327A00D611D231FAF
:101BF000849F600D211D822F762F6A2F11249F57FD
:101C000050409AF0F1F088234AF0EE0FFF1FBB1FFF
:101C1000661F771F881F91505040A9F79E3F5105BE
:101C200080F00C946A0D0C94B50D5F3FE4F3983E80
:101C3000D4F3869577956795B795F795E7959F5F68
:101C4000C1F7FE2B880F911D9695879597F90895FA
:101C5000DB018F939F930E945A0EBF91AF91A29F79
:101C6000800D911DA39F900DB29F900D112408959A
:101C7000A1E21A2EAA1BBB1BFD010DC0AA1FBB1F90
:101C8000EE1FFF1FA217B307E407F50720F0A21B02
:101C9000B30BE40BF50B661F771F881F991F1A946F
:101CA00069F760957095809590959B01AC01BD0199
:101CB000CF0108950E94A20EA59F900DB49F900D94
:101CC000A49F800D911D112408950F93083090F06A
:101CD000982F872F762F652F542F432F322F2227AF
:101CE0000850F4CF220F331F441F551F661F771F64
:101CF000881F991F0A95B2F70F91089597FB10F866
:101D0000169400080F93083098F00850232F342FB2
:101D1000452F562F672F782F892F902DF4CF0594BC
:101D20009795879577956795579547953795279513
:101D30000A95AAF70F910895EE0FFF1F0590F491F1
:101D4000E02D0994A29FB001B39FC001A39F700D25
:101D5000811D1124911DB29F700D811D1124911DB3
:101D6000089581E090E0F8940C94B60EF894FFCFBB
:101D700000000000F8008D0390003F01C1009F00AB
:061D8000B3000D0A000093
:107E0000112484B714BE81FFF0D085E080938100F7
:107E100082E08093C00088E18093C10086E0809377
:107E2000C20080E18093C4008EE0C9D0259A86E02C
:107E300020E33CEF91E0309385002093840096BBD3
:107E4000B09BFECF1D9AA8958150A9F7CC24DD24C4
:107E500088248394B5E0AB2EA1E19A2EF3E0BF2EE7
:107E6000A2D0813461F49FD0082FAFD0023811F036
:107E7000013811F484E001C083E08DD089C08234E0
:107E800011F484E103C0853419F485E0A6D080C0E4
:107E9000853579F488D0E82EFF2485D0082F10E0AE
:107EA000102F00270E291F29000F111F8ED06801E7
:107EB0006FC0863521F484E090D080E0DECF843638
:107EC00009F040C070D06FD0082F6DD080E0C81688
:107ED00080E7D80618F4F601B7BEE895C0E0D1E017
:107EE00062D089930C17E1F7F0E0CF16F0E7DF06D8
:107EF00018F0F601B7BEE89568D007B600FCFDCFD4
:107F0000A601A0E0B1E02C9130E011968C91119780
:107F100090E0982F8827822B932B1296FA010C0160
:107F200087BEE89511244E5F5F4FF1E0A038BF0790
:107F300051F7F601A7BEE89507B600FCFDCF97BE46
:107F4000E89526C08437B1F42ED02DD0F82E2BD052
:107F50003CD0F601EF2C8F010F5F1F4F84911BD097
:107F6000EA94F801C1F70894C11CD11CFA94CF0C13
:107F7000D11C0EC0853739F428D08EE10CD085E9AC
:107F80000AD08FE07ACF813511F488E018D01DD067
:107F900080E101D065CF982F8091C00085FFFCCF94
:107FA0009093C60008958091C00087FFFCCF809118
:107FB000C00084FD01C0A8958091C6000895E0E648
:107FC000F0E098E1908380830895EDDF803219F02E
:107FD00088E0F5DFFFCF84E1DECF1F93182FE3DFCA
:107FE0001150E9F7F2DF1F91089580E0E8DFEE27F6
:047FF000FF270994CA
:027FFE00040479
:0400000300007E007B
:00000001FF