:100000000C946E020C9496020C9496020C94960238
:100010000C9496020C9496020C9496020C94B81AC6
:100020000C9496020C9496020C9496020C949602F0
:100030000C9496020C9496020C9496020C949602E0
:100040000C946E1A0C9496020C943C190C9416198C
:100050000C9496020C9496020C9496020C949602C0
:100060000C94330E0C9496023F3F02015109060096
:1000700000050041417C1211127C00000500424243
:100080007F494949360000050043433E4141412232
:100090000000050044447F4141413E000005004509
:1000A000457F494949410000050046467F09090945
:1000B000010000050047473E4149493A000005005C
:1000C00048487F0808087F0000050049497F000074
:1000D0000000000001004A4A304040403F00000557
:1000E000004B4B7F08081463000005004C4C7F4018
:1000F000404040000005004D4D7F060C067F00008B
:1001000005004E4E7F0408107F000005004F4F3E53
:100110004141413E0000050050507F090909060099
:1001200000050051513E4151617E000005005252D0
:100130007F091929460000050053532649494932D1
:1001400000000500545401017F0101000005005525
:10015000553F4040403F0000050056561F204020BC
:100160001F0000050057573F4038403F0000050082
:1001700058586314081463000005005959070870A3
:100180000807000005005A5A61514945430000051F
:10019000002D2D08080808080000050021215F0037
:1001A000000000000001002E2E40000000000000B2
:1001B0000100313142427F4040000005003232628E
:1001C00051494542000005003333224149493E0070
:1001D00000050034341F107C101000000500353578
:1001E0004F494949310000050036363E49494932F8
:1001F00000000500373701017905030000050038CC
:1002000038364949493600000500393926494949F7
:100210003E0000050030303E4141413E00000500F7
:100220002B2B08083E0808000005003A3A36360035
:100230000000000002003D3D1414141414000005D9
:100240000020200000000000000002006161205436
:100250005454780000050062627F50505020000026
:1002600005006363384444442800000500646420AA
:100270005050507F000005006565385454544800C4
:100280000005006666087E09010200000500676738
:1002900048545454380000050068687F0808087006
:1002A000000005006969447D400000000003006A09
:1002B0006A2040443D00000004006B6B7F10102852
:1002C00044000005006C6C417F400000000003000A
:1002D0006D6D7C047C0478000005006E6E7C040467
:1002E0000478000005006F6F38444444380000056E
:1002F0000070707C1414140800000500717108145B
:1003000014147C0000050072727C080404040000D0
:10031000050073734854545424000005007474029B
:100320003F4240000000040075753C4040207C00C6
:1003300000050076761C2040201C00000500777721
:100340007C2070207C000005007878442810284428
:100350000000050079794C5050503C000005007AAF
:100360007A4464544C44000005005B5B7F414100CB
:1003700000000003005D5D41417F000000000300BC
:100380007B7B0808364141000005007D7D414136F8
:1003900008080000050028281C2241000000000376
:1003A00000292941221C00000000030040403E417A
:1003B0005D551E000005002323143E143E1400006A
:1003C000050024242C2A7F2A12000005002525265A
:1003D00016083432000005005E5E040201020400CB
:1003E0000005005F5F4040404040000005002727B7
:1003F00007000000000000010022220700070000A3
:10040000000003003B3B4076360000000003002F55
:100410002F2010080402000005005C5C0204081094
:1004200020000005003C3C102844000000000300B0
:100430003E3E4428100000000003002A2A120C3F10
:100440000C120000050060600102000000000002C4
:10045000007E7E0201010302020107002626304AC7
:10046000452A10280006000A0A00000000000000CB
:1004700000000D0D00000000000000000004040456
:10048000040404040402020202020203030303033D
:10049000030102040810204080010204081020011A
:1004A000020408102000000000240027002A000099
:1004B000000000250028002B00000000002300267B
:1004C00000290000000008000201000003040700EA
:1004D0000000000000000000C41B5C1F11241FBEB0
:1004E000CFEFD8E0DEBFCDBF26E0A6ECB3E001C081
:1004F0001D92A936B207E1F713E0A0E0B1E0ECE30A
:10050000F6E402C005900D92A63CB107D9F712E0BF
:10051000CDE6D2E004C02197FE010E94D021CC3666
:10052000D107C9F70E94C21E0C9411230C9400003D
:10053000CF93DF93EC01E881F9810284F385E02D0C
:100540000995E881F9810684F785E02DCE01DF91D8
:10055000CF910994CF93DF93EC01E881F981048076
:10056000F581E02D0995E881F9810680F781E02D7C
:10057000CE010995E881F9810084F185E02DCE0155
:10058000DF91CF910994FC01838194810895FC014E
:100590008281089521E3FC012283089522E3FC0176
:1005A0002283089523E3FC012283089524E3FC01C0
:1005B0002283089523E3FC012283089522E3FC01B2
:1005C00022830895CF93DF93EC01E881F9810190B4
:1005D000F081E02DCE0109951816190644F4E88142
:1005E000F9810684F785E02DCE010995EECFDF91E4
:1005F000CF910895DC011496ED91FC9115971C960E
:100600008C911C97882361F01A962D913C911B9731
:10061000621773072CF01896ED91FC9119970AC098
:1006200020E030E007C03097C9F00280F381E02D70
:100630002F5F3F4F26173707B4F32617370771F49C
:1006400081E01C968C931C971B963C932E931A97D3
:100650001996FC93EE931897CF01089580E090E0EF
:1006600008950E94FA02009721F0FC018081918197
:10067000089580E090E00895CF93DF9377FD0EC05A
:10068000FC01228133816217730744F4EA010E945E
:10069000FA02FC01D183C08381E001C080E0DF91D8
:1006A000CF910895FC018281938108958091B905CD
:1006B0009091BA05DC01ED91FC910488F589E02D5B
:1006C00040E350E009948091B9059091BA05DC01AE
:1006D000ED91FC910488F589E02D0994FC0183815A
:1006E00094810895FC018281089521E3FC01228315
:1006F000089522E3FC012283089523E3FC01228371
:10070000089522E3FC0122830895CF93DF93EC0147
:100710008F819885DC01ED91FC910488F589E02DAD
:100720000995CE01DF91CF910C94AA02CF93DF936C
:10073000EC018F819885DC01ED91FC910488F589AD
:10074000E02D0995CE01DF91CF910C94AA02089576
:1007500080E090E00895EF92FF920F931F93CF9364
:10076000DF938C01C0E0D0E07C0183E0E80EF11C57
:10077000F80125813681C217D3076CF4BE01C70189
:100780000E94F20FDC01ED91FC910084F185E02DD7
:1007900009952196EDCF82E38283DF91CF911F915E
:1007A0000F91FF90EF9008958C0183E3D80112968A
:1007B0008C937801B3E0EB0EF11CC0E0D0E0F801BF
:1007C00085819681C817D907C4F7BE01C7010E9469
:1007D000F20FDC01ED91FC910680F781E02D099587
:1007E0002196EDCFEF92FF920F931F93CF93DF935C
:1007F0008C01C0E0D0E07C0183E0E80EF11CF80140
:1008000025813681C217D3076CF4BE01C7010E944F
:10081000F20FDC01ED91FC910480F581E02D09954A
:100820002196EDCF82E38283DF91CF911F910F91CB
:10083000FF90EF9008950C946B220F931F93CF932A
:10084000DF93EC0188E591E0998388838E010D5F49
:100850001F4F2D813E81121613067CF460E070E07C
:10086000C8010E94EF110097A1F3DC01ED91FC910A
:100870000280F381E02D0995ECCF80E491E09C8328
:100880008B838F819885009741F0FC012281338111
:1008900038872F830E946B22F4CFDF91CF911F9175
:1008A0000F910895CF93DF93EC010E941D04CE01B8
:1008B000DF91CF910C946B22EF92FF920F931F93D5
:1008C000CF93DF93FC01628173811616170664F5DE
:1008D000EC01148661307105C1F0625071090E940B
:1008E000FA027C01FC0182819381FC01008111816B
:1008F0000E946B22F70113821282FF82EE828A81AC
:100900009B8101979B838A830DC084819581FC0123
:10091000008111810E946B221D821C821F821E8217
:100920001B821A82C80102C080E090E0DF91CF9163
:100930001F910F91FF90EF900895EF92FF920F9308
:100940001F93CF93DF93DC0112962D913C91139767
:100950001216130624F521303105A1F0EC01EC81CB
:10096000FD81E280F38000811181CF010E946B2222
:10097000FD82EC828A819B8101979B838A831C86FE
:10098000C8010FC0DC01ED91FC910484F585E02DD8
:10099000DF91CF911F910F91FF90EF90099480E02C
:1009A00090E0DF91CF911F910F91FF90EF9008950C
:1009B0000F931F93CF93DF9377FD3EC0DC01129618
:1009C0002D913C91139762177307B4F5611571056A
:1009D00031F4ED91FC910684F785E02D0BC0215098
:1009E00031096217730759F4DC01ED91FC9104841D
:1009F000F585E02DDF91CF911F910F910994EC01C6
:100A0000615071090E94FA02DC011296ED91FC918D
:100A10001397008111812281338113963C932E9389
:100A20001297CF010E946B228A819B8101979B8341
:100A30008A831C86C80102C080E090E0DF91CF91DC
:100A40001F910F9108950C946B220C946B220C94BF
:100A50006B220C946B220C946B220C946B220C94E2
:100A60006B220C946B22EF92FF920F931F93CF9304
:100A7000DF93DC0112960D911C911397011511055E
:100A800061F4ED91FC910480F581E02DDF91CF912F
:100A90001F910F91FF90EF9009947B01EC0184E08E
:100AA00090E00E94D6212C813D81FC01338322837A
:100AB000F182E0829D838C830F5F1F4F1B830A832B
:100AC0001C8681E0DF91CF911F910F91FF90EF90F5
:100AD0000895CF92DF92EF92FF920F931F93CF93DF
:100AE000DF939B01BA01DC0112964D915C91139743
:100AF0002417350734F0ED91FC910480F581E02D49
:100B000009C02115310579F4DC01ED91FC910680D5
:100B1000F781E02DDF91CF911F910F91FF90EF9022
:100B2000DF90CF9009947B01E9018C0184E090E093
:100B30000E94D6216C01FC01118210821382128264
:100B4000BE0161507109C8010E94FA02D6011196D6
:100B5000FC92EE92FC012281338113963C932E93FA
:100B60001297D382C282D80112968D919C911397CD
:100B7000019613969C938E9312971C961C9281E07B
:100B8000DF91CF911F910F91FF90EF90DF90CF9069
:100B900008950F931F93CF93DF93EC018B0184E0B3
:100BA00090E00E94D621FC011382128211830083FF
:100BB0002C813D81232B29F0EE81FF819383828359
:100BC00002C09D838C839F838E838A819B81019643
:100BD0009B838A831C8681E0DF91CF911F910F91C7
:100BE0000895EF92FF920F931F93CF93DF937C01B1
:100BF0008B0184E090E00E94D621EC01D8018D9118
:100C00009C91998388830E94D6219B838A8320E0CC
:100C100030E0888199812817390780F4D80112962D
:100C2000ED91FC911397E20FF31F8081EA81FB8124
:100C3000E20FF31F80832F5F3F4FEBCFBE01C70151
:100C40000596DF91CF911F910F91FF90EF900C943B
:100C5000C905F89482E08093B0008093B10094E6D7
:100C60009093B3001092B200809370007894E2EDFC
:100C7000F4E080831482818160E00C94C719CF93E3
:100C8000DF93EC010E94AA0262E08A850E94C719E4
:100C900080E398EFAFEFBFEF8E879F87A88BB98B6C
:100CA000DF91CF910895CF92DF92EF92FF92CF9391
:100CB000DF93FC01C781D085CE0105960E94BF1647
:100CC000882381F18B858B3031F160F18551823041
:100CD00048F56D8170E080E090E00E948E1F20E07A
:100CE00030E040E853E40E94EF1F6B017C018E81ED
:100CF000682F70E080E090E00E94901F9B01AC01A3
:100D0000C701B6010E94AE202DEC3CEC4CEC5DE33B
:100D10000E94EF1F0BC06D8170E080E090E00E94A8
:100D20008E1F04C060E070E080EC9FE7DF91CF9100
:100D3000FF90EF90DF90CF9008954F925F926F9267
:100D40007F928F929F92AF92BF92CF92DF92EF925B
:100D5000FF92CF93DF93CDB7DEB728970FB6F89405
:100D6000DEBF0FBECDBF5C01FC018781908505967B
:100D70000E94B5176B017C01F5018781908505966E
:100D80000E94B5174B015C0126E636E646EE5FE3AE
:100D9000C701B6010E94EF1F20E030E040E052E4BE
:100DA0000E94AE206B017C0120E030E044E752E479
:100DB0000E94AE202B013C0120E030E048E852E4E4
:100DC000C701B6010E94AD202AE939E949E95FE38C
:100DD0000E94EF1F9B01AC01C301B2010E94AE2033
:100DE0002B013C0122E133E840EC5DE3C501B40195
:100DF0000E94EF1F9B01AC01C301B2010E94AE2013
:100E000020E030E040E05FE30E94EF1F2B013C0157
:100E100020E030E04EE952E40E94492118160CF01F
:100E200075C1A7019601C701B6010E94EF1F2B01F2
:100E30003C01A5019401C501B4010E94EF1F6D831F
:100E40007E838F83988721E133E243E050E4C7013A
:100E5000B6010E94EF1F29E134E849E252E40E9402
:100E6000AD2069837A838B839C8326E13BE442E255
:100E700051E4C501B4010E94EF1F9B01AC016981DF
:100E80007A818B819C810E94AE2069837A838B83D7
:100E90009C8328E436E246E65EEBC701B6010E9479
:100EA000EF1FA50194010E94EF1F9B01AC01698116
:100EB0007A818B819C810E94AE2069837A838B83A7
:100EC0009C8320EE3FE040EE5BEBC301B2010E9449
:100ED000EF1F9B01AC0169817A818B819C810E940B
:100EE000AE2069837A838B839C8328EF37E840E6C2
:100EF0005DEB6D817E818F8198850E94EF1F9B0144
:100F0000AC0169817A818B819C810E94AE206983CA
:100F10007A838B839C832CEA3DE041EA5AE3C30148
:100F2000B2010E94EF1FA50194010E94EF1F9B01D7
:100F3000AC0169817A818B819C810E94AE2069839A
:100F40007A838B839C8328EC3FE84FE55AE3C70103
:100F5000B6010E94EF1F2D813E814F8158850E946E
:100F6000EF1F9B01AC0169817A818B819C810E947A
:100F7000AE2069837A838B839C8321EF3BE845E035
:100F800056EBC301B2010E94EF1F2D813E814F81BC
:100F900058850E94EF1F9B01AC0169817A818B818A
:100FA0009C810E94AE202B013C0120E030E040E516
:100FB00051E4C501B4010E94891F87FF5CC020E095
:100FC00030E040EA52E4C701B6010E94492187FDA2
:100FD00052C020E030E040EE52E4C701B6010E946A
:100FE000891F18160CF4B5C0A501940160E070E0EB
:100FF00080E591E40E94AD2020E030E040E85EE32F
:101000000E94EF1F4B015C0120E030E04EEB52E408
:10101000C701B6010E94AD206B017C0120E030E0E9
:10102000A9010E94492118164CF4A701960160E01D
:1010300070E088E891E40E94AD2008C020E030E034
:1010400048E851E4C701B6010E94AE202EE33DEE10
:1010500040E75DE30E94EF1F0E9454219B01AC0119
:10106000C501B4010E94EF1F9B01AC01C301B20195
:101070000E94AD2049C020E030E04AEA52E4C501B8
:10108000B4010E94492118160CF040C020E030E065
:1010900040EA52E4C701B6010E94492187FD36C0EB
:1010A00020E030E04EEA52E4C701B6010E94891FF9
:1010B000181664F120E030E04AEA52E4C501B401B8
:1010C0000E94AD202DEC3CEC4CEC5DE30E94EF1F48
:1010D0004B015C01A701960160E070E08EEA92E4AA
:1010E0000E94AD202DEC3CEC4CE45EE30E94EF1F2F
:1010F0009B01AC01C501B4010E94EF1F9B01AC0133
:10110000C301B2010E94AE202B013C0120E030E07F
:1011100040E052E4C301B2010E94AD2026E838E36A
:101120004EE05FE30E94EF1F28960FB6F894DEBFF3
:101130000FBECDBFDF91CF91FF90EF90DF90CF90AA
:10114000BF90AF909F908F907F906F905F904F90E7
:10115000089520E030E04AEA52E4C501B4010E945B
:10116000492118160CF49CCFD1CFCF93DF93EC011B
:1011700089EA93E00E9470168A899B89DC01ED91CF
:10118000FC910488F589E02D09958C899D89DC0105
:10119000ED91FC910488F589E02D099582E38A831D
:1011A0008EEA93E0DF91CF910C9470168F929F920C
:1011B000AF92BF92CF92DF92EF92FF92CF93DF93E5
:1011C000EC0183EB93E00E9470168A899B89DC0115
:1011D000ED91FC91008CF18DE02D09956B017C0166
:1011E0009B01AC010E949421882319F087EB93E0C6
:1011F0001AC046015701E894B7F82FEF3FEF4FE7C9
:101200005FE7C501B4010E94942181110FC02FEF47
:101210003FEF4FE75FE7C501B4010E94891F181631
:101220002CF48BEB93E00E945E1682C02FEF3FEF11
:101230004FE75FE4C701B6010E94492118161CF46C
:101240008FEB93E0F0CF2FEF3FEF4FE75FECC7015D
:10125000B6010E94891F87FDF3CF20E030E0A9018D
:10126000C701B6010E94891F87FF0FC0E0913504B6
:10127000F09136040190F081E02D6DE285E394E079
:101280000995F7FAF094F7F8F0942AE037ED43EA7D
:101290005BE3C701B6010E94AE204B015C010E94D6
:1012A0001A216B017C010E948E1F9B01AC01C501BC
:1012B000B4010E94AD204B015C014AE0C701B601B8
:1012C0000E947E16E0913504F09136040190F08181
:1012D000E02D6EE285E394E0099520E030E040E205
:1012E00051E4C501B4010E94EF1F4B015C010E9453
:1012F0001A216B01E12CF12C4AE0C701B6010E94D2
:101300007E16C701B6010E948E1F9B01AC01C5016C
:10131000B4010E94AD2020E030E040E251E40E94A0
:10132000EF1F0E941A2180E090E04AE00E947E16A2
:1013300083EC93E00E945E168A899B89DC01ED9123
:10134000FC91008CF18DE02D099520E030E0A901A1
:101350000E94891F0C88DD89C02D811107C06E8114
:101360008D810E94971981E08F830AC08E81813020
:1013700011F460E001C061E08D810E9497191F8225
:10138000DF91CF91FF90EF90DF90CF90BF90AF9023
:101390009F908F900895FC0182819381009711F0B6
:1013A0000C946B220895EF92FF920F931F93CF93AB
:1013B000DF9300D000D0CDB7DEB7DB012D913C919B
:1013C00021153105A9F18B017C01C90102969A838F
:1013D00089830E94D6219C838B8321E0FC0120839A
:1013E000118220E030E0F8018081918128173907CF
:1013F00080F4D8011296ED91FC911397E20FF31F40
:101400008081EB81FC81E20FF31F82832F5F3F4FCE
:10141000EACFD701ED91FC910488F589E02DBE015A
:101420006F5F7F4FC7010995CE0101960E94CB09DE
:101430000F900F900F900F90DF91CF911F910F9110
:10144000FF90EF900895EF92FF920F931F93CF9329
:10145000DF93EC0180EC91E0998388837E0185E045
:10146000E80EF11C2F8138851216130674F460E023
:1014700070E0C7010E94D8048C01009799F30E9484
:10148000CB09C8010E946B22EDCF88EA91E09E83D0
:101490008D8389859A85009741F0FC0122813381F3
:1014A0003A8729870E946B22F4CFDF91CF911F9159
:1014B0000F91FF90EF900895CF93DF93EC010E947E
:1014C000230ACE01DF91CF910C946B222BE432E002
:1014D000FC01318320830C94230ACF93DF93EC012A
:1014E0000E94660ACE01DF91CF910C946B22089581
:1014F0000895089508950895089508950895089504
:1015000085ED8093BC008091BC0084FDFCCF1092DF
:101510000F0408954091E903262F30E0240F311D78
:1015200021323105DCF420910F042430C9F4FC0190
:1015300080E090E0861758F43091E9032191DC01B6
:10154000A953BC4FA30FB11D2C930196F3CF8091EB
:10155000E903680F6093E90380E0089581E008954E
:1015600082E0089508958FEF9FEF08958FEF9FEF2A
:1015700008958091C60390E0919581959109089511
:10158000CF93DF9300D0CDB7DEB7CB01642F498373
:101590005A830E948A0A4981842F5A81952F0F907D
:1015A0000F90DF91CF910895CF93DF931F92CDB726
:1015B000DEB7698361E0CE0101960E948A0A81E06C
:1015C00090E00F90DF91CF910895EF92FF920F93EB
:1015D0001F93CF93DF93CDB7DEB7C954D1090FB6B0
:1015E000F894DEBF0FBECDBF8C01DC015396ED90A9
:1015F000FC905497F70186859785009711F00E941B
:101600006B2281E090E0D70151969C938E93509786
:1016100089E490E00E94D621FC0110A6D7011F9614
:101620009C938E931E9785E580831182128213828C
:101630001482158216821782CE010996BF01685F57
:101640007F4F9F01285D3F4FDC014D91CD01DB01B4
:101650004D93BD01A217B307B9F710A6CE018A9624
:10166000DF019996AF01475B5F4FFC012191CF01EC
:101670002D93A417B507C9F7D80153968D919C9166
:101680005497DC01ED91FC910488F589E02D0995D2
:1016900082E3F8018283C75BDF4F0FB6F894DEBFA9
:1016A0000FBECDBFDF91CF911F910F91FF90EF90B3
:1016B00008954F925F926F927F928F929F92AF9216
:1016C000BF92CF92DF92EF92FF920F931F93CF932F
:1016D000DF93CDB7DEB760970FB6F894DEBF0FBECD
:1016E000CDBF7C0185E394E00E94411818161906CD
:1016F000B4F585E394E00E9433188E3F910509F418
:10170000BFC085E394E00E941F18ECCF85E394E00E
:101710000E941F188E3F910509F401C10E94621AB0
:10172000AB01BC01481959096A097B09D801159612
:101730008D919C911697A0E0B0E0481759076A0771
:101740007B0720F3CE0101960E94EF13898181115E
:10175000A4C08A819B81009711F00E946B22F7013F
:1017600087819085181619060CF054C160E070E06E
:10177000C70105960E94D8048C01DC018D919C91D3
:10178000009709F472C0D8011296ED91FC9113975D
:101790004081218130E0322F2227240F311D21305A
:1017A000310569F5059708F460C019821A8285E54C
:1017B0008B838C831D821E8218861986F801808196
:1017C0008A87C080D180C6010E94D6218B879C87E2
:1017D000D80112962D913C911397FC01D901CD01AE
:1017E000821B930B8C159D051CF48D918193F7CF73
:1017F000BE016F5F7F4FF701838994892EC022302D
:10180000310599F5079789F519821A8285E58B8349
:101810008C831D821E8218861986D8018C918A8736
:10182000CD90DC90C6010E94D6218B879C87F80161
:1018300022813381FC01D901CD01821B930B8C15D0
:101840009D051CF48D918193F7CFBE016F5F7F4F93
:10185000D70153968D919C9154970E9408148B85C3
:101860009C85009711F00E946B220115110509F467
:10187000D1C0C8010E94CB09C8010E946B22CAC016
:1018800019821C821D821B821A82F7010389148926
:101890000E94621A4B015C0141CF8C81843409F0B3
:1018A00058CF8D81813809F054CFEA81FB810089BE
:1018B00010E00430110508F44CCF8189428950E0D2
:1018C000542F44276A01C80ED11C025011091E87EB
:1018D0000D87C8010E94D621988B8F8780E090E009
:1018E000EA81FB81E80FF91F2389EF85F889E80F6A
:1018F000F91F208301968017910790F3D701ED918E
:10190000FC910288F389E02DA601BE01635F7F4F41
:10191000C7010995CE010D960E94CB091ACFC801C7
:101920000E94CA138F3FFFEF9F0709F40BCF8983F3
:10193000C8010E94CA138F3FBFEF9B0709F402CF73
:101940008C83C8010E94CA138F3FEFEF9E0709F4F2
:10195000F9CE8D83A980B12CC5010E94D6218A833E
:101960009B834C01C12CD12CCA14DB0498F50E9436
:10197000621A60933D0470933E0480933F049093F9
:101980004004E0913504F09136040284F385E02DA3
:1019900085E394E0099597FF2CC00E94621A40905D
:1019A0003D0450903E0460903F0470904004DC0180
:1019B000CB0184199509A609B709409039045090C4
:1019C0003A0460903B0470903C0484159505A6058C
:1019D000B705B8F289818C11B5CEC8010E94CA132F
:1019E00039819C8193272D8192272A81E22FFB81C7
:1019F00007C0D4018D934D01BFEFCB1ADB0AB4CFE2
:101A00004E2F421B431718F441919427F9CF8913A5
:101A100099CE9CCE60960FB6F894DEBF0FBECDBFB8
:101A2000DF91CF911F910F91FF90EF90DF90CF90BA
:101A3000BF90AF909F908F907F906F905F904F90EE
:101A40000895CF92DF92EF92FF920F931F93CF935F
:101A5000DF93EC01E62E60E08E810E949719DC8412
:101A6000CA8407E010E0F12CB701002E02C0759582
:101A700067950A94E2F7617077278C2D0E94971979
:101A800061E08D2D0E94971960E08D2D0E949719BD
:101A90000150110948F761E08E81DF91CF911F91CC
:101AA0000F91FF90EF90DF90CF900C9497191F93B8
:101AB000CF93DF93EC01162F60E088850E94971981
:101AC000612FCE01DF91CF911F910C94210DEF92E8
:101AD000FF921F93CF93DF931F92CDB7DEB77C01A8
:101AE000162FFC01608B718B4687578760E2498314
:101AF0000E94570D60E8610FC7010E94570D498190
:101B000060E4640FC7010F90DF91CF911F91FF90A8
:101B1000EF900C94570D8F929F92AF92BF92CF92FD
:101B2000DF92EF92FF920F931F93CF93DF93CDB786
:101B3000DEB72B970FB6F894DEBF0FBECDBF8C017A
:101B4000B62E0E966C019AE0691304C0C6010E947D
:101B5000031874C0F8014685578560897189C801EA
:101B60000E94670D61E0F80180850E94971988E660
:101B7000E82E80E0F82E4BE050E0B701CE01019650
:101B80000E94801F8A818B1581F0FBE0EF0EF11C13
:101B90008DE7E81684E0F80671F74BE050E068E660
:101BA00070E0CE0101960E94801FAA84BB84F801D8
:101BB000808991898A0D9B1D8335910580F0C6012E
:101BC0000E940318F8014685578560897189C8010C
:101BD0000E94670D61E0F80180850E9497194E010F
:101BE000F3E08F0E911CE12CF12CEA14FB0451F070
:101BF000F40161914F01C8010E94210DFFEFEF1A1E
:101C0000FF0AF3CF60E0C8010E94210D8FEFE816B4
:101C1000F806A1F0F801208931892F5F3F4F318B01
:101C2000208B2435310530F0C6010E940318F801DD
:101C3000118A108AF1E0EF1AF108E8CF81E090E014
:101C40002B960FB6F894DEBF0FBECDBFDF91CF91BC
:101C50001F910F91FF90EF90DF90CF90BF90AF90CA
:101C60009F908F9008951F920F920FB60F9211249C
:101C70002F933F934F935F936F937F938F939F9394
:101C8000AF93BF93EF93FF938091B900887F803625
:101C900009F49CC068F5883209F45BC090F4803187
:101CA00009F454C038F4882309F4F6C0883009F4E4
:101CB0004DC0F6C0883109F44CC0803209F45DC0D3
:101CC000EFC0803409F468C048F4803309F455C08B
:101CD000883309F0E5C080930E04D8C0803509F43C
:101CE0004FC0883509F45DC0883409F0D9C0D6C02A
:101CF000883909F4C7C0A8F4883709F467C038F4F4
:101D0000883609F463C0803709F460C0C9C08838D8
:101D100009F4B8C0803909F45FC0803809F0C0C048
:101D20005BC0803B09F486C038F4803A09F466C091
:101D3000883A09F47FC0B4C0803C09F4A7C0883C4D
:101D400009F4A4C0883B09F48AC0AAC08091340475
:101D500010C09091330480913204981770F5E0918F
:101D6000330481E08E0F80933304F0E0EE5EFB4F8E
:101D700080818093BB0085EC86C080930E048EC06A
:101D8000E091330481E08E0F809333048091BB0097
:101D9000F0E0EE5EFB4F808390913304809132043B
:101DA0006EC0E091330481E08E0F80933304809104
:101DB000BB00F0E0EE5EFB4F808380911104811147
:101DC0006DC081E08093100484EA61C083E0809359
:101DD0000F0410920D04CFCF80910D04803208F0D3
:101DE00051C0E0910D0481E08E0F80930D0480912D
:101DF000BB00F0E0E351FC4F8083BDCF85EC8093C6
:101E0000BC0010920F0480910D04803230F4E091F8
:101E10000D04F0E0E351FC4F108260910D0470E07E
:101E2000E091EB03F091EC038DEE93E009951092B5
:101E30000D0436C084E080930F041092EA031092E0
:101E4000E903E091E703F091E80309958091E90344
:101E5000811105C081E08093E9031092C703E091EE
:101E6000EA0381E08E0F8093EA03F0E0E953FC4F30
:101E700080818093BB009091EA038091E9039817D9
:101E800008F479CF85E88093BC000AC085EC809384
:101E9000BC0010920F0404C010920E040E94800A2D
:101EA000FF91EF91BF91AF919F918F917F916F9132
:101EB0005F914F913F912F910F900FBE0F901F9008
:101EC00018952CE831E0FC01318320830C94230A1F
:101ED000CF93DF93EC010E94610FCE01DF91CF9190
:101EE0000C946B22FC0180E0615018F091918927DD
:101EF000FBCF0895CF93DF93EC018A899B89DC01A6
:101F0000ED91FC910488F589E02D09951D8A1C8AC4
:101F100082E38A83DF91CF910895CF93DF93EC0121
:101F2000E881F9810190F081E02DCE010995181624
:101F3000190644F4E881F9810684F785E02DCE0185
:101F40000995EECFDF91CF910895DC011496ED91C4
:101F5000FC9115971C968C911C97882361F01A961A
:101F60002D913C911B97621773072CF01896ED91F9
:101F7000FC9119970AC020E030E007C03097C9F003
:101F80000280F381E02D2F5F3F4F26173707B4F310
:101F90002617370771F481E01C968C931C971B96CB
:101FA0003C932E931A971996FC93EE931897CF01B2
:101FB000089580E090E00895CF93DF9377FD0EC001
:101FC000FC01228133816217730744F4EA010E9405
:101FD000A50FFC01D183C08381E001C080E0DF91C7
:101FE000CF9108950E94A50F009721F0FC018081F8
:101FF0009181089580E090E00895FC0182819381B1
:1020000008958F929F92AF92BF92CF92DF92EF92FC
:10201000FF920F931F93CF93DF937C016B015A01C3
:10202000C0E0D0E04C0183E0880E911CF70185816F
:102030009681C817D907D4F4BE01C4010E94F20FDB
:102040008C01DC01ED91FC910684F785E02D09956A
:102050008A159B0549F4D801ED91FC910088F1891E
:10206000E02DB601C80109952196E0CFDF91CF910F
:102070001F910F91FF90EF90DF90CF90BF90AF90A6
:102080009F908F900895FC0182810895FC018089C2
:1020900091890895EF92FF920F931F93CF93DF934F
:1020A0008C01C0E0D0E07C0183E0E80EF11CF80177
:1020B00025813681C217D3076CF4BE01C7010E9487
:1020C000F20FDC01ED91FC910284F385E02D09957E
:1020D0002196EDCF81E38283DF91CF911F910F9104
:1020E000FF90EF900895CF93DF93EC018F81988557
:1020F000DC01ED91FC910488F589E02D0995CE0174
:10210000DF91CF910C94AA02EF92FF920F931F934D
:10211000CF93DF93DC0112960D911C91139701155B
:10212000110561F4ED91FC910480F581E02DDF91C2
:10213000CF911F910F91FF90EF9009947B01EC01DB
:1021400084E090E00E94D6212C813D81FC01338304
:102150002283F182E0829D838C830F5F1F4F1B835C
:102160000A831C8681E0DF91CF911F910F91FF9030
:10217000EF900895CF92DF92EF92FF920F931F930B
:10218000CF93DF939B01BA01DC0112964D915C91D4
:1021900013972417350734F0ED91FC910480F581F5
:1021A000E02D09C02115310579F4DC01ED91FC9198
:1021B0000680F781E02DDF91CF911F910F91FF9065
:1021C000EF90DF90CF9009947B01E9018C0184E0CE
:1021D00090E00E94D6216C01FC01118210821382D2
:1021E0001282BE0161507109C8010E94A50FD6017B
:1021F0001196FC92EE92FC012281338113963C935E
:102200002E931297D382C282D80112968D919C91FF
:102210001397019613969C938E9312971C961C927B
:1022200081E0DF91CF911F910F91FF90EF90DF90B0
:10223000CF9008950F931F93CF93DF93EC018B0101
:1022400084E090E00E94D621FC0113821282118367
:1022500000832C813D81232B29F0EE81FF81938324
:10226000828302C09D838C839F838E838A819B811E
:1022700001969B838A831C8681E0DF91CF911F9119
:102280000F91089503960C941A11CF93DF93EC01EC
:10229000EFE0F1E0428150E06081718185E394E0FC
:1022A0000E94331660ED77E080E090E00E94281AEB
:1022B00084E38A83DF91CF91089524E032E0FC012A
:1022C0003183208386859785009711F00C946B22CB
:1022D0000895CF93DF93EC010E945D11CE01DF9151
:1022E000CF910C946B22EF92FF920F931F93CF9399
:1022F000DF93FC01628173811616170664F5EC0109
:10230000148661307105C1F0625071090E94A50FF9
:102310007C01FC0182819381FC01008111810E947A
:102320006B22F70113821282FF82EE828A819B81E7
:1023300001979B838A830DC084819581FC01008174
:1023400011810E946B221D821C821F821E821B82B1
:102350001A82C80102C080E090E0DF91CF911F9106
:102360000F91FF90EF900895EF92FF920F931F93BC
:10237000CF93DF93DC0112962D913C9113971216A7
:10238000130624F521303105A1F0EC01EC81FD812B
:10239000E280F38000811181CF010E946B22FD82D7
:1023A000EC828A819B8101979B838A831C86C8016A
:1023B0000FC0DC01ED91FC910484F585E02DDF91E7
:1023C000CF911F910F91FF90EF90099480E090E0E2
:1023D000DF91CF911F910F91FF90EF9008950F9390
:1023E0001F93CF93DF9377FD3EC0DC0112962D91B2
:1023F0003C91139762177307B4F56115710531F4B9
:10240000ED91FC910684F785E02D0BC02150310938
:102410006217730759F4DC01ED91FC910484F58592
:10242000E02DDF91CF911F910F910994EC01615044
:1024300071090E94A50FDC011296ED91FC91139792
:10244000008111812281338113963C932E93129740
:10245000CF010E946B228A819B8101979B838A8393
:102460001C86C80102C080E090E0DF91CF911F91EF
:102470000F910895AF92BF92CF92DF92EF92FF92A9
:102480000F931F93CF93DF937C015B01C0E0D0E0FB
:102490006C0183E0C80ED11CF70185819681C817B5
:1024A000D90704F5BE01C6010E94F20F8C01DC01C0
:1024B000ED91FC910684F785E02D09958A159B0521
:1024C00079F4BE01C6010E94EF110115110541F01A
:1024D000D801ED91FC910280F381E02DC8010995AE
:1024E0002196DACFDF91CF911F910F91FF90EF905E
:1024F000DF90CF90BF90AF900895FC0187819085C9
:1025000005960C94B517FC0180858130E1F4878134
:102510008E3008F08E508770806480937C008091AC
:102520007A00806480937A0080917A0086FDFCCFE7
:10253000609178008091790070E0782B072E000C74
:10254000880B990B07C087810E946E19BC01990FF7
:10255000880B990B0E94901F0895CF93DF93EC0195
:1025600060E08F810E94C71983E38A83DF91CF9156
:102570000895CF93DF93EC0161E08D810E94C7192C
:102580008E81813011F460E001C061E08D810E9494
:1025900097191F8283E38A83DF91CF910895EF9289
:1025A000FF920F931F93CF93DF9300D000D000D002
:1025B000CDB7DEB78C01DC0152968D919C9153977B
:1025C000DC01ED91FC91008CF18DE02D09957C01F1
:1025D00086E090E09A8389836D837E830E94D62172
:1025E000FC019C838B83D80152962D913C9153978B
:1025F000D90115969C91159716968C91908381839D
:102600006D8162837E817383E482F582D801ED91CE
:10261000FC910688F789E02DBE016F5F7F4FC801EE
:102620000995CE0101960E94CB0926960FB6F89423
:10263000DEBF0FBECDBFDF91CF911F910F91FF90F5
:10264000EF9008950F931F93CF93DF93EC018C8944
:102650009D89892B49F4CE010E94CF120E94621AF3
:102660006E8B7F8B888F998F84E393E19D8B8C8B0E
:102670000E94621A0E891F89288D398DAB01BC0119
:10268000401B510B620B730B8A8D9B8DA0E0B0E059
:10269000481759076A077B07F0F680E090E0DF9162
:1026A000CF911F910F9108950F931F93CF93DF93B5
:1026B000EC018F819885181619060CF050C060E067
:1026C00070E0CE0105960E94D8048C01DC018D914A
:1026D0009C918230910510F1D8011296ED91FC91F8
:1026E00013974081218130E0322F2227240F311DA2
:1026F0002131310571F481E08C8F0115110589F4C8
:1027000080E69AEE9B8F8A8F1D8E81E08E8F1C8EC5
:1027100029C02133310561F481E08D8F0115110548
:10272000F1F0C8010E94CB09C8010E946B2217C0BA
:102730002233310519F481E08E8FF0CF2333310538
:1027400011F41E8EEBCF2433310541F7049738F096
:1027500082819381009711F39B8F8A8FDFCF8C8DBD
:102760008111CECF8D8D882321F0CE010E94CF1212
:102770001D8E8E8D882339F0CE01DF91CF911F9170
:102780000F910C9422131D8A1C8ADF91CF911F9107
:102790000F910895CF92DF92EF92FF920E94031A59
:1027A0006B017C010E94031ADC01CB018C199D098D
:1027B000AE09BF09883E9340A105B10540F085E30D
:1027C00094E0FF90EF90DF90CF900C941F1885E37A
:1027D00094E00E944118181619068CF3E3CFCF93AA
:1027E000DF93EC0118821B821C8289819A810097F9
:1027F00011F00E946B221A821982DF91CF91089505
:10280000FC0180819181009711F00C946B22089556
:10281000CF92DF92EF92FF920F931F93CF93DF93AC
:1028200000D000D0CDB7DEB77B018FE890E00E94EA
:10283000D6218C019A8389838EEFF8018083F7017A
:1028400021858AE0820FF801818384E2828381E01E
:102850008383F7018081F8018483F7018181F80186
:102860008583F7018281F8018683F7018381F8016E
:102870008783F7018481F8018087F7018581F8015A
:102880008187F7018681F8018287F7018781F80146
:102890008387F7018085F80184872587422F50E0E0
:1028A000F70162857385C8010E962C830E94082368
:1028B0002C814FE0420F4B83E42EF12C6701F1E0B5
:1028C000CF1AD108C00ED11E6DE0620FC80101966B
:1028D0000E94720FF6018083A701B80185E394E09E
:1028E0000E943316CE0101960E9400140F900F90A3
:1028F0000F900F90DF91CF911F910F91FF90EF906C
:10290000DF90CF9008955F926F927F928F929F9207
:10291000AF92BF92CF92DF92EF92FF920F931F93ED
:10292000CF93DF93CDB7DEB72C970FB6F894DEBF09
:102930000FBECDBF6C010091020110E0E0900001DC
:10294000F0900101A801B70185E394E00E943316DD
:1029500060ED77E080E090E00E94281A40910B0142
:1029600050E06091090170910A0185E394E00E94B2
:10297000331664EF71E080E090E00E94281AA8010D
:10298000B70185E394E00E94331660ED77E080E0C4
:1029900090E00E94281A8BE08C878BE090E00E94E8
:1029A000D6218C019B878A879EEFB92EF801B082D1
:1029B00086E0818326E2E22EE28235E0F32EF38286
:1029C00084E8848344E0A42EA582F6018781F8017F
:1029D0008683F6018085F8018783F6018185F801F9
:1029E0008087F6018285F801818769E0C801019638
:1029F0000E94720FF80182874BE050E0B80185E336
:102A000094E00E94331664EF71E080E090E00E9451
:102A1000281A89E0898789E090E00E94D6218C01FC
:102A200098878F83FC01B082A182E282F38283E8DF
:102A3000848382E08583F6018385F8018683F6012D
:102A40008485F801878367E0C80101960E94720FB0
:102A5000F801808749E050E0B80185E394E00E94E6
:102A6000331664EF71E080E090E00E94281AF601CE
:102A7000A58488E08E8388E090E00E94D6218C01B6
:102A80009D838C83FC01B08283E08183E282F382A8
:102A900087E8848381E08583A68266E0C801019689
:102AA0000E94720FF801878348E050E0B80185E387
:102AB00094E00E94331664EF71E080E090E00E94A1
:102AC000281A40910E0150E060910C0170910D01A7
:102AD00085E394E00E94331664EF71E080E090E0BB
:102AE0000E94281A812C912CA12CB12C5EEF752EFE
:102AF00064E2662EF60180899189A816B90608F06D
:102B00007DC0F60106851785080D191D8DE490E03E
:102B10000E94D6217C019A838983FC017082F8018E
:102B2000978180A5890F875FF70181836282138275
:102B3000F8018081F7018483F8018181F7018583A1
:102B4000F8018281F7018683F8018381F701878389
:102B5000F8018481F7018087F8018581F701818779
:102B6000F8018681F7018287F8018781F701838761
:102B7000F801478150E0B801685F7F4FC7010C96AC
:102B80000E940823F801678180A59CE0960FF70159
:102B9000E90FF11D80838DE0582E560EF80140A5F7
:102BA00050E0B801675D7F4FC701850D911D0E9400
:102BB0000823F80180A5652D680F01E0060F0B833F
:102BC00089819A8110E001501109080F191F615085
:102BD00001960E94720FF801808364EF71E080E03B
:102BE00090E00E94281ACE0101960E940014FFEF87
:102BF000AF1ABF0A89E4880E911C7CCF83E38283DD
:102C0000CE0104960E940014CE0107960E94001483
:102C1000CE010A960E9400142C960FB6F894DEBFDF
:102C20000FBECDBFDF91CF911F910F91FF90EF901D
:102C3000DF90CF90BF90AF909F908F907F906F90DC
:102C40005F9008952CED31E0FC01318320830C94DA
:102C5000230ACF93DF93EC010E942216CE01DF916D
:102C6000CF910C946B22CF92DF92EF92FF920F9351
:102C70001F93CF93DF936C017A018B01C0E0D0E00A
:102C8000CE15DF0589F0D8016D918D01D601ED914A
:102C9000FC910190F081E02DC6010995892B11F47A
:102CA0007E0102C02196ECCFC701DF91CF911F9129
:102CB0000F91FF90EF90DF90CF900895009769F00B
:102CC000FC0101900020E9F73197AF01481B590B37
:102CD000BC0185E394E00C94331680E090E0089505
:102CE000CF93DF930E945E16EC0183EC93E00E9489
:102CF0005E168C0F9D1FDF91CF9108958F929F924A
:102D0000AF92BF920F931F93CF93DF93CDB7DEB7F0
:102D1000A1970FB6F894DEBF0FBECDBF19A2423007
:102D200008F44AE08E010F5D1F4F842E912CA12CD8
:102D3000B12CA50194010E94AE21E62FB901CA0170
:102D400001501109EA3014F4E05D01C0E95CD801DA
:102D5000EC93232B242B252B61F7C8010E945E16D0
:102D6000A1960FB6F894DEBF0FBECDBFDF91CF9115
:102D70001F910F91BF90AF909F908F9008958F9269
:102D80009F92AF92BF92CF92DF92EF92FF920F93FA
:102D90001F93CF93DF93CDB7DEB7C054D1400FB6AA
:102DA000F894DEBF0FBECDBF8C010E94621AF801FD
:102DB000C184D284E384F4849B01AC012C193D09C5
:102DC0004E095F0969017A0130EDC31637E0D30679
:102DD000E104F10410F48189B4C0F80161877287BD
:102DE000838794871482138212821182108261E099
:102DF00085810E9497196AEF70E080E090E00E9460
:102E0000281A61E0F80185810E94C71960E0F80185
:102E100085810E94971964E170E080E090E00E9453
:102E2000281AF89461E0F80185810E9497198BE9CE
:102E300090E00197F1F762E0F80185810E94C719DF
:102E400083E290E00197F1F760E0C8010E94721BF5
:102E5000672B682B692B21F4F801118A789442C002
:102E600061E0C8010E94721B672B682B692BA1F3DC
:102E70009E012F5F3F4F79015E013FEBA31A3EEFAA
:102E8000B30A670160E0C8010E94721BF60160830B
:102E900071838283938361E0C8010E94721BF601F3
:102EA0006483758386839783F8E0CF0ED11CCA14A0
:102EB000DB0441F7789420E030E0F7014081518154
:102EC0006281738184809580A680B7804115510509
:102ED0006105710529F081149104A104B10421F464
:102EE000F801118A80E02DC0F90183E0F595E7959E
:102EF0008A95E1F7E00FF11F8081880F4815590589
:102F00006A057B0508F4816080832F5F3F4FF8E0FE
:102F1000EF0EF11C2832310581F6F801248130E0F2
:102F20004081818190E0840F911D4281840F911D29
:102F30004381840F911D99272817390789F681E06D
:102F4000818BC05CDE4F0FB6F894DEBF0FBECDBFE5
:102F5000DF91CF911F910F91FF90EF90DF90CF9075
:102F6000BF90AF909F908F900895CF92DF92EF9295
:102F7000FF921F93CF93DF93EC010E94BF1688232B
:102F8000B1F18E818B3029F090F18551823040F083
:102F90002EC06A8170E080E090E00E948E1F2BC0FE
:102FA0001A81612F6F7770E080E090E00E94901F9F
:102FB00020E030E040E853E40E94EF1F6B017C0109
:102FC0008B81682F70E080E090E00E94901F9B0151
:102FD000AC01C701B6010E94AE202DEC3CEC4CECDC
:102FE0005DE30E94EF1F17FF06C0905804C060E029
:102FF00070E080EC9FE7DF91CF911F91FF90EF9001
:10300000DF90CF900895FC0180819181019691839A
:10301000808313821282069710F011821082089525
:10302000FC01538D448D252F30E0842F90E0821BCE
:10303000930B541710F0CF96089501970895FC0153
:10304000918D828D981761F0828DDF01A80FB11DDF
:103050005D968C91928D9F5F9F73928F90E0089503
:103060008FEF9FEF0895FC01918D828D981731F0BD
:10307000828DE80FF11D858D90E008958FEF9FEF11
:103080000895FC01918D228D892F90E0805C9F4FE7
:10309000821B91098F739927089585E394E00E941C
:1030A000411821E0892B09F420E0822F0895FC01CA
:1030B000848DDF01A80FB11DA35ABF4F2C91848DC1
:1030C00090E001968F739927848FA689B7892C93F6
:1030D000A089B1898C9180648C93938D848D981391
:1030E00006C00288F389E02D80818F7D808308955A
:1030F000EF92FF920F931F93CF93DF93EC0181E048
:10310000888F9B8D8C8D981305C0E889F989808103
:1031100085FD24C0F62E0B8D10E00F5F1F4F0F733F
:103120001127E02E8C8DE8120CC00FB607FCFACFE9
:10313000E889F989808185FFF5CFCE010E94571873
:10314000F1CF8B8DFE01E80FF11DE35AFF4FF082A6
:103150000B8FEA89FB898081806207C0EE89FF8935
:103160006083E889F98980818064808381E090E0D0
:10317000DF91CF911F910F91FF90EF900895CF9322
:10318000DF93EC01888D8823C9F0EA89FB8980816F
:1031900085FD05C0A889B9898C9186FD0FC00FB641
:1031A00007FCF5CF808185FFF2CFA889B9898C9182
:1031B00085FFEDCFCE010E945718E7CFDF91CF9169
:1031C000089580E090E0892B29F00E944D1881112C
:1031D0000C9400000895833081F028F4813099F038
:1031E0008230A1F008958730A9F08830B9F084309A
:1031F000D1F4809180008F7D03C0809180008F7713
:1032000080938000089584B58F7702C084B58F7D48
:1032100084BD08958091B0008F7703C08091B00085
:103220008F7D8093B00008950E9403231F920F9218
:103230000FB60F9211242F933F934F935F936F9389
:103240007F938F939F93AF93BF93EF93FF9385E308
:1032500094E00E945718FF91EF91BF91AF919F9119
:103260008F917F916F915F914F913F912F910F902F
:103270000FBE0F901F9018951F920F920FB60F92CE
:1032800011242F938F939F93EF93FF93E091450425
:10329000F09146048081E0914B04F0914C0482FD52
:1032A00012C0908180914E048F5F8F7320914F04E4
:1032B000821751F0E0914E04F0E0EB5CFB4F958FEC
:1032C00080934E0401C08081FF91EF919F918F9177
:1032D0002F910F900FBE0F901F901895CF93DF93F3
:1032E000282F30E0F901ED53FB4F8491F901EF569F
:1032F000FB4FD491F901E358FB4FC491CC2391F0DB
:1033000081110E94EB18EC2FF0E0EE0FFF1FE75445
:10331000FB4FA591B491EC91ED2381E090E021F475
:1033200080E002C080E090E0DF91CF9108951F938C
:10333000CF93DF93282F30E0F901ED53FB4F8491B9
:10334000F901EF56FB4FD491F901E358FB4FC491BB
:10335000CC23C9F0162F81110E94EB18EC2FF0E05E
:10336000EE0FFF1FE155FB4FA591B4918FB7F89475
:10337000111105C09C91ED2FE095E92302C0EC915D
:10338000ED2BEC938FBFDF91CF911F910895CF93D9
:10339000DF9390E0FC01EF56FB4F2491FC01E358D2
:1033A000FB4F8491882361F190E0880F991FFC0105
:1033B000EB55FB4FC591D491FC01E155FB4FA59115
:1033C000B491611109C09FB7F89488812095822338
:1033D0008883EC912E230BC0623061F49FB7F89480
:1033E0003881822F809583238883EC912E2B2C9318
:1033F0009FBF06C08FB7F894E8812E2B28838FBF1C
:10340000DF91CF9108953FB7F8948091B5059091E1
:10341000B605A091B705B091B80526B5A89B05C023
:103420002F3F19F00196A11DB11D3FBFBA2FA92F43
:10343000982F8827820F911DA11DB11DBC01CD01C0
:1034400042E0660F771F881F991F4A95D1F70895AC
:103450008F929F92AF92BF92CF92DF92EF92FF92A4
:103460006B017C010E94031A4B015C01C114D10461
:10347000E104F104F1F00E94031ADC01CB01881988
:103480009909AA09BB09883E9340A105B10570F3CB
:1034900021E0C21AD108E108F10888EE880E83E025
:1034A000981EA11CB11CC114D104E104F10419F748
:1034B000DDCFFF90EF90DF90CF90BF90AF909F90C7
:1034C0008F9008952FB7F8946091B1057091B2056F
:1034D0008091B3059091B4052FBF08951F920F926C
:1034E0000FB60F9211242F933F938F939F93AF9317
:1034F000BF938091B1059091B205A091B305B091B1
:10350000B4053091B00523E0230F2D3720F4019648
:10351000A11DB11D05C026E8230F0296A11DB11DF6
:103520002093B0058093B1059093B205A093B305A5
:10353000B093B4058091B5059091B605A091B705FB
:10354000B091B8050196A11DB11D8093B50590936A
:10355000B605A093B705B093B805BF91AF919F9101
:103560008F913F912F910F900FBE0F901F90189544
:103570001F920F920FB60F9211242F933F934F93E8
:103580005F936F937F938F939F93AF93BF93EF93CB
:10359000FF938091D3040E946E192091D70430913B
:1035A000D8042F5F3F4F3093D8042093D7049091D5
:1035B000D604953618F096E09093D2049091D204F8
:1035C0009430C9F128F4923069F09330D1F05EC0A4
:1035D000953009F451C0963009F058C091E09093AD
:1035E000A30551C0811152C02091D7043091D80455
:1035F0002436310508F442C01092A3051092D60477
:103600001CC0813009F042C0E091D60491E09E0FC9
:103610009093D604F0E02091D7043091D804EE0FB7
:10362000FF1FEE52FB4F308727831092D804109271
:10363000D70494E029C0811117C0E091D60491E02D
:103640009E0F9093D604F0E02091D7043091D804D7
:10365000EE0FFF1FEE52FB4F308727831092D804E6
:103660001092D70493E010C02091D7043091D80471
:103670002536310558F007C0811108C01092D804D2
:103680001092D70403C095E09093D2049091D50492
:103690009923B9F081110AC08091D404882321F0C4
:1036A0008091D40461E009C02D9A0BC08091D404AC
:1036B000882331F08091D40460E00E94971901C002
:1036C0002D98FF91EF91BF91AF919F918F917F9135
:1036D0006F915F914F913F912F910F900FBE0F907F
:1036E0001F9018958F929F92AF92BF92CF92DF92C8
:1036F000EF92FF920F931F93CF93DC011796CC911B
:103700001797662311F08C2F01C080E018962C913A
:10371000189730E0220F331F27543B4F40E050E012
:10372000BA01F90105911491F80190819C23981335
:1037300015C06A017B019FEFC91AD90AE90AF90A83
:103740001D968D909D90AD90BC9050974815590551
:103750006A057B0538F4B701A601E3CF342F252F86
:10376000CB0104C030E020E080E090E0632F722FB6
:10377000CF911F910F91FF90EF90DF90CF90BF906E
:10378000AF909F908F900895AF92BF92CF92DF92AB
:10379000EF92FF920F931F93CF93DF931092380411
:1037A0001092370488EE93E0A0E0B0E080933904F3
:1037B00090933A04A0933B04B0933C042CE131E095
:1037C000309336042093350425EC30E030934204E6
:1037D0002093410424EC30E03093440420934304CC
:1037E00020EC30E0309346042093450421EC30E097
:1037F000309348042093470422EC30E030934A048D
:103800002093490426EC30E030934C0420934B0481
:1038100010924E0410924F041092500410925104D2
:103820001092A7051092A6058093A8059093A9056C
:10383000A093AA05B093AB058EE291E09093A50505
:103840008093A40580E390E09093570680935606FA
:1038500081E38093550624E032E0309354062093B0
:10386000530610925A0698E090935B0610925C06FD
:1038700010925D069FEF90935E0690935F0691E035
:10388000909360062CE231E030935906209358065D
:103890002CE336E041E350E05093400640933F066E
:1038A00080933E06A2E0A09346064BE04093470675
:1038B000E3E9F4E0E491E0934806EFE7F4E0E49113
:1038C000E093490640E85EE360E070E040934E0616
:1038D00050934F06609350067093510647E652E0AE
:1038E00050933D0640933C0642E350E05093370628
:1038F000409336068093350644E050E050933906F5
:103900004093380663E872E07093340660933306A0
:1039100030933B0620933A0663E370E070932E06E3
:1039200060932D0680932C0665E070E0709330065E
:1039300060932F06E1EAF2E0F0932B06E0932A066B
:103940003093320620933106E4E3F0E0F09325064D
:10395000E093240680932306E6E0F0E0F093270648
:10396000E0932606CFEBD2E0D0932206C093210647
:1039700030932906209328062BE330E030931D0670
:1039800020931C0680931B062DED32E030931A061F
:10399000209319062CE020931E0690931F06109288
:1039A000200625E330E0309314062093130680931D
:1039B00012062AE030E0309316062093150627E120
:1039C00033E03093110620931006B1E1B09317064F
:1039D00090931806CCE3D0E0D0930B06C0930A0670
:1039E00080930906CBE0D0E0D0930D06C0930C067F
:1039F000309308062093070690E190930E06A0935B
:103A00000F0625E733E03093F1052093F0052AE314
:103A100030E03093F4052093F3058093F205109283
:103A2000F8051092F70588EF91E09093F6058093E2
:103A3000F5051092040610920306109206061092E5
:103A4000050687E090E09093FA058093F905F093DE
:103A5000FC05E093FB057093FE056093FD05509314
:103A600000064093FF0583E090E090930206809368
:103A7000010661E087E00E94C71961E086E00E94CC
:103A8000C71961E085E00E94C71961E084E00E94E7
:103A9000C71961E083E00E94C719109204061092D2
:103AA0000306109206061092050660E08091F90563
:103AB0000E94971961E08091F9050E94971961E0D1
:103AC0008091FD050E949719C9EFD1E060E085EF74
:103AD00095E00E94210D2197C9F740E050E060E099
:103AE00070E085EF95E00E94670D60E285EF95E05C
:103AF0000E94570D6CE085EF95E00E94570D61E242
:103B000085EF95E00E94570D64E185EF95E00E94F6
:103B1000570D61E285EF95E00E94570D6CEB85EF44
:103B200095E00E94570D85E393E09093F105809313
:103B3000F00581E593E09093F6058093F5058DE31C
:103B400090E09093EF058093EE0581E3B82EB0925C
:103B5000ED058DE08093D3041092D50481E993E0C4
:103B60009093EC058093EB058FE190E00E94D621C5
:103B7000FC0191E3C92ED12CD482C382C8EAD1E0E2
:103B8000D683C58312861186148613861086178203
:103B900016861586108A1786118AB2822CEDE22EBF
:103BA00021E0F22EF182E08283E396E0938B828B18
:103BB00000E61AEE138F028F158EAA24A394A68E08
:103BC000148EF093EA05E093E9058FE190E00E94FE
:103BD000D621FC0182E390E094838383D683C5835E
:103BE000128611861486138610861782168615860D
:103BF000108A1786118AB282F182E0828AE296E008
:103C0000938B828B138F028F158EA68E148EF0935A
:103C1000E805E093E7058FE190E00E94D621FC01E2
:103C200083E390E094838383D683C58312861186D1
:103C3000148613861086178216861586108A1786B4
:103C4000118AB282F182E08281E296E0938B828BCC
:103C5000138F028F158EA68E148EF093E605E093D7
:103C6000E50586E390E09093D3058093D205D09349
:103C7000D505C093D4051092D9051092D80510929D
:103C8000DB051092DA051092D7051092D605109236
:103C9000DD051092DC051092DF051092DE05109212
:103CA000E005B092D1058BE492E09093D00580932B
:103CB000CF0587E096E09093E2058093E10589E1E6
:103CC00096E09093E4058093E30585E190E00E94FF
:103CD000D621FC0180E390E094838383D683C5835F
:103CE000128611861486138610861782168615860C
:103CF000108A1786118AB2828CE891E091838083C2
:103D000083E596E0948B838B128AF093CE05E09343
:103D1000CD0588E591E09093BC058093BB0580E4D8
:103D200091E09093BF058093BE051092C305109259
:103D3000C2051092C5051092C4051092C1051092DB
:103D4000C0051092C7051092C6051092C9051092C1
:103D5000C8051092CA05D092CC05C092CB05B0928E
:103D6000BD058BEB95E09093BA058093B905DF9183
:103D7000CF911F910F91FF90EF90DF90CF90BF9068
:103D8000AF900895789484B5826084BD84B58160D5
:103D900084BD85B5826085BD85B5816085BDEEE653
:103DA000F0E0808181608083E1E8F0E01082808132
:103DB00082608083808181608083E0E8F0E08081A0
:103DC00081608083E1EBF0E0808184608083E0EBC0
:103DD000F0E0808181608083EAE7F0E080818460A8
:103DE0008083808182608083808181608083808104
:103DF000806880831092C1006091E9057091EA05A6
:103E000080EA9FE0FB01938F828F8EEB95E00E940A
:103E10001A116091E7057091E80588E893E1FB01CC
:103E2000938F828F8EEB95E00E941A116091E505C9
:103E30007091E60580E797E1FB01938F828F8EEB0F
:103E400095E00E941A116091CD057091CE058EEB20
:103E500095E00E941A11E5E3F4E0A089B18982E0BF
:103E60008C93A485B5851C92A685B78587E68C932F
:103E7000108EA489B58986E08C93A289B3898C9130
:103E800080618C93A289B3898C9188608C93A2897C
:103E9000B3898C9180688C930288F389E02D8081AE
:103EA0008F7D8083109260068BEB95E00E94F20379
:103EB0008BEB95E00E94D4038BEB95E00E941D04F0
:103EC0008FEC95E00E94660A83E596E00E945D1102
:103ED0008FE091E00E9400148CE091E00E940014B9
:103EE00089E091E00E94001486E091E00E940014B5
:103EF00083E091E00E94001480E091E00C940014B3
:103F0000FB01DC0102C005900D9241505040D8F7F2
:103F100008950E94CB1F08F481E00895E89409C039
:103F200097FB3EF490958095709561957F4F8F4FEC
:103F30009F4F9923A9F0F92F96E9BB279395F69502
:103F4000879577956795B795F111F8CFFAF4BB0F80
:103F500011F460FF1BC06F5F7F4F8F4F9F4F16C0E4
:103F6000882311F096E911C0772321F09EE8872F6E
:103F7000762F05C0662371F096E8862F70E060E02A
:103F80002AF09A95660F771F881FDAF7880F9695A3
:103F9000879597F90895990F0008550FAA0BE0E847
:103FA000FEEF16161706E807F907C0F012161306FB
:103FB000E407F50798F0621B730B840B950B39F43B
:103FC0000A2661F0232B242B252B21F408950A26A1
:103FD00009F4A140A6958FEF811D811D08950E94CF
:103FE00002200C9473200E94652038F00E946C20FF
:103FF00020F0952311F00C945C200C946220112485
:104000000C94A7200E94842070F3959FC1F3950F14
:1040100050E0551F629FF001729FBB27F00DB11D4C
:10402000639FAA27F00DB11DAA1F649F6627B00DDC
:10403000A11D661F829F2227B00DA11D621F739FC5
:10404000B00DA11D621F839FA00D611D221F749FD3
:104050003327A00D611D231F849F600D211D822F1A
:10406000762F6A2F11249F5750409AF0F1F0882341
:104070004AF0EE0FFF1FBB1F661F771F881F91506E
:104080005040A9F79E3F510580F00C945C200C94A1
:10409000A7205F3FE4F3983ED4F386957795679524
:1040A000B795F795E7959F5FC1F7FE2B880F911D98
:1040B0009695879597F9089597F99F6780E870E03E
:1040C00060E008959FEF80EC089500240A9416168E
:1040D000170618060906089500240A9412161306F6
:1040E000140605060895092E0394000C11F4882384
:1040F00052F0BB0F40F4BF2B11F460FF04C06F5FA0
:104100007F4F8F4F9F4F089557FD9058440F551F75
:1041100059F05F3F71F04795880F97FB991F61F049
:104120009F3F79F087950895121613061406551FC0
:10413000F2CF4695F1DF08C0161617061806991F2C
:10414000F1CF86957105610508940895E894BB2721
:1041500066277727CB0197F908955058BB27AA27E0
:104160000E94C5200C9473200E94652038F00E94A4
:104170006C2020F039F49F3F19F426F40C9462204F
:104180000EF4E095E7FB0C945C20E92F0E9484205C
:1041900058F3BA17620773078407950720F079F47C
:1041A000A6F50C94A6200EF4E0950B2EBA2FA02DA8
:1041B0000B01B90190010C01CA01A0011124FF27D4
:1041C000591B99F0593F50F4503E68F11A16F040CF
:1041D000A22F232F342F4427585FF3CF46953795CE
:1041E0002795A795F0405395C9F77EF41F16BA0B93
:1041F000620B730B840BBAF09150A1F0FF0FBB1F41
:10420000661F771F881FC2F70EC0BA0F621F731F89
:10421000841F48F4879577956795B795F7959E3FE6
:1042200008F0B0CF9395880F08F09927EE0F979577
:10423000879508950E948C2088F09F5798F0B92F99
:104240009927B751B0F0E1F0660F771F881F991FCB
:104250001AF0BA95C9F714C0B13091F00E94A620A7
:10426000B1E008950C94A620672F782F8827B85FB7
:1042700039F0B93FCCF3869577956795B395D9F723
:104280003EF490958095709561957F4F8F4F9F4F2D
:1042900008950E94CB1F08F48FEF089519F416F4C7
:1042A0000C9462200C9499210E948C20B8F39923DD
:1042B000C9F3B6F39F57550B87FF0E94A72100242F
:1042C000A0E640EA900180585695979528F4805CC6
:1042D000660F771F881F20F026173707480730F42E
:1042E000621B730B840B202931294A2BA695179446
:1042F0000794202531254A2758F7660F771F881F16
:1043000020F026173707480730F4620B730B840B35
:10431000200D311D411DA09581F7B901842F9158C1
:10432000880F9695879508950E94CB1F880B990B4F
:1043300008959F3F31F0915020F4879577956795C8
:10434000B795880F911D9695879597F90895915087
:104350005040660F771F881FD2F70895A1E21A2EEA
:10436000AA1BBB1BFD010DC0AA1FBB1FEE1FFF1F19
:10437000A217B307E407F50720F0A21BB30BE40B69
:10438000F50B661F771F881F991F1A9469F76095B0
:104390007095809590959B01AC01BD01CF0108956A
:1043A000EE0FFF1F0590F491E02D0994CF93DF935A
:1043B0008230910510F482E090E0E0916706F09180
:1043C000680620E030E0C0E0D0E0309711F1408195
:1043D000518148175907C0F04817590761F4828185
:1043E0009381209719F09B838A832BC09093680652
:1043F0008093670626C02115310519F0421753072F
:1044000018F49A01BE01DF01EF010280F381E02D73
:10441000DCCF2115310509F1281B390B243031057A
:1044200090F412968D919C9113976115710521F06E
:10443000FB019383828304C0909368068093670690
:10444000FD01329644C0FD01E20FF31F8193919369
:10445000225031092D933C933AC02091650630914A
:104460006606232B41F420911401309115013093FD
:1044700066062093650620911201309113012115E3
:10448000310541F42DB73EB7409116015091170107
:10449000241B350BE0916506F0916606E217F307E1
:1044A000A0F42E1B3F0B2817390778F0AC014E5FA4
:1044B0005F4F2417350748F04E0F5F1F5093660675
:1044C000409365068193919302C0E0E0F0E0CF0154
:1044D000DF91CF9108950F931F93CF93DF930097B0
:1044E00009F48CC0FC013297138212820091670696
:1044F000109168060115110581F420813181820F28
:10450000931F20916506309166062817390779F5C3
:10451000F0936606E093650671C0D80140E050E074
:10452000AE17BF0750F412962D913C911397AD0131
:104530002115310509F1D901F3CF9D01DA0133834A
:10454000228360817181860F971F8217930769F418
:10455000EC0128813981260F371F2E5F3F4F3183B1
:1045600020838A819B8193838283452B29F4F09356
:104570006806E093670642C01396FC93EE93129789
:10458000ED01499159919E01240F351FE217F30760
:1045900071F480819181840F951F029611969C93EE
:1045A0008E938281938113969C938E931297E0E071
:1045B000F0E0D80112968D919C911397009719F015
:1045C000F8018C01F6CF8D919C9198012E5F3F4FA1
:1045D000820F931F209165063091660628173907D0
:1045E00069F4309729F4109268061092670602C0A9
:1045F000138212821093660600936506DF91CF91B5
:104600001F910F91089581E090E0F8940C9411238C
:10461000FB01DC0102C001900D9241505040D8F7DF
:10462000089512E0CDE6D2E004C0FE010E94D02140
:0C4630002196CE36D107C9F7F894FFCFD1
:10463C001C02062202062802083002083802084032
:10464C00020700006906800000000000781833168D
:10465C001018BF1841181F18331800000000D40A96
:10466C00C00AA803B20AB90AB60AB30A00000000CD
:10467C00FD0FBA101A118410DC0FEF117311B41165
:10468C00F20F8D0F000000001D045204F203D4033E
:10469C00AB034A104310461042113A1201100000AD
:1046AC00000000000000141914191419141914191D
:1046BC00141914191419141900000000610F680F53
:1046CC00E50A590B7903750372036E03F105630355
:1046DC005603D3090000000052036905C9053305D0
:1046EC003C03D8045C049D043103E202000000008A
:1046FC00230A5C0A81037D037903750372036E033D
:10470C00F10563035603D309000000002216291695
:10471C007A0F54137903750372036E03F105630367
:10472C005603D309000000008B0D3316A803A70312
:10473C00000000005D116911DE0283144511D202E4
:10474C00CE02CA02C702C302AA029802FE014100AD
:10475C000040FE0141000141FE0326050301002239
:10476C00FE03260503010321FE0326058F0101AF7D
:10477C00FE02254000006700000000660A6D0AB5C5
:10478C0008D6087903750372036E03F105630356AB
:10479C0003D30900000000770A2305DE02DA02D6F3
:1047AC0002D202CE02CA02C702C3023F069802001E
:1047BC00000000780A2505DE02DA02D602D202CE0B
:1047CC0002CA02C702C302731098027D12000000D5
:1047DC0000790A2705DE02DA02D602D202CE02CA1C
:1047EC0002C702C302850398025306000000007A38
:1047FC000A2905DE02DA02D602D202CE02CA02C7AA
:10480C0002C302960398029D06000000007B0A2B4F
:10481C0005DE02B912D602D202CE02CA02C702C308
:10482C0002AA0298020000000000000000DE02DA7A
:10483C0002D602D202CE02CA02C702C302AA029850
:10484C00021419000000007C0A2D05DE02AD12D600
:10485C0002D202CE02CA02C702C302AA0298028383
:10486C0012000000007D0A2F05DE02DA02D602D209
:10487C0002CE02CA02C702C302AA029802FBFF00C0
:10488C00008B0D3316A803A70300000000000000E6
:10489C0000141914191419141914191419141914BD
:1048AC0019000000007F0A3105DE02DA02D602D2BE
:1048BC0002CE02CA02C702C302AA0298020000007A
:1048CC00007E0A1B04DE022906D602D202CE02CAE0
:1048DC0002C702C302AA02980230303030003131D4
:1048EC00313100323232006E616E00696E66006FDB
:0648FC007666000D0A00C3
:107E0000112484B714BE81FFF0D085E080938100F7
:107E100082E08093C00088E18093C10086E0809377
:107E2000C20080E18093C4008EE0C9D0259A86E02C
:107E300020E33CEF91E0309385002093840096BBD3
:107E4000B09BFECF1D9AA8958150A9F7CC24DD24C4
:107E500088248394B5E0AB2EA1E19A2EF3E0BF2EE7
:107E6000A2D0813461F49FD0082FAFD0023811F036
:107E7000013811F484E001C083E08DD089C08234E0
:107E800011F484E103C0853419F485E0A6D080C0E4
:107E9000853579F488D0E82EFF2485D0082F10E0AE
:107EA000102F00270E291F29000F111F8ED06801E7
:107EB0006FC0863521F484E090D080E0DECF843638
:107EC00009F040C070D06FD0082F6DD080E0C81688
:107ED00080E7D80618F4F601B7BEE895C0E0D1E017
:107EE00062D089930C17E1F7F0E0CF16F0E7DF06D8
:107EF00018F0F601B7BEE89568D007B600FCFDCFD4
:107F0000A601A0E0B1E02C9130E011968C91119780
:107F100090E0982F8827822B932B1296FA010C0160
:107F200087BEE89511244E5F5F4FF1E0A038BF0790
:107F300051F7F601A7BEE89507B600FCFDCF97BE46
:107F4000E89526C08437B1F42ED02DD0F82E2BD052
:107F50003CD0F601EF2C8F010F5F1F4F84911BD097
:107F6000EA94F801C1F70894C11CD11CFA94CF0C13
:107F7000D11C0EC0853739F428D08EE10CD085E9AC
:107F80000AD08FE07ACF813511F488E018D01DD067
:107F900080E101D065CF982F8091C00085FFFCCF94
:107FA0009093C60008958091C00087FFFCCF809118
:107FB000C00084FD01C0A8958091C6000895E0E648
:107FC000F0E098E1908380830895EDDF803219F02E
:107FD00088E0F5DFFFCF84E1DECF1F93182FE3DFCA
:107FE0001150E9F7F2DF1F91089580E0E8DFEE27F6
:047FF000FF270994CA
:027FFE00040479
:0400000300007E007B
:00000001FF