:100000000C9462000C948A000C948A000C948A0070
:100010000C948A000C948A000C948A000C948A0038
:100020000C948A000C948A000C948A000C948A0028
:100030000C948A000C948A000C948A000C948A0018
:100040000C9466020C948A000C9434020C940E02F8
:100050000C948A000C948A000C948A000C948A00F8
:100060000C948A000C948A000000000025002800EF
:100070002B0000000000240027002A0000000000E0
:1000800023002600290004040404040404040202DA
:100090000202020203030303030301020408102007
:1000A0004080010204081020010204081020000012
:1000B0000008000201000003040700000000000027
:1000C0000000CD0311241FBECFEFD8E0DEBFCDBFAF
:1000D00011E0A0E0B1E0E2E5F8E002C005900D9289
:1000E000AA32B107D9F721E0AAE2B1E001C01D921E
:1000F000A03DB207E1F710E0C2E6D0E004C02197CE
:10010000FE010E941C04C136D107C9F70E94B0024B
:100110000C9427040C940000CF92DF92EF92FF9290
:100120000F931F93CF93DF936C017A018B01C0E093
:10013000D0E0CE15DF0589F0D8016D918D01D60193
:10014000ED91FC910190F081E02DC6010995892B7C
:1001500011F47E0102C02196ECCFC701DF91CF914F
:100160001F910F91FF90EF90DF90CF900895089529
:1001700080E090E00895FC01538D448D252F30E000
:10018000842F90E0821B930B541710F0CF960895A4
:1001900001970895FC01918D828D981761F0828DF1
:1001A000DF01A80FB11D5D968C91928D9F5F9F73AB
:1001B000928F90E008958FEF9FEF0895FC01918D4D
:1001C000828D981731F0828DE80FF11D858D90E0BA
:1001D00008958FEF9FEF0895FC01918D228D892F57
:1001E00090E0805C9F4F821B91098F73992708953F
:1001F00083E391E00E94EC0021E0892B09F420E0E8
:10020000822F0895FC01848DDF01A80FB11DA35A30
:10021000BF4F2C91848D90E001968F739927848F26
:10022000A689B7892C93A089B1898C9180648C931D
:10023000938D848D981306C00288F389E02D808108
:100240008F7D80830895EF92FF920F931F93CF933A
:10025000DF93EC0181E0888F9B8D8C8D981305C016
:10026000E889F989808185FD24C0F62E0B8D10E088
:100270000F5F1F4F0F731127E02E8C8DE8120CC0FB
:100280000FB607FCFACFE889F989808185FFF5CFA1
:10029000CE010E940201F1CF8B8DFE01E80FF11D0E
:1002A000E35AFF4FF0820B8FEA89FB8980818062DD
:1002B00007C0EE89FF896083E889F98980818064BD
:1002C000808381E090E0DF91CF911F910F91FF90AB
:1002D000EF900895CF93DF93EC01888D8823C9F0C8
:1002E000EA89FB89808185FD05C0A889B9898C913F
:1002F00086FD0FC00FB607FCF5CF808185FFF2CFDA
:10030000A889B9898C9185FFEDCFCE010E940201A9
:10031000E7CFDF91CF91089580E090E0892B29F01D
:100320000E94F80081110C94000008953FB7F894E2
:1003300080912F0190913001A0913101B091320153
:1003400026B5A89B05C02F3F19F00196A11DB11D30
:100350003FBFBA2FA92F982F8827820F911DA11D6B
:10036000B11DBC01CD0142E0660F771F881F991FA8
:100370004A95D1F708958F929F92AF92BF920F93B3
:100380001F93CF93DF93CDB7DEB7A1970FB6F89445
:10039000DEBF0FBECDBF19A2423008F44AE08E0185
:1003A0000F5D1F4F842E912CA12CB12CA50194011F
:1003B0000E94FA03E62FB901CA0101501109EA307F
:1003C00014F4E05D01C0E95CD801EC93232B242BED
:1003D000252B61F70115110571F0F801019000203E
:1003E000E9F73197AF01401B510BB80183E391E06E
:1003F0000E948C0002C080E090E0A1960FB6F894B5
:10040000DEBF0FBECDBFDF91CF911F910F91BF9087
:10041000AF909F908F9008950E9422041F920F9298
:100420000FB60F9211242F933F934F935F936F93C7
:100430007F938F939F93AF93BF93EF93FF9383E348
:1004400091E00E940201FF91EF91BF91AF919F91C6
:100450008F917F916F915F914F913F912F910F906D
:100460000FBE0F901F9018951F920F920FB60F920C
:1004700011242F938F939F93EF93FF93E091430168
:10048000F09144018081E0914901F0914A0182FD9F
:1004900012C0908180914C018F5F8F7320914D012C
:1004A000821751F0E0914C01F0E0ED5CFE4F958F2A
:1004B00080934C0101C08081FF91EF919F918F91BA
:1004C0002F910F900FBE0F901F9018951F920F92B3
:1004D0000FB60F9211242F933F938F939F93AF9357
:1004E000BF9380912B0190912C01A0912D01B0918F
:1004F0002E0130912A0123E0230F2D3720F401969D
:10050000A11DB11D05C026E8230F0296A11DB11D36
:1005100020932A0180932B0190932C01A0932D010D
:10052000B0932E0180912F0190913001A091310163
:10053000B09132010196A11DB11D80932F019093BE
:100540003001A0933101B0933201BF91AF919F91DF
:100550008F913F912F910F900FBE0F901F90189584
:10056000789484B5826084BD84B5816084BD85B58E
:10057000826085BD85B5816085BD80916E0081609A
:1005800080936E0010928100809181008260809340
:100590008100809181008160809381008091800042
:1005A0008160809380008091B10084608093B1006D
:1005B0008091B00081608093B00080917A00846067
:1005C00080937A0080917A00826080937A00809193
:1005D0007A00816080937A0080917A0080688093AD
:1005E0007A001092C100C7EAD0E0FE01249103E92D
:1005F00010E0F80184918823C9F090E0880F991FDA
:10060000FC01EE58FF4FA591B49188599F4FFC0112
:10061000459154913FB7F8949C91822F80959823EF
:100620009C93FA019081892380833FBFE09143012D
:10063000F091440182E08083E0913F01F09140011C
:100640001082E0914101F091420180E1808310929B
:100650004B01E0914701F091480186E08083E091F1
:100660004501F0914601808180618083E0914501E0
:10067000F0914601808188608083E0914501F0918E
:100680004601808180688083E0914501F0914601B8
:1006900080818F7D80834BEBE42E40E0F42E46E199
:1006A00050E062E171E083E391E00E948C00F70189
:1006B0009491FE012491F8018491882309F43AC0B1
:1006C000992339F1933091F038F49130A9F09230B8
:1006D00001F594B59F7D12C0973091F09830A1F04C
:1006E0009430B9F4909180009F7D03C09091800078
:1006F0009F77909380000DC094B59F7794BD09C0FB
:100700009091B0009F7703C09091B0009F7D90932F
:10071000B00090E0880F991F84589F4FFC01A5916D
:10072000B4918C91282391E080E009F490E0692F46
:10073000782F02C060E070E0072E000C880B990B48
:100740004AE00E94BB010E9496012B013C0188EE09
:10075000882E83E0982EA12CB12C0E949601DC01FA
:10076000CB0184199509A609B709883E9340A105D4
:10077000B10558F0F1E08F1A9108A108B10828EEF0
:10078000420E23E0521E611C711C81149104A104CD
:10079000B10419F70E948C0182CFE3E3F1E01382E8
:1007A000128288EE93E0A0E0B0E084839583A68374
:1007B000B78384E091E09183808385EC90E0958716
:1007C000848784EC90E09787868780EC90E0918B1B
:1007D000808B81EC90E0938B828B82EC90E0958B08
:1007E000848B86EC90E0978B868B118E128E138E05
:1007F000148E0895A1E21A2EAA1BBB1BFD010DC089
:10080000AA1FBB1FEE1FFF1FA217B307E407F507C0
:1008100020F0A21BB30BE40BF50B661F771F881F9C
:10082000991F1A9469F760957095809590959B0132
:10083000AC01BD01CF010895EE0FFF1F0590F491AB
:10084000E02D099481E090E0F8940C942704F8944A
:02085000FFCFD8
:100852000000000023018C00BB006A01EC00CA000A
:10086200DE000A72756E6E696E670A546F75636890
:0A0872002053746174202D20000053
:00000001FF
