:100000000C945C000C9479000C9479000C947900A9
:100010000C9479000C9479000C9479000C9479007C
:100020000C9479000C9479000C9479000C9479006C
:100030000C9479000C9479000C9479000C9479005C
:100040000C9476010C9479000C9479000C9479004E
:100050000C9479000C9479000C9479000C9479003C
:100060000C9479000C947900000000080002010053
:100070000003040700000000000000000000000072
:10008000250028002B0000000000240027002A0083
:10009000040404040404040402020202020203032E
:1000A0000303030301020408102040800102040836
:1000B000102001020408102011241FBECFEFD8E049
:1000C000DEBFCDBF23E0A6E0B3E001C01D92AF309C
:1000D000B207E1F713E0A0E0B1E0EEE8F5E002C01E
:1000E00005900D92A630B107D9F70E94C0010C947B
:1000F000C5020C94000090E0FC01EC55FF4F2491E8
:10010000FC01E057FF4F8491882399F090E0880F1D
:10011000991FFC01EA57FF4FA591B491FC01E458E7
:10012000FF4F859194918FB7F894EC91E22BEC936B
:100130008FBF089590E0FC01E859FF4F3491FC0116
:10014000EC55FF4F2491FC01E057FF4FE491EE2363
:1001500009F43BC0332339F1333091F038F43130B6
:10016000A9F0323001F584B58F7D12C0373091F09F
:100170003830A1F03430B9F4809180008F7D03C015
:10018000809180008F77809380000DC084B58F7739
:1001900084BD09C08091B0008F7703C08091B0000A
:1001A0008F7D8093B000F0E0EE0FFF1FE458FF4F0B
:1001B000A591B4918FB7F894EC91611103C020958B
:1001C0002E2301C02E2B2C938FBF08953FB7F89498
:1001D00080910B0390910C03A0910D03B0910E033D
:1001E00026B5A89B05C02F3F19F00196A11DB11D92
:1001F0003FBFBA2FA92F982F8827820F911DA11DCD
:10020000B11DBC01CD0142E0660F771F881F991F09
:100210004A95D1F708950F931F93CF93DF93062F3D
:10022000682F85E00E949A0060E087E00E949A00B3
:10023000C7E0D0E010E0B8010C2E02C075956795BC
:100240000A94E2F76170772784E00E949A0061E0E7
:1002500083E00E949A0060E083E00E949A00219768
:1002600050F761E087E0DF91CF911F910F910C94DF
:100270009A00CF93C62F682F606880E00E940B0120
:100280006C2F606480E0CF910C940B01EF92FF9291
:100290000F931F93CF93DF937C01F701C1917F01EF
:1002A000CC23E9F060E081E00E940B0185E0C80208
:1002B000E001112400E010E0F801EC0FFD1FE05A0E
:1002C000FF4F608181E00E940B010F5F1F4F0530DF
:1002D000110591F760E081E00E940B01DECFDF9114
:1002E000CF911F910F91FF90EF9008951F920F9261
:1002F0000FB60F9211242F933F938F939F93AF9339
:10030000BF938091070390910803A0910903B091D6
:100310000A033091060323E0230F2D3720F40196C2
:10032000A11DB11D05C026E8230F0296A11DB11D18
:10033000209306038093070390930803A093090377
:10034000B0930A0380910B0390910C03A0910D03CD
:10035000B0910E030196A11DB11D80930B039093E4
:100360000C03A0930D03B0930E03BF91AF919F9127
:100370008F913F912F910F900FBE0F901F90189566
:10038000789484B5826084BD84B5816084BD85B570
:10039000826085BD85B5816085BD80916E0081607C
:1003A00080936E0010928100809181008260809322
:1003B0008100809181008160809381008091800024
:1003C0008160809380008091B10084608093B1004F
:1003D0008091B00081608093B00080917A00846049
:1003E00080937A0080917A00826080937A00809175
:1003F0007A00816080937A0080917A00806880938F
:100400007A001092C10087E00E947B0086E00E9483
:100410007B0085E00E947B0084E00E947B0083E0FB
:100420000E947B0060E086E00E949A0061E086E026
:100430000E949A0061E280E00E940B016FEB80E075
:100440000E940B0164E080E00E940B0160E180E00B
:100450000E940B016CE080E00E940B0160E280E0F2
:100460000E940B016CE080E00E940B01C8EFD1E01C
:1004700060E081E00E940B012197D1F7C0E0D0E05D
:1004800060E070E0CE010E94390161E081E00E94ED
:100490000B012196C435D10599F7C0E0D0E065E0A5
:1004A00070E0CE010E94390160E881E00E940B01FA
:1004B0002196C435D10599F7C0E0D0E0BE0183E5AF
:1004C00090E00E9439016FEF81E00E940B012196BC
:1004D000C630D10599F7C0E0D0E0BE0180E090E0E1
:1004E0000E9439016FEF81E00E940B012196C63016
:1004F000D10599F761E070E087E090E00E94390152
:1005000080EE92E00E94460162E070E084E090E0BC
:100510000E9439018BEE92E00E944601C0E0D0E0DB
:1005200064E070E084E090E00E94390186EF92E0A0
:100530000E9446010E94E6004B015C0188ECC82E37
:10054000D12CE12CF12C0E94E600DC01CB018819B2
:100550009909AA09BB09883E9340A105B10558F045
:1005600021E0C21AD108E108F10888EE880E83E084
:10057000981EA11CB11CC114D104E104F10419F7A7
:0E058000209771F20E940000CBCFF894FFCFBD
:10058E00000000000000005F0000000700070014DC
:10059E007F147F14242A7F2A12231308646236499B
:1005AE005522500005030000001C2241000041228C
:1005BE001C0014083E081408083E080800503000BD
:1005CE0000080808080800606000002010080402F7
:1005DE003E5149453E00427F40004261514946210D
:1005EE0041454B311814127F1027454545393C4A79
:1005FE0049493001710905033649494936064949C9
:10060E00291E00363600000056360000081422411E
:10061E000014141414140041221408020151090686
:10062E00324979413E7E1111117E7F494949363E4C
:10063E00414141227F4141221C7F494949417F0965
:10064E000909013E4149497A7F0808087F00417F28
:10065E0041002040413F017F081422417F4040402D
:10066E00407F020C027F7F0408107F3E4141413ED5
:10067E007F090909063E4151215E7F091929464627
:10068E004949493101017F01013F4040403F1F2050
:10069E0040201F3F4038403F631408146307087022
:1006AE0008076151494543007F414100020408108B
:1006BE00200041417F0004020102044040404040BE
:1006CE00000102040020545454787F4844443838C2
:1006DE0044444420384444487F3854545418087EC7
:1006EE000901020C5252523E7F0804047800447DE8
:1006FE0040002040443D007F1028440000417F40D0
:10070E00007C041804787C08040478384444443887
:10071E007C14141408081414187C7C08040408486B
:10072E0054545420043F4440203C4040207C1C2024
:10073E0040201C3C4030403C44281028440C505073
:10074E00503C4464544C44000836410000007F0085
:10075E0000004136080010080810080006090906B6
:10076E0048454C50204D4521212100486561767940
:10077E00205261696E004D4F4F4E43414B452069EB
:06078E006E203730390037
:00000001FF
