:100000000C9436000C945E000C945E000C945E0020
:100010000C945E000C945E000C945E000C945E00E8
:100020000C945E000C945E000C945E000C945E00D8
:100030000C945E000C945E000C945E000C945E00C8
:100040000C94F1010C945E000C94BF010C94990186
:100050000C945E000C945E000C945E000C945E00A8
:100060000C945E000C945E003B023A0311241FBE08
:10007000CFEFD8E0DEBFCDBF11E0A0E0B1E0E6E217
:10008000F9E002C005900D92A036B107D9F722E041
:10009000A0E6B1E001C01D92AE30B207E1F710E07A
:1000A000C5E3D0E004C02197FE010E944E03C43393
:1000B000D107C9F70E9468020C9486040C940000D2
:1000C000CF92DF92EF92FF920F931F93CF93DF9324
:1000D0006C017A018B01C0E0D0E0CE15DF0589F01C
:1000E000D8016D918D01D601ED91FC910190F081C7
:1000F000E02DC6010995892B11F47E0102C02196DD
:10010000ECCFC701DF91CF911F910F91FF90EF903E
:10011000DF90CF900895089580E090E00895FC016D
:10012000538D448D252F30E0842F90E0821B930B5C
:10013000541710F0CF96089501970895FC01918D02
:10014000828D981761F0828DDF01A80FB11D5D9639
:100150008C91928D9F5F9F73928F90E008958FEFA7
:100160009FEF0895FC01918D828D981731F0828D5B
:10017000E80FF11D858D90E008958FEF9FEF0895B2
:10018000FC01918D228D892F90E0805C9F4F821B16
:1001900091098F73992708958DE691E00E94C00020
:1001A00021E0892B09F420E0822F0895FC01848D41
:1001B000DF01A80FB11DA35ABF4F2C91848D90E091
:1001C00001968F739927848FA689B7892C93A0896C
:1001D000B1898C9180648C93938D848D981306C023
:1001E0000288F389E02D80818F7D80830895EF92CE
:1001F000FF920F931F93CF93DF93EC0181E0888FE1
:100200009B8D8C8D981305C0E889F989808185FDC7
:1002100024C0F62E0B8D10E00F5F1F4F0F731127B8
:10022000E02E8C8DE8120CC00FB607FCFACFE889DF
:10023000F989808185FFF5CFCE010E94D600F1CFEC
:100240008B8DFE01E80FF11DE35AFF4FF0820B8FFB
:10025000EA89FB898081806207C0EE89FF8960831B
:10026000E889F98980818064808381E090E0DF9172
:10027000CF911F910F91FF90EF900895CF93DF934F
:10028000EC01888D8823C9F0EA89FB89808185FD8E
:1002900005C0A889B9898C9186FD0FC00FB607FCEF
:1002A000F5CF808185FFF2CFA889B9898C9185FF30
:1002B000EDCFCE010E94D600E7CFDF91CF91089518
:1002C00080E090E0892B29F00E94CC0081110C94F1
:1002D000000008953FB7F894809161019091620108
:1002E000A0916301B091640126B5A89B05C02F3F82
:1002F00019F00196A11DB11D3FBFBA2FA92F982F4C
:100300008827820F911DA11DB11DBC01CD0142E0C6
:10031000660F771F881F991F4A95D1F708950E948D
:100320008104FC0180819181009711F00C94E90314
:1003300008951F920F920FB60F9211242F933F939F
:100340004F935F936F937F938F939F93AF93BF93DD
:10035000EF93FF938DE691E00E94D600FF91EF911D
:10036000BF91AF919F918F917F916F915F914F91CD
:100370003F912F910F900FBE0F901F9018951F92D5
:100380000F920FB60F9211242F938F939F93EF9399
:10039000FF93E0917D01F0917E018081E0918301E6
:1003A000F091840182FD12C09081809186018F5F5F
:1003B0008F7320918701821751F0E0918601F0E060
:1003C000E359FE4F958F8093860101C08081FF9194
:1003D000EF919F918F912F910F900FBE0F901F90D3
:1003E00018951F920F920FB60F9211242F933F93DF
:1003F0008F939F93AF93BF93809165019091660116
:10040000A0916701B09168013091600123E0230F52
:100410002D3720F40196A11DB11D05C026E8230F3C
:100420000296A11DB11D20936001809365019093F8
:100430006601A0936701B09368018091610190917A
:100440006201A0916301B09164010196A11DB11DEB
:100450008093610190936201A0936301B093640162
:10046000BF91AF919F918F913F912F910F900FBEB0
:100470000F901F901895EDE6F1E01382128288EE3E
:1004800093E0A0E0B0E084839583A683B78382E500
:1004900091E09183808385EC90E09587848784EC5C
:1004A00090E09787868780EC90E0918B808B81EC41
:1004B00090E0938B828B82EC90E0958B848B86EC22
:1004C00090E0978B868B118E128E138E148E08956A
:1004D000CF93DF93CDB7DEB767970FB6F894DEBF43
:1004E0000FBECDBF789484B5826084BD84B5816031
:1004F00084BD85B5826085BD85B5816085BD8091EF
:100500006E00816080936E00109281008091810066
:10051000826080938100809181008160809381005E
:10052000809180008160809380008091B100846020
:100530008093B1008091B00081608093B000809181
:100540007A00846080937A0080917A008260809340
:100550007A0080917A00816080937A0080917A009D
:10056000806880937A001092C100E0917D01F09143
:100570007E0182E08083E0917901F0917A0110821E
:10058000E0917B01F0917C0187E6808310928501E8
:10059000E0918101F091820186E08083E0917F010A
:1005A000F0918001808180618083E0917F01F091F2
:1005B0008001808188608083E0917F01F0918001DB
:1005C000808180688083E0917F01F091800180814B
:1005D0008F7D80832FB7F89480916501909166019B
:1005E000A0916701B09168012FBF8093690190933A
:1005F0006A01A0936B01B0936C0117E1E5E1F1E0B2
:10060000DE011196812F01900D928A95E1F747E165
:1006100050E0BE016F5F7F4F8DE691E00E94600069
:100620000E946A014B015C018CEDC82E85E0D82E3A
:10063000E12CF12C0E946A01DC01CB018819990997
:10064000AA09BB09883E9340A105B10558F021E0F5
:10065000C21AD108E108F10888EE880E83E0981EDE
:10066000A11CB11CC114D104E104F10419F70E94CA
:100670006001C4CF8CE091E00E94910189E091E09B
:100680000E94910186E091E00E94910183E091E057
:100690000E94910180E091E00C949101EE0FFF1F08
:1006A0000590F491E02D0994CF93DF93823091056A
:1006B00010F482E090E0E0910C02F0910D0220E055
:1006C00030E0C0E0D0E0309711F14081518148170F
:1006D0005907C0F04817590761F482819381209728
:1006E00019F09B838A832BC090930D0280930C0298
:1006F00026C02115310519F04217530718F49A0145
:10070000BE01DF01EF010280F381E02DDCCF211576
:10071000310509F1281B390B2430310590F412966C
:100720008D919C9113976115710521F0FB019383C5
:10073000828304C090930D0280930C02FD013296D7
:1007400044C0FD01E20FF31F8193919322503109C0
:100750002D933C933AC020910A0230910B02232B37
:1007600041F4209111013091120130930B0220933A
:100770000A0220910F01309110012115310541F439
:100780002DB73EB74091130150911401241B350B36
:10079000E0910A02F0910B02E217F307A0F42E1B7E
:1007A0003F0B2817390778F0AC014E5F5F4F2417D5
:1007B000350748F04E0F5F1F50930B0240930A021B
:1007C0008193919302C0E0E0F0E0CF01DF91CF91FF
:1007D00008950F931F93CF93DF93009709F48CC074
:1007E000FC0132971382128200910C0210910D02CB
:1007F0000115110581F420813181820F931F209111
:100800000A0230910B022817390779F5F0930B0291
:10081000E0930A0271C0D80140E050E0AE17BF0774
:1008200050F412962D913C911397AD01211531058D
:1008300009F1D901F3CF9D01DA013383228360816D
:100840007181860F971F8217930769F4EC01288145
:100850003981260F371F2E5F3F4F318320838A81D6
:100860009B8193838283452B29F4F0930D02E093BF
:100870000C0242C01396FC93EE931297ED0149913E
:1008800059919E01240F351FE217F30771F48081FF
:100890009181840F951F029611969C938E9382816D
:1008A000938113969C938E931297E0E0F0E0D80129
:1008B00012968D919C911397009719F0F8018C0175
:1008C000F6CF8D919C9198012E5F3F4F820F931F21
:1008D00020910A0230910B022817390769F43097EA
:1008E00029F410920D0210920C0202C0138212829F
:1008F00010930B0200930A02DF91CF911F910F9189
:10090000089581E090E0F8940C94860410E0C5E32B
:10091000D0E004C0FE010E944E032196C633D107E9
:06092000C9F7F894FFCFB7
:100926002C0106320106380108400108480106007C
:10093600000E028000FE12448100010002341256AD
:100946007800000012345678000112C7FE014100FB
:100956000040FE0141000141FE032605030100227D
:10096600FE03260503010321FE0125400064000065
:100976000000F70060008F003E01C0009E00B2003C
:00000001FF
