:100000000C9436000C945E000C945E000C945E0020
:100010000C945E000C945E000C945E000C945E00E8
:100020000C945E000C945E000C945E000C945E00D8
:100030000C945E000C945E000C945E000C945E00C8
:100040000C94C7010C945E000C9437020C941102BE
:100050000C945E000C945E000C945E000C945E00A8
:100060000C945E000C945E006902300311241FBEE4
:10007000CFEFD8E0DEBFCDBF11E0A0E0B1E0E6E514
:10008000F9E002C005900D92AC34B107D9F721E038
:10009000ACE4B1E001C01D92A63FB207E1F710E069
:1000A000C5E3D0E004C02197FE010E946603C4337B
:1000B000D107C9F70E9496020C949E040C9400008C
:1000C000CF92DF92EF92FF920F931F93CF93DF9324
:1000D0006C017A018B01C0E0D0E0CE15DF0589F01C
:1000E000D8016D918D01D601ED91FC910190F081C7
:1000F000E02DC6010995892B11F47E0102C02196DD
:10010000ECCFC701DF91CF911F910F91FF90EF903E
:10011000DF90CF900895089580E090E00895FC016D
:10012000538D448D252F30E0842F90E0821B930B5C
:10013000541710F0CF96089501970895FC01918D02
:10014000828D981761F0828DDF01A80FB11D5D9639
:100150008C91928D9F5F9F73928F90E008958FEFA7
:100160009FEF0895FC01918D828D981731F0828D5B
:10017000E80FF11D858D90E008958FEF9FEF0895B2
:10018000FC01918D228D892F90E0805C9F4F821B16
:1001900091098F739927089585E591E00E94C00029
:1001A00021E0892B09F420E0822F0895FC01848D41
:1001B000DF01A80FB11DA35ABF4F2C91848D90E091
:1001C00001968F739927848FA689B7892C93A0896C
:1001D000B1898C9180648C93938D848D981306C023
:1001E0000288F389E02D80818F7D80830895EF92CE
:1001F000FF920F931F93CF93DF93EC0181E0888FE1
:100200009B8D8C8D981305C0E889F989808185FDC7
:1002100024C0F62E0B8D10E00F5F1F4F0F731127B8
:10022000E02E8C8DE8120CC00FB607FCFACFE889DF
:10023000F989808185FFF5CFCE010E94D600F1CFEC
:100240008B8DFE01E80FF11DE35AFF4FF0820B8FFB
:10025000EA89FB898081806207C0EE89FF8960831B
:10026000E889F98980818064808381E090E0DF9172
:10027000CF911F910F91FF90EF900895CF93DF934F
:10028000EC01888D8823C9F0EA89FB89808185FD8E
:1002900005C0A889B9898C9186FD0FC00FB607FCEF
:1002A000F5CF808185FFF2CFA889B9898C9185FF30
:1002B000EDCFCE010E94D600E7CFDF91CF91089518
:1002C00080E090E0892B29F00E94CC0081110C94F1
:1002D00000000895009769F0FC0101900020E9F703
:1002E0003197AF01481B590BBC0185E591E00C9497
:1002F000600080E090E008958F929F92AF92BF924D
:100300000F931F93CF93DF93CDB7DEB7A1970FB6AF
:10031000F894DEBF0FBECDBF19A2423008F44AE008
:100320008E010F5D1F4F842E912CA12CB12CA501A5
:1003300094010E944403E62FB901CA01015011093A
:10034000EA3014F4E05D01C0E95CD801EC93232BA2
:10035000242B252B61F7C8010E946A01A1960FB6D4
:10036000F894DEBF0FBECDBFDF91CF911F910F91EB
:10037000BF90AF909F908F9008950E949904FC01C8
:1003800080819181009711F00C94010408951F92CF
:100390000F920FB60F9211242F933F938F939F9339
:1003A000AF93BF938091510190915201A09153015D
:1003B000B09154013091500123E0230F2D3720F4E8
:1003C0000196A11DB11D05C026E8230F0296A11DAF
:1003D000B11D209350018093510190935201A0933D
:1003E0005301B093540180914C0190914D01A09123
:1003F0004E01B0914F010196A11DB11D80934C019A
:1004000090934D01A0934E01B0934F01BF91AF91D6
:100410009F918F913F912F910F900FBE0F901F9042
:1004200018951F920F920FB60F9211242F933F939E
:100430004F935F936F937F938F939F93AF93BF93EC
:10044000EF93FF9385E591E00E94D600FF91EF9135
:10045000BF91AF919F918F917F916F915F914F91DC
:100460003F912F910F900FBE0F901F9018951F92E4
:100470000F920FB60F9211242F938F939F93EF93A8
:10048000FF93E0916501F09166018081E0916B013D
:10049000F0916C0182FD12C0908180916E018F5F9E
:1004A0008F7320916F01821751F0E0916E01F0E09F
:1004B000EB5AFE4F958F80936E0101C08081FF91B2
:1004C000EF919F918F912F910F900FBE0F901F90E2
:1004D0001895E5E5F1E01382128288EE93E0A0E042
:1004E000B0E084839583A683B7838BE391E0918307
:1004F000808385EC90E09587848784EC90E09787F3
:10050000868780EC90E0918B808B81EC90E0938BE0
:10051000828B82EC90E0958B848B86EC90E0978BBD
:10052000868B118E128E138E148E0895789484B556
:10053000826084BD84B5816084BD85B5826085BDDF
:1005400085B5816085BD80916E00816080936E006D
:10055000109281008091810082608093810080915F
:100560008100816080938100809180008160809310
:1005700080008091B10084608093B1008091B000D0
:1005800081608093B00080917A00846080937A00CB
:1005900080917A00826080937A0080917A008160F5
:1005A00080937A0080917A00806880937A0010921C
:1005B000C100E0916501F091660182E08083E091E5
:1005C0006101F09162011082E0916301F091640198
:1005D00087E6808310926D01E0916901F0916A01D4
:1005E00086E08083E0916701F091680180818061FD
:1005F0008083E0916701F091680180818860808349
:10060000E0916701F0916801808180688083E091CA
:100610006701F091680180818F7D808340E160E710
:1006200070E080E090E00E947C0189E491E00E940B
:100630006A0140E167E170E080E090E00E947C01A7
:1006400089E491E00E946A0160E777E180E090E050
:100650004AE00E947C0189E491E00E946A01FFCF98
:100660008CE091E00E94BF0189E091E00E94BF010F
:1006700086E091E00E94BF0183E091E00E94BF010B
:1006800080E091E00C94BF01A1E21A2EAA1BBB1BD3
:10069000FD010DC0AA1FBB1FEE1FFF1FA217B3074E
:1006A000E407F50720F0A21BB30BE40BF50B661F64
:1006B000771F881F991F1A9469F760957095809528
:1006C00090959B01AC01BD01CF010895EE0FFF1F76
:1006D0000590F491E02D0994CF93DF93823091053A
:1006E00010F482E090E0E091F401F091F50120E057
:1006F00030E0C0E0D0E0309711F1408151814817DF
:100700005907C0F04817590761F4828193812097F7
:1007100019F09B838A832BC09093F5018093F40199
:1007200026C02115310519F04217530718F49A0114
:10073000BE01DF01EF010280F381E02DDCCF211546
:10074000310509F1281B390B2430310590F412963C
:100750008D919C9113976115710521F0FB01938395
:10076000828304C09093F5018093F401FD013296D9
:1007700044C0FD01E20FF31F819391932250310990
:100780002D933C933AC02091F2013091F301232B39
:1007900041F420911101309112013093F301209323
:1007A000F20120910F01309110012115310541F422
:1007B0002DB73EB74091130150911401241B350B06
:1007C000E091F201F091F301E217F307A0F42E1B80
:1007D0003F0B2817390778F0AC014E5F5F4F2417A5
:1007E000350748F04E0F5F1F5093F3014093F2011D
:1007F0008193919302C0E0E0F0E0CF01DF91CF91CF
:1008000008950F931F93CF93DF93009709F48CC043
:10081000FC013297138212820091F4011091F501CC
:100820000115110581F420813181820F931F2091E0
:10083000F2013091F3012817390779F5F093F301AC
:10084000E093F20171C0D80140E050E0AE17BF075D
:1008500050F412962D913C911397AD01211531055D
:1008600009F1D901F3CF9D01DA013383228360813D
:100870007181860F971F8217930769F4EC01288115
:100880003981260F371F2E5F3F4F318320838A81A6
:100890009B8193838283452B29F4F093F501E093A8
:1008A000F40142C01396FC93EE931297ED01499127
:1008B00059919E01240F351FE217F30771F48081CF
:1008C0009181840F951F029611969C938E9382813D
:1008D000938113969C938E931297E0E0F0E0D801F9
:1008E00012968D919C911397009719F0F8018C0145
:1008F000F6CF8D919C9198012E5F3F4F820F931FF1
:100900002091F2013091F3012817390769F43097EB
:1009100029F41092F5011092F40102C013821282A0
:100920001093F3010093F201DF91CF911F910F918A
:10093000089581E090E0F8940C949E0410E0C5E3E3
:10094000D0E004C0FE010E9466032196C633D107A1
:06095000C9F7F894FFCF87
:100956001501061B010621010829010831010600BF
:1009660000F6018000FE0141000040FE0141000149
:1009760041FE03260503010022FE032605030103AB
:1009860021FE012540006400000000F70060008F92
:0C099600003E01C0009E00B2000D0A00EF
:00000001FF
