:100000000C9436000C945E000C945E000C945E0020
:100010000C945E000C945E000C945E000C945E00E8
:100020000C945E000C945E000C945E000C945E00D8
:100030000C945E000C945E000C945E000C945E00C8
:100040000C94F1010C945E000C94BF010C94990186
:100050000C945E000C945E000C945E000C945E00A8
:100060000C945E000C945E003B023A0311241FBE08
:10007000CFEFD8E0DEBFCDBF11E0A0E0B1E0E6E217
:10008000F9E002C005900D92A836B107D9F722E039
:10009000A8E6B1E001C01D92A631B207E1F710E079
:1000A000C5E3D0E004C02197FE010E944E03C43393
:1000B000D107C9F70E9468020C9486040C940000D2
:1000C000CF92DF92EF92FF920F931F93CF93DF9324
:1000D0006C017A018B01C0E0D0E0CE15DF0589F01C
:1000E000D8016D918D01D601ED91FC910190F081C7
:1000F000E02DC6010995892B11F47E0102C02196DD
:10010000ECCFC701DF91CF911F910F91FF90EF903E
:10011000DF90CF900895089580E090E00895FC016D
:10012000538D448D252F30E0842F90E0821B930B5C
:10013000541710F0CF96089501970895FC01918D02
:10014000828D981761F0828DDF01A80FB11D5D9639
:100150008C91928D9F5F9F73928F90E008958FEFA7
:100160009FEF0895FC01918D828D981731F0828D5B
:10017000E80FF11D858D90E008958FEF9FEF0895B2
:10018000FC01918D228D892F90E0805C9F4F821B16
:1001900091098F739927089585E791E00E94C00027
:1001A00021E0892B09F420E0822F0895FC01848D41
:1001B000DF01A80FB11DA35ABF4F2C91848D90E091
:1001C00001968F739927848FA689B7892C93A0896C
:1001D000B1898C9180648C93938D848D981306C023
:1001E0000288F389E02D80818F7D80830895EF92CE
:1001F000FF920F931F93CF93DF93EC0181E0888FE1
:100200009B8D8C8D981305C0E889F989808185FDC7
:1002100024C0F62E0B8D10E00F5F1F4F0F731127B8
:10022000E02E8C8DE8120CC00FB607FCFACFE889DF
:10023000F989808185FFF5CFCE010E94D600F1CFEC
:100240008B8DFE01E80FF11DE35AFF4FF0820B8FFB
:10025000EA89FB898081806207C0EE89FF8960831B
:10026000E889F98980818064808381E090E0DF9172
:10027000CF911F910F91FF90EF900895CF93DF934F
:10028000EC01888D8823C9F0EA89FB89808185FD8E
:1002900005C0A889B9898C9186FD0FC00FB607FCEF
:1002A000F5CF808185FFF2CFA889B9898C9185FF30
:1002B000EDCFCE010E94D600E7CFDF91CF91089518
:1002C00080E090E0892B29F00E94CC0081110C94F1
:1002D000000008953FB7F8948091690190916A01F8
:1002E000A0916B01B0916C0126B5A89B05C02F3F72
:1002F00019F00196A11DB11D3FBFBA2FA92F982F4C
:100300008827820F911DA11DB11DBC01CD0142E0C6
:10031000660F771F881F991F4A95D1F708950E948D
:100320008104FC0180819181009711F00C94E90314
:1003300008951F920F920FB60F9211242F933F939F
:100340004F935F936F937F938F939F93AF93BF93DD
:10035000EF93FF9385E791E00E94D600FF91EF9124
:10036000BF91AF919F918F917F916F915F914F91CD
:100370003F912F910F900FBE0F901F9018951F92D5
:100380000F920FB60F9211242F938F939F93EF9399
:10039000FF93E0918501F09186018081E0918B01CE
:1003A000F0918C0182FD12C0908180918E018F5F4F
:1003B0008F7320918F01821751F0E0918E01F0E050
:1003C000EB58FE4F958F80938E0101C08081FF9185
:1003D000EF919F918F912F910F900FBE0F901F90D3
:1003E00018951F920F920FB60F9211242F933F93DF
:1003F0008F939F93AF93BF9380916D0190916E0106
:10040000A0916F01B09170013091680123E0230F3A
:100410002D3720F40196A11DB11D05C026E8230F3C
:100420000296A11DB11D2093680180936D019093E8
:100430006E01A0936F01B09370018091690190915A
:100440006A01A0916B01B0916C010196A11DB11DD3
:100450008093690190936A01A0936B01B0936C0142
:10046000BF91AF919F918F913F912F910F900FBEB0
:100470000F901F901895E5E7F1E01382128288EE45
:1004800093E0A0E0B0E084839583A683B78389E5F9
:1004900091E09183808385EC90E09587848784EC5C
:1004A00090E09787868780EC90E0918B808B81EC41
:1004B00090E0938B828B82EC90E0958B848B86EC22
:1004C00090E0978B868B118E128E138E148E08956A
:1004D000CF93DF93CDB7DEB76E970FB6F894DEBF3C
:1004E0000FBECDBF789484B5826084BD84B5816031
:1004F00084BD85B5826085BD85B5816085BD8091EF
:100500006E00816080936E00109281008091810066
:10051000826080938100809181008160809381005E
:10052000809180008160809380008091B100846020
:100530008093B1008091B00081608093B000809181
:100540007A00846080937A0080917A008260809340
:100550007A0080917A00816080937A0080917A009D
:10056000806880937A001092C100E0918501F0913B
:10057000860182E08083E0918101F0918201108206
:10058000E0918301F091840187E6808310928D01D0
:10059000E0918901F0918A0186E08083E0918701F2
:1005A000F0918801808180618083E0918701F091E2
:1005B0008801808188608083E0918701F0918801C3
:1005C000808180688083E0918701F091880180813B
:1005D0008F7D80832FB7F89480916D0190916E018B
:1005E000A0916F01B09170012FBF80937101909322
:1005F0007201A0937301B09374011EE1E5E1F1E093
:10060000DE011196812F01900D928A95E1F743E268
:1006100050E0BE016F5F7F4F85E791E00E94600070
:100620000E946A014B015C0188E8C82E83E1D82E44
:10063000E12CF12C0E946A01DC01CB018819990997
:10064000AA09BB09883E9340A105B10558F021E0F5
:10065000C21AD108E108F10888EE880E83E0981EDE
:10066000A11CB11CC114D104E104F10419F70E94CA
:100670006001C4CF8CE091E00E94910189E091E09B
:100680000E94910186E091E00E94910183E091E057
:100690000E94910180E091E00C949101EE0FFF1F08
:1006A0000590F491E02D0994CF93DF93823091056A
:1006B00010F482E090E0E0911402F091150220E045
:1006C00030E0C0E0D0E0309711F14081518148170F
:1006D0005907C0F04817590761F482819381209728
:1006E00019F09B838A832BC0909315028093140288
:1006F00026C02115310519F04217530718F49A0145
:10070000BE01DF01EF010280F381E02DDCCF211576
:10071000310509F1281B390B2430310590F412966C
:100720008D919C9113976115710521F0FB019383C5
:10073000828304C09093150280931402FD013296C7
:1007400044C0FD01E20FF31F8193919322503109C0
:100750002D933C933AC02091120230911302232B27
:1007600041F4209111013091120130931302209332
:10077000120220910F01309110012115310541F431
:100780002DB73EB74091130150911401241B350B36
:10079000E0911202F0911302E217F307A0F42E1B6E
:1007A0003F0B2817390778F0AC014E5F5F4F2417D5
:1007B000350748F04E0F5F1F50931302409312020B
:1007C0008193919302C0E0E0F0E0CF01DF91CF91FF
:1007D00008950F931F93CF93DF93009709F48CC074
:1007E000FC013297138212820091140210911502BB
:1007F0000115110581F420813181820F931F209111
:100800001202309113022817390779F5F093130279
:10081000E093120271C0D80140E050E0AE17BF076C
:1008200050F412962D913C911397AD01211531058D
:1008300009F1D901F3CF9D01DA013383228360816D
:100840007181860F971F8217930769F4EC01288145
:100850003981260F371F2E5F3F4F318320838A81D6
:100860009B8193838283452B29F4F0931502E093B7
:10087000140242C01396FC93EE931297ED01499136
:1008800059919E01240F351FE217F30771F48081FF
:100890009181840F951F029611969C938E9382816D
:1008A000938113969C938E931297E0E0F0E0D80129
:1008B00012968D919C911397009719F0F8018C0175
:1008C000F6CF8D919C9198012E5F3F4F820F931F21
:1008D00020911202309113022817390769F43097DA
:1008E00029F4109215021092140202C0138212828F
:1008F0001093130200931202DF91CF911F910F9179
:10090000089581E090E0F8940C94860410E0C5E32B
:10091000D0E004C0FE010E944E032196C633D107E9
:06092000C9F7F894FFCFB7
:100926003301063901063F01084701084F01060059
:100936000016028000FE194481000100023412569E
:10094600780000001234567800080001000DC2F647
:10095600E6666FFE0141000040FE0141000141FED6
:1009660003260503010022FE03260503010321FEDB
:10097600012540006400000000F70060008F003E83
:0809860001C0009E00B2000058
:00000001FF
