:100000000C9436000C945E000C945E000C945E0020
:100010000C945E000C945E000C945E000C945E00E8
:100020000C945E000C945E000C945E000C945E00D8
:100030000C945E000C945E000C945E000C945E00C8
:100040000C94CC010C945E000C949A010C947401F5
:100050000C945E000C945E000C945E000C945E00A8
:100060000C945E000C945E001602DF0211241FBE89
:10007000CFEFD8E0DEBFCDBF11E0A0E0B1E0E0E718
:10008000F8E002C005900D92A035B107D9F721E044
:10009000A0E5B1E001C01D92AE3FB207E1F710E06C
:1000A000C5E3D0E004C02197FE010E94F302C433EF
:1000B000D107C9F70E9443020C942B040C94000052
:1000C000CF92DF92EF92FF920F931F93CF93DF9324
:1000D0006C017A018B01C0E0D0E0CE15DF0589F01C
:1000E000D8016D918D01D601ED91FC910190F081C7
:1000F000E02DC6010995892B11F47E0102C02196DD
:10010000ECCFC701DF91CF911F910F91FF90EF903E
:10011000DF90CF900895089580E090E00895FC016D
:10012000538D448D252F30E0842F90E0821B930B5C
:10013000541710F0CF96089501970895FC01918D02
:10014000828D981761F0828DDF01A80FB11D5D9639
:100150008C91928D9F5F9F73928F90E008958FEFA7
:100160009FEF0895FC01918D828D981731F0828D5B
:10017000E80FF11D858D90E008958FEF9FEF0895B2
:10018000FC01918D228D892F90E0805C9F4F821B16
:1001900091098F73992708958DE591E00E94C00021
:1001A00021E0892B09F420E0822F0895FC01848D41
:1001B000DF01A80FB11DA35ABF4F2C91848D90E091
:1001C00001968F739927848FA689B7892C93A0896C
:1001D000B1898C9180648C93938D848D981306C023
:1001E0000288F389E02D80818F7D80830895EF92CE
:1001F000FF920F931F93CF93DF93EC0181E0888FE1
:100200009B8D8C8D981305C0E889F989808185FDC7
:1002100024C0F62E0B8D10E00F5F1F4F0F731127B8
:10022000E02E8C8DE8120CC00FB607FCFACFE889DF
:10023000F989808185FFF5CFCE010E94D600F1CFEC
:100240008B8DFE01E80FF11DE35AFF4FF0820B8FFB
:10025000EA89FB898081806207C0EE89FF8960831B
:10026000E889F98980818064808381E090E0DF9172
:10027000CF911F910F91FF90EF900895CF93DF934F
:10028000EC01888D8823C9F0EA89FB89808185FD8E
:1002900005C0A889B9898C9186FD0FC00FB607FCEF
:1002A000F5CF808185FFF2CFA889B9898C9185FF30
:1002B000EDCFCE010E94D600E7CFDF91CF91089518
:1002C00080E090E0892B29F00E94CC0081110C94F1
:1002D000000008950E942604FC018081918100970E
:1002E00011F00C948E0308951F920F920FB60F9287
:1002F00011242F933F934F935F936F937F938F932B
:100300009F93AF93BF93EF93FF938DE591E00E948E
:10031000D600FF91EF91BF91AF919F918F917F9107
:100320006F915F914F913F912F910F900FBE0F9062
:100330001F9018951F920F920FB60F9211242F93B2
:100340008F939F93EF93FF93E0916D01F0916E0176
:100350008081E0917301F091740182FD12C090815F
:10036000809176018F5F8F7320917701821751F012
:10037000E0917601F0E0E35AFE4F958F809376018D
:1003800001C08081FF91EF919F918F912F910F90EC
:100390000FBE0F901F9018951F920F920FB60F92DD
:1003A00011242F933F938F939F93AF93BF9380918B
:1003B000550190915601A0915701B091580130918B
:1003C000540123E0230F2D3720F40196A11DB11D08
:1003D00005C026E8230F0296A11DB11D20935401EC
:1003E0008093550190935601A0935701B093580103
:1003F0008091500190915101A0915201B09153010F
:100400000196A11DB11D8093500190935101A093BD
:100410005201B0935301BF91AF919F918F913F9142
:100420002F910F900FBE0F901F901895EDE5F1E002
:100430001382128288EE93E0A0E0B0E0848395837B
:10044000A683B7838BE391E09183808385EC90E072
:100450009587848784EC90E09787868780EC90E08E
:10046000918B808B81EC90E0938B828B82EC90E07F
:10047000958B848B86EC90E0978B868B118E128EF9
:10048000138E148E0895789484B5826084BD84B5EB
:10049000816084BD85B5826085BD85B5816085BD7F
:1004A00080916E00816080936E0010928100809137
:1004B00081008260809381008091810081608093BF
:1004C0008100809180008160809380008091B100E4
:1004D00084608093B1008091B00081608093B0000F
:1004E00080917A00846080937A0080917A008260A3
:1004F00080937A0080917A00816080937A00809165
:100500007A00806880937A001092C100E0916D01BA
:10051000F0916E0182E08083E0916901F0916A01BF
:100520001082E0916B01F0916C0187E6808310925C
:100530007501E0917101F091720186E08083E09194
:100540006F01F0917001808180618083E0916F0183
:10055000F0917001808188608083E0916F01F0915B
:100560007001808180688083E0916F01F09170015B
:1005700080818F7D80832FB7F89480915501909171
:100580005601A0915701B09158012FBF8093590196
:1005900090935A01A0935B01B0935C0142E050E05C
:1005A00069E471E08DE591E00E94600042E050E076
:1005B0006CE471E08DE591E00E946000FFCF8CE07B
:1005C00091E00E946C0189E091E00E946C0186E05C
:1005D00091E00E946C0183E091E00E946C0180E058
:1005E00091E00C946C01EE0FFF1F0590F491E02D4B
:1005F0000994CF93DF938230910510F482E090E06C
:10060000E091FC01F091FD0120E030E0C0E0D0E09D
:10061000309711F14081518148175907C0F04817B0
:10062000590761F482819381209719F09B838A8313
:100630002BC09093FD018093FC0126C0211531054C
:1006400019F04217530718F49A01BE01DF01EF01B8
:100650000280F381E02DDCCF2115310509F1281B43
:10066000390B2430310590F412968D919C9113979B
:100670006115710521F0FB019383828304C090937F
:10068000FD018093FC01FD01329644C0FD01E20FA3
:10069000F31F81939193225031092D933C933AC0DB
:1006A0002091FA013091FB01232B41F4209111019B
:1006B000309112013093FB012093FA0120910F0138
:1006C000309110012115310541F42DB73EB740910D
:1006D000130150911401241B350BE091FA01F091A4
:1006E000FB01E217F307A0F42E1B3F0B2817390775
:1006F00078F0AC014E5F5F4F2417350748F04E0F7E
:100700005F1F5093FB014093FA018193919302C0C4
:10071000E0E0F0E0CF01DF91CF9108950F931F93B8
:10072000CF93DF93009709F48CC0FC0132971382BA
:1007300012820091FC011091FD010115110581F457
:1007400020813181820F931F2091FA013091FB01AA
:100750002817390779F5F093FB01E093FA0171C08E
:10076000D80140E050E0AE17BF0750F412962D912B
:100770003C911397AD012115310509F1D901F3CF52
:100780009D01DA013383228360817181860F971F77
:100790008217930769F4EC0128813981260F371FEE
:1007A0002E5F3F4F318320838A819B819383828395
:1007B000452B29F4F093FD01E093FC0142C0139610
:1007C000FC93EE931297ED01499159919E01240FEC
:1007D000351FE217F30771F480819181840F951F13
:1007E000029611969C938E938281938113969C938B
:1007F0008E931297E0E0F0E0D80112968D919C91D3
:100800001397009719F0F8018C01F6CF8D919C9108
:1008100098012E5F3F4F820F931F2091FA01309174
:10082000FB012817390769F4309729F41092FD016C
:100830001092FC0102C0138212821093FB010093FC
:10084000FA01DF91CF911F910F91089581E090E01F
:10085000F8940C942B0410E0C5E3D0E004C0FE0132
:100860000E94F3022196C633D107C9F7F894FFCF4F
:100870001501061B010621010829010831010600A6
:1008800000FE018000FE0141000040FE0141000128
:1008900041FE03260503010022FE03260503010392
:1008A00021FE012540006400000000F70060008F79
:1008B000003E01C0009E00B2003D3D000D0A000058
:107E0000112484B714BE81FFF0D085E080938100F7
:107E100082E08093C00088E18093C10086E0809377
:107E2000C20080E18093C4008EE0C9D0259A86E02C
:107E300020E33CEF91E0309385002093840096BBD3
:107E4000B09BFECF1D9AA8958150A9F7CC24DD24C4
:107E500088248394B5E0AB2EA1E19A2EF3E0BF2EE7
:107E6000A2D0813461F49FD0082FAFD0023811F036
:107E7000013811F484E001C083E08DD089C08234E0
:107E800011F484E103C0853419F485E0A6D080C0E4
:107E9000853579F488D0E82EFF2485D0082F10E0AE
:107EA000102F00270E291F29000F111F8ED06801E7
:107EB0006FC0863521F484E090D080E0DECF843638
:107EC00009F040C070D06FD0082F6DD080E0C81688
:107ED00080E7D80618F4F601B7BEE895C0E0D1E017
:107EE00062D089930C17E1F7F0E0CF16F0E7DF06D8
:107EF00018F0F601B7BEE89568D007B600FCFDCFD4
:107F0000A601A0E0B1E02C9130E011968C91119780
:107F100090E0982F8827822B932B1296FA010C0160
:107F200087BEE89511244E5F5F4FF1E0A038BF0790
:107F300051F7F601A7BEE89507B600FCFDCF97BE46
:107F4000E89526C08437B1F42ED02DD0F82E2BD052
:107F50003CD0F601EF2C8F010F5F1F4F84911BD097
:107F6000EA94F801C1F70894C11CD11CFA94CF0C13
:107F7000D11C0EC0853739F428D08EE10CD085E9AC
:107F80000AD08FE07ACF813511F488E018D01DD067
:107F900080E101D065CF982F8091C00085FFFCCF94
:107FA0009093C60008958091C00087FFFCCF809118
:107FB000C00084FD01C0A8958091C6000895E0E648
:107FC000F0E098E1908380830895EDDF803219F02E
:107FD00088E0F5DFFFCF84E1DECF1F93182FE3DFCA
:107FE0001150E9F7F2DF1F91089580E0E8DFEE27F6
:047FF000FF270994CA
:027FFE00040479
:0400000300007E007B
:00000001FF