:100000000C9458000C9480000C9480000C94800098
:100010000C9480000C9480000C9480000C94800060
:100020000C9480000C9480000C9480000C94800050
:100030000C9480000C9480000C9480000C94800040
:100040000C94E2020C9480000C9480000C948000CC
:100050000C9480000C9480000C9480000C94800020
:100060000C942C030C948000000000002500280054
:100070002B00040404040404040402020202020229
:10008000030303030303010204081020408001025C
:1000900004081020010204081020000000080002DB
:1000A00001000003040700000000000000005A04E3
:1000B00011241FBECFEFD8E0DEBFCDBF11E0A0E01E
:1000C000B1E0E6E0FBE002C005900D92A834B10774
:1000D000D9F721E0A8E4B1E001C01D92AD3FB2071D
:1000E000E1F710E0C8E5D0E004C02197FE010E94CE
:1000F0007605C735D107C9F70E947A040C948105AB
:100100000C94000090E0FC01E656FF4F2491FC01A6
:10011000EA57FF4F3491FC01EE58FF4FE491EE2374
:10012000B1F1222339F1233091F038F42130A9F0D4
:10013000223001F584B58F7D12C0273091F0283030
:10014000A1F02430B9F4809180008F7D03C08091AC
:1001500080008F77809380000DC084B58F7784BD39
:1001600009C08091B0008F7703C08091B0008F7D6F
:100170008093B000F0E0EE0FFF1FE859FF4FA5910C
:10018000B4918FB7F894EC913E2B3C938FBF0895B8
:10019000CF92DF92EF92FF920F931F93CF93DF9353
:1001A0006C017A018B01C0E0D0E0CE15DF0589F04B
:1001B000D8016D918D01D601ED91FC910190F081F6
:1001C000E02DC6010995892B11F47E0102C021960C
:1001D000ECCFC701DF91CF911F910F91FF90EF906E
:1001E000DF90CF9008953FB7F8948091DA01909115
:1001F000DB01A091DC01B091DD0126B5A89B05C013
:100200002F3F19F00196A11DB11D3FBFBA2FA92F95
:10021000982F8827820F911DA11DB11DBC01CD0112
:1002200042E0660F771F881F991F4A95D1F70895FE
:100230008F929F92AF92BF92CF92DF92EF92FF92F6
:100240006B017C010E94F3004B015C01C114D104DD
:10025000E104F104F1F00E94F300DC01CB01881904
:100260009909AA09BB09883E9340A105B10570F31D
:1002700021E0C21AD108E108F10888EE880E83E077
:10028000981EA11CB11CC114D104E104F10419F79A
:10029000DDCFFF90EF90DF90CF90BF90AF909F9019
:1002A0008F90089585ED8093BC008091BC0084FD03
:1002B000FCCF1092E001089540916A01262F30E0B2
:1002C000240F311D21323105DCF42091E00124306E
:1002D000C9F4FC0180E090E0861758F430916A017F
:1002E0002191DC01A85BBE4FA30FB11D2C93019699
:1002F000F3CF80916A01680F60936A0180E00895EE
:1003000081E0089582E00895089581E090E03091C1
:10031000E4012091E301321710F480E090E0919520
:100320008195910908958091E4019091E3018917E5
:1003300030F48F5F8093E40180E090E008958FEFC8
:100340009FEF08958091E30190E02091E401821BEA
:1003500091090895CF92DF92EF92FF920F931F932E
:10036000CF93DF937C01262F972F8A018091B301D1
:10037000882391F0C62FD72F6E01C40ED51ECC1541
:10038000DD0571F06991D701ED91FC910190F0814B
:10039000E02DC7010995F3CF642F822F0E945C01E5
:1003A000C801DF91CF911F910F91FF90EF90DF90E7
:1003B000CF900895CF93DF931F92CDB7DEB76983B7
:1003C0002091B3012223D1F02091E101203240F0AD
:1003D00021E030E0FC013383228380E090E015C00F
:1003E0008091E201E82FF0E0EC54FE4F9981908378
:1003F0008F5F8093E2018093E10105C061E0CE014F
:1004000001960E945C0181E090E00F90DF91CF9116
:100410000895CF93FC01C48121E02093B301C093E0
:10042000D4011092E2011092E1018385682B85EEE0
:1004300091E00E94DA018091E101813208F046C02A
:100440009091E0019111FCCF92E09093E00191E056
:100450009093DF019FEF9093B2011092B1018093CE
:10046000B001A4EBB1E020E931E0F9019E2F921B2D
:10047000981718F49D919193F9CF10928F01809164
:100480008F01CC0FC82BC0938F018091DE0181308A
:1004900061F41092DE0180918F018093BB00809106
:1004A000BC0083FDF8CF85EC01C085EE8093BC00D5
:1004B0008091E0018230E1F38091B2018F3F31F011
:1004C0008091B201803211F08091B2011092E2016C
:1004D0001092E1011092B301CF9108950F931F93F1
:1004E000CF938C01C62F0E9409026C2F6460C80153
:1004F0000E9409026C2F6B7FC8010E94090283ECE5
:1005000090E00197F1F7CF911F910F910895FF921D
:100510000F931F93CF93DF931F92CDB7DEB78C015C
:10052000F62E962F907F692F642BC80149830E9475
:100530006E0280E1F89EB00111244981642BC8014C
:100540000F90DF91CF911F910F91FF900C946E024D
:10055000CF93DF93CDB7DEB728970FB6F894DEBF01
:100560000FBECDBF98E0E0E0F1E0DE011196019012
:100570000D929A95E1F79091F901981710F48FEF89
:10058000890FFE013196E80FF11DE80FF11D608122
:10059000606840E081EF91E028960FB6F894DEBFE6
:1005A0000FBECDBFDF91CF910C94870241E00E9436
:1005B000870281E090E00895089580E090E008953A
:1005C0000E947C051F920F920FB60F9211242F9359
:1005D0003F938F939F93AF93BF938091D601909158
:1005E000D701A091D801B091D9013091D50123E074
:1005F000230F2D3720F40196A11DB11D05C026E85B
:10060000230F0296A11DB11D2093D5018093D60121
:100610009093D701A093D801B093D9018091DA01CA
:100620009091DB01A091DC01B091DD010196A11D4B
:10063000B11D8093DA019093DB01A093DC01B093AC
:10064000DD01BF91AF919F918F913F912F910F90BD
:100650000FBE0F901F9018951F920F920FB60F921A
:1006600011242F933F934F935F936F937F938F93B7
:100670009F93AF93BF93EF93FF938091B900887FCF
:10068000803609F49CC068F5883209F45BC090F4A8
:10069000803109F454C038F4882309F4F6C0883056
:1006A00009F44DC0F6C0883109F44CC0803209F419
:1006B0005DC0EFC0803409F468C048F4803309F4A9
:1006C00055C0883309F0E5C08093B201D8C08035A9
:1006D00009F44FC0883509F45DC0883409F0D9C0E9
:1006E000D6C0883909F4C7C0A8F4883709F467C0B0
:1006F00038F4883609F463C0803709F460C0C9C093
:10070000883809F4B8C0803909F45FC0803809F02E
:10071000C0C05BC0803B09F486C038F4803A09F45D
:1007200066C0883A09F47FC0B4C0803C09F4A7C011
:10073000883C09F4A4C0883B09F48AC0AAC080910F
:100740008F0110C09091B1018091B001981770F5A0
:10075000E091B10181E08E0F8093B101F0E0E057AC
:10076000FE4F80818093BB0085EC86C08093B201F0
:100770008EC0E091B10181E08E0F8093B101809134
:10078000BB00F0E0E057FE4F80839091B101809173
:10079000B0016EC0E091B10181E08E0F8093B10194
:1007A0008091BB00F0E0E057FE4F80838091DF0135
:1007B00081116DC081E08093DE0184EA61C083E035
:1007C0008093E00110928E01CFCF80918E01803214
:1007D00008F051C0E0918E0181E08E0F80938E0170
:1007E0008091BB00F0E0E259FE4F8083BDCF85ECE5
:1007F0008093BC001092E00180918E01803230F431
:10080000E0918E01F0E0E259FE4F108260918E017E
:1008100070E0E0916C01F0916D018EE691E0099538
:1008200010928E0136C084E08093E00110926B013B
:1008300010926A01E0916801F09169010995809137
:100840006A01811105C081E080936A01109248011C
:10085000E0916B0181E08E0F80936B01F0E0E85B2B
:10086000FE4F80818093BB0090916B0180916A0163
:10087000981708F479CF85E88093BC000AC085EC0E
:100880008093BC001092E00104C01092B2010E945B
:100890005201FF91EF91BF91AF919F918F917F9105
:1008A0006F915F914F913F912F910F900FBE0F90DD
:1008B0001F901895E5EEF1E01382128288EE93E026
:1008C000A0E0B0E084839583A683B7838CE091E0B9
:1008D00091838083E1EFF1E0138212828EE191E057
:1008E000918380838FE3848380E1818782E08287A4
:1008F00013860895789484B5826084BD84B5816040
:1009000084BD85B5826085BD85B5816085BD8091DA
:100910006E00816080936E00109281008091810052
:10092000826080938100809181008160809381004A
:10093000809180008160809380008091B10084600C
:100940008093B1008091B00081608093B00080916D
:100950007A00846080937A0080917A00826080932C
:100960007A0080917A00816080937A0080917A0089
:10097000806880937A001092C1001092E401109276
:10098000E3011092E2011092E1011092E00181E096
:100990008093DF011092DE0182E10E94820083E1F8
:1009A0000E9482008091B9008E7F8093B90080916F
:1009B000B9008D7F8093B90088E48093B80085E406
:1009C0008093BC001092F6018091FB01823018F0F8
:1009D00098E09093F6018093F90162E370E080E083
:1009E00090E00E9418016091FC0181EF91E00E946B
:1009F000090268EE73E080E090E00E94180160E375
:100A000081EF91E00E946E02CBE4D6E4CE01019723
:100A1000F1F760E381EF91E00E946E022197F1F718
:100A200060E381EF91E00E946E0283E592E001971E
:100A3000F1F760E281EF91E00E946E026091F601B1
:100A4000606240E081EF91E00E94870284E0809341
:100A5000F70140E06CE081EF91E00E94870240E006
:100A600061E081EF91E00E948702CBE3DFE1CE01FC
:100A70000197F1F782E08093F80140E066E081EFB2
:100A800091E00E94870240E062E081EF91E00E94E5
:100A900087022197F1F788E08093FC0160E081EF05
:100AA00091E00E940902C0E0D0E080E00E94A8022C
:100AB00040E150E066E271E081EF91E00E94C80001
:100AC00081E00E94A80240E150E067E371E081EF1D
:100AD00091E00E94C80068EE73E080E090E00E9420
:100AE0001801209711F30E940000DFCFEE0FFF1FC7
:100AF0000590F491E02D099481E090E0F8940C9435
:060B00008105F894FFCF0F
:100B0600000040001400540000000000DA01AA01B1
:100B1600DD028401A2019301850100000000D602D6
:100B2600C800DD02DC024C434431363032206969AC
:100B3600632054657374002020202020202020206C
:080B46006279204C2E4C2E00B8
:00000001FF
